{
	"contracts/adcampaign.sol": {
		"AdCampaign": {
			"abi": [
				{
					"anonymous": false,
					"inputs": [
						{
							"indexed": false,
							"internalType": "uint256",
							"name": "campaignId",
							"type": "uint256"
						}
					],
					"name": "CampaignCanceled",
					"type": "event"
				},
				{
					"anonymous": false,
					"inputs": [
						{
							"indexed": true,
							"internalType": "address",
							"name": "owner",
							"type": "address"
						},
						{
							"indexed": false,
							"internalType": "uint256",
							"name": "campaignId",
							"type": "uint256"
						}
					],
					"name": "CampaignCreated",
					"type": "event"
				},
				{
					"anonymous": false,
					"inputs": [
						{
							"indexed": true,
							"internalType": "address",
							"name": "owner",
							"type": "address"
						},
						{
							"indexed": false,
							"internalType": "uint256",
							"name": "campaignId",
							"type": "uint256"
						}
					],
					"name": "CampaignUpdated",
					"type": "event"
				},
				{
					"anonymous": false,
					"inputs": [
						{
							"indexed": false,
							"internalType": "uint256",
							"name": "campaignId",
							"type": "uint256"
						},
						{
							"indexed": false,
							"internalType": "uint256",
							"name": "creativeLength",
							"type": "uint256"
						}
					],
					"name": "CreativeUploaded",
					"type": "event"
				},
				{
					"inputs": [
						{
							"internalType": "address",
							"name": "owner",
							"type": "address"
						}
					],
					"name": "campaignExistsForOwner",
					"outputs": [
						{
							"internalType": "bool",
							"name": "",
							"type": "bool"
						}
					],
					"stateMutability": "view",
					"type": "function"
				},
				{
					"inputs": [
						{
							"internalType": "address",
							"name": "",
							"type": "address"
						}
					],
					"name": "campaigns",
					"outputs": [
						{
							"internalType": "address",
							"name": "owner",
							"type": "address"
						},
						{
							"internalType": "uint256",
							"name": "campaignId",
							"type": "uint256"
						},
						{
							"internalType": "bool",
							"name": "isActive",
							"type": "bool"
						}
					],
					"stateMutability": "view",
					"type": "function"
				},
				{
					"inputs": [
						{
							"internalType": "uint256",
							"name": "campaignId",
							"type": "uint256"
						}
					],
					"name": "cancelCampaign",
					"outputs": [],
					"stateMutability": "nonpayable",
					"type": "function"
				},
				{
					"inputs": [
						{
							"internalType": "uint256",
							"name": "campaignId",
							"type": "uint256"
						}
					],
					"name": "createCampaign",
					"outputs": [],
					"stateMutability": "nonpayable",
					"type": "function"
				},
				{
					"inputs": [
						{
							"internalType": "address",
							"name": "owner",
							"type": "address"
						}
					],
					"name": "getCampaignDetails",
					"outputs": [
						{
							"internalType": "address",
							"name": "",
							"type": "address"
						},
						{
							"internalType": "uint256",
							"name": "",
							"type": "uint256"
						},
						{
							"internalType": "bool",
							"name": "",
							"type": "bool"
						}
					],
					"stateMutability": "view",
					"type": "function"
				},
				{
					"inputs": [],
					"name": "globalCampaignCounter",
					"outputs": [
						{
							"internalType": "uint256",
							"name": "",
							"type": "uint256"
						}
					],
					"stateMutability": "view",
					"type": "function"
				},
				{
					"inputs": [
						{
							"internalType": "address",
							"name": "newOwner",
							"type": "address"
						},
						{
							"internalType": "uint256",
							"name": "newCampaignId",
							"type": "uint256"
						}
					],
					"name": "updateCampaign",
					"outputs": [],
					"stateMutability": "nonpayable",
					"type": "function"
				},
				{
					"inputs": [
						{
							"internalType": "uint256",
							"name": "campaignId",
							"type": "uint256"
						},
						{
							"internalType": "bytes",
							"name": "creativeData",
							"type": "bytes"
						}
					],
					"name": "uploadCreative",
					"outputs": [],
					"stateMutability": "nonpayable",
					"type": "function"
				}
			],
			"devdoc": {
				"kind": "dev",
				"methods": {},
				"version": 1
			},
			"evm": {
				"assembly": "    /* \"contracts/adcampaign.sol\":57:2900  contract AdCampaign {... */\n  mstore(0x40, 0x80)\n    /* \"contracts/adcampaign.sol\":145:146  0 */\n  0x00\n    /* \"contracts/adcampaign.sol\":106:146  uint256 public globalCampaignCounter = 0 */\n  dup1\n  sstore\n    /* \"contracts/adcampaign.sol\":57:2900  contract AdCampaign {... */\n  callvalue\n  dup1\n  iszero\n  tag_1\n  jumpi\n  0x00\n  dup1\n  revert\ntag_1:\n  pop\n  dataSize(sub_0)\n  dup1\n  dataOffset(sub_0)\n  0x00\n  codecopy\n  0x00\n  return\nstop\n\nsub_0: assembly {\n        /* \"contracts/adcampaign.sol\":57:2900  contract AdCampaign {... */\n      mstore(0x40, 0x80)\n      callvalue\n      dup1\n      iszero\n      tag_1\n      jumpi\n      0x00\n      dup1\n      revert\n    tag_1:\n      pop\n      jumpi(tag_2, lt(calldatasize, 0x04))\n      shr(0xe0, calldataload(0x00))\n      dup1\n      0xa24b5837\n      gt\n      tag_11\n      jumpi\n      dup1\n      0xa24b5837\n      eq\n      tag_7\n      jumpi\n      dup1\n      0xa3303a75\n      eq\n      tag_8\n      jumpi\n      dup1\n      0xe30b464b\n      eq\n      tag_9\n      jumpi\n      dup1\n      0xf5b220e9\n      eq\n      tag_10\n      jumpi\n      jump(tag_2)\n    tag_11:\n      dup1\n      0x1601d0b5\n      eq\n      tag_3\n      jumpi\n      dup1\n      0x3bbec7cd\n      eq\n      tag_4\n      jumpi\n      dup1\n      0x45598b4a\n      eq\n      tag_5\n      jumpi\n      dup1\n      0x9ca65ab8\n      eq\n      tag_6\n      jumpi\n    tag_2:\n      0x00\n      dup1\n      revert\n        /* \"contracts/adcampaign.sol\":256:301  mapping(address => Campaign) public campaigns */\n    tag_3:\n      tag_12\n      0x04\n      dup1\n      calldatasize\n      sub\n      dup2\n      add\n      swap1\n      tag_13\n      swap2\n      swap1\n      tag_14\n      jump\t// in\n    tag_13:\n      tag_15\n      jump\t// in\n    tag_12:\n      mload(0x40)\n      tag_16\n      swap4\n      swap3\n      swap2\n      swap1\n      tag_17\n      jump\t// in\n    tag_16:\n      mload(0x40)\n      dup1\n      swap2\n      sub\n      swap1\n      return\n        /* \"contracts/adcampaign.sol\":1284:1554  function updateCampaign(address newOwner, uint256 newCampaignId) external campaignExists(msg.sender) {... */\n    tag_4:\n      tag_18\n      0x04\n      dup1\n      calldatasize\n      sub\n      dup2\n      add\n      swap1\n      tag_19\n      swap2\n      swap1\n      tag_20\n      jump\t// in\n    tag_19:\n      tag_21\n      jump\t// in\n    tag_18:\n      stop\n        /* \"contracts/adcampaign.sol\":1597:1961  function cancelCampaign(uint256 campaignId) external campaignExists(msg.sender) {... */\n    tag_5:\n      tag_22\n      0x04\n      dup1\n      calldatasize\n      sub\n      dup2\n      add\n      swap1\n      tag_23\n      swap2\n      swap1\n      tag_24\n      jump\t// in\n    tag_23:\n      tag_25\n      jump\t// in\n    tag_22:\n      stop\n        /* \"contracts/adcampaign.sol\":2675:2898  function getCampaignDetails(address owner) external view returns (address, uint256, bool) {... */\n    tag_6:\n      tag_26\n      0x04\n      dup1\n      calldatasize\n      sub\n      dup2\n      add\n      swap1\n      tag_27\n      swap2\n      swap1\n      tag_14\n      jump\t// in\n    tag_27:\n      tag_28\n      jump\t// in\n    tag_26:\n      mload(0x40)\n      tag_29\n      swap4\n      swap3\n      swap2\n      swap1\n      tag_17\n      jump\t// in\n    tag_29:\n      mload(0x40)\n      dup1\n      swap2\n      sub\n      swap1\n      return\n        /* \"contracts/adcampaign.sol\":106:146  uint256 public globalCampaignCounter = 0 */\n    tag_7:\n      tag_30\n      tag_31\n      jump\t// in\n    tag_30:\n      mload(0x40)\n      tag_32\n      swap2\n      swap1\n      tag_33\n      jump\t// in\n    tag_32:\n      mload(0x40)\n      dup1\n      swap2\n      sub\n      swap1\n      return\n        /* \"contracts/adcampaign.sol\":835:1231  function createCampaign(uint256 campaignId) external {... */\n    tag_8:\n      tag_34\n      0x04\n      dup1\n      calldatasize\n      sub\n      dup2\n      add\n      swap1\n      tag_35\n      swap2\n      swap1\n      tag_24\n      jump\t// in\n    tag_35:\n      tag_36\n      jump\t// in\n    tag_34:\n      stop\n        /* \"contracts/adcampaign.sol\":2022:2416  function uploadCreative(uint256 campaignId, bytes calldata creativeData) external campaignExists(msg.sender) {... */\n    tag_9:\n      tag_37\n      0x04\n      dup1\n      calldatasize\n      sub\n      dup2\n      add\n      swap1\n      tag_38\n      swap2\n      swap1\n      tag_39\n      jump\t// in\n    tag_38:\n      tag_40\n      jump\t// in\n    tag_37:\n      stop\n        /* \"contracts/adcampaign.sol\":2486:2611  function campaignExistsForOwner(address owner) external view returns (bool) {... */\n    tag_10:\n      tag_41\n      0x04\n      dup1\n      calldatasize\n      sub\n      dup2\n      add\n      swap1\n      tag_42\n      swap2\n      swap1\n      tag_14\n      jump\t// in\n    tag_42:\n      tag_43\n      jump\t// in\n    tag_41:\n      mload(0x40)\n      tag_44\n      swap2\n      swap1\n      tag_45\n      jump\t// in\n    tag_44:\n      mload(0x40)\n      dup1\n      swap2\n      sub\n      swap1\n      return\n        /* \"contracts/adcampaign.sol\":256:301  mapping(address => Campaign) public campaigns */\n    tag_15:\n      mstore(0x20, 0x01)\n      dup1\n      0x00\n      mstore\n      keccak256(0x00, 0x40)\n      0x00\n      swap2\n      pop\n      swap1\n      pop\n      dup1\n      0x00\n      add\n      0x00\n      swap1\n      sload\n      swap1\n      0x0100\n      exp\n      swap1\n      div\n      0xffffffffffffffffffffffffffffffffffffffff\n      and\n      swap1\n      dup1\n      0x01\n      add\n      sload\n      swap1\n      dup1\n      0x02\n      add\n      0x00\n      swap1\n      sload\n      swap1\n      0x0100\n      exp\n      swap1\n      div\n      0xff\n      and\n      swap1\n      pop\n      dup4\n      jump\t// out\n        /* \"contracts/adcampaign.sol\":1284:1554  function updateCampaign(address newOwner, uint256 newCampaignId) external campaignExists(msg.sender) {... */\n    tag_21:\n        /* \"contracts/adcampaign.sol\":1373:1383  msg.sender */\n      caller\n        /* \"contracts/adcampaign.sol\":702:711  campaigns */\n      0x01\n        /* \"contracts/adcampaign.sol\":702:718  campaigns[owner] */\n      0x00\n        /* \"contracts/adcampaign.sol\":712:717  owner */\n      dup3\n        /* \"contracts/adcampaign.sol\":702:718  campaigns[owner] */\n      0xffffffffffffffffffffffffffffffffffffffff\n      and\n      0xffffffffffffffffffffffffffffffffffffffff\n      and\n      dup2\n      mstore\n      0x20\n      add\n      swap1\n      dup2\n      mstore\n      0x20\n      add\n      0x00\n      keccak256\n        /* \"contracts/adcampaign.sol\":702:727  campaigns[owner].isActive */\n      0x02\n      add\n      0x00\n      swap1\n      sload\n      swap1\n      0x0100\n      exp\n      swap1\n      div\n      0xff\n      and\n        /* \"contracts/adcampaign.sol\":694:770  require(campaigns[owner].isActive, \"Campaign does not exist or is inactive\") */\n      tag_47\n      jumpi\n      mload(0x40)\n      0x08c379a000000000000000000000000000000000000000000000000000000000\n      dup2\n      mstore\n      0x04\n      add\n      tag_48\n      swap1\n      tag_49\n      jump\t// in\n    tag_48:\n      mload(0x40)\n      dup1\n      swap2\n      sub\n      swap1\n      revert\n    tag_47:\n        /* \"contracts/adcampaign.sol\":1425:1433  newOwner */\n      dup3\n        /* \"contracts/adcampaign.sol\":1395:1404  campaigns */\n      0x01\n        /* \"contracts/adcampaign.sol\":1395:1416  campaigns[msg.sender] */\n      0x00\n        /* \"contracts/adcampaign.sol\":1405:1415  msg.sender */\n      caller\n        /* \"contracts/adcampaign.sol\":1395:1416  campaigns[msg.sender] */\n      0xffffffffffffffffffffffffffffffffffffffff\n      and\n      0xffffffffffffffffffffffffffffffffffffffff\n      and\n      dup2\n      mstore\n      0x20\n      add\n      swap1\n      dup2\n      mstore\n      0x20\n      add\n      0x00\n      keccak256\n        /* \"contracts/adcampaign.sol\":1395:1422  campaigns[msg.sender].owner */\n      0x00\n      add\n      0x00\n        /* \"contracts/adcampaign.sol\":1395:1433  campaigns[msg.sender].owner = newOwner */\n      0x0100\n      exp\n      dup2\n      sload\n      dup2\n      0xffffffffffffffffffffffffffffffffffffffff\n      mul\n      not\n      and\n      swap1\n      dup4\n      0xffffffffffffffffffffffffffffffffffffffff\n      and\n      mul\n      or\n      swap1\n      sstore\n      pop\n        /* \"contracts/adcampaign.sol\":1478:1491  newCampaignId */\n      dup2\n        /* \"contracts/adcampaign.sol\":1443:1452  campaigns */\n      0x01\n        /* \"contracts/adcampaign.sol\":1443:1464  campaigns[msg.sender] */\n      0x00\n        /* \"contracts/adcampaign.sol\":1453:1463  msg.sender */\n      caller\n        /* \"contracts/adcampaign.sol\":1443:1464  campaigns[msg.sender] */\n      0xffffffffffffffffffffffffffffffffffffffff\n      and\n      0xffffffffffffffffffffffffffffffffffffffff\n      and\n      dup2\n      mstore\n      0x20\n      add\n      swap1\n      dup2\n      mstore\n      0x20\n      add\n      0x00\n      keccak256\n        /* \"contracts/adcampaign.sol\":1443:1475  campaigns[msg.sender].campaignId */\n      0x01\n      add\n        /* \"contracts/adcampaign.sol\":1443:1491  campaigns[msg.sender].campaignId = newCampaignId */\n      dup2\n      swap1\n      sstore\n      pop\n        /* \"contracts/adcampaign.sol\":1523:1531  newOwner */\n      dup3\n        /* \"contracts/adcampaign.sol\":1507:1547  CampaignUpdated(newOwner, newCampaignId) */\n      0xffffffffffffffffffffffffffffffffffffffff\n      and\n      0x202b4115c5ba9b54466c48846d7a8e005362aaba92ee96583d8046b98027d064\n        /* \"contracts/adcampaign.sol\":1533:1546  newCampaignId */\n      dup4\n        /* \"contracts/adcampaign.sol\":1507:1547  CampaignUpdated(newOwner, newCampaignId) */\n      mload(0x40)\n      tag_51\n      swap2\n      swap1\n      tag_33\n      jump\t// in\n    tag_51:\n      mload(0x40)\n      dup1\n      swap2\n      sub\n      swap1\n      log2\n        /* \"contracts/adcampaign.sol\":1284:1554  function updateCampaign(address newOwner, uint256 newCampaignId) external campaignExists(msg.sender) {... */\n      pop\n      pop\n      pop\n      jump\t// out\n        /* \"contracts/adcampaign.sol\":1597:1961  function cancelCampaign(uint256 campaignId) external campaignExists(msg.sender) {... */\n    tag_25:\n        /* \"contracts/adcampaign.sol\":1665:1675  msg.sender */\n      caller\n        /* \"contracts/adcampaign.sol\":702:711  campaigns */\n      0x01\n        /* \"contracts/adcampaign.sol\":702:718  campaigns[owner] */\n      0x00\n        /* \"contracts/adcampaign.sol\":712:717  owner */\n      dup3\n        /* \"contracts/adcampaign.sol\":702:718  campaigns[owner] */\n      0xffffffffffffffffffffffffffffffffffffffff\n      and\n      0xffffffffffffffffffffffffffffffffffffffff\n      and\n      dup2\n      mstore\n      0x20\n      add\n      swap1\n      dup2\n      mstore\n      0x20\n      add\n      0x00\n      keccak256\n        /* \"contracts/adcampaign.sol\":702:727  campaigns[owner].isActive */\n      0x02\n      add\n      0x00\n      swap1\n      sload\n      swap1\n      0x0100\n      exp\n      swap1\n      div\n      0xff\n      and\n        /* \"contracts/adcampaign.sol\":694:770  require(campaigns[owner].isActive, \"Campaign does not exist or is inactive\") */\n      tag_53\n      jumpi\n      mload(0x40)\n      0x08c379a000000000000000000000000000000000000000000000000000000000\n      dup2\n      mstore\n      0x04\n      add\n      tag_54\n      swap1\n      tag_49\n      jump\t// in\n    tag_54:\n      mload(0x40)\n      dup1\n      swap2\n      sub\n      swap1\n      revert\n    tag_53:\n        /* \"contracts/adcampaign.sol\":1731:1741  campaignId */\n      dup2\n        /* \"contracts/adcampaign.sol\":1695:1704  campaigns */\n      0x01\n        /* \"contracts/adcampaign.sol\":1695:1716  campaigns[msg.sender] */\n      0x00\n        /* \"contracts/adcampaign.sol\":1705:1715  msg.sender */\n      caller\n        /* \"contracts/adcampaign.sol\":1695:1716  campaigns[msg.sender] */\n      0xffffffffffffffffffffffffffffffffffffffff\n      and\n      0xffffffffffffffffffffffffffffffffffffffff\n      and\n      dup2\n      mstore\n      0x20\n      add\n      swap1\n      dup2\n      mstore\n      0x20\n      add\n      0x00\n      keccak256\n        /* \"contracts/adcampaign.sol\":1695:1727  campaigns[msg.sender].campaignId */\n      0x01\n      add\n      sload\n        /* \"contracts/adcampaign.sol\":1695:1741  campaigns[msg.sender].campaignId == campaignId */\n      eq\n        /* \"contracts/adcampaign.sol\":1687:1765  require(campaigns[msg.sender].campaignId == campaignId, \"Invalid campaign ID\") */\n      tag_56\n      jumpi\n      mload(0x40)\n      0x08c379a000000000000000000000000000000000000000000000000000000000\n      dup2\n      mstore\n      0x04\n      add\n      tag_57\n      swap1\n      tag_58\n      jump\t// in\n    tag_57:\n      mload(0x40)\n      dup1\n      swap2\n      sub\n      swap1\n      revert\n    tag_56:\n        /* \"contracts/adcampaign.sol\":1814:1815  0 */\n      0x00\n        /* \"contracts/adcampaign.sol\":1776:1785  campaigns */\n      0x01\n        /* \"contracts/adcampaign.sol\":1776:1797  campaigns[msg.sender] */\n      0x00\n        /* \"contracts/adcampaign.sol\":1786:1796  msg.sender */\n      caller\n        /* \"contracts/adcampaign.sol\":1776:1797  campaigns[msg.sender] */\n      0xffffffffffffffffffffffffffffffffffffffff\n      and\n      0xffffffffffffffffffffffffffffffffffffffff\n      and\n      dup2\n      mstore\n      0x20\n      add\n      swap1\n      dup2\n      mstore\n      0x20\n      add\n      0x00\n      keccak256\n        /* \"contracts/adcampaign.sol\":1776:1803  campaigns[msg.sender].owner */\n      0x00\n      add\n      0x00\n        /* \"contracts/adcampaign.sol\":1776:1816  campaigns[msg.sender].owner = address(0) */\n      0x0100\n      exp\n      dup2\n      sload\n      dup2\n      0xffffffffffffffffffffffffffffffffffffffff\n      mul\n      not\n      and\n      swap1\n      dup4\n      0xffffffffffffffffffffffffffffffffffffffff\n      and\n      mul\n      or\n      swap1\n      sstore\n      pop\n        /* \"contracts/adcampaign.sol\":1861:1862  0 */\n      0x00\n        /* \"contracts/adcampaign.sol\":1826:1835  campaigns */\n      0x01\n        /* \"contracts/adcampaign.sol\":1826:1847  campaigns[msg.sender] */\n      0x00\n        /* \"contracts/adcampaign.sol\":1836:1846  msg.sender */\n      caller\n        /* \"contracts/adcampaign.sol\":1826:1847  campaigns[msg.sender] */\n      0xffffffffffffffffffffffffffffffffffffffff\n      and\n      0xffffffffffffffffffffffffffffffffffffffff\n      and\n      dup2\n      mstore\n      0x20\n      add\n      swap1\n      dup2\n      mstore\n      0x20\n      add\n      0x00\n      keccak256\n        /* \"contracts/adcampaign.sol\":1826:1858  campaigns[msg.sender].campaignId */\n      0x01\n      add\n        /* \"contracts/adcampaign.sol\":1826:1862  campaigns[msg.sender].campaignId = 0 */\n      dup2\n      swap1\n      sstore\n      pop\n        /* \"contracts/adcampaign.sol\":1905:1910  false */\n      0x00\n        /* \"contracts/adcampaign.sol\":1872:1881  campaigns */\n      0x01\n        /* \"contracts/adcampaign.sol\":1872:1893  campaigns[msg.sender] */\n      0x00\n        /* \"contracts/adcampaign.sol\":1882:1892  msg.sender */\n      caller\n        /* \"contracts/adcampaign.sol\":1872:1893  campaigns[msg.sender] */\n      0xffffffffffffffffffffffffffffffffffffffff\n      and\n      0xffffffffffffffffffffffffffffffffffffffff\n      and\n      dup2\n      mstore\n      0x20\n      add\n      swap1\n      dup2\n      mstore\n      0x20\n      add\n      0x00\n      keccak256\n        /* \"contracts/adcampaign.sol\":1872:1902  campaigns[msg.sender].isActive */\n      0x02\n      add\n      0x00\n        /* \"contracts/adcampaign.sol\":1872:1910  campaigns[msg.sender].isActive = false */\n      0x0100\n      exp\n      dup2\n      sload\n      dup2\n      0xff\n      mul\n      not\n      and\n      swap1\n      dup4\n      iszero\n      iszero\n      mul\n      or\n      swap1\n      sstore\n      pop\n        /* \"contracts/adcampaign.sol\":1926:1954  CampaignCanceled(campaignId) */\n      0x1925581c2be6a6ef3cd786635d86c841eb4bbdb051dce32356a44c457d034998\n        /* \"contracts/adcampaign.sol\":1943:1953  campaignId */\n      dup3\n        /* \"contracts/adcampaign.sol\":1926:1954  CampaignCanceled(campaignId) */\n      mload(0x40)\n      tag_59\n      swap2\n      swap1\n      tag_33\n      jump\t// in\n    tag_59:\n      mload(0x40)\n      dup1\n      swap2\n      sub\n      swap1\n      log1\n        /* \"contracts/adcampaign.sol\":1597:1961  function cancelCampaign(uint256 campaignId) external campaignExists(msg.sender) {... */\n      pop\n      pop\n      jump\t// out\n        /* \"contracts/adcampaign.sol\":2675:2898  function getCampaignDetails(address owner) external view returns (address, uint256, bool) {... */\n    tag_28:\n        /* \"contracts/adcampaign.sol\":2741:2748  address */\n      0x00\n        /* \"contracts/adcampaign.sol\":2750:2757  uint256 */\n      dup1\n        /* \"contracts/adcampaign.sol\":2759:2763  bool */\n      0x00\n        /* \"contracts/adcampaign.sol\":2775:2799  Campaign memory campaign */\n      dup1\n        /* \"contracts/adcampaign.sol\":2802:2811  campaigns */\n      0x01\n        /* \"contracts/adcampaign.sol\":2802:2818  campaigns[owner] */\n      0x00\n        /* \"contracts/adcampaign.sol\":2812:2817  owner */\n      dup7\n        /* \"contracts/adcampaign.sol\":2802:2818  campaigns[owner] */\n      0xffffffffffffffffffffffffffffffffffffffff\n      and\n      0xffffffffffffffffffffffffffffffffffffffff\n      and\n      dup2\n      mstore\n      0x20\n      add\n      swap1\n      dup2\n      mstore\n      0x20\n      add\n      0x00\n      keccak256\n        /* \"contracts/adcampaign.sol\":2775:2818  Campaign memory campaign = campaigns[owner] */\n      mload(0x40)\n      dup1\n      0x60\n      add\n      0x40\n      mstore\n      swap1\n      dup2\n      0x00\n      dup3\n      add\n      0x00\n      swap1\n      sload\n      swap1\n      0x0100\n      exp\n      swap1\n      div\n      0xffffffffffffffffffffffffffffffffffffffff\n      and\n      0xffffffffffffffffffffffffffffffffffffffff\n      and\n      0xffffffffffffffffffffffffffffffffffffffff\n      and\n      dup2\n      mstore\n      0x20\n      add\n      0x01\n      dup3\n      add\n      sload\n      dup2\n      mstore\n      0x20\n      add\n      0x02\n      dup3\n      add\n      0x00\n      swap1\n      sload\n      swap1\n      0x0100\n      exp\n      swap1\n      div\n      0xff\n      and\n      iszero\n      iszero\n      iszero\n      iszero\n      dup2\n      mstore\n      pop\n      pop\n      swap1\n      pop\n        /* \"contracts/adcampaign.sol\":2836:2844  campaign */\n      dup1\n        /* \"contracts/adcampaign.sol\":2836:2850  campaign.owner */\n      0x00\n      add\n      mload\n        /* \"contracts/adcampaign.sol\":2852:2860  campaign */\n      dup2\n        /* \"contracts/adcampaign.sol\":2852:2871  campaign.campaignId */\n      0x20\n      add\n      mload\n        /* \"contracts/adcampaign.sol\":2873:2881  campaign */\n      dup3\n        /* \"contracts/adcampaign.sol\":2873:2890  campaign.isActive */\n      0x40\n      add\n      mload\n        /* \"contracts/adcampaign.sol\":2828:2891  return (campaign.owner, campaign.campaignId, campaign.isActive) */\n      swap4\n      pop\n      swap4\n      pop\n      swap4\n      pop\n      pop\n        /* \"contracts/adcampaign.sol\":2675:2898  function getCampaignDetails(address owner) external view returns (address, uint256, bool) {... */\n      swap2\n      swap4\n      swap1\n      swap3\n      pop\n      jump\t// out\n        /* \"contracts/adcampaign.sol\":106:146  uint256 public globalCampaignCounter = 0 */\n    tag_31:\n      sload(0x00)\n      dup2\n      jump\t// out\n        /* \"contracts/adcampaign.sol\":835:1231  function createCampaign(uint256 campaignId) external {... */\n    tag_36:\n        /* \"contracts/adcampaign.sol\":942:943  0 */\n      0x00\n        /* \"contracts/adcampaign.sol\":906:915  campaigns */\n      0x01\n        /* \"contracts/adcampaign.sol\":906:927  campaigns[msg.sender] */\n      0x00\n        /* \"contracts/adcampaign.sol\":916:926  msg.sender */\n      caller\n        /* \"contracts/adcampaign.sol\":906:927  campaigns[msg.sender] */\n      0xffffffffffffffffffffffffffffffffffffffff\n      and\n      0xffffffffffffffffffffffffffffffffffffffff\n      and\n      dup2\n      mstore\n      0x20\n      add\n      swap1\n      dup2\n      mstore\n      0x20\n      add\n      0x00\n      keccak256\n        /* \"contracts/adcampaign.sol\":906:938  campaigns[msg.sender].campaignId */\n      0x01\n      add\n      sload\n        /* \"contracts/adcampaign.sol\":906:943  campaigns[msg.sender].campaignId == 0 */\n      eq\n        /* \"contracts/adcampaign.sol\":898:986  require(campaigns[msg.sender].campaignId == 0, \"Campaign already exists for this owner\") */\n      tag_62\n      jumpi\n      mload(0x40)\n      0x08c379a000000000000000000000000000000000000000000000000000000000\n      dup2\n      mstore\n      0x04\n      add\n      tag_63\n      swap1\n      tag_64\n      jump\t// in\n    tag_63:\n      mload(0x40)\n      dup1\n      swap2\n      sub\n      swap1\n      revert\n    tag_62:\n        /* \"contracts/adcampaign.sol\":997:1018  globalCampaignCounter */\n      0x00\n      dup1\n        /* \"contracts/adcampaign.sol\":997:1020  globalCampaignCounter++ */\n      dup2\n      sload\n      dup1\n      swap3\n      swap2\n      swap1\n      tag_65\n      swap1\n      tag_66\n      jump\t// in\n    tag_65:\n      swap2\n      swap1\n      pop\n      sstore\n      pop\n        /* \"contracts/adcampaign.sol\":1054:1169  Campaign({... */\n      mload(0x40)\n      dup1\n      0x60\n      add\n      0x40\n      mstore\n      dup1\n        /* \"contracts/adcampaign.sol\":1084:1094  msg.sender */\n      caller\n        /* \"contracts/adcampaign.sol\":1054:1169  Campaign({... */\n      0xffffffffffffffffffffffffffffffffffffffff\n      and\n      dup2\n      mstore\n      0x20\n      add\n        /* \"contracts/adcampaign.sol\":1120:1130  campaignId */\n      dup3\n        /* \"contracts/adcampaign.sol\":1054:1169  Campaign({... */\n      dup2\n      mstore\n      0x20\n      add\n        /* \"contracts/adcampaign.sol\":1154:1158  true */\n      0x01\n        /* \"contracts/adcampaign.sol\":1054:1169  Campaign({... */\n      iszero\n      iszero\n      dup2\n      mstore\n      pop\n        /* \"contracts/adcampaign.sol\":1030:1039  campaigns */\n      0x01\n        /* \"contracts/adcampaign.sol\":1030:1051  campaigns[msg.sender] */\n      0x00\n        /* \"contracts/adcampaign.sol\":1040:1050  msg.sender */\n      caller\n        /* \"contracts/adcampaign.sol\":1030:1051  campaigns[msg.sender] */\n      0xffffffffffffffffffffffffffffffffffffffff\n      and\n      0xffffffffffffffffffffffffffffffffffffffff\n      and\n      dup2\n      mstore\n      0x20\n      add\n      swap1\n      dup2\n      mstore\n      0x20\n      add\n      0x00\n      keccak256\n        /* \"contracts/adcampaign.sol\":1030:1169  campaigns[msg.sender] = Campaign({... */\n      0x00\n      dup3\n      add\n      mload\n      dup2\n      0x00\n      add\n      exp(0x0100, 0x00)\n      dup2\n      sload\n      dup2\n      0xffffffffffffffffffffffffffffffffffffffff\n      mul\n      not\n      and\n      swap1\n      dup4\n      0xffffffffffffffffffffffffffffffffffffffff\n      and\n      mul\n      or\n      swap1\n      sstore\n      pop\n      0x20\n      dup3\n      add\n      mload\n      dup2\n      0x01\n      add\n      sstore\n      0x40\n      dup3\n      add\n      mload\n      dup2\n      0x02\n      add\n      exp(0x0100, 0x00)\n      dup2\n      sload\n      dup2\n      0xff\n      mul\n      not\n      and\n      swap1\n      dup4\n      iszero\n      iszero\n      mul\n      or\n      swap1\n      sstore\n      pop\n      swap1\n      pop\n      pop\n        /* \"contracts/adcampaign.sol\":1201:1211  msg.sender */\n      caller\n        /* \"contracts/adcampaign.sol\":1185:1224  CampaignCreated(msg.sender, campaignId) */\n      0xffffffffffffffffffffffffffffffffffffffff\n      and\n      0xfc5b9d1c2c1134048e1792e3ae27d4eee04f460d341711c7088000d2ca218621\n        /* \"contracts/adcampaign.sol\":1213:1223  campaignId */\n      dup3\n        /* \"contracts/adcampaign.sol\":1185:1224  CampaignCreated(msg.sender, campaignId) */\n      mload(0x40)\n      tag_67\n      swap2\n      swap1\n      tag_33\n      jump\t// in\n    tag_67:\n      mload(0x40)\n      dup1\n      swap2\n      sub\n      swap1\n      log2\n        /* \"contracts/adcampaign.sol\":835:1231  function createCampaign(uint256 campaignId) external {... */\n      pop\n      jump\t// out\n        /* \"contracts/adcampaign.sol\":2022:2416  function uploadCreative(uint256 campaignId, bytes calldata creativeData) external campaignExists(msg.sender) {... */\n    tag_40:\n        /* \"contracts/adcampaign.sol\":2119:2129  msg.sender */\n      caller\n        /* \"contracts/adcampaign.sol\":702:711  campaigns */\n      0x01\n        /* \"contracts/adcampaign.sol\":702:718  campaigns[owner] */\n      0x00\n        /* \"contracts/adcampaign.sol\":712:717  owner */\n      dup3\n        /* \"contracts/adcampaign.sol\":702:718  campaigns[owner] */\n      0xffffffffffffffffffffffffffffffffffffffff\n      and\n      0xffffffffffffffffffffffffffffffffffffffff\n      and\n      dup2\n      mstore\n      0x20\n      add\n      swap1\n      dup2\n      mstore\n      0x20\n      add\n      0x00\n      keccak256\n        /* \"contracts/adcampaign.sol\":702:727  campaigns[owner].isActive */\n      0x02\n      add\n      0x00\n      swap1\n      sload\n      swap1\n      0x0100\n      exp\n      swap1\n      div\n      0xff\n      and\n        /* \"contracts/adcampaign.sol\":694:770  require(campaigns[owner].isActive, \"Campaign does not exist or is inactive\") */\n      tag_69\n      jumpi\n      mload(0x40)\n      0x08c379a000000000000000000000000000000000000000000000000000000000\n      dup2\n      mstore\n      0x04\n      add\n      tag_70\n      swap1\n      tag_49\n      jump\t// in\n    tag_70:\n      mload(0x40)\n      dup1\n      swap2\n      sub\n      swap1\n      revert\n    tag_69:\n        /* \"contracts/adcampaign.sol\":2185:2195  campaignId */\n      dup4\n        /* \"contracts/adcampaign.sol\":2149:2158  campaigns */\n      0x01\n        /* \"contracts/adcampaign.sol\":2149:2170  campaigns[msg.sender] */\n      0x00\n        /* \"contracts/adcampaign.sol\":2159:2169  msg.sender */\n      caller\n        /* \"contracts/adcampaign.sol\":2149:2170  campaigns[msg.sender] */\n      0xffffffffffffffffffffffffffffffffffffffff\n      and\n      0xffffffffffffffffffffffffffffffffffffffff\n      and\n      dup2\n      mstore\n      0x20\n      add\n      swap1\n      dup2\n      mstore\n      0x20\n      add\n      0x00\n      keccak256\n        /* \"contracts/adcampaign.sol\":2149:2181  campaigns[msg.sender].campaignId */\n      0x01\n      add\n      sload\n        /* \"contracts/adcampaign.sol\":2149:2195  campaigns[msg.sender].campaignId == campaignId */\n      eq\n        /* \"contracts/adcampaign.sol\":2141:2219  require(campaigns[msg.sender].campaignId == campaignId, \"Invalid campaign ID\") */\n      tag_72\n      jumpi\n      mload(0x40)\n      0x08c379a000000000000000000000000000000000000000000000000000000000\n      dup2\n      mstore\n      0x04\n      add\n      tag_73\n      swap1\n      tag_58\n      jump\t// in\n    tag_73:\n      mload(0x40)\n      dup1\n      swap2\n      sub\n      swap1\n      revert\n    tag_72:\n        /* \"contracts/adcampaign.sol\":2360:2409  CreativeUploaded(campaignId, creativeData.length) */\n      0xcc3724710219174ac0dfa0620eafe82fc1d738c0fc2144221fa40b621f88bb5d\n        /* \"contracts/adcampaign.sol\":2377:2387  campaignId */\n      dup5\n        /* \"contracts/adcampaign.sol\":2389:2401  creativeData */\n      dup5\n      dup5\n        /* \"contracts/adcampaign.sol\":2389:2408  creativeData.length */\n      swap1\n      pop\n        /* \"contracts/adcampaign.sol\":2360:2409  CreativeUploaded(campaignId, creativeData.length) */\n      mload(0x40)\n      tag_74\n      swap3\n      swap2\n      swap1\n      tag_75\n      jump\t// in\n    tag_74:\n      mload(0x40)\n      dup1\n      swap2\n      sub\n      swap1\n      log1\n        /* \"contracts/adcampaign.sol\":2022:2416  function uploadCreative(uint256 campaignId, bytes calldata creativeData) external campaignExists(msg.sender) {... */\n      pop\n      pop\n      pop\n      pop\n      jump\t// out\n        /* \"contracts/adcampaign.sol\":2486:2611  function campaignExistsForOwner(address owner) external view returns (bool) {... */\n    tag_43:\n        /* \"contracts/adcampaign.sol\":2556:2560  bool */\n      0x00\n        /* \"contracts/adcampaign.sol\":2579:2588  campaigns */\n      0x01\n        /* \"contracts/adcampaign.sol\":2579:2595  campaigns[owner] */\n      0x00\n        /* \"contracts/adcampaign.sol\":2589:2594  owner */\n      dup4\n        /* \"contracts/adcampaign.sol\":2579:2595  campaigns[owner] */\n      0xffffffffffffffffffffffffffffffffffffffff\n      and\n      0xffffffffffffffffffffffffffffffffffffffff\n      and\n      dup2\n      mstore\n      0x20\n      add\n      swap1\n      dup2\n      mstore\n      0x20\n      add\n      0x00\n      keccak256\n        /* \"contracts/adcampaign.sol\":2579:2604  campaigns[owner].isActive */\n      0x02\n      add\n      0x00\n      swap1\n      sload\n      swap1\n      0x0100\n      exp\n      swap1\n      div\n      0xff\n      and\n        /* \"contracts/adcampaign.sol\":2572:2604  return campaigns[owner].isActive */\n      swap1\n      pop\n        /* \"contracts/adcampaign.sol\":2486:2611  function campaignExistsForOwner(address owner) external view returns (bool) {... */\n      swap2\n      swap1\n      pop\n      jump\t// out\n        /* \"#utility.yul\":88:205   */\n    tag_78:\n        /* \"#utility.yul\":197:198   */\n      0x00\n        /* \"#utility.yul\":194:195   */\n      dup1\n        /* \"#utility.yul\":187:199   */\n      revert\n        /* \"#utility.yul\":211:328   */\n    tag_79:\n        /* \"#utility.yul\":320:321   */\n      0x00\n        /* \"#utility.yul\":317:318   */\n      dup1\n        /* \"#utility.yul\":310:322   */\n      revert\n        /* \"#utility.yul\":334:460   */\n    tag_80:\n        /* \"#utility.yul\":371:378   */\n      0x00\n        /* \"#utility.yul\":411:453   */\n      0xffffffffffffffffffffffffffffffffffffffff\n        /* \"#utility.yul\":404:409   */\n      dup3\n        /* \"#utility.yul\":400:454   */\n      and\n        /* \"#utility.yul\":389:454   */\n      swap1\n      pop\n        /* \"#utility.yul\":334:460   */\n      swap2\n      swap1\n      pop\n      jump\t// out\n        /* \"#utility.yul\":466:562   */\n    tag_81:\n        /* \"#utility.yul\":503:510   */\n      0x00\n        /* \"#utility.yul\":532:556   */\n      tag_109\n        /* \"#utility.yul\":550:555   */\n      dup3\n        /* \"#utility.yul\":532:556   */\n      tag_80\n      jump\t// in\n    tag_109:\n        /* \"#utility.yul\":521:556   */\n      swap1\n      pop\n        /* \"#utility.yul\":466:562   */\n      swap2\n      swap1\n      pop\n      jump\t// out\n        /* \"#utility.yul\":568:690   */\n    tag_82:\n        /* \"#utility.yul\":641:665   */\n      tag_111\n        /* \"#utility.yul\":659:664   */\n      dup2\n        /* \"#utility.yul\":641:665   */\n      tag_81\n      jump\t// in\n    tag_111:\n        /* \"#utility.yul\":634:639   */\n      dup2\n        /* \"#utility.yul\":631:666   */\n      eq\n        /* \"#utility.yul\":621:684   */\n      tag_112\n      jumpi\n        /* \"#utility.yul\":680:681   */\n      0x00\n        /* \"#utility.yul\":677:678   */\n      dup1\n        /* \"#utility.yul\":670:682   */\n      revert\n        /* \"#utility.yul\":621:684   */\n    tag_112:\n        /* \"#utility.yul\":568:690   */\n      pop\n      jump\t// out\n        /* \"#utility.yul\":696:835   */\n    tag_83:\n        /* \"#utility.yul\":742:747   */\n      0x00\n        /* \"#utility.yul\":780:786   */\n      dup2\n        /* \"#utility.yul\":767:787   */\n      calldataload\n        /* \"#utility.yul\":758:787   */\n      swap1\n      pop\n        /* \"#utility.yul\":796:829   */\n      tag_114\n        /* \"#utility.yul\":823:828   */\n      dup2\n        /* \"#utility.yul\":796:829   */\n      tag_82\n      jump\t// in\n    tag_114:\n        /* \"#utility.yul\":696:835   */\n      swap3\n      swap2\n      pop\n      pop\n      jump\t// out\n        /* \"#utility.yul\":841:1170   */\n    tag_14:\n        /* \"#utility.yul\":900:906   */\n      0x00\n        /* \"#utility.yul\":949:951   */\n      0x20\n        /* \"#utility.yul\":937:946   */\n      dup3\n        /* \"#utility.yul\":928:935   */\n      dup5\n        /* \"#utility.yul\":924:947   */\n      sub\n        /* \"#utility.yul\":920:952   */\n      slt\n        /* \"#utility.yul\":917:1036   */\n      iszero\n      tag_116\n      jumpi\n        /* \"#utility.yul\":955:1034   */\n      tag_117\n      tag_78\n      jump\t// in\n    tag_117:\n        /* \"#utility.yul\":917:1036   */\n    tag_116:\n        /* \"#utility.yul\":1075:1076   */\n      0x00\n        /* \"#utility.yul\":1100:1153   */\n      tag_118\n        /* \"#utility.yul\":1145:1152   */\n      dup5\n        /* \"#utility.yul\":1136:1142   */\n      dup3\n        /* \"#utility.yul\":1125:1134   */\n      dup6\n        /* \"#utility.yul\":1121:1143   */\n      add\n        /* \"#utility.yul\":1100:1153   */\n      tag_83\n      jump\t// in\n    tag_118:\n        /* \"#utility.yul\":1090:1153   */\n      swap2\n      pop\n        /* \"#utility.yul\":1046:1163   */\n      pop\n        /* \"#utility.yul\":841:1170   */\n      swap3\n      swap2\n      pop\n      pop\n      jump\t// out\n        /* \"#utility.yul\":1176:1294   */\n    tag_84:\n        /* \"#utility.yul\":1263:1287   */\n      tag_120\n        /* \"#utility.yul\":1281:1286   */\n      dup2\n        /* \"#utility.yul\":1263:1287   */\n      tag_81\n      jump\t// in\n    tag_120:\n        /* \"#utility.yul\":1258:1261   */\n      dup3\n        /* \"#utility.yul\":1251:1288   */\n      mstore\n        /* \"#utility.yul\":1176:1294   */\n      pop\n      pop\n      jump\t// out\n        /* \"#utility.yul\":1300:1377   */\n    tag_85:\n        /* \"#utility.yul\":1337:1344   */\n      0x00\n        /* \"#utility.yul\":1366:1371   */\n      dup2\n        /* \"#utility.yul\":1355:1371   */\n      swap1\n      pop\n        /* \"#utility.yul\":1300:1377   */\n      swap2\n      swap1\n      pop\n      jump\t// out\n        /* \"#utility.yul\":1383:1501   */\n    tag_86:\n        /* \"#utility.yul\":1470:1494   */\n      tag_123\n        /* \"#utility.yul\":1488:1493   */\n      dup2\n        /* \"#utility.yul\":1470:1494   */\n      tag_85\n      jump\t// in\n    tag_123:\n        /* \"#utility.yul\":1465:1468   */\n      dup3\n        /* \"#utility.yul\":1458:1495   */\n      mstore\n        /* \"#utility.yul\":1383:1501   */\n      pop\n      pop\n      jump\t// out\n        /* \"#utility.yul\":1507:1597   */\n    tag_87:\n        /* \"#utility.yul\":1541:1548   */\n      0x00\n        /* \"#utility.yul\":1584:1589   */\n      dup2\n        /* \"#utility.yul\":1577:1590   */\n      iszero\n        /* \"#utility.yul\":1570:1591   */\n      iszero\n        /* \"#utility.yul\":1559:1591   */\n      swap1\n      pop\n        /* \"#utility.yul\":1507:1597   */\n      swap2\n      swap1\n      pop\n      jump\t// out\n        /* \"#utility.yul\":1603:1712   */\n    tag_88:\n        /* \"#utility.yul\":1684:1705   */\n      tag_126\n        /* \"#utility.yul\":1699:1704   */\n      dup2\n        /* \"#utility.yul\":1684:1705   */\n      tag_87\n      jump\t// in\n    tag_126:\n        /* \"#utility.yul\":1679:1682   */\n      dup3\n        /* \"#utility.yul\":1672:1706   */\n      mstore\n        /* \"#utility.yul\":1603:1712   */\n      pop\n      pop\n      jump\t// out\n        /* \"#utility.yul\":1718:2148   */\n    tag_17:\n        /* \"#utility.yul\":1861:1865   */\n      0x00\n        /* \"#utility.yul\":1899:1901   */\n      0x60\n        /* \"#utility.yul\":1888:1897   */\n      dup3\n        /* \"#utility.yul\":1884:1902   */\n      add\n        /* \"#utility.yul\":1876:1902   */\n      swap1\n      pop\n        /* \"#utility.yul\":1912:1983   */\n      tag_128\n        /* \"#utility.yul\":1980:1981   */\n      0x00\n        /* \"#utility.yul\":1969:1978   */\n      dup4\n        /* \"#utility.yul\":1965:1982   */\n      add\n        /* \"#utility.yul\":1956:1962   */\n      dup7\n        /* \"#utility.yul\":1912:1983   */\n      tag_84\n      jump\t// in\n    tag_128:\n        /* \"#utility.yul\":1993:2065   */\n      tag_129\n        /* \"#utility.yul\":2061:2063   */\n      0x20\n        /* \"#utility.yul\":2050:2059   */\n      dup4\n        /* \"#utility.yul\":2046:2064   */\n      add\n        /* \"#utility.yul\":2037:2043   */\n      dup6\n        /* \"#utility.yul\":1993:2065   */\n      tag_86\n      jump\t// in\n    tag_129:\n        /* \"#utility.yul\":2075:2141   */\n      tag_130\n        /* \"#utility.yul\":2137:2139   */\n      0x40\n        /* \"#utility.yul\":2126:2135   */\n      dup4\n        /* \"#utility.yul\":2122:2140   */\n      add\n        /* \"#utility.yul\":2113:2119   */\n      dup5\n        /* \"#utility.yul\":2075:2141   */\n      tag_88\n      jump\t// in\n    tag_130:\n        /* \"#utility.yul\":1718:2148   */\n      swap5\n      swap4\n      pop\n      pop\n      pop\n      pop\n      jump\t// out\n        /* \"#utility.yul\":2154:2276   */\n    tag_89:\n        /* \"#utility.yul\":2227:2251   */\n      tag_132\n        /* \"#utility.yul\":2245:2250   */\n      dup2\n        /* \"#utility.yul\":2227:2251   */\n      tag_85\n      jump\t// in\n    tag_132:\n        /* \"#utility.yul\":2220:2225   */\n      dup2\n        /* \"#utility.yul\":2217:2252   */\n      eq\n        /* \"#utility.yul\":2207:2270   */\n      tag_133\n      jumpi\n        /* \"#utility.yul\":2266:2267   */\n      0x00\n        /* \"#utility.yul\":2263:2264   */\n      dup1\n        /* \"#utility.yul\":2256:2268   */\n      revert\n        /* \"#utility.yul\":2207:2270   */\n    tag_133:\n        /* \"#utility.yul\":2154:2276   */\n      pop\n      jump\t// out\n        /* \"#utility.yul\":2282:2421   */\n    tag_90:\n        /* \"#utility.yul\":2328:2333   */\n      0x00\n        /* \"#utility.yul\":2366:2372   */\n      dup2\n        /* \"#utility.yul\":2353:2373   */\n      calldataload\n        /* \"#utility.yul\":2344:2373   */\n      swap1\n      pop\n        /* \"#utility.yul\":2382:2415   */\n      tag_135\n        /* \"#utility.yul\":2409:2414   */\n      dup2\n        /* \"#utility.yul\":2382:2415   */\n      tag_89\n      jump\t// in\n    tag_135:\n        /* \"#utility.yul\":2282:2421   */\n      swap3\n      swap2\n      pop\n      pop\n      jump\t// out\n        /* \"#utility.yul\":2427:2901   */\n    tag_20:\n        /* \"#utility.yul\":2495:2501   */\n      0x00\n        /* \"#utility.yul\":2503:2509   */\n      dup1\n        /* \"#utility.yul\":2552:2554   */\n      0x40\n        /* \"#utility.yul\":2540:2549   */\n      dup4\n        /* \"#utility.yul\":2531:2538   */\n      dup6\n        /* \"#utility.yul\":2527:2550   */\n      sub\n        /* \"#utility.yul\":2523:2555   */\n      slt\n        /* \"#utility.yul\":2520:2639   */\n      iszero\n      tag_137\n      jumpi\n        /* \"#utility.yul\":2558:2637   */\n      tag_138\n      tag_78\n      jump\t// in\n    tag_138:\n        /* \"#utility.yul\":2520:2639   */\n    tag_137:\n        /* \"#utility.yul\":2678:2679   */\n      0x00\n        /* \"#utility.yul\":2703:2756   */\n      tag_139\n        /* \"#utility.yul\":2748:2755   */\n      dup6\n        /* \"#utility.yul\":2739:2745   */\n      dup3\n        /* \"#utility.yul\":2728:2737   */\n      dup7\n        /* \"#utility.yul\":2724:2746   */\n      add\n        /* \"#utility.yul\":2703:2756   */\n      tag_83\n      jump\t// in\n    tag_139:\n        /* \"#utility.yul\":2693:2756   */\n      swap3\n      pop\n        /* \"#utility.yul\":2649:2766   */\n      pop\n        /* \"#utility.yul\":2805:2807   */\n      0x20\n        /* \"#utility.yul\":2831:2884   */\n      tag_140\n        /* \"#utility.yul\":2876:2883   */\n      dup6\n        /* \"#utility.yul\":2867:2873   */\n      dup3\n        /* \"#utility.yul\":2856:2865   */\n      dup7\n        /* \"#utility.yul\":2852:2874   */\n      add\n        /* \"#utility.yul\":2831:2884   */\n      tag_90\n      jump\t// in\n    tag_140:\n        /* \"#utility.yul\":2821:2884   */\n      swap2\n      pop\n        /* \"#utility.yul\":2776:2894   */\n      pop\n        /* \"#utility.yul\":2427:2901   */\n      swap3\n      pop\n      swap3\n      swap1\n      pop\n      jump\t// out\n        /* \"#utility.yul\":2907:3236   */\n    tag_24:\n        /* \"#utility.yul\":2966:2972   */\n      0x00\n        /* \"#utility.yul\":3015:3017   */\n      0x20\n        /* \"#utility.yul\":3003:3012   */\n      dup3\n        /* \"#utility.yul\":2994:3001   */\n      dup5\n        /* \"#utility.yul\":2990:3013   */\n      sub\n        /* \"#utility.yul\":2986:3018   */\n      slt\n        /* \"#utility.yul\":2983:3102   */\n      iszero\n      tag_142\n      jumpi\n        /* \"#utility.yul\":3021:3100   */\n      tag_143\n      tag_78\n      jump\t// in\n    tag_143:\n        /* \"#utility.yul\":2983:3102   */\n    tag_142:\n        /* \"#utility.yul\":3141:3142   */\n      0x00\n        /* \"#utility.yul\":3166:3219   */\n      tag_144\n        /* \"#utility.yul\":3211:3218   */\n      dup5\n        /* \"#utility.yul\":3202:3208   */\n      dup3\n        /* \"#utility.yul\":3191:3200   */\n      dup6\n        /* \"#utility.yul\":3187:3209   */\n      add\n        /* \"#utility.yul\":3166:3219   */\n      tag_90\n      jump\t// in\n    tag_144:\n        /* \"#utility.yul\":3156:3219   */\n      swap2\n      pop\n        /* \"#utility.yul\":3112:3229   */\n      pop\n        /* \"#utility.yul\":2907:3236   */\n      swap3\n      swap2\n      pop\n      pop\n      jump\t// out\n        /* \"#utility.yul\":3242:3464   */\n    tag_33:\n        /* \"#utility.yul\":3335:3339   */\n      0x00\n        /* \"#utility.yul\":3373:3375   */\n      0x20\n        /* \"#utility.yul\":3362:3371   */\n      dup3\n        /* \"#utility.yul\":3358:3376   */\n      add\n        /* \"#utility.yul\":3350:3376   */\n      swap1\n      pop\n        /* \"#utility.yul\":3386:3457   */\n      tag_146\n        /* \"#utility.yul\":3454:3455   */\n      0x00\n        /* \"#utility.yul\":3443:3452   */\n      dup4\n        /* \"#utility.yul\":3439:3456   */\n      add\n        /* \"#utility.yul\":3430:3436   */\n      dup5\n        /* \"#utility.yul\":3386:3457   */\n      tag_86\n      jump\t// in\n    tag_146:\n        /* \"#utility.yul\":3242:3464   */\n      swap3\n      swap2\n      pop\n      pop\n      jump\t// out\n        /* \"#utility.yul\":3470:3587   */\n    tag_91:\n        /* \"#utility.yul\":3579:3580   */\n      0x00\n        /* \"#utility.yul\":3576:3577   */\n      dup1\n        /* \"#utility.yul\":3569:3581   */\n      revert\n        /* \"#utility.yul\":3593:3710   */\n    tag_92:\n        /* \"#utility.yul\":3702:3703   */\n      0x00\n        /* \"#utility.yul\":3699:3700   */\n      dup1\n        /* \"#utility.yul\":3692:3704   */\n      revert\n        /* \"#utility.yul\":3716:3833   */\n    tag_93:\n        /* \"#utility.yul\":3825:3826   */\n      0x00\n        /* \"#utility.yul\":3822:3823   */\n      dup1\n        /* \"#utility.yul\":3815:3827   */\n      revert\n        /* \"#utility.yul\":3852:4404   */\n    tag_94:\n        /* \"#utility.yul\":3909:3917   */\n      0x00\n        /* \"#utility.yul\":3919:3925   */\n      dup1\n        /* \"#utility.yul\":3969:3972   */\n      dup4\n        /* \"#utility.yul\":3962:3966   */\n      0x1f\n        /* \"#utility.yul\":3954:3960   */\n      dup5\n        /* \"#utility.yul\":3950:3967   */\n      add\n        /* \"#utility.yul\":3946:3973   */\n      slt\n        /* \"#utility.yul\":3936:4058   */\n      tag_151\n      jumpi\n        /* \"#utility.yul\":3977:4056   */\n      tag_152\n      tag_91\n      jump\t// in\n    tag_152:\n        /* \"#utility.yul\":3936:4058   */\n    tag_151:\n        /* \"#utility.yul\":4090:4096   */\n      dup3\n        /* \"#utility.yul\":4077:4097   */\n      calldataload\n        /* \"#utility.yul\":4067:4097   */\n      swap1\n      pop\n        /* \"#utility.yul\":4120:4138   */\n      0xffffffffffffffff\n        /* \"#utility.yul\":4112:4118   */\n      dup2\n        /* \"#utility.yul\":4109:4139   */\n      gt\n        /* \"#utility.yul\":4106:4223   */\n      iszero\n      tag_153\n      jumpi\n        /* \"#utility.yul\":4142:4221   */\n      tag_154\n      tag_92\n      jump\t// in\n    tag_154:\n        /* \"#utility.yul\":4106:4223   */\n    tag_153:\n        /* \"#utility.yul\":4256:4260   */\n      0x20\n        /* \"#utility.yul\":4248:4254   */\n      dup4\n        /* \"#utility.yul\":4244:4261   */\n      add\n        /* \"#utility.yul\":4232:4261   */\n      swap2\n      pop\n        /* \"#utility.yul\":4310:4313   */\n      dup4\n        /* \"#utility.yul\":4302:4306   */\n      0x01\n        /* \"#utility.yul\":4294:4300   */\n      dup3\n        /* \"#utility.yul\":4290:4307   */\n      mul\n        /* \"#utility.yul\":4280:4288   */\n      dup4\n        /* \"#utility.yul\":4276:4308   */\n      add\n        /* \"#utility.yul\":4273:4314   */\n      gt\n        /* \"#utility.yul\":4270:4398   */\n      iszero\n      tag_155\n      jumpi\n        /* \"#utility.yul\":4317:4396   */\n      tag_156\n      tag_93\n      jump\t// in\n    tag_156:\n        /* \"#utility.yul\":4270:4398   */\n    tag_155:\n        /* \"#utility.yul\":3852:4404   */\n      swap3\n      pop\n      swap3\n      swap1\n      pop\n      jump\t// out\n        /* \"#utility.yul\":4410:5082   */\n    tag_39:\n        /* \"#utility.yul\":4489:4495   */\n      0x00\n        /* \"#utility.yul\":4497:4503   */\n      dup1\n        /* \"#utility.yul\":4505:4511   */\n      0x00\n        /* \"#utility.yul\":4554:4556   */\n      0x40\n        /* \"#utility.yul\":4542:4551   */\n      dup5\n        /* \"#utility.yul\":4533:4540   */\n      dup7\n        /* \"#utility.yul\":4529:4552   */\n      sub\n        /* \"#utility.yul\":4525:4557   */\n      slt\n        /* \"#utility.yul\":4522:4641   */\n      iszero\n      tag_158\n      jumpi\n        /* \"#utility.yul\":4560:4639   */\n      tag_159\n      tag_78\n      jump\t// in\n    tag_159:\n        /* \"#utility.yul\":4522:4641   */\n    tag_158:\n        /* \"#utility.yul\":4680:4681   */\n      0x00\n        /* \"#utility.yul\":4705:4758   */\n      tag_160\n        /* \"#utility.yul\":4750:4757   */\n      dup7\n        /* \"#utility.yul\":4741:4747   */\n      dup3\n        /* \"#utility.yul\":4730:4739   */\n      dup8\n        /* \"#utility.yul\":4726:4748   */\n      add\n        /* \"#utility.yul\":4705:4758   */\n      tag_90\n      jump\t// in\n    tag_160:\n        /* \"#utility.yul\":4695:4758   */\n      swap4\n      pop\n        /* \"#utility.yul\":4651:4768   */\n      pop\n        /* \"#utility.yul\":4835:4837   */\n      0x20\n        /* \"#utility.yul\":4824:4833   */\n      dup5\n        /* \"#utility.yul\":4820:4838   */\n      add\n        /* \"#utility.yul\":4807:4839   */\n      calldataload\n        /* \"#utility.yul\":4866:4884   */\n      0xffffffffffffffff\n        /* \"#utility.yul\":4858:4864   */\n      dup2\n        /* \"#utility.yul\":4855:4885   */\n      gt\n        /* \"#utility.yul\":4852:4969   */\n      iszero\n      tag_161\n      jumpi\n        /* \"#utility.yul\":4888:4967   */\n      tag_162\n      tag_79\n      jump\t// in\n    tag_162:\n        /* \"#utility.yul\":4852:4969   */\n    tag_161:\n        /* \"#utility.yul\":5001:5065   */\n      tag_163\n        /* \"#utility.yul\":5057:5064   */\n      dup7\n        /* \"#utility.yul\":5048:5054   */\n      dup3\n        /* \"#utility.yul\":5037:5046   */\n      dup8\n        /* \"#utility.yul\":5033:5055   */\n      add\n        /* \"#utility.yul\":5001:5065   */\n      tag_94\n      jump\t// in\n    tag_163:\n        /* \"#utility.yul\":4983:5065   */\n      swap3\n      pop\n      swap3\n      pop\n        /* \"#utility.yul\":4778:5075   */\n      pop\n        /* \"#utility.yul\":4410:5082   */\n      swap3\n      pop\n      swap3\n      pop\n      swap3\n      jump\t// out\n        /* \"#utility.yul\":5088:5298   */\n    tag_45:\n        /* \"#utility.yul\":5175:5179   */\n      0x00\n        /* \"#utility.yul\":5213:5215   */\n      0x20\n        /* \"#utility.yul\":5202:5211   */\n      dup3\n        /* \"#utility.yul\":5198:5216   */\n      add\n        /* \"#utility.yul\":5190:5216   */\n      swap1\n      pop\n        /* \"#utility.yul\":5226:5291   */\n      tag_165\n        /* \"#utility.yul\":5288:5289   */\n      0x00\n        /* \"#utility.yul\":5277:5286   */\n      dup4\n        /* \"#utility.yul\":5273:5290   */\n      add\n        /* \"#utility.yul\":5264:5270   */\n      dup5\n        /* \"#utility.yul\":5226:5291   */\n      tag_88\n      jump\t// in\n    tag_165:\n        /* \"#utility.yul\":5088:5298   */\n      swap3\n      swap2\n      pop\n      pop\n      jump\t// out\n        /* \"#utility.yul\":5304:5473   */\n    tag_95:\n        /* \"#utility.yul\":5388:5399   */\n      0x00\n        /* \"#utility.yul\":5422:5428   */\n      dup3\n        /* \"#utility.yul\":5417:5420   */\n      dup3\n        /* \"#utility.yul\":5410:5429   */\n      mstore\n        /* \"#utility.yul\":5462:5466   */\n      0x20\n        /* \"#utility.yul\":5457:5460   */\n      dup3\n        /* \"#utility.yul\":5453:5467   */\n      add\n        /* \"#utility.yul\":5438:5467   */\n      swap1\n      pop\n        /* \"#utility.yul\":5304:5473   */\n      swap3\n      swap2\n      pop\n      pop\n      jump\t// out\n        /* \"#utility.yul\":5479:5704   */\n    tag_96:\n        /* \"#utility.yul\":5619:5653   */\n      0x43616d706169676e20646f6573206e6f74206578697374206f7220697320696e\n        /* \"#utility.yul\":5615:5616   */\n      0x00\n        /* \"#utility.yul\":5607:5613   */\n      dup3\n        /* \"#utility.yul\":5603:5617   */\n      add\n        /* \"#utility.yul\":5596:5654   */\n      mstore\n        /* \"#utility.yul\":5688:5696   */\n      0x6163746976650000000000000000000000000000000000000000000000000000\n        /* \"#utility.yul\":5683:5685   */\n      0x20\n        /* \"#utility.yul\":5675:5681   */\n      dup3\n        /* \"#utility.yul\":5671:5686   */\n      add\n        /* \"#utility.yul\":5664:5697   */\n      mstore\n        /* \"#utility.yul\":5479:5704   */\n      pop\n      jump\t// out\n        /* \"#utility.yul\":5710:6076   */\n    tag_97:\n        /* \"#utility.yul\":5852:5855   */\n      0x00\n        /* \"#utility.yul\":5873:5940   */\n      tag_169\n        /* \"#utility.yul\":5937:5939   */\n      0x26\n        /* \"#utility.yul\":5932:5935   */\n      dup4\n        /* \"#utility.yul\":5873:5940   */\n      tag_95\n      jump\t// in\n    tag_169:\n        /* \"#utility.yul\":5866:5940   */\n      swap2\n      pop\n        /* \"#utility.yul\":5949:6042   */\n      tag_170\n        /* \"#utility.yul\":6038:6041   */\n      dup3\n        /* \"#utility.yul\":5949:6042   */\n      tag_96\n      jump\t// in\n    tag_170:\n        /* \"#utility.yul\":6067:6069   */\n      0x40\n        /* \"#utility.yul\":6062:6065   */\n      dup3\n        /* \"#utility.yul\":6058:6070   */\n      add\n        /* \"#utility.yul\":6051:6070   */\n      swap1\n      pop\n        /* \"#utility.yul\":5710:6076   */\n      swap2\n      swap1\n      pop\n      jump\t// out\n        /* \"#utility.yul\":6082:6501   */\n    tag_49:\n        /* \"#utility.yul\":6248:6252   */\n      0x00\n        /* \"#utility.yul\":6286:6288   */\n      0x20\n        /* \"#utility.yul\":6275:6284   */\n      dup3\n        /* \"#utility.yul\":6271:6289   */\n      add\n        /* \"#utility.yul\":6263:6289   */\n      swap1\n      pop\n        /* \"#utility.yul\":6335:6344   */\n      dup2\n        /* \"#utility.yul\":6329:6333   */\n      dup2\n        /* \"#utility.yul\":6325:6345   */\n      sub\n        /* \"#utility.yul\":6321:6322   */\n      0x00\n        /* \"#utility.yul\":6310:6319   */\n      dup4\n        /* \"#utility.yul\":6306:6323   */\n      add\n        /* \"#utility.yul\":6299:6346   */\n      mstore\n        /* \"#utility.yul\":6363:6494   */\n      tag_172\n        /* \"#utility.yul\":6489:6493   */\n      dup2\n        /* \"#utility.yul\":6363:6494   */\n      tag_97\n      jump\t// in\n    tag_172:\n        /* \"#utility.yul\":6355:6494   */\n      swap1\n      pop\n        /* \"#utility.yul\":6082:6501   */\n      swap2\n      swap1\n      pop\n      jump\t// out\n        /* \"#utility.yul\":6507:6676   */\n    tag_98:\n        /* \"#utility.yul\":6647:6668   */\n      0x496e76616c69642063616d706169676e20494400000000000000000000000000\n        /* \"#utility.yul\":6643:6644   */\n      0x00\n        /* \"#utility.yul\":6635:6641   */\n      dup3\n        /* \"#utility.yul\":6631:6645   */\n      add\n        /* \"#utility.yul\":6624:6669   */\n      mstore\n        /* \"#utility.yul\":6507:6676   */\n      pop\n      jump\t// out\n        /* \"#utility.yul\":6682:7048   */\n    tag_99:\n        /* \"#utility.yul\":6824:6827   */\n      0x00\n        /* \"#utility.yul\":6845:6912   */\n      tag_175\n        /* \"#utility.yul\":6909:6911   */\n      0x13\n        /* \"#utility.yul\":6904:6907   */\n      dup4\n        /* \"#utility.yul\":6845:6912   */\n      tag_95\n      jump\t// in\n    tag_175:\n        /* \"#utility.yul\":6838:6912   */\n      swap2\n      pop\n        /* \"#utility.yul\":6921:7014   */\n      tag_176\n        /* \"#utility.yul\":7010:7013   */\n      dup3\n        /* \"#utility.yul\":6921:7014   */\n      tag_98\n      jump\t// in\n    tag_176:\n        /* \"#utility.yul\":7039:7041   */\n      0x20\n        /* \"#utility.yul\":7034:7037   */\n      dup3\n        /* \"#utility.yul\":7030:7042   */\n      add\n        /* \"#utility.yul\":7023:7042   */\n      swap1\n      pop\n        /* \"#utility.yul\":6682:7048   */\n      swap2\n      swap1\n      pop\n      jump\t// out\n        /* \"#utility.yul\":7054:7473   */\n    tag_58:\n        /* \"#utility.yul\":7220:7224   */\n      0x00\n        /* \"#utility.yul\":7258:7260   */\n      0x20\n        /* \"#utility.yul\":7247:7256   */\n      dup3\n        /* \"#utility.yul\":7243:7261   */\n      add\n        /* \"#utility.yul\":7235:7261   */\n      swap1\n      pop\n        /* \"#utility.yul\":7307:7316   */\n      dup2\n        /* \"#utility.yul\":7301:7305   */\n      dup2\n        /* \"#utility.yul\":7297:7317   */\n      sub\n        /* \"#utility.yul\":7293:7294   */\n      0x00\n        /* \"#utility.yul\":7282:7291   */\n      dup4\n        /* \"#utility.yul\":7278:7295   */\n      add\n        /* \"#utility.yul\":7271:7318   */\n      mstore\n        /* \"#utility.yul\":7335:7466   */\n      tag_178\n        /* \"#utility.yul\":7461:7465   */\n      dup2\n        /* \"#utility.yul\":7335:7466   */\n      tag_99\n      jump\t// in\n    tag_178:\n        /* \"#utility.yul\":7327:7466   */\n      swap1\n      pop\n        /* \"#utility.yul\":7054:7473   */\n      swap2\n      swap1\n      pop\n      jump\t// out\n        /* \"#utility.yul\":7479:7704   */\n    tag_100:\n        /* \"#utility.yul\":7619:7653   */\n      0x43616d706169676e20616c72656164792065786973747320666f722074686973\n        /* \"#utility.yul\":7615:7616   */\n      0x00\n        /* \"#utility.yul\":7607:7613   */\n      dup3\n        /* \"#utility.yul\":7603:7617   */\n      add\n        /* \"#utility.yul\":7596:7654   */\n      mstore\n        /* \"#utility.yul\":7688:7696   */\n      0x206f776e65720000000000000000000000000000000000000000000000000000\n        /* \"#utility.yul\":7683:7685   */\n      0x20\n        /* \"#utility.yul\":7675:7681   */\n      dup3\n        /* \"#utility.yul\":7671:7686   */\n      add\n        /* \"#utility.yul\":7664:7697   */\n      mstore\n        /* \"#utility.yul\":7479:7704   */\n      pop\n      jump\t// out\n        /* \"#utility.yul\":7710:8076   */\n    tag_101:\n        /* \"#utility.yul\":7852:7855   */\n      0x00\n        /* \"#utility.yul\":7873:7940   */\n      tag_181\n        /* \"#utility.yul\":7937:7939   */\n      0x26\n        /* \"#utility.yul\":7932:7935   */\n      dup4\n        /* \"#utility.yul\":7873:7940   */\n      tag_95\n      jump\t// in\n    tag_181:\n        /* \"#utility.yul\":7866:7940   */\n      swap2\n      pop\n        /* \"#utility.yul\":7949:8042   */\n      tag_182\n        /* \"#utility.yul\":8038:8041   */\n      dup3\n        /* \"#utility.yul\":7949:8042   */\n      tag_100\n      jump\t// in\n    tag_182:\n        /* \"#utility.yul\":8067:8069   */\n      0x40\n        /* \"#utility.yul\":8062:8065   */\n      dup3\n        /* \"#utility.yul\":8058:8070   */\n      add\n        /* \"#utility.yul\":8051:8070   */\n      swap1\n      pop\n        /* \"#utility.yul\":7710:8076   */\n      swap2\n      swap1\n      pop\n      jump\t// out\n        /* \"#utility.yul\":8082:8501   */\n    tag_64:\n        /* \"#utility.yul\":8248:8252   */\n      0x00\n        /* \"#utility.yul\":8286:8288   */\n      0x20\n        /* \"#utility.yul\":8275:8284   */\n      dup3\n        /* \"#utility.yul\":8271:8289   */\n      add\n        /* \"#utility.yul\":8263:8289   */\n      swap1\n      pop\n        /* \"#utility.yul\":8335:8344   */\n      dup2\n        /* \"#utility.yul\":8329:8333   */\n      dup2\n        /* \"#utility.yul\":8325:8345   */\n      sub\n        /* \"#utility.yul\":8321:8322   */\n      0x00\n        /* \"#utility.yul\":8310:8319   */\n      dup4\n        /* \"#utility.yul\":8306:8323   */\n      add\n        /* \"#utility.yul\":8299:8346   */\n      mstore\n        /* \"#utility.yul\":8363:8494   */\n      tag_184\n        /* \"#utility.yul\":8489:8493   */\n      dup2\n        /* \"#utility.yul\":8363:8494   */\n      tag_101\n      jump\t// in\n    tag_184:\n        /* \"#utility.yul\":8355:8494   */\n      swap1\n      pop\n        /* \"#utility.yul\":8082:8501   */\n      swap2\n      swap1\n      pop\n      jump\t// out\n        /* \"#utility.yul\":8507:8687   */\n    tag_102:\n        /* \"#utility.yul\":8555:8632   */\n      0x4e487b7100000000000000000000000000000000000000000000000000000000\n        /* \"#utility.yul\":8552:8553   */\n      0x00\n        /* \"#utility.yul\":8545:8633   */\n      mstore\n        /* \"#utility.yul\":8652:8656   */\n      0x11\n        /* \"#utility.yul\":8649:8650   */\n      0x04\n        /* \"#utility.yul\":8642:8657   */\n      mstore\n        /* \"#utility.yul\":8676:8680   */\n      0x24\n        /* \"#utility.yul\":8673:8674   */\n      0x00\n        /* \"#utility.yul\":8666:8681   */\n      revert\n        /* \"#utility.yul\":8693:8926   */\n    tag_66:\n        /* \"#utility.yul\":8732:8735   */\n      0x00\n        /* \"#utility.yul\":8755:8779   */\n      tag_187\n        /* \"#utility.yul\":8773:8778   */\n      dup3\n        /* \"#utility.yul\":8755:8779   */\n      tag_85\n      jump\t// in\n    tag_187:\n        /* \"#utility.yul\":8746:8779   */\n      swap2\n      pop\n        /* \"#utility.yul\":8801:8867   */\n      0xffffffffffffffffffffffffffffffffffffffffffffffffffffffffffffffff\n        /* \"#utility.yul\":8794:8799   */\n      dup3\n        /* \"#utility.yul\":8791:8868   */\n      sub\n        /* \"#utility.yul\":8788:8891   */\n      tag_188\n      jumpi\n        /* \"#utility.yul\":8871:8889   */\n      tag_189\n      tag_102\n      jump\t// in\n    tag_189:\n        /* \"#utility.yul\":8788:8891   */\n    tag_188:\n        /* \"#utility.yul\":8918:8919   */\n      0x01\n        /* \"#utility.yul\":8911:8916   */\n      dup3\n        /* \"#utility.yul\":8907:8920   */\n      add\n        /* \"#utility.yul\":8900:8920   */\n      swap1\n      pop\n        /* \"#utility.yul\":8693:8926   */\n      swap2\n      swap1\n      pop\n      jump\t// out\n        /* \"#utility.yul\":8932:9264   */\n    tag_75:\n        /* \"#utility.yul\":9053:9057   */\n      0x00\n        /* \"#utility.yul\":9091:9093   */\n      0x40\n        /* \"#utility.yul\":9080:9089   */\n      dup3\n        /* \"#utility.yul\":9076:9094   */\n      add\n        /* \"#utility.yul\":9068:9094   */\n      swap1\n      pop\n        /* \"#utility.yul\":9104:9175   */\n      tag_191\n        /* \"#utility.yul\":9172:9173   */\n      0x00\n        /* \"#utility.yul\":9161:9170   */\n      dup4\n        /* \"#utility.yul\":9157:9174   */\n      add\n        /* \"#utility.yul\":9148:9154   */\n      dup6\n        /* \"#utility.yul\":9104:9175   */\n      tag_86\n      jump\t// in\n    tag_191:\n        /* \"#utility.yul\":9185:9257   */\n      tag_192\n        /* \"#utility.yul\":9253:9255   */\n      0x20\n        /* \"#utility.yul\":9242:9251   */\n      dup4\n        /* \"#utility.yul\":9238:9256   */\n      add\n        /* \"#utility.yul\":9229:9235   */\n      dup5\n        /* \"#utility.yul\":9185:9257   */\n      tag_86\n      jump\t// in\n    tag_192:\n        /* \"#utility.yul\":8932:9264   */\n      swap4\n      swap3\n      pop\n      pop\n      pop\n      jump\t// out\n\n    auxdata: 0xa2646970667358221220d02ed8e74ee8a7aa8535c31f6a7ad6c880f167950f8dab9f8c502f63a75f872064736f6c634300081a0033\n}\n",
				"bytecode": {
					"linkReferences": {},
					"object": "60806040525f80553480156011575f80fd5b50610f448061001f5f395ff3fe608060405234801561000f575f80fd5b5060043610610086575f3560e01c8063a24b583711610059578063a24b583714610126578063a3303a7514610144578063e30b464b14610160578063f5b220e91461017c57610086565b80631601d0b51461008a5780633bbec7cd146100bc57806345598b4a146100d85780639ca65ab8146100f4575b5f80fd5b6100a4600480360381019061009f9190610abb565b6101ac565b6040516100b393929190610b27565b60405180910390f35b6100d660048036038101906100d19190610b86565b6101fd565b005b6100f260048036038101906100ed9190610bc4565b61039f565b005b61010e60048036038101906101099190610abb565b610602565b60405161011d93929190610b27565b60405180910390f35b61012e6106e4565b60405161013b9190610bef565b60405180910390f35b61015e60048036038101906101599190610bc4565b6106e9565b005b61017a60048036038101906101759190610c69565b6108b3565b005b61019660048036038101906101919190610abb565b610a04565b6040516101a39190610cc6565b60405180910390f35b6001602052805f5260405f205f91509050805f015f9054906101000a900473ffffffffffffffffffffffffffffffffffffffff1690806001015490806002015f9054906101000a900460ff16905083565b3360015f8273ffffffffffffffffffffffffffffffffffffffff1673ffffffffffffffffffffffffffffffffffffffff1681526020019081526020015f206002015f9054906101000a900460ff1661028a576040517f08c379a000000000000000000000000000000000000000000000000000000000815260040161028190610d5f565b60405180910390fd5b8260015f3373ffffffffffffffffffffffffffffffffffffffff1673ffffffffffffffffffffffffffffffffffffffff1681526020019081526020015f205f015f6101000a81548173ffffffffffffffffffffffffffffffffffffffff021916908373ffffffffffffffffffffffffffffffffffffffff1602179055508160015f3373ffffffffffffffffffffffffffffffffffffffff1673ffffffffffffffffffffffffffffffffffffffff1681526020019081526020015f20600101819055508273ffffffffffffffffffffffffffffffffffffffff167f202b4115c5ba9b54466c48846d7a8e005362aaba92ee96583d8046b98027d064836040516103929190610bef565b60405180910390a2505050565b3360015f8273ffffffffffffffffffffffffffffffffffffffff1673ffffffffffffffffffffffffffffffffffffffff1681526020019081526020015f206002015f9054906101000a900460ff1661042c576040517f08c379a000000000000000000000000000000000000000000000000000000000815260040161042390610d5f565b60405180910390fd5b8160015f3373ffffffffffffffffffffffffffffffffffffffff1673ffffffffffffffffffffffffffffffffffffffff1681526020019081526020015f2060010154146104ae576040517f08c379a00000000000000000000000000000000000000000000000000000000081526004016104a590610dc7565b60405180910390fd5b5f60015f3373ffffffffffffffffffffffffffffffffffffffff1673ffffffffffffffffffffffffffffffffffffffff1681526020019081526020015f205f015f6101000a81548173ffffffffffffffffffffffffffffffffffffffff021916908373ffffffffffffffffffffffffffffffffffffffff1602179055505f60015f3373ffffffffffffffffffffffffffffffffffffffff1673ffffffffffffffffffffffffffffffffffffffff1681526020019081526020015f20600101819055505f60015f3373ffffffffffffffffffffffffffffffffffffffff1673ffffffffffffffffffffffffffffffffffffffff1681526020019081526020015f206002015f6101000a81548160ff0219169083151502179055507f1925581c2be6a6ef3cd786635d86c841eb4bbdb051dce32356a44c457d034998826040516105f69190610bef565b60405180910390a15050565b5f805f8060015f8673ffffffffffffffffffffffffffffffffffffffff1673ffffffffffffffffffffffffffffffffffffffff1681526020019081526020015f206040518060600160405290815f82015f9054906101000a900473ffffffffffffffffffffffffffffffffffffffff1673ffffffffffffffffffffffffffffffffffffffff1673ffffffffffffffffffffffffffffffffffffffff16815260200160018201548152602001600282015f9054906101000a900460ff1615151515815250509050805f015181602001518260400151935093509350509193909250565b5f5481565b5f60015f3373ffffffffffffffffffffffffffffffffffffffff1673ffffffffffffffffffffffffffffffffffffffff1681526020019081526020015f20600101541461076b576040517f08c379a000000000000000000000000000000000000000000000000000000000815260040161076290610e55565b60405180910390fd5b5f8081548092919061077c90610ea0565b919050555060405180606001604052803373ffffffffffffffffffffffffffffffffffffffff1681526020018281526020016001151581525060015f3373ffffffffffffffffffffffffffffffffffffffff1673ffffffffffffffffffffffffffffffffffffffff1681526020019081526020015f205f820151815f015f6101000a81548173ffffffffffffffffffffffffffffffffffffffff021916908373ffffffffffffffffffffffffffffffffffffffff160217905550602082015181600101556040820151816002015f6101000a81548160ff0219169083151502179055509050503373ffffffffffffffffffffffffffffffffffffffff167ffc5b9d1c2c1134048e1792e3ae27d4eee04f460d341711c7088000d2ca218621826040516108a89190610bef565b60405180910390a250565b3360015f8273ffffffffffffffffffffffffffffffffffffffff1673ffffffffffffffffffffffffffffffffffffffff1681526020019081526020015f206002015f9054906101000a900460ff16610940576040517f08c379a000000000000000000000000000000000000000000000000000000000815260040161093790610d5f565b60405180910390fd5b8360015f3373ffffffffffffffffffffffffffffffffffffffff1673ffffffffffffffffffffffffffffffffffffffff1681526020019081526020015f2060010154146109c2576040517f08c379a00000000000000000000000000000000000000000000000000000000081526004016109b990610dc7565b60405180910390fd5b7fcc3724710219174ac0dfa0620eafe82fc1d738c0fc2144221fa40b621f88bb5d84848490506040516109f6929190610ee7565b60405180910390a150505050565b5f60015f8373ffffffffffffffffffffffffffffffffffffffff1673ffffffffffffffffffffffffffffffffffffffff1681526020019081526020015f206002015f9054906101000a900460ff169050919050565b5f80fd5b5f80fd5b5f73ffffffffffffffffffffffffffffffffffffffff82169050919050565b5f610a8a82610a61565b9050919050565b610a9a81610a80565b8114610aa4575f80fd5b50565b5f81359050610ab581610a91565b92915050565b5f60208284031215610ad057610acf610a59565b5b5f610add84828501610aa7565b91505092915050565b610aef81610a80565b82525050565b5f819050919050565b610b0781610af5565b82525050565b5f8115159050919050565b610b2181610b0d565b82525050565b5f606082019050610b3a5f830186610ae6565b610b476020830185610afe565b610b546040830184610b18565b949350505050565b610b6581610af5565b8114610b6f575f80fd5b50565b5f81359050610b8081610b5c565b92915050565b5f8060408385031215610b9c57610b9b610a59565b5b5f610ba985828601610aa7565b9250506020610bba85828601610b72565b9150509250929050565b5f60208284031215610bd957610bd8610a59565b5b5f610be684828501610b72565b91505092915050565b5f602082019050610c025f830184610afe565b92915050565b5f80fd5b5f80fd5b5f80fd5b5f8083601f840112610c2957610c28610c08565b5b8235905067ffffffffffffffff811115610c4657610c45610c0c565b5b602083019150836001820283011115610c6257610c61610c10565b5b9250929050565b5f805f60408486031215610c8057610c7f610a59565b5b5f610c8d86828701610b72565b935050602084013567ffffffffffffffff811115610cae57610cad610a5d565b5b610cba86828701610c14565b92509250509250925092565b5f602082019050610cd95f830184610b18565b92915050565b5f82825260208201905092915050565b7f43616d706169676e20646f6573206e6f74206578697374206f7220697320696e5f8201527f6163746976650000000000000000000000000000000000000000000000000000602082015250565b5f610d49602683610cdf565b9150610d5482610cef565b604082019050919050565b5f6020820190508181035f830152610d7681610d3d565b9050919050565b7f496e76616c69642063616d706169676e204944000000000000000000000000005f82015250565b5f610db1601383610cdf565b9150610dbc82610d7d565b602082019050919050565b5f6020820190508181035f830152610dde81610da5565b9050919050565b7f43616d706169676e20616c72656164792065786973747320666f7220746869735f8201527f206f776e65720000000000000000000000000000000000000000000000000000602082015250565b5f610e3f602683610cdf565b9150610e4a82610de5565b604082019050919050565b5f6020820190508181035f830152610e6c81610e33565b9050919050565b7f4e487b71000000000000000000000000000000000000000000000000000000005f52601160045260245ffd5b5f610eaa82610af5565b91507fffffffffffffffffffffffffffffffffffffffffffffffffffffffffffffffff8203610edc57610edb610e73565b5b600182019050919050565b5f604082019050610efa5f830185610afe565b610f076020830184610afe565b939250505056fea2646970667358221220d02ed8e74ee8a7aa8535c31f6a7ad6c880f167950f8dab9f8c502f63a75f872064736f6c634300081a0033",
					"opcodes": "PUSH1 0x80 PUSH1 0x40 MSTORE PUSH0 DUP1 SSTORE CALLVALUE DUP1 ISZERO PUSH1 0x11 JUMPI PUSH0 DUP1 REVERT JUMPDEST POP PUSH2 0xF44 DUP1 PUSH2 0x1F PUSH0 CODECOPY PUSH0 RETURN INVALID PUSH1 0x80 PUSH1 0x40 MSTORE CALLVALUE DUP1 ISZERO PUSH2 0xF JUMPI PUSH0 DUP1 REVERT JUMPDEST POP PUSH1 0x4 CALLDATASIZE LT PUSH2 0x86 JUMPI PUSH0 CALLDATALOAD PUSH1 0xE0 SHR DUP1 PUSH4 0xA24B5837 GT PUSH2 0x59 JUMPI DUP1 PUSH4 0xA24B5837 EQ PUSH2 0x126 JUMPI DUP1 PUSH4 0xA3303A75 EQ PUSH2 0x144 JUMPI DUP1 PUSH4 0xE30B464B EQ PUSH2 0x160 JUMPI DUP1 PUSH4 0xF5B220E9 EQ PUSH2 0x17C JUMPI PUSH2 0x86 JUMP JUMPDEST DUP1 PUSH4 0x1601D0B5 EQ PUSH2 0x8A JUMPI DUP1 PUSH4 0x3BBEC7CD EQ PUSH2 0xBC JUMPI DUP1 PUSH4 0x45598B4A EQ PUSH2 0xD8 JUMPI DUP1 PUSH4 0x9CA65AB8 EQ PUSH2 0xF4 JUMPI JUMPDEST PUSH0 DUP1 REVERT JUMPDEST PUSH2 0xA4 PUSH1 0x4 DUP1 CALLDATASIZE SUB DUP2 ADD SWAP1 PUSH2 0x9F SWAP2 SWAP1 PUSH2 0xABB JUMP JUMPDEST PUSH2 0x1AC JUMP JUMPDEST PUSH1 0x40 MLOAD PUSH2 0xB3 SWAP4 SWAP3 SWAP2 SWAP1 PUSH2 0xB27 JUMP JUMPDEST PUSH1 0x40 MLOAD DUP1 SWAP2 SUB SWAP1 RETURN JUMPDEST PUSH2 0xD6 PUSH1 0x4 DUP1 CALLDATASIZE SUB DUP2 ADD SWAP1 PUSH2 0xD1 SWAP2 SWAP1 PUSH2 0xB86 JUMP JUMPDEST PUSH2 0x1FD JUMP JUMPDEST STOP JUMPDEST PUSH2 0xF2 PUSH1 0x4 DUP1 CALLDATASIZE SUB DUP2 ADD SWAP1 PUSH2 0xED SWAP2 SWAP1 PUSH2 0xBC4 JUMP JUMPDEST PUSH2 0x39F JUMP JUMPDEST STOP JUMPDEST PUSH2 0x10E PUSH1 0x4 DUP1 CALLDATASIZE SUB DUP2 ADD SWAP1 PUSH2 0x109 SWAP2 SWAP1 PUSH2 0xABB JUMP JUMPDEST PUSH2 0x602 JUMP JUMPDEST PUSH1 0x40 MLOAD PUSH2 0x11D SWAP4 SWAP3 SWAP2 SWAP1 PUSH2 0xB27 JUMP JUMPDEST PUSH1 0x40 MLOAD DUP1 SWAP2 SUB SWAP1 RETURN JUMPDEST PUSH2 0x12E PUSH2 0x6E4 JUMP JUMPDEST PUSH1 0x40 MLOAD PUSH2 0x13B SWAP2 SWAP1 PUSH2 0xBEF JUMP JUMPDEST PUSH1 0x40 MLOAD DUP1 SWAP2 SUB SWAP1 RETURN JUMPDEST PUSH2 0x15E PUSH1 0x4 DUP1 CALLDATASIZE SUB DUP2 ADD SWAP1 PUSH2 0x159 SWAP2 SWAP1 PUSH2 0xBC4 JUMP JUMPDEST PUSH2 0x6E9 JUMP JUMPDEST STOP JUMPDEST PUSH2 0x17A PUSH1 0x4 DUP1 CALLDATASIZE SUB DUP2 ADD SWAP1 PUSH2 0x175 SWAP2 SWAP1 PUSH2 0xC69 JUMP JUMPDEST PUSH2 0x8B3 JUMP JUMPDEST STOP JUMPDEST PUSH2 0x196 PUSH1 0x4 DUP1 CALLDATASIZE SUB DUP2 ADD SWAP1 PUSH2 0x191 SWAP2 SWAP1 PUSH2 0xABB JUMP JUMPDEST PUSH2 0xA04 JUMP JUMPDEST PUSH1 0x40 MLOAD PUSH2 0x1A3 SWAP2 SWAP1 PUSH2 0xCC6 JUMP JUMPDEST PUSH1 0x40 MLOAD DUP1 SWAP2 SUB SWAP1 RETURN JUMPDEST PUSH1 0x1 PUSH1 0x20 MSTORE DUP1 PUSH0 MSTORE PUSH1 0x40 PUSH0 KECCAK256 PUSH0 SWAP2 POP SWAP1 POP DUP1 PUSH0 ADD PUSH0 SWAP1 SLOAD SWAP1 PUSH2 0x100 EXP SWAP1 DIV PUSH20 0xFFFFFFFFFFFFFFFFFFFFFFFFFFFFFFFFFFFFFFFF AND SWAP1 DUP1 PUSH1 0x1 ADD SLOAD SWAP1 DUP1 PUSH1 0x2 ADD PUSH0 SWAP1 SLOAD SWAP1 PUSH2 0x100 EXP SWAP1 DIV PUSH1 0xFF AND SWAP1 POP DUP4 JUMP JUMPDEST CALLER PUSH1 0x1 PUSH0 DUP3 PUSH20 0xFFFFFFFFFFFFFFFFFFFFFFFFFFFFFFFFFFFFFFFF AND PUSH20 0xFFFFFFFFFFFFFFFFFFFFFFFFFFFFFFFFFFFFFFFF AND DUP2 MSTORE PUSH1 0x20 ADD SWAP1 DUP2 MSTORE PUSH1 0x20 ADD PUSH0 KECCAK256 PUSH1 0x2 ADD PUSH0 SWAP1 SLOAD SWAP1 PUSH2 0x100 EXP SWAP1 DIV PUSH1 0xFF AND PUSH2 0x28A JUMPI PUSH1 0x40 MLOAD PUSH32 0x8C379A000000000000000000000000000000000000000000000000000000000 DUP2 MSTORE PUSH1 0x4 ADD PUSH2 0x281 SWAP1 PUSH2 0xD5F JUMP JUMPDEST PUSH1 0x40 MLOAD DUP1 SWAP2 SUB SWAP1 REVERT JUMPDEST DUP3 PUSH1 0x1 PUSH0 CALLER PUSH20 0xFFFFFFFFFFFFFFFFFFFFFFFFFFFFFFFFFFFFFFFF AND PUSH20 0xFFFFFFFFFFFFFFFFFFFFFFFFFFFFFFFFFFFFFFFF AND DUP2 MSTORE PUSH1 0x20 ADD SWAP1 DUP2 MSTORE PUSH1 0x20 ADD PUSH0 KECCAK256 PUSH0 ADD PUSH0 PUSH2 0x100 EXP DUP2 SLOAD DUP2 PUSH20 0xFFFFFFFFFFFFFFFFFFFFFFFFFFFFFFFFFFFFFFFF MUL NOT AND SWAP1 DUP4 PUSH20 0xFFFFFFFFFFFFFFFFFFFFFFFFFFFFFFFFFFFFFFFF AND MUL OR SWAP1 SSTORE POP DUP2 PUSH1 0x1 PUSH0 CALLER PUSH20 0xFFFFFFFFFFFFFFFFFFFFFFFFFFFFFFFFFFFFFFFF AND PUSH20 0xFFFFFFFFFFFFFFFFFFFFFFFFFFFFFFFFFFFFFFFF AND DUP2 MSTORE PUSH1 0x20 ADD SWAP1 DUP2 MSTORE PUSH1 0x20 ADD PUSH0 KECCAK256 PUSH1 0x1 ADD DUP2 SWAP1 SSTORE POP DUP3 PUSH20 0xFFFFFFFFFFFFFFFFFFFFFFFFFFFFFFFFFFFFFFFF AND PUSH32 0x202B4115C5BA9B54466C48846D7A8E005362AABA92EE96583D8046B98027D064 DUP4 PUSH1 0x40 MLOAD PUSH2 0x392 SWAP2 SWAP1 PUSH2 0xBEF JUMP JUMPDEST PUSH1 0x40 MLOAD DUP1 SWAP2 SUB SWAP1 LOG2 POP POP POP JUMP JUMPDEST CALLER PUSH1 0x1 PUSH0 DUP3 PUSH20 0xFFFFFFFFFFFFFFFFFFFFFFFFFFFFFFFFFFFFFFFF AND PUSH20 0xFFFFFFFFFFFFFFFFFFFFFFFFFFFFFFFFFFFFFFFF AND DUP2 MSTORE PUSH1 0x20 ADD SWAP1 DUP2 MSTORE PUSH1 0x20 ADD PUSH0 KECCAK256 PUSH1 0x2 ADD PUSH0 SWAP1 SLOAD SWAP1 PUSH2 0x100 EXP SWAP1 DIV PUSH1 0xFF AND PUSH2 0x42C JUMPI PUSH1 0x40 MLOAD PUSH32 0x8C379A000000000000000000000000000000000000000000000000000000000 DUP2 MSTORE PUSH1 0x4 ADD PUSH2 0x423 SWAP1 PUSH2 0xD5F JUMP JUMPDEST PUSH1 0x40 MLOAD DUP1 SWAP2 SUB SWAP1 REVERT JUMPDEST DUP2 PUSH1 0x1 PUSH0 CALLER PUSH20 0xFFFFFFFFFFFFFFFFFFFFFFFFFFFFFFFFFFFFFFFF AND PUSH20 0xFFFFFFFFFFFFFFFFFFFFFFFFFFFFFFFFFFFFFFFF AND DUP2 MSTORE PUSH1 0x20 ADD SWAP1 DUP2 MSTORE PUSH1 0x20 ADD PUSH0 KECCAK256 PUSH1 0x1 ADD SLOAD EQ PUSH2 0x4AE JUMPI PUSH1 0x40 MLOAD PUSH32 0x8C379A000000000000000000000000000000000000000000000000000000000 DUP2 MSTORE PUSH1 0x4 ADD PUSH2 0x4A5 SWAP1 PUSH2 0xDC7 JUMP JUMPDEST PUSH1 0x40 MLOAD DUP1 SWAP2 SUB SWAP1 REVERT JUMPDEST PUSH0 PUSH1 0x1 PUSH0 CALLER PUSH20 0xFFFFFFFFFFFFFFFFFFFFFFFFFFFFFFFFFFFFFFFF AND PUSH20 0xFFFFFFFFFFFFFFFFFFFFFFFFFFFFFFFFFFFFFFFF AND DUP2 MSTORE PUSH1 0x20 ADD SWAP1 DUP2 MSTORE PUSH1 0x20 ADD PUSH0 KECCAK256 PUSH0 ADD PUSH0 PUSH2 0x100 EXP DUP2 SLOAD DUP2 PUSH20 0xFFFFFFFFFFFFFFFFFFFFFFFFFFFFFFFFFFFFFFFF MUL NOT AND SWAP1 DUP4 PUSH20 0xFFFFFFFFFFFFFFFFFFFFFFFFFFFFFFFFFFFFFFFF AND MUL OR SWAP1 SSTORE POP PUSH0 PUSH1 0x1 PUSH0 CALLER PUSH20 0xFFFFFFFFFFFFFFFFFFFFFFFFFFFFFFFFFFFFFFFF AND PUSH20 0xFFFFFFFFFFFFFFFFFFFFFFFFFFFFFFFFFFFFFFFF AND DUP2 MSTORE PUSH1 0x20 ADD SWAP1 DUP2 MSTORE PUSH1 0x20 ADD PUSH0 KECCAK256 PUSH1 0x1 ADD DUP2 SWAP1 SSTORE POP PUSH0 PUSH1 0x1 PUSH0 CALLER PUSH20 0xFFFFFFFFFFFFFFFFFFFFFFFFFFFFFFFFFFFFFFFF AND PUSH20 0xFFFFFFFFFFFFFFFFFFFFFFFFFFFFFFFFFFFFFFFF AND DUP2 MSTORE PUSH1 0x20 ADD SWAP1 DUP2 MSTORE PUSH1 0x20 ADD PUSH0 KECCAK256 PUSH1 0x2 ADD PUSH0 PUSH2 0x100 EXP DUP2 SLOAD DUP2 PUSH1 0xFF MUL NOT AND SWAP1 DUP4 ISZERO ISZERO MUL OR SWAP1 SSTORE POP PUSH32 0x1925581C2BE6A6EF3CD786635D86C841EB4BBDB051DCE32356A44C457D034998 DUP3 PUSH1 0x40 MLOAD PUSH2 0x5F6 SWAP2 SWAP1 PUSH2 0xBEF JUMP JUMPDEST PUSH1 0x40 MLOAD DUP1 SWAP2 SUB SWAP1 LOG1 POP POP JUMP JUMPDEST PUSH0 DUP1 PUSH0 DUP1 PUSH1 0x1 PUSH0 DUP7 PUSH20 0xFFFFFFFFFFFFFFFFFFFFFFFFFFFFFFFFFFFFFFFF AND PUSH20 0xFFFFFFFFFFFFFFFFFFFFFFFFFFFFFFFFFFFFFFFF AND DUP2 MSTORE PUSH1 0x20 ADD SWAP1 DUP2 MSTORE PUSH1 0x20 ADD PUSH0 KECCAK256 PUSH1 0x40 MLOAD DUP1 PUSH1 0x60 ADD PUSH1 0x40 MSTORE SWAP1 DUP2 PUSH0 DUP3 ADD PUSH0 SWAP1 SLOAD SWAP1 PUSH2 0x100 EXP SWAP1 DIV PUSH20 0xFFFFFFFFFFFFFFFFFFFFFFFFFFFFFFFFFFFFFFFF AND PUSH20 0xFFFFFFFFFFFFFFFFFFFFFFFFFFFFFFFFFFFFFFFF AND PUSH20 0xFFFFFFFFFFFFFFFFFFFFFFFFFFFFFFFFFFFFFFFF AND DUP2 MSTORE PUSH1 0x20 ADD PUSH1 0x1 DUP3 ADD SLOAD DUP2 MSTORE PUSH1 0x20 ADD PUSH1 0x2 DUP3 ADD PUSH0 SWAP1 SLOAD SWAP1 PUSH2 0x100 EXP SWAP1 DIV PUSH1 0xFF AND ISZERO ISZERO ISZERO ISZERO DUP2 MSTORE POP POP SWAP1 POP DUP1 PUSH0 ADD MLOAD DUP2 PUSH1 0x20 ADD MLOAD DUP3 PUSH1 0x40 ADD MLOAD SWAP4 POP SWAP4 POP SWAP4 POP POP SWAP2 SWAP4 SWAP1 SWAP3 POP JUMP JUMPDEST PUSH0 SLOAD DUP2 JUMP JUMPDEST PUSH0 PUSH1 0x1 PUSH0 CALLER PUSH20 0xFFFFFFFFFFFFFFFFFFFFFFFFFFFFFFFFFFFFFFFF AND PUSH20 0xFFFFFFFFFFFFFFFFFFFFFFFFFFFFFFFFFFFFFFFF AND DUP2 MSTORE PUSH1 0x20 ADD SWAP1 DUP2 MSTORE PUSH1 0x20 ADD PUSH0 KECCAK256 PUSH1 0x1 ADD SLOAD EQ PUSH2 0x76B JUMPI PUSH1 0x40 MLOAD PUSH32 0x8C379A000000000000000000000000000000000000000000000000000000000 DUP2 MSTORE PUSH1 0x4 ADD PUSH2 0x762 SWAP1 PUSH2 0xE55 JUMP JUMPDEST PUSH1 0x40 MLOAD DUP1 SWAP2 SUB SWAP1 REVERT JUMPDEST PUSH0 DUP1 DUP2 SLOAD DUP1 SWAP3 SWAP2 SWAP1 PUSH2 0x77C SWAP1 PUSH2 0xEA0 JUMP JUMPDEST SWAP2 SWAP1 POP SSTORE POP PUSH1 0x40 MLOAD DUP1 PUSH1 0x60 ADD PUSH1 0x40 MSTORE DUP1 CALLER PUSH20 0xFFFFFFFFFFFFFFFFFFFFFFFFFFFFFFFFFFFFFFFF AND DUP2 MSTORE PUSH1 0x20 ADD DUP3 DUP2 MSTORE PUSH1 0x20 ADD PUSH1 0x1 ISZERO ISZERO DUP2 MSTORE POP PUSH1 0x1 PUSH0 CALLER PUSH20 0xFFFFFFFFFFFFFFFFFFFFFFFFFFFFFFFFFFFFFFFF AND PUSH20 0xFFFFFFFFFFFFFFFFFFFFFFFFFFFFFFFFFFFFFFFF AND DUP2 MSTORE PUSH1 0x20 ADD SWAP1 DUP2 MSTORE PUSH1 0x20 ADD PUSH0 KECCAK256 PUSH0 DUP3 ADD MLOAD DUP2 PUSH0 ADD PUSH0 PUSH2 0x100 EXP DUP2 SLOAD DUP2 PUSH20 0xFFFFFFFFFFFFFFFFFFFFFFFFFFFFFFFFFFFFFFFF MUL NOT AND SWAP1 DUP4 PUSH20 0xFFFFFFFFFFFFFFFFFFFFFFFFFFFFFFFFFFFFFFFF AND MUL OR SWAP1 SSTORE POP PUSH1 0x20 DUP3 ADD MLOAD DUP2 PUSH1 0x1 ADD SSTORE PUSH1 0x40 DUP3 ADD MLOAD DUP2 PUSH1 0x2 ADD PUSH0 PUSH2 0x100 EXP DUP2 SLOAD DUP2 PUSH1 0xFF MUL NOT AND SWAP1 DUP4 ISZERO ISZERO MUL OR SWAP1 SSTORE POP SWAP1 POP POP CALLER PUSH20 0xFFFFFFFFFFFFFFFFFFFFFFFFFFFFFFFFFFFFFFFF AND PUSH32 0xFC5B9D1C2C1134048E1792E3AE27D4EEE04F460D341711C7088000D2CA218621 DUP3 PUSH1 0x40 MLOAD PUSH2 0x8A8 SWAP2 SWAP1 PUSH2 0xBEF JUMP JUMPDEST PUSH1 0x40 MLOAD DUP1 SWAP2 SUB SWAP1 LOG2 POP JUMP JUMPDEST CALLER PUSH1 0x1 PUSH0 DUP3 PUSH20 0xFFFFFFFFFFFFFFFFFFFFFFFFFFFFFFFFFFFFFFFF AND PUSH20 0xFFFFFFFFFFFFFFFFFFFFFFFFFFFFFFFFFFFFFFFF AND DUP2 MSTORE PUSH1 0x20 ADD SWAP1 DUP2 MSTORE PUSH1 0x20 ADD PUSH0 KECCAK256 PUSH1 0x2 ADD PUSH0 SWAP1 SLOAD SWAP1 PUSH2 0x100 EXP SWAP1 DIV PUSH1 0xFF AND PUSH2 0x940 JUMPI PUSH1 0x40 MLOAD PUSH32 0x8C379A000000000000000000000000000000000000000000000000000000000 DUP2 MSTORE PUSH1 0x4 ADD PUSH2 0x937 SWAP1 PUSH2 0xD5F JUMP JUMPDEST PUSH1 0x40 MLOAD DUP1 SWAP2 SUB SWAP1 REVERT JUMPDEST DUP4 PUSH1 0x1 PUSH0 CALLER PUSH20 0xFFFFFFFFFFFFFFFFFFFFFFFFFFFFFFFFFFFFFFFF AND PUSH20 0xFFFFFFFFFFFFFFFFFFFFFFFFFFFFFFFFFFFFFFFF AND DUP2 MSTORE PUSH1 0x20 ADD SWAP1 DUP2 MSTORE PUSH1 0x20 ADD PUSH0 KECCAK256 PUSH1 0x1 ADD SLOAD EQ PUSH2 0x9C2 JUMPI PUSH1 0x40 MLOAD PUSH32 0x8C379A000000000000000000000000000000000000000000000000000000000 DUP2 MSTORE PUSH1 0x4 ADD PUSH2 0x9B9 SWAP1 PUSH2 0xDC7 JUMP JUMPDEST PUSH1 0x40 MLOAD DUP1 SWAP2 SUB SWAP1 REVERT JUMPDEST PUSH32 0xCC3724710219174AC0DFA0620EAFE82FC1D738C0FC2144221FA40B621F88BB5D DUP5 DUP5 DUP5 SWAP1 POP PUSH1 0x40 MLOAD PUSH2 0x9F6 SWAP3 SWAP2 SWAP1 PUSH2 0xEE7 JUMP JUMPDEST PUSH1 0x40 MLOAD DUP1 SWAP2 SUB SWAP1 LOG1 POP POP POP POP JUMP JUMPDEST PUSH0 PUSH1 0x1 PUSH0 DUP4 PUSH20 0xFFFFFFFFFFFFFFFFFFFFFFFFFFFFFFFFFFFFFFFF AND PUSH20 0xFFFFFFFFFFFFFFFFFFFFFFFFFFFFFFFFFFFFFFFF AND DUP2 MSTORE PUSH1 0x20 ADD SWAP1 DUP2 MSTORE PUSH1 0x20 ADD PUSH0 KECCAK256 PUSH1 0x2 ADD PUSH0 SWAP1 SLOAD SWAP1 PUSH2 0x100 EXP SWAP1 DIV PUSH1 0xFF AND SWAP1 POP SWAP2 SWAP1 POP JUMP JUMPDEST PUSH0 DUP1 REVERT JUMPDEST PUSH0 DUP1 REVERT JUMPDEST PUSH0 PUSH20 0xFFFFFFFFFFFFFFFFFFFFFFFFFFFFFFFFFFFFFFFF DUP3 AND SWAP1 POP SWAP2 SWAP1 POP JUMP JUMPDEST PUSH0 PUSH2 0xA8A DUP3 PUSH2 0xA61 JUMP JUMPDEST SWAP1 POP SWAP2 SWAP1 POP JUMP JUMPDEST PUSH2 0xA9A DUP2 PUSH2 0xA80 JUMP JUMPDEST DUP2 EQ PUSH2 0xAA4 JUMPI PUSH0 DUP1 REVERT JUMPDEST POP JUMP JUMPDEST PUSH0 DUP2 CALLDATALOAD SWAP1 POP PUSH2 0xAB5 DUP2 PUSH2 0xA91 JUMP JUMPDEST SWAP3 SWAP2 POP POP JUMP JUMPDEST PUSH0 PUSH1 0x20 DUP3 DUP5 SUB SLT ISZERO PUSH2 0xAD0 JUMPI PUSH2 0xACF PUSH2 0xA59 JUMP JUMPDEST JUMPDEST PUSH0 PUSH2 0xADD DUP5 DUP3 DUP6 ADD PUSH2 0xAA7 JUMP JUMPDEST SWAP2 POP POP SWAP3 SWAP2 POP POP JUMP JUMPDEST PUSH2 0xAEF DUP2 PUSH2 0xA80 JUMP JUMPDEST DUP3 MSTORE POP POP JUMP JUMPDEST PUSH0 DUP2 SWAP1 POP SWAP2 SWAP1 POP JUMP JUMPDEST PUSH2 0xB07 DUP2 PUSH2 0xAF5 JUMP JUMPDEST DUP3 MSTORE POP POP JUMP JUMPDEST PUSH0 DUP2 ISZERO ISZERO SWAP1 POP SWAP2 SWAP1 POP JUMP JUMPDEST PUSH2 0xB21 DUP2 PUSH2 0xB0D JUMP JUMPDEST DUP3 MSTORE POP POP JUMP JUMPDEST PUSH0 PUSH1 0x60 DUP3 ADD SWAP1 POP PUSH2 0xB3A PUSH0 DUP4 ADD DUP7 PUSH2 0xAE6 JUMP JUMPDEST PUSH2 0xB47 PUSH1 0x20 DUP4 ADD DUP6 PUSH2 0xAFE JUMP JUMPDEST PUSH2 0xB54 PUSH1 0x40 DUP4 ADD DUP5 PUSH2 0xB18 JUMP JUMPDEST SWAP5 SWAP4 POP POP POP POP JUMP JUMPDEST PUSH2 0xB65 DUP2 PUSH2 0xAF5 JUMP JUMPDEST DUP2 EQ PUSH2 0xB6F JUMPI PUSH0 DUP1 REVERT JUMPDEST POP JUMP JUMPDEST PUSH0 DUP2 CALLDATALOAD SWAP1 POP PUSH2 0xB80 DUP2 PUSH2 0xB5C JUMP JUMPDEST SWAP3 SWAP2 POP POP JUMP JUMPDEST PUSH0 DUP1 PUSH1 0x40 DUP4 DUP6 SUB SLT ISZERO PUSH2 0xB9C JUMPI PUSH2 0xB9B PUSH2 0xA59 JUMP JUMPDEST JUMPDEST PUSH0 PUSH2 0xBA9 DUP6 DUP3 DUP7 ADD PUSH2 0xAA7 JUMP JUMPDEST SWAP3 POP POP PUSH1 0x20 PUSH2 0xBBA DUP6 DUP3 DUP7 ADD PUSH2 0xB72 JUMP JUMPDEST SWAP2 POP POP SWAP3 POP SWAP3 SWAP1 POP JUMP JUMPDEST PUSH0 PUSH1 0x20 DUP3 DUP5 SUB SLT ISZERO PUSH2 0xBD9 JUMPI PUSH2 0xBD8 PUSH2 0xA59 JUMP JUMPDEST JUMPDEST PUSH0 PUSH2 0xBE6 DUP5 DUP3 DUP6 ADD PUSH2 0xB72 JUMP JUMPDEST SWAP2 POP POP SWAP3 SWAP2 POP POP JUMP JUMPDEST PUSH0 PUSH1 0x20 DUP3 ADD SWAP1 POP PUSH2 0xC02 PUSH0 DUP4 ADD DUP5 PUSH2 0xAFE JUMP JUMPDEST SWAP3 SWAP2 POP POP JUMP JUMPDEST PUSH0 DUP1 REVERT JUMPDEST PUSH0 DUP1 REVERT JUMPDEST PUSH0 DUP1 REVERT JUMPDEST PUSH0 DUP1 DUP4 PUSH1 0x1F DUP5 ADD SLT PUSH2 0xC29 JUMPI PUSH2 0xC28 PUSH2 0xC08 JUMP JUMPDEST JUMPDEST DUP3 CALLDATALOAD SWAP1 POP PUSH8 0xFFFFFFFFFFFFFFFF DUP2 GT ISZERO PUSH2 0xC46 JUMPI PUSH2 0xC45 PUSH2 0xC0C JUMP JUMPDEST JUMPDEST PUSH1 0x20 DUP4 ADD SWAP2 POP DUP4 PUSH1 0x1 DUP3 MUL DUP4 ADD GT ISZERO PUSH2 0xC62 JUMPI PUSH2 0xC61 PUSH2 0xC10 JUMP JUMPDEST JUMPDEST SWAP3 POP SWAP3 SWAP1 POP JUMP JUMPDEST PUSH0 DUP1 PUSH0 PUSH1 0x40 DUP5 DUP7 SUB SLT ISZERO PUSH2 0xC80 JUMPI PUSH2 0xC7F PUSH2 0xA59 JUMP JUMPDEST JUMPDEST PUSH0 PUSH2 0xC8D DUP7 DUP3 DUP8 ADD PUSH2 0xB72 JUMP JUMPDEST SWAP4 POP POP PUSH1 0x20 DUP5 ADD CALLDATALOAD PUSH8 0xFFFFFFFFFFFFFFFF DUP2 GT ISZERO PUSH2 0xCAE JUMPI PUSH2 0xCAD PUSH2 0xA5D JUMP JUMPDEST JUMPDEST PUSH2 0xCBA DUP7 DUP3 DUP8 ADD PUSH2 0xC14 JUMP JUMPDEST SWAP3 POP SWAP3 POP POP SWAP3 POP SWAP3 POP SWAP3 JUMP JUMPDEST PUSH0 PUSH1 0x20 DUP3 ADD SWAP1 POP PUSH2 0xCD9 PUSH0 DUP4 ADD DUP5 PUSH2 0xB18 JUMP JUMPDEST SWAP3 SWAP2 POP POP JUMP JUMPDEST PUSH0 DUP3 DUP3 MSTORE PUSH1 0x20 DUP3 ADD SWAP1 POP SWAP3 SWAP2 POP POP JUMP JUMPDEST PUSH32 0x43616D706169676E20646F6573206E6F74206578697374206F7220697320696E PUSH0 DUP3 ADD MSTORE PUSH32 0x6163746976650000000000000000000000000000000000000000000000000000 PUSH1 0x20 DUP3 ADD MSTORE POP JUMP JUMPDEST PUSH0 PUSH2 0xD49 PUSH1 0x26 DUP4 PUSH2 0xCDF JUMP JUMPDEST SWAP2 POP PUSH2 0xD54 DUP3 PUSH2 0xCEF JUMP JUMPDEST PUSH1 0x40 DUP3 ADD SWAP1 POP SWAP2 SWAP1 POP JUMP JUMPDEST PUSH0 PUSH1 0x20 DUP3 ADD SWAP1 POP DUP2 DUP2 SUB PUSH0 DUP4 ADD MSTORE PUSH2 0xD76 DUP2 PUSH2 0xD3D JUMP JUMPDEST SWAP1 POP SWAP2 SWAP1 POP JUMP JUMPDEST PUSH32 0x496E76616C69642063616D706169676E20494400000000000000000000000000 PUSH0 DUP3 ADD MSTORE POP JUMP JUMPDEST PUSH0 PUSH2 0xDB1 PUSH1 0x13 DUP4 PUSH2 0xCDF JUMP JUMPDEST SWAP2 POP PUSH2 0xDBC DUP3 PUSH2 0xD7D JUMP JUMPDEST PUSH1 0x20 DUP3 ADD SWAP1 POP SWAP2 SWAP1 POP JUMP JUMPDEST PUSH0 PUSH1 0x20 DUP3 ADD SWAP1 POP DUP2 DUP2 SUB PUSH0 DUP4 ADD MSTORE PUSH2 0xDDE DUP2 PUSH2 0xDA5 JUMP JUMPDEST SWAP1 POP SWAP2 SWAP1 POP JUMP JUMPDEST PUSH32 0x43616D706169676E20616C72656164792065786973747320666F722074686973 PUSH0 DUP3 ADD MSTORE PUSH32 0x206F776E65720000000000000000000000000000000000000000000000000000 PUSH1 0x20 DUP3 ADD MSTORE POP JUMP JUMPDEST PUSH0 PUSH2 0xE3F PUSH1 0x26 DUP4 PUSH2 0xCDF JUMP JUMPDEST SWAP2 POP PUSH2 0xE4A DUP3 PUSH2 0xDE5 JUMP JUMPDEST PUSH1 0x40 DUP3 ADD SWAP1 POP SWAP2 SWAP1 POP JUMP JUMPDEST PUSH0 PUSH1 0x20 DUP3 ADD SWAP1 POP DUP2 DUP2 SUB PUSH0 DUP4 ADD MSTORE PUSH2 0xE6C DUP2 PUSH2 0xE33 JUMP JUMPDEST SWAP1 POP SWAP2 SWAP1 POP JUMP JUMPDEST PUSH32 0x4E487B7100000000000000000000000000000000000000000000000000000000 PUSH0 MSTORE PUSH1 0x11 PUSH1 0x4 MSTORE PUSH1 0x24 PUSH0 REVERT JUMPDEST PUSH0 PUSH2 0xEAA DUP3 PUSH2 0xAF5 JUMP JUMPDEST SWAP2 POP PUSH32 0xFFFFFFFFFFFFFFFFFFFFFFFFFFFFFFFFFFFFFFFFFFFFFFFFFFFFFFFFFFFFFFFF DUP3 SUB PUSH2 0xEDC JUMPI PUSH2 0xEDB PUSH2 0xE73 JUMP JUMPDEST JUMPDEST PUSH1 0x1 DUP3 ADD SWAP1 POP SWAP2 SWAP1 POP JUMP JUMPDEST PUSH0 PUSH1 0x40 DUP3 ADD SWAP1 POP PUSH2 0xEFA PUSH0 DUP4 ADD DUP6 PUSH2 0xAFE JUMP JUMPDEST PUSH2 0xF07 PUSH1 0x20 DUP4 ADD DUP5 PUSH2 0xAFE JUMP JUMPDEST SWAP4 SWAP3 POP POP POP JUMP INVALID LOG2 PUSH5 0x6970667358 0x22 SLT KECCAK256 0xD0 0x2E 0xD8 0xE7 0x4E 0xE8 0xA7 0xAA DUP6 CALLDATALOAD 0xC3 0x1F PUSH11 0x7AD6C880F167950F8DAB9F DUP13 POP 0x2F PUSH4 0xA75F8720 PUSH5 0x736F6C6343 STOP ADDMOD BYTE STOP CALLER "
				},
				"gasEstimates": {
					"creation": {
						"codeDepositCost": "781600",
						"executionCost": "5821",
						"totalCost": "787421"
					},
					"external": {
						"campaignExistsForOwner(address)": "2942",
						"campaigns(address)": "infinite",
						"cancelCampaign(uint256)": "infinite",
						"createCampaign(uint256)": "infinite",
						"getCampaignDetails(address)": "infinite",
						"globalCampaignCounter()": "2424",
						"updateCampaign(address,uint256)": "infinite",
						"uploadCreative(uint256,bytes)": "infinite"
					}
				},
				"methodIdentifiers": {
					"campaignExistsForOwner(address)": "f5b220e9",
					"campaigns(address)": "1601d0b5",
					"cancelCampaign(uint256)": "45598b4a",
					"createCampaign(uint256)": "a3303a75",
					"getCampaignDetails(address)": "9ca65ab8",
					"globalCampaignCounter()": "a24b5837",
					"updateCampaign(address,uint256)": "3bbec7cd",
					"uploadCreative(uint256,bytes)": "e30b464b"
				}
			},
			"storageLayout": {
				"storage": [
					{
						"astId": 4,
						"contract": "contracts/adcampaign.sol:AdCampaign",
						"label": "globalCampaignCounter",
						"offset": 0,
						"slot": "0",
						"type": "t_uint256"
					},
					{
						"astId": 16,
						"contract": "contracts/adcampaign.sol:AdCampaign",
						"label": "campaigns",
						"offset": 0,
						"slot": "1",
						"type": "t_mapping(t_address,t_struct(Campaign)11_storage)"
					}
				],
				"types": {
					"t_address": {
						"encoding": "inplace",
						"label": "address",
						"numberOfBytes": "20"
					},
					"t_bool": {
						"encoding": "inplace",
						"label": "bool",
						"numberOfBytes": "1"
					},
					"t_mapping(t_address,t_struct(Campaign)11_storage)": {
						"encoding": "mapping",
						"key": "t_address",
						"label": "mapping(address => struct AdCampaign.Campaign)",
						"numberOfBytes": "32",
						"value": "t_struct(Campaign)11_storage"
					},
					"t_struct(Campaign)11_storage": {
						"encoding": "inplace",
						"label": "struct AdCampaign.Campaign",
						"members": [
							{
								"astId": 6,
								"contract": "contracts/adcampaign.sol:AdCampaign",
								"label": "owner",
								"offset": 0,
								"slot": "0",
								"type": "t_address"
							},
							{
								"astId": 8,
								"contract": "contracts/adcampaign.sol:AdCampaign",
								"label": "campaignId",
								"offset": 0,
								"slot": "1",
								"type": "t_uint256"
							},
							{
								"astId": 10,
								"contract": "contracts/adcampaign.sol:AdCampaign",
								"label": "isActive",
								"offset": 0,
								"slot": "2",
								"type": "t_bool"
							}
						],
						"numberOfBytes": "96"
					},
					"t_uint256": {
						"encoding": "inplace",
						"label": "uint256",
						"numberOfBytes": "32"
					}
				}
			},
			"userdoc": {
				"kind": "user",
				"methods": {},
				"version": 1
			}
		}
	}
}