{
	"contracts/adslot.sol": {
		"AdSlotManagement": {
			"abi": [
				{
					"inputs": [],
					"stateMutability": "nonpayable",
					"type": "constructor"
				},
				{
					"anonymous": false,
					"inputs": [
						{
							"indexed": true,
							"internalType": "address",
							"name": "dAppOwner",
							"type": "address"
						},
						{
							"indexed": false,
							"internalType": "uint256",
							"name": "slotId",
							"type": "uint256"
						}
					],
					"name": "AdSlotCreated",
					"type": "event"
				},
				{
					"anonymous": false,
					"inputs": [],
					"name": "InitializationCompleted",
					"type": "event"
				},
				{
					"inputs": [
						{
							"internalType": "address",
							"name": "_dAppOwner",
							"type": "address"
						},
						{
							"internalType": "uint256",
							"name": "_slotId",
							"type": "uint256"
						}
					],
					"name": "adSlotExists",
					"outputs": [
						{
							"internalType": "bool",
							"name": "",
							"type": "bool"
						}
					],
					"stateMutability": "view",
					"type": "function"
				},
				{
					"inputs": [],
					"name": "createAdSlot",
					"outputs": [],
					"stateMutability": "nonpayable",
					"type": "function"
				},
				{
					"inputs": [
						{
							"internalType": "address",
							"name": "",
							"type": "address"
						}
					],
					"name": "dAppOwners",
					"outputs": [
						{
							"internalType": "bool",
							"name": "isOwner",
							"type": "bool"
						}
					],
					"stateMutability": "view",
					"type": "function"
				},
				{
					"inputs": [
						{
							"internalType": "address",
							"name": "_dAppOwner",
							"type": "address"
						},
						{
							"internalType": "uint256",
							"name": "_slotId",
							"type": "uint256"
						}
					],
					"name": "getAdSlotDetails",
					"outputs": [
						{
							"internalType": "uint256",
							"name": "",
							"type": "uint256"
						},
						{
							"internalType": "bool",
							"name": "",
							"type": "bool"
						}
					],
					"stateMutability": "view",
					"type": "function"
				},
				{
					"inputs": [
						{
							"internalType": "address",
							"name": "_dAppOwner",
							"type": "address"
						}
					],
					"name": "getSlotIds",
					"outputs": [
						{
							"internalType": "uint256[]",
							"name": "",
							"type": "uint256[]"
						}
					],
					"stateMutability": "view",
					"type": "function"
				},
				{
					"inputs": [],
					"name": "registerDAppOwner",
					"outputs": [],
					"stateMutability": "nonpayable",
					"type": "function"
				},
				{
					"inputs": [],
					"name": "slotCounter",
					"outputs": [
						{
							"internalType": "uint256",
							"name": "",
							"type": "uint256"
						}
					],
					"stateMutability": "view",
					"type": "function"
				}
			],
			"devdoc": {
				"kind": "dev",
				"methods": {},
				"version": 1
			},
			"evm": {
				"assembly": "    /* \"contracts/adslot.sol\":57:2425  contract AdSlotManagement {... */\n  mstore(0x40, 0x80)\n    /* \"contracts/adslot.sol\":141:142  1 */\n  0x01\n    /* \"contracts/adslot.sol\":112:142  uint256 public slotCounter = 1 */\n  0x00\n  sstore\n    /* \"contracts/adslot.sol\":814:875  constructor() {... */\n  callvalue\n  dup1\n  iszero\n  tag_1\n  jumpi\n  0x00\n  dup1\n  revert\ntag_1:\n  pop\n    /* \"contracts/adslot.sol\":843:868  InitializationCompleted() */\n  0x18364fe077c6409a3429b2b86343cc98aeb574df3cc4a3a2af3a28b471fe6c5d\n  mload(0x40)\n  mload(0x40)\n  dup1\n  swap2\n  sub\n  swap1\n  log1\n    /* \"contracts/adslot.sol\":57:2425  contract AdSlotManagement {... */\n  dataSize(sub_0)\n  dup1\n  dataOffset(sub_0)\n  0x00\n  codecopy\n  0x00\n  return\nstop\n\nsub_0: assembly {\n        /* \"contracts/adslot.sol\":57:2425  contract AdSlotManagement {... */\n      mstore(0x40, 0x80)\n      callvalue\n      dup1\n      iszero\n      tag_1\n      jumpi\n      0x00\n      dup1\n      revert\n    tag_1:\n      pop\n      jumpi(tag_2, lt(calldatasize, 0x04))\n      shr(0xe0, calldataload(0x00))\n      dup1\n      0xae9f4db2\n      gt\n      tag_10\n      jumpi\n      dup1\n      0xae9f4db2\n      eq\n      tag_6\n      jumpi\n      dup1\n      0xe37a3f47\n      eq\n      tag_7\n      jumpi\n      dup1\n      0xe59a4105\n      eq\n      tag_8\n      jumpi\n      dup1\n      0xead30e93\n      eq\n      tag_9\n      jumpi\n      jump(tag_2)\n    tag_10:\n      dup1\n      0x24c96f3b\n      eq\n      tag_3\n      jumpi\n      dup1\n      0x349a045c\n      eq\n      tag_4\n      jumpi\n      dup1\n      0x6da5e51d\n      eq\n      tag_5\n      jumpi\n    tag_2:\n      0x00\n      dup1\n      revert\n        /* \"contracts/adslot.sol\":1994:2223  function getAdSlotDetails(address _dAppOwner, uint256 _slotId) external view returns (uint256, bool) {... */\n    tag_3:\n      tag_11\n      0x04\n      dup1\n      calldatasize\n      sub\n      dup2\n      add\n      swap1\n      tag_12\n      swap2\n      swap1\n      tag_13\n      jump\t// in\n    tag_12:\n      tag_14\n      jump\t// in\n    tag_11:\n      mload(0x40)\n      tag_15\n      swap3\n      swap2\n      swap1\n      tag_16\n      jump\t// in\n    tag_15:\n      mload(0x40)\n      dup1\n      swap2\n      sub\n      swap1\n      return\n        /* \"contracts/adslot.sol\":2288:2423  function getSlotIds(address _dAppOwner) external view returns (uint256[] memory) {... */\n    tag_4:\n      tag_17\n      0x04\n      dup1\n      calldatasize\n      sub\n      dup2\n      add\n      swap1\n      tag_18\n      swap2\n      swap1\n      tag_19\n      jump\t// in\n    tag_18:\n      tag_20\n      jump\t// in\n    tag_17:\n      mload(0x40)\n      tag_21\n      swap2\n      swap1\n      tag_22\n      jump\t// in\n    tag_21:\n      mload(0x40)\n      dup1\n      swap2\n      sub\n      swap1\n      return\n        /* \"contracts/adslot.sol\":1776:1939  function adSlotExists(address _dAppOwner, uint256 _slotId) external view returns (bool) {... */\n    tag_5:\n      tag_23\n      0x04\n      dup1\n      calldatasize\n      sub\n      dup2\n      add\n      swap1\n      tag_24\n      swap2\n      swap1\n      tag_13\n      jump\t// in\n    tag_24:\n      tag_25\n      jump\t// in\n    tag_23:\n      mload(0x40)\n      tag_26\n      swap2\n      swap1\n      tag_27\n      jump\t// in\n    tag_26:\n      mload(0x40)\n      dup1\n      swap2\n      sub\n      swap1\n      return\n        /* \"contracts/adslot.sol\":148:195  mapping(address => DAppOwner) public dAppOwners */\n    tag_6:\n      tag_28\n      0x04\n      dup1\n      calldatasize\n      sub\n      dup2\n      add\n      swap1\n      tag_29\n      swap2\n      swap1\n      tag_19\n      jump\t// in\n    tag_29:\n      tag_30\n      jump\t// in\n    tag_28:\n      mload(0x40)\n      tag_31\n      swap2\n      swap1\n      tag_27\n      jump\t// in\n    tag_31:\n      mload(0x40)\n      dup1\n      swap2\n      sub\n      swap1\n      return\n        /* \"contracts/adslot.sol\":949:1041  function registerDAppOwner() external {... */\n    tag_7:\n      tag_32\n      tag_33\n      jump\t// in\n    tag_32:\n      stop\n        /* \"contracts/adslot.sol\":112:142  uint256 public slotCounter = 1 */\n    tag_8:\n      tag_34\n      tag_35\n      jump\t// in\n    tag_34:\n      mload(0x40)\n      tag_36\n      swap2\n      swap1\n      tag_37\n      jump\t// in\n    tag_36:\n      mload(0x40)\n      dup1\n      swap2\n      sub\n      swap1\n      return\n        /* \"contracts/adslot.sol\":1087:1689  function createAdSlot() external onlyDAppOwner {... */\n    tag_9:\n      tag_38\n      tag_39\n      jump\t// in\n    tag_38:\n      stop\n        /* \"contracts/adslot.sol\":1994:2223  function getAdSlotDetails(address _dAppOwner, uint256 _slotId) external view returns (uint256, bool) {... */\n    tag_14:\n        /* \"contracts/adslot.sol\":2080:2087  uint256 */\n      0x00\n        /* \"contracts/adslot.sol\":2089:2093  bool */\n      dup1\n        /* \"contracts/adslot.sol\":2105:2125  AdSlot memory adSlot */\n      0x00\n        /* \"contracts/adslot.sol\":2128:2138  dAppOwners */\n      0x01\n        /* \"contracts/adslot.sol\":2128:2150  dAppOwners[_dAppOwner] */\n      0x00\n        /* \"contracts/adslot.sol\":2139:2149  _dAppOwner */\n      dup7\n        /* \"contracts/adslot.sol\":2128:2150  dAppOwners[_dAppOwner] */\n      0xffffffffffffffffffffffffffffffffffffffff\n      and\n      0xffffffffffffffffffffffffffffffffffffffff\n      and\n      dup2\n      mstore\n      0x20\n      add\n      swap1\n      dup2\n      mstore\n      0x20\n      add\n      0x00\n      keccak256\n        /* \"contracts/adslot.sol\":2128:2158  dAppOwners[_dAppOwner].adSlots */\n      0x01\n      add\n        /* \"contracts/adslot.sol\":2128:2167  dAppOwners[_dAppOwner].adSlots[_slotId] */\n      0x00\n        /* \"contracts/adslot.sol\":2159:2166  _slotId */\n      dup6\n        /* \"contracts/adslot.sol\":2128:2167  dAppOwners[_dAppOwner].adSlots[_slotId] */\n      dup2\n      mstore\n      0x20\n      add\n      swap1\n      dup2\n      mstore\n      0x20\n      add\n      0x00\n      keccak256\n        /* \"contracts/adslot.sol\":2105:2167  AdSlot memory adSlot = dAppOwners[_dAppOwner].adSlots[_slotId] */\n      mload(0x40)\n      dup1\n      0x40\n      add\n      0x40\n      mstore\n      swap1\n      dup2\n      0x00\n      dup3\n      add\n      sload\n      dup2\n      mstore\n      0x20\n      add\n      0x01\n      dup3\n      add\n      0x00\n      swap1\n      sload\n      swap1\n      0x0100\n      exp\n      swap1\n      div\n      0xff\n      and\n      iszero\n      iszero\n      iszero\n      iszero\n      dup2\n      mstore\n      pop\n      pop\n      swap1\n      pop\n        /* \"contracts/adslot.sol\":2185:2191  adSlot */\n      dup1\n        /* \"contracts/adslot.sol\":2185:2198  adSlot.slotId */\n      0x00\n      add\n      mload\n        /* \"contracts/adslot.sol\":2200:2206  adSlot */\n      dup2\n        /* \"contracts/adslot.sol\":2200:2215  adSlot.isActive */\n      0x20\n      add\n      mload\n        /* \"contracts/adslot.sol\":2177:2216  return (adSlot.slotId, adSlot.isActive) */\n      swap3\n      pop\n      swap3\n      pop\n      pop\n        /* \"contracts/adslot.sol\":1994:2223  function getAdSlotDetails(address _dAppOwner, uint256 _slotId) external view returns (uint256, bool) {... */\n      swap3\n      pop\n      swap3\n      swap1\n      pop\n      jump\t// out\n        /* \"contracts/adslot.sol\":2288:2423  function getSlotIds(address _dAppOwner) external view returns (uint256[] memory) {... */\n    tag_20:\n        /* \"contracts/adslot.sol\":2351:2367  uint256[] memory */\n      0x60\n        /* \"contracts/adslot.sol\":2386:2396  dAppOwners */\n      0x01\n        /* \"contracts/adslot.sol\":2386:2408  dAppOwners[_dAppOwner] */\n      0x00\n        /* \"contracts/adslot.sol\":2397:2407  _dAppOwner */\n      dup4\n        /* \"contracts/adslot.sol\":2386:2408  dAppOwners[_dAppOwner] */\n      0xffffffffffffffffffffffffffffffffffffffff\n      and\n      0xffffffffffffffffffffffffffffffffffffffff\n      and\n      dup2\n      mstore\n      0x20\n      add\n      swap1\n      dup2\n      mstore\n      0x20\n      add\n      0x00\n      keccak256\n        /* \"contracts/adslot.sol\":2386:2416  dAppOwners[_dAppOwner].slotIds */\n      0x02\n      add\n        /* \"contracts/adslot.sol\":2379:2416  return dAppOwners[_dAppOwner].slotIds */\n      dup1\n      sload\n      dup1\n      0x20\n      mul\n      0x20\n      add\n      mload(0x40)\n      swap1\n      dup2\n      add\n      0x40\n      mstore\n      dup1\n      swap3\n      swap2\n      swap1\n      dup2\n      dup2\n      mstore\n      0x20\n      add\n      dup3\n      dup1\n      sload\n      dup1\n      iszero\n      tag_42\n      jumpi\n      0x20\n      mul\n      dup3\n      add\n      swap2\n      swap1\n      0x00\n      mstore\n      keccak256(0x00, 0x20)\n      swap1\n    tag_43:\n      dup2\n      sload\n      dup2\n      mstore\n      0x20\n      add\n      swap1\n      0x01\n      add\n      swap1\n      dup1\n      dup4\n      gt\n      tag_43\n      jumpi\n    tag_42:\n      pop\n      pop\n      pop\n      pop\n      pop\n      swap1\n      pop\n        /* \"contracts/adslot.sol\":2288:2423  function getSlotIds(address _dAppOwner) external view returns (uint256[] memory) {... */\n      swap2\n      swap1\n      pop\n      jump\t// out\n        /* \"contracts/adslot.sol\":1776:1939  function adSlotExists(address _dAppOwner, uint256 _slotId) external view returns (bool) {... */\n    tag_25:\n        /* \"contracts/adslot.sol\":1858:1862  bool */\n      0x00\n        /* \"contracts/adslot.sol\":1931:1932  0 */\n      dup1\n        /* \"contracts/adslot.sol\":1881:1891  dAppOwners */\n      0x01\n        /* \"contracts/adslot.sol\":1881:1903  dAppOwners[_dAppOwner] */\n      0x00\n        /* \"contracts/adslot.sol\":1892:1902  _dAppOwner */\n      dup6\n        /* \"contracts/adslot.sol\":1881:1903  dAppOwners[_dAppOwner] */\n      0xffffffffffffffffffffffffffffffffffffffff\n      and\n      0xffffffffffffffffffffffffffffffffffffffff\n      and\n      dup2\n      mstore\n      0x20\n      add\n      swap1\n      dup2\n      mstore\n      0x20\n      add\n      0x00\n      keccak256\n        /* \"contracts/adslot.sol\":1881:1911  dAppOwners[_dAppOwner].adSlots */\n      0x01\n      add\n        /* \"contracts/adslot.sol\":1881:1920  dAppOwners[_dAppOwner].adSlots[_slotId] */\n      0x00\n        /* \"contracts/adslot.sol\":1912:1919  _slotId */\n      dup5\n        /* \"contracts/adslot.sol\":1881:1920  dAppOwners[_dAppOwner].adSlots[_slotId] */\n      dup2\n      mstore\n      0x20\n      add\n      swap1\n      dup2\n      mstore\n      0x20\n      add\n      0x00\n      keccak256\n        /* \"contracts/adslot.sol\":1881:1927  dAppOwners[_dAppOwner].adSlots[_slotId].slotId */\n      0x00\n      add\n      sload\n        /* \"contracts/adslot.sol\":1881:1932  dAppOwners[_dAppOwner].adSlots[_slotId].slotId != 0 */\n      eq\n      iszero\n        /* \"contracts/adslot.sol\":1874:1932  return dAppOwners[_dAppOwner].adSlots[_slotId].slotId != 0 */\n      swap1\n      pop\n        /* \"contracts/adslot.sol\":1776:1939  function adSlotExists(address _dAppOwner, uint256 _slotId) external view returns (bool) {... */\n      swap3\n      swap2\n      pop\n      pop\n      jump\t// out\n        /* \"contracts/adslot.sol\":148:195  mapping(address => DAppOwner) public dAppOwners */\n    tag_30:\n      mstore(0x20, 0x01)\n      dup1\n      0x00\n      mstore\n      keccak256(0x00, 0x40)\n      0x00\n      swap2\n      pop\n      swap1\n      pop\n      dup1\n      0x00\n      add\n      0x00\n      swap1\n      sload\n      swap1\n      0x0100\n      exp\n      swap1\n      div\n      0xff\n      and\n      swap1\n      pop\n      dup2\n      jump\t// out\n        /* \"contracts/adslot.sol\":949:1041  function registerDAppOwner() external {... */\n    tag_33:\n        /* \"contracts/adslot.sol\":1030:1034  true */\n      0x01\n        /* \"contracts/adslot.sol\":997:1007  dAppOwners */\n      dup1\n        /* \"contracts/adslot.sol\":997:1019  dAppOwners[msg.sender] */\n      0x00\n        /* \"contracts/adslot.sol\":1008:1018  msg.sender */\n      caller\n        /* \"contracts/adslot.sol\":997:1019  dAppOwners[msg.sender] */\n      0xffffffffffffffffffffffffffffffffffffffff\n      and\n      0xffffffffffffffffffffffffffffffffffffffff\n      and\n      dup2\n      mstore\n      0x20\n      add\n      swap1\n      dup2\n      mstore\n      0x20\n      add\n      0x00\n      keccak256\n        /* \"contracts/adslot.sol\":997:1027  dAppOwners[msg.sender].isOwner */\n      0x00\n      add\n      0x00\n        /* \"contracts/adslot.sol\":997:1034  dAppOwners[msg.sender].isOwner = true */\n      0x0100\n      exp\n      dup2\n      sload\n      dup2\n      0xff\n      mul\n      not\n      and\n      swap1\n      dup4\n      iszero\n      iszero\n      mul\n      or\n      swap1\n      sstore\n      pop\n        /* \"contracts/adslot.sol\":949:1041  function registerDAppOwner() external {... */\n      jump\t// out\n        /* \"contracts/adslot.sol\":112:142  uint256 public slotCounter = 1 */\n    tag_35:\n      sload(0x00)\n      dup2\n      jump\t// out\n        /* \"contracts/adslot.sol\":1087:1689  function createAdSlot() external onlyDAppOwner {... */\n    tag_39:\n        /* \"contracts/adslot.sol\":678:688  dAppOwners */\n      0x01\n        /* \"contracts/adslot.sol\":678:700  dAppOwners[msg.sender] */\n      0x00\n        /* \"contracts/adslot.sol\":689:699  msg.sender */\n      caller\n        /* \"contracts/adslot.sol\":678:700  dAppOwners[msg.sender] */\n      0xffffffffffffffffffffffffffffffffffffffff\n      and\n      0xffffffffffffffffffffffffffffffffffffffff\n      and\n      dup2\n      mstore\n      0x20\n      add\n      swap1\n      dup2\n      mstore\n      0x20\n      add\n      0x00\n      keccak256\n        /* \"contracts/adslot.sol\":678:708  dAppOwners[msg.sender].isOwner */\n      0x00\n      add\n      0x00\n      swap1\n      sload\n      swap1\n      0x0100\n      exp\n      swap1\n      div\n      0xff\n      and\n        /* \"contracts/adslot.sol\":670:733  require(dAppOwners[msg.sender].isOwner, \"DApp owner not found\") */\n      tag_47\n      jumpi\n      mload(0x40)\n      0x08c379a000000000000000000000000000000000000000000000000000000000\n      dup2\n      mstore\n      0x04\n      add\n      tag_48\n      swap1\n      tag_49\n      jump\t// in\n    tag_48:\n      mload(0x40)\n      dup1\n      swap2\n      sub\n      swap1\n      revert\n    tag_47:\n        /* \"contracts/adslot.sol\":1191:1208  uint256 newSlotId */\n      0x00\n        /* \"contracts/adslot.sol\":1211:1222  slotCounter */\n      dup1\n      sload\n        /* \"contracts/adslot.sol\":1191:1222  uint256 newSlotId = slotCounter */\n      swap1\n      pop\n        /* \"contracts/adslot.sol\":1331:1408  AdSlot({... */\n      mload(0x40)\n      dup1\n      0x40\n      add\n      0x40\n      mstore\n      dup1\n        /* \"contracts/adslot.sol\":1360:1369  newSlotId */\n      dup3\n        /* \"contracts/adslot.sol\":1331:1408  AdSlot({... */\n      dup2\n      mstore\n      0x20\n      add\n        /* \"contracts/adslot.sol\":1393:1397  true */\n      0x01\n        /* \"contracts/adslot.sol\":1331:1408  AdSlot({... */\n      iszero\n      iszero\n      dup2\n      mstore\n      pop\n        /* \"contracts/adslot.sol\":1287:1297  dAppOwners */\n      0x01\n        /* \"contracts/adslot.sol\":1287:1309  dAppOwners[msg.sender] */\n      0x00\n        /* \"contracts/adslot.sol\":1298:1308  msg.sender */\n      caller\n        /* \"contracts/adslot.sol\":1287:1309  dAppOwners[msg.sender] */\n      0xffffffffffffffffffffffffffffffffffffffff\n      and\n      0xffffffffffffffffffffffffffffffffffffffff\n      and\n      dup2\n      mstore\n      0x20\n      add\n      swap1\n      dup2\n      mstore\n      0x20\n      add\n      0x00\n      keccak256\n        /* \"contracts/adslot.sol\":1287:1317  dAppOwners[msg.sender].adSlots */\n      0x01\n      add\n        /* \"contracts/adslot.sol\":1287:1328  dAppOwners[msg.sender].adSlots[newSlotId] */\n      0x00\n        /* \"contracts/adslot.sol\":1318:1327  newSlotId */\n      dup4\n        /* \"contracts/adslot.sol\":1287:1328  dAppOwners[msg.sender].adSlots[newSlotId] */\n      dup2\n      mstore\n      0x20\n      add\n      swap1\n      dup2\n      mstore\n      0x20\n      add\n      0x00\n      keccak256\n        /* \"contracts/adslot.sol\":1287:1408  dAppOwners[msg.sender].adSlots[newSlotId] = AdSlot({... */\n      0x00\n      dup3\n      add\n      mload\n      dup2\n      0x00\n      add\n      sstore\n      0x20\n      dup3\n      add\n      mload\n      dup2\n      0x01\n      add\n      exp(0x0100, 0x00)\n      dup2\n      sload\n      dup2\n      0xff\n      mul\n      not\n      and\n      swap1\n      dup4\n      iszero\n      iszero\n      mul\n      or\n      swap1\n      sstore\n      pop\n      swap1\n      pop\n      pop\n        /* \"contracts/adslot.sol\":1482:1492  dAppOwners */\n      0x01\n        /* \"contracts/adslot.sol\":1482:1504  dAppOwners[msg.sender] */\n      0x00\n        /* \"contracts/adslot.sol\":1493:1503  msg.sender */\n      caller\n        /* \"contracts/adslot.sol\":1482:1504  dAppOwners[msg.sender] */\n      0xffffffffffffffffffffffffffffffffffffffff\n      and\n      0xffffffffffffffffffffffffffffffffffffffff\n      and\n      dup2\n      mstore\n      0x20\n      add\n      swap1\n      dup2\n      mstore\n      0x20\n      add\n      0x00\n      keccak256\n        /* \"contracts/adslot.sol\":1482:1512  dAppOwners[msg.sender].slotIds */\n      0x02\n      add\n        /* \"contracts/adslot.sol\":1518:1527  newSlotId */\n      dup2\n        /* \"contracts/adslot.sol\":1482:1528  dAppOwners[msg.sender].slotIds.push(newSlotId) */\n      swap1\n      dup1\n      0x01\n      dup2\n      sload\n      add\n      dup1\n      dup3\n      sstore\n      dup1\n      swap2\n      pop\n      pop\n      0x01\n      swap1\n      sub\n      swap1\n      0x00\n      mstore\n      keccak256(0x00, 0x20)\n      add\n      0x00\n      swap1\n      swap2\n      swap1\n      swap2\n      swap1\n      swap2\n      pop\n      sstore\n        /* \"contracts/adslot.sol\":1598:1608  msg.sender */\n      caller\n        /* \"contracts/adslot.sol\":1584:1620  AdSlotCreated(msg.sender, newSlotId) */\n      0xffffffffffffffffffffffffffffffffffffffff\n      and\n      0x83369a4e41b7306a382ebc560f2a96fce45c4f23f5cd489c86c40de4b2ce1f40\n        /* \"contracts/adslot.sol\":1610:1619  newSlotId */\n      dup3\n        /* \"contracts/adslot.sol\":1584:1620  AdSlotCreated(msg.sender, newSlotId) */\n      mload(0x40)\n      tag_52\n      swap2\n      swap1\n      tag_37\n      jump\t// in\n    tag_52:\n      mload(0x40)\n      dup1\n      swap2\n      sub\n      swap1\n      log2\n        /* \"contracts/adslot.sol\":1669:1680  slotCounter */\n      0x00\n      dup1\n        /* \"contracts/adslot.sol\":1669:1682  slotCounter++ */\n      dup2\n      sload\n      dup1\n      swap3\n      swap2\n      swap1\n      tag_53\n      swap1\n      tag_54\n      jump\t// in\n    tag_53:\n      swap2\n      swap1\n      pop\n      sstore\n      pop\n        /* \"contracts/adslot.sol\":1134:1689  {... */\n      pop\n        /* \"contracts/adslot.sol\":1087:1689  function createAdSlot() external onlyDAppOwner {... */\n      jump\t// out\n        /* \"#utility.yul\":88:205   */\n    tag_56:\n        /* \"#utility.yul\":197:198   */\n      0x00\n        /* \"#utility.yul\":194:195   */\n      dup1\n        /* \"#utility.yul\":187:199   */\n      revert\n        /* \"#utility.yul\":334:460   */\n    tag_58:\n        /* \"#utility.yul\":371:378   */\n      0x00\n        /* \"#utility.yul\":411:453   */\n      0xffffffffffffffffffffffffffffffffffffffff\n        /* \"#utility.yul\":404:409   */\n      dup3\n        /* \"#utility.yul\":400:454   */\n      and\n        /* \"#utility.yul\":389:454   */\n      swap1\n      pop\n        /* \"#utility.yul\":334:460   */\n      swap2\n      swap1\n      pop\n      jump\t// out\n        /* \"#utility.yul\":466:562   */\n    tag_59:\n        /* \"#utility.yul\":503:510   */\n      0x00\n        /* \"#utility.yul\":532:556   */\n      tag_85\n        /* \"#utility.yul\":550:555   */\n      dup3\n        /* \"#utility.yul\":532:556   */\n      tag_58\n      jump\t// in\n    tag_85:\n        /* \"#utility.yul\":521:556   */\n      swap1\n      pop\n        /* \"#utility.yul\":466:562   */\n      swap2\n      swap1\n      pop\n      jump\t// out\n        /* \"#utility.yul\":568:690   */\n    tag_60:\n        /* \"#utility.yul\":641:665   */\n      tag_87\n        /* \"#utility.yul\":659:664   */\n      dup2\n        /* \"#utility.yul\":641:665   */\n      tag_59\n      jump\t// in\n    tag_87:\n        /* \"#utility.yul\":634:639   */\n      dup2\n        /* \"#utility.yul\":631:666   */\n      eq\n        /* \"#utility.yul\":621:684   */\n      tag_88\n      jumpi\n        /* \"#utility.yul\":680:681   */\n      0x00\n        /* \"#utility.yul\":677:678   */\n      dup1\n        /* \"#utility.yul\":670:682   */\n      revert\n        /* \"#utility.yul\":621:684   */\n    tag_88:\n        /* \"#utility.yul\":568:690   */\n      pop\n      jump\t// out\n        /* \"#utility.yul\":696:835   */\n    tag_61:\n        /* \"#utility.yul\":742:747   */\n      0x00\n        /* \"#utility.yul\":780:786   */\n      dup2\n        /* \"#utility.yul\":767:787   */\n      calldataload\n        /* \"#utility.yul\":758:787   */\n      swap1\n      pop\n        /* \"#utility.yul\":796:829   */\n      tag_90\n        /* \"#utility.yul\":823:828   */\n      dup2\n        /* \"#utility.yul\":796:829   */\n      tag_60\n      jump\t// in\n    tag_90:\n        /* \"#utility.yul\":696:835   */\n      swap3\n      swap2\n      pop\n      pop\n      jump\t// out\n        /* \"#utility.yul\":841:918   */\n    tag_62:\n        /* \"#utility.yul\":878:885   */\n      0x00\n        /* \"#utility.yul\":907:912   */\n      dup2\n        /* \"#utility.yul\":896:912   */\n      swap1\n      pop\n        /* \"#utility.yul\":841:918   */\n      swap2\n      swap1\n      pop\n      jump\t// out\n        /* \"#utility.yul\":924:1046   */\n    tag_63:\n        /* \"#utility.yul\":997:1021   */\n      tag_93\n        /* \"#utility.yul\":1015:1020   */\n      dup2\n        /* \"#utility.yul\":997:1021   */\n      tag_62\n      jump\t// in\n    tag_93:\n        /* \"#utility.yul\":990:995   */\n      dup2\n        /* \"#utility.yul\":987:1022   */\n      eq\n        /* \"#utility.yul\":977:1040   */\n      tag_94\n      jumpi\n        /* \"#utility.yul\":1036:1037   */\n      0x00\n        /* \"#utility.yul\":1033:1034   */\n      dup1\n        /* \"#utility.yul\":1026:1038   */\n      revert\n        /* \"#utility.yul\":977:1040   */\n    tag_94:\n        /* \"#utility.yul\":924:1046   */\n      pop\n      jump\t// out\n        /* \"#utility.yul\":1052:1191   */\n    tag_64:\n        /* \"#utility.yul\":1098:1103   */\n      0x00\n        /* \"#utility.yul\":1136:1142   */\n      dup2\n        /* \"#utility.yul\":1123:1143   */\n      calldataload\n        /* \"#utility.yul\":1114:1143   */\n      swap1\n      pop\n        /* \"#utility.yul\":1152:1185   */\n      tag_96\n        /* \"#utility.yul\":1179:1184   */\n      dup2\n        /* \"#utility.yul\":1152:1185   */\n      tag_63\n      jump\t// in\n    tag_96:\n        /* \"#utility.yul\":1052:1191   */\n      swap3\n      swap2\n      pop\n      pop\n      jump\t// out\n        /* \"#utility.yul\":1197:1671   */\n    tag_13:\n        /* \"#utility.yul\":1265:1271   */\n      0x00\n        /* \"#utility.yul\":1273:1279   */\n      dup1\n        /* \"#utility.yul\":1322:1324   */\n      0x40\n        /* \"#utility.yul\":1310:1319   */\n      dup4\n        /* \"#utility.yul\":1301:1308   */\n      dup6\n        /* \"#utility.yul\":1297:1320   */\n      sub\n        /* \"#utility.yul\":1293:1325   */\n      slt\n        /* \"#utility.yul\":1290:1409   */\n      iszero\n      tag_98\n      jumpi\n        /* \"#utility.yul\":1328:1407   */\n      tag_99\n      tag_56\n      jump\t// in\n    tag_99:\n        /* \"#utility.yul\":1290:1409   */\n    tag_98:\n        /* \"#utility.yul\":1448:1449   */\n      0x00\n        /* \"#utility.yul\":1473:1526   */\n      tag_100\n        /* \"#utility.yul\":1518:1525   */\n      dup6\n        /* \"#utility.yul\":1509:1515   */\n      dup3\n        /* \"#utility.yul\":1498:1507   */\n      dup7\n        /* \"#utility.yul\":1494:1516   */\n      add\n        /* \"#utility.yul\":1473:1526   */\n      tag_61\n      jump\t// in\n    tag_100:\n        /* \"#utility.yul\":1463:1526   */\n      swap3\n      pop\n        /* \"#utility.yul\":1419:1536   */\n      pop\n        /* \"#utility.yul\":1575:1577   */\n      0x20\n        /* \"#utility.yul\":1601:1654   */\n      tag_101\n        /* \"#utility.yul\":1646:1653   */\n      dup6\n        /* \"#utility.yul\":1637:1643   */\n      dup3\n        /* \"#utility.yul\":1626:1635   */\n      dup7\n        /* \"#utility.yul\":1622:1644   */\n      add\n        /* \"#utility.yul\":1601:1654   */\n      tag_64\n      jump\t// in\n    tag_101:\n        /* \"#utility.yul\":1591:1654   */\n      swap2\n      pop\n        /* \"#utility.yul\":1546:1664   */\n      pop\n        /* \"#utility.yul\":1197:1671   */\n      swap3\n      pop\n      swap3\n      swap1\n      pop\n      jump\t// out\n        /* \"#utility.yul\":1677:1795   */\n    tag_65:\n        /* \"#utility.yul\":1764:1788   */\n      tag_103\n        /* \"#utility.yul\":1782:1787   */\n      dup2\n        /* \"#utility.yul\":1764:1788   */\n      tag_62\n      jump\t// in\n    tag_103:\n        /* \"#utility.yul\":1759:1762   */\n      dup3\n        /* \"#utility.yul\":1752:1789   */\n      mstore\n        /* \"#utility.yul\":1677:1795   */\n      pop\n      pop\n      jump\t// out\n        /* \"#utility.yul\":1801:1891   */\n    tag_66:\n        /* \"#utility.yul\":1835:1842   */\n      0x00\n        /* \"#utility.yul\":1878:1883   */\n      dup2\n        /* \"#utility.yul\":1871:1884   */\n      iszero\n        /* \"#utility.yul\":1864:1885   */\n      iszero\n        /* \"#utility.yul\":1853:1885   */\n      swap1\n      pop\n        /* \"#utility.yul\":1801:1891   */\n      swap2\n      swap1\n      pop\n      jump\t// out\n        /* \"#utility.yul\":1897:2006   */\n    tag_67:\n        /* \"#utility.yul\":1978:1999   */\n      tag_106\n        /* \"#utility.yul\":1993:1998   */\n      dup2\n        /* \"#utility.yul\":1978:1999   */\n      tag_66\n      jump\t// in\n    tag_106:\n        /* \"#utility.yul\":1973:1976   */\n      dup3\n        /* \"#utility.yul\":1966:2000   */\n      mstore\n        /* \"#utility.yul\":1897:2006   */\n      pop\n      pop\n      jump\t// out\n        /* \"#utility.yul\":2012:2332   */\n    tag_16:\n        /* \"#utility.yul\":2127:2131   */\n      0x00\n        /* \"#utility.yul\":2165:2167   */\n      0x40\n        /* \"#utility.yul\":2154:2163   */\n      dup3\n        /* \"#utility.yul\":2150:2168   */\n      add\n        /* \"#utility.yul\":2142:2168   */\n      swap1\n      pop\n        /* \"#utility.yul\":2178:2249   */\n      tag_108\n        /* \"#utility.yul\":2246:2247   */\n      0x00\n        /* \"#utility.yul\":2235:2244   */\n      dup4\n        /* \"#utility.yul\":2231:2248   */\n      add\n        /* \"#utility.yul\":2222:2228   */\n      dup6\n        /* \"#utility.yul\":2178:2249   */\n      tag_65\n      jump\t// in\n    tag_108:\n        /* \"#utility.yul\":2259:2325   */\n      tag_109\n        /* \"#utility.yul\":2321:2323   */\n      0x20\n        /* \"#utility.yul\":2310:2319   */\n      dup4\n        /* \"#utility.yul\":2306:2324   */\n      add\n        /* \"#utility.yul\":2297:2303   */\n      dup5\n        /* \"#utility.yul\":2259:2325   */\n      tag_67\n      jump\t// in\n    tag_109:\n        /* \"#utility.yul\":2012:2332   */\n      swap4\n      swap3\n      pop\n      pop\n      pop\n      jump\t// out\n        /* \"#utility.yul\":2338:2667   */\n    tag_19:\n        /* \"#utility.yul\":2397:2403   */\n      0x00\n        /* \"#utility.yul\":2446:2448   */\n      0x20\n        /* \"#utility.yul\":2434:2443   */\n      dup3\n        /* \"#utility.yul\":2425:2432   */\n      dup5\n        /* \"#utility.yul\":2421:2444   */\n      sub\n        /* \"#utility.yul\":2417:2449   */\n      slt\n        /* \"#utility.yul\":2414:2533   */\n      iszero\n      tag_111\n      jumpi\n        /* \"#utility.yul\":2452:2531   */\n      tag_112\n      tag_56\n      jump\t// in\n    tag_112:\n        /* \"#utility.yul\":2414:2533   */\n    tag_111:\n        /* \"#utility.yul\":2572:2573   */\n      0x00\n        /* \"#utility.yul\":2597:2650   */\n      tag_113\n        /* \"#utility.yul\":2642:2649   */\n      dup5\n        /* \"#utility.yul\":2633:2639   */\n      dup3\n        /* \"#utility.yul\":2622:2631   */\n      dup6\n        /* \"#utility.yul\":2618:2640   */\n      add\n        /* \"#utility.yul\":2597:2650   */\n      tag_61\n      jump\t// in\n    tag_113:\n        /* \"#utility.yul\":2587:2650   */\n      swap2\n      pop\n        /* \"#utility.yul\":2543:2660   */\n      pop\n        /* \"#utility.yul\":2338:2667   */\n      swap3\n      swap2\n      pop\n      pop\n      jump\t// out\n        /* \"#utility.yul\":2673:2787   */\n    tag_68:\n        /* \"#utility.yul\":2740:2746   */\n      0x00\n        /* \"#utility.yul\":2774:2779   */\n      dup2\n        /* \"#utility.yul\":2768:2780   */\n      mload\n        /* \"#utility.yul\":2758:2780   */\n      swap1\n      pop\n        /* \"#utility.yul\":2673:2787   */\n      swap2\n      swap1\n      pop\n      jump\t// out\n        /* \"#utility.yul\":2793:2977   */\n    tag_69:\n        /* \"#utility.yul\":2892:2903   */\n      0x00\n        /* \"#utility.yul\":2926:2932   */\n      dup3\n        /* \"#utility.yul\":2921:2924   */\n      dup3\n        /* \"#utility.yul\":2914:2933   */\n      mstore\n        /* \"#utility.yul\":2966:2970   */\n      0x20\n        /* \"#utility.yul\":2961:2964   */\n      dup3\n        /* \"#utility.yul\":2957:2971   */\n      add\n        /* \"#utility.yul\":2942:2971   */\n      swap1\n      pop\n        /* \"#utility.yul\":2793:2977   */\n      swap3\n      swap2\n      pop\n      pop\n      jump\t// out\n        /* \"#utility.yul\":2983:3115   */\n    tag_70:\n        /* \"#utility.yul\":3050:3054   */\n      0x00\n        /* \"#utility.yul\":3073:3076   */\n      dup2\n        /* \"#utility.yul\":3065:3076   */\n      swap1\n      pop\n        /* \"#utility.yul\":3103:3107   */\n      0x20\n        /* \"#utility.yul\":3098:3101   */\n      dup3\n        /* \"#utility.yul\":3094:3108   */\n      add\n        /* \"#utility.yul\":3086:3108   */\n      swap1\n      pop\n        /* \"#utility.yul\":2983:3115   */\n      swap2\n      swap1\n      pop\n      jump\t// out\n        /* \"#utility.yul\":3121:3229   */\n    tag_71:\n        /* \"#utility.yul\":3198:3222   */\n      tag_118\n        /* \"#utility.yul\":3216:3221   */\n      dup2\n        /* \"#utility.yul\":3198:3222   */\n      tag_62\n      jump\t// in\n    tag_118:\n        /* \"#utility.yul\":3193:3196   */\n      dup3\n        /* \"#utility.yul\":3186:3223   */\n      mstore\n        /* \"#utility.yul\":3121:3229   */\n      pop\n      pop\n      jump\t// out\n        /* \"#utility.yul\":3235:3414   */\n    tag_72:\n        /* \"#utility.yul\":3304:3314   */\n      0x00\n        /* \"#utility.yul\":3325:3371   */\n      tag_120\n        /* \"#utility.yul\":3367:3370   */\n      dup4\n        /* \"#utility.yul\":3359:3365   */\n      dup4\n        /* \"#utility.yul\":3325:3371   */\n      tag_71\n      jump\t// in\n    tag_120:\n        /* \"#utility.yul\":3403:3407   */\n      0x20\n        /* \"#utility.yul\":3398:3401   */\n      dup4\n        /* \"#utility.yul\":3394:3408   */\n      add\n        /* \"#utility.yul\":3380:3408   */\n      swap1\n      pop\n        /* \"#utility.yul\":3235:3414   */\n      swap3\n      swap2\n      pop\n      pop\n      jump\t// out\n        /* \"#utility.yul\":3420:3533   */\n    tag_73:\n        /* \"#utility.yul\":3490:3494   */\n      0x00\n        /* \"#utility.yul\":3522:3526   */\n      0x20\n        /* \"#utility.yul\":3517:3520   */\n      dup3\n        /* \"#utility.yul\":3513:3527   */\n      add\n        /* \"#utility.yul\":3505:3527   */\n      swap1\n      pop\n        /* \"#utility.yul\":3420:3533   */\n      swap2\n      swap1\n      pop\n      jump\t// out\n        /* \"#utility.yul\":3569:4301   */\n    tag_74:\n        /* \"#utility.yul\":3688:3691   */\n      0x00\n        /* \"#utility.yul\":3717:3771   */\n      tag_123\n        /* \"#utility.yul\":3765:3770   */\n      dup3\n        /* \"#utility.yul\":3717:3771   */\n      tag_68\n      jump\t// in\n    tag_123:\n        /* \"#utility.yul\":3787:3873   */\n      tag_124\n        /* \"#utility.yul\":3866:3872   */\n      dup2\n        /* \"#utility.yul\":3861:3864   */\n      dup6\n        /* \"#utility.yul\":3787:3873   */\n      tag_69\n      jump\t// in\n    tag_124:\n        /* \"#utility.yul\":3780:3873   */\n      swap4\n      pop\n        /* \"#utility.yul\":3897:3953   */\n      tag_125\n        /* \"#utility.yul\":3947:3952   */\n      dup4\n        /* \"#utility.yul\":3897:3953   */\n      tag_70\n      jump\t// in\n    tag_125:\n        /* \"#utility.yul\":3976:3983   */\n      dup1\n        /* \"#utility.yul\":4007:4008   */\n      0x00\n        /* \"#utility.yul\":3992:4276   */\n    tag_126:\n        /* \"#utility.yul\":4017:4023   */\n      dup4\n        /* \"#utility.yul\":4014:4015   */\n      dup2\n        /* \"#utility.yul\":4011:4024   */\n      lt\n        /* \"#utility.yul\":3992:4276   */\n      iszero\n      tag_128\n      jumpi\n        /* \"#utility.yul\":4093:4099   */\n      dup2\n        /* \"#utility.yul\":4087:4100   */\n      mload\n        /* \"#utility.yul\":4120:4183   */\n      tag_129\n        /* \"#utility.yul\":4179:4182   */\n      dup9\n        /* \"#utility.yul\":4164:4177   */\n      dup3\n        /* \"#utility.yul\":4120:4183   */\n      tag_72\n      jump\t// in\n    tag_129:\n        /* \"#utility.yul\":4113:4183   */\n      swap8\n      pop\n        /* \"#utility.yul\":4206:4266   */\n      tag_130\n        /* \"#utility.yul\":4259:4265   */\n      dup4\n        /* \"#utility.yul\":4206:4266   */\n      tag_73\n      jump\t// in\n    tag_130:\n        /* \"#utility.yul\":4196:4266   */\n      swap3\n      pop\n        /* \"#utility.yul\":4052:4276   */\n      pop\n        /* \"#utility.yul\":4039:4040   */\n      0x01\n        /* \"#utility.yul\":4036:4037   */\n      dup2\n        /* \"#utility.yul\":4032:4041   */\n      add\n        /* \"#utility.yul\":4027:4041   */\n      swap1\n      pop\n        /* \"#utility.yul\":3992:4276   */\n      jump(tag_126)\n    tag_128:\n        /* \"#utility.yul\":3996:4010   */\n      pop\n        /* \"#utility.yul\":4292:4295   */\n      dup6\n        /* \"#utility.yul\":4285:4295   */\n      swap4\n      pop\n        /* \"#utility.yul\":3693:4301   */\n      pop\n      pop\n      pop\n        /* \"#utility.yul\":3569:4301   */\n      swap3\n      swap2\n      pop\n      pop\n      jump\t// out\n        /* \"#utility.yul\":4307:4680   */\n    tag_22:\n        /* \"#utility.yul\":4450:4454   */\n      0x00\n        /* \"#utility.yul\":4488:4490   */\n      0x20\n        /* \"#utility.yul\":4477:4486   */\n      dup3\n        /* \"#utility.yul\":4473:4491   */\n      add\n        /* \"#utility.yul\":4465:4491   */\n      swap1\n      pop\n        /* \"#utility.yul\":4537:4546   */\n      dup2\n        /* \"#utility.yul\":4531:4535   */\n      dup2\n        /* \"#utility.yul\":4527:4547   */\n      sub\n        /* \"#utility.yul\":4523:4524   */\n      0x00\n        /* \"#utility.yul\":4512:4521   */\n      dup4\n        /* \"#utility.yul\":4508:4525   */\n      add\n        /* \"#utility.yul\":4501:4548   */\n      mstore\n        /* \"#utility.yul\":4565:4673   */\n      tag_132\n        /* \"#utility.yul\":4668:4672   */\n      dup2\n        /* \"#utility.yul\":4659:4665   */\n      dup5\n        /* \"#utility.yul\":4565:4673   */\n      tag_74\n      jump\t// in\n    tag_132:\n        /* \"#utility.yul\":4557:4673   */\n      swap1\n      pop\n        /* \"#utility.yul\":4307:4680   */\n      swap3\n      swap2\n      pop\n      pop\n      jump\t// out\n        /* \"#utility.yul\":4686:4896   */\n    tag_27:\n        /* \"#utility.yul\":4773:4777   */\n      0x00\n        /* \"#utility.yul\":4811:4813   */\n      0x20\n        /* \"#utility.yul\":4800:4809   */\n      dup3\n        /* \"#utility.yul\":4796:4814   */\n      add\n        /* \"#utility.yul\":4788:4814   */\n      swap1\n      pop\n        /* \"#utility.yul\":4824:4889   */\n      tag_134\n        /* \"#utility.yul\":4886:4887   */\n      0x00\n        /* \"#utility.yul\":4875:4884   */\n      dup4\n        /* \"#utility.yul\":4871:4888   */\n      add\n        /* \"#utility.yul\":4862:4868   */\n      dup5\n        /* \"#utility.yul\":4824:4889   */\n      tag_67\n      jump\t// in\n    tag_134:\n        /* \"#utility.yul\":4686:4896   */\n      swap3\n      swap2\n      pop\n      pop\n      jump\t// out\n        /* \"#utility.yul\":4902:5124   */\n    tag_37:\n        /* \"#utility.yul\":4995:4999   */\n      0x00\n        /* \"#utility.yul\":5033:5035   */\n      0x20\n        /* \"#utility.yul\":5022:5031   */\n      dup3\n        /* \"#utility.yul\":5018:5036   */\n      add\n        /* \"#utility.yul\":5010:5036   */\n      swap1\n      pop\n        /* \"#utility.yul\":5046:5117   */\n      tag_136\n        /* \"#utility.yul\":5114:5115   */\n      0x00\n        /* \"#utility.yul\":5103:5112   */\n      dup4\n        /* \"#utility.yul\":5099:5116   */\n      add\n        /* \"#utility.yul\":5090:5096   */\n      dup5\n        /* \"#utility.yul\":5046:5117   */\n      tag_65\n      jump\t// in\n    tag_136:\n        /* \"#utility.yul\":4902:5124   */\n      swap3\n      swap2\n      pop\n      pop\n      jump\t// out\n        /* \"#utility.yul\":5130:5299   */\n    tag_75:\n        /* \"#utility.yul\":5214:5225   */\n      0x00\n        /* \"#utility.yul\":5248:5254   */\n      dup3\n        /* \"#utility.yul\":5243:5246   */\n      dup3\n        /* \"#utility.yul\":5236:5255   */\n      mstore\n        /* \"#utility.yul\":5288:5292   */\n      0x20\n        /* \"#utility.yul\":5283:5286   */\n      dup3\n        /* \"#utility.yul\":5279:5293   */\n      add\n        /* \"#utility.yul\":5264:5293   */\n      swap1\n      pop\n        /* \"#utility.yul\":5130:5299   */\n      swap3\n      swap2\n      pop\n      pop\n      jump\t// out\n        /* \"#utility.yul\":5305:5475   */\n    tag_76:\n        /* \"#utility.yul\":5445:5467   */\n      0x44417070206f776e6572206e6f7420666f756e64000000000000000000000000\n        /* \"#utility.yul\":5441:5442   */\n      0x00\n        /* \"#utility.yul\":5433:5439   */\n      dup3\n        /* \"#utility.yul\":5429:5443   */\n      add\n        /* \"#utility.yul\":5422:5468   */\n      mstore\n        /* \"#utility.yul\":5305:5475   */\n      pop\n      jump\t// out\n        /* \"#utility.yul\":5481:5847   */\n    tag_77:\n        /* \"#utility.yul\":5623:5626   */\n      0x00\n        /* \"#utility.yul\":5644:5711   */\n      tag_140\n        /* \"#utility.yul\":5708:5710   */\n      0x14\n        /* \"#utility.yul\":5703:5706   */\n      dup4\n        /* \"#utility.yul\":5644:5711   */\n      tag_75\n      jump\t// in\n    tag_140:\n        /* \"#utility.yul\":5637:5711   */\n      swap2\n      pop\n        /* \"#utility.yul\":5720:5813   */\n      tag_141\n        /* \"#utility.yul\":5809:5812   */\n      dup3\n        /* \"#utility.yul\":5720:5813   */\n      tag_76\n      jump\t// in\n    tag_141:\n        /* \"#utility.yul\":5838:5840   */\n      0x20\n        /* \"#utility.yul\":5833:5836   */\n      dup3\n        /* \"#utility.yul\":5829:5841   */\n      add\n        /* \"#utility.yul\":5822:5841   */\n      swap1\n      pop\n        /* \"#utility.yul\":5481:5847   */\n      swap2\n      swap1\n      pop\n      jump\t// out\n        /* \"#utility.yul\":5853:6272   */\n    tag_49:\n        /* \"#utility.yul\":6019:6023   */\n      0x00\n        /* \"#utility.yul\":6057:6059   */\n      0x20\n        /* \"#utility.yul\":6046:6055   */\n      dup3\n        /* \"#utility.yul\":6042:6060   */\n      add\n        /* \"#utility.yul\":6034:6060   */\n      swap1\n      pop\n        /* \"#utility.yul\":6106:6115   */\n      dup2\n        /* \"#utility.yul\":6100:6104   */\n      dup2\n        /* \"#utility.yul\":6096:6116   */\n      sub\n        /* \"#utility.yul\":6092:6093   */\n      0x00\n        /* \"#utility.yul\":6081:6090   */\n      dup4\n        /* \"#utility.yul\":6077:6094   */\n      add\n        /* \"#utility.yul\":6070:6117   */\n      mstore\n        /* \"#utility.yul\":6134:6265   */\n      tag_143\n        /* \"#utility.yul\":6260:6264   */\n      dup2\n        /* \"#utility.yul\":6134:6265   */\n      tag_77\n      jump\t// in\n    tag_143:\n        /* \"#utility.yul\":6126:6265   */\n      swap1\n      pop\n        /* \"#utility.yul\":5853:6272   */\n      swap2\n      swap1\n      pop\n      jump\t// out\n        /* \"#utility.yul\":6278:6458   */\n    tag_78:\n        /* \"#utility.yul\":6326:6403   */\n      0x4e487b7100000000000000000000000000000000000000000000000000000000\n        /* \"#utility.yul\":6323:6324   */\n      0x00\n        /* \"#utility.yul\":6316:6404   */\n      mstore\n        /* \"#utility.yul\":6423:6427   */\n      0x11\n        /* \"#utility.yul\":6420:6421   */\n      0x04\n        /* \"#utility.yul\":6413:6428   */\n      mstore\n        /* \"#utility.yul\":6447:6451   */\n      0x24\n        /* \"#utility.yul\":6444:6445   */\n      0x00\n        /* \"#utility.yul\":6437:6452   */\n      revert\n        /* \"#utility.yul\":6464:6697   */\n    tag_54:\n        /* \"#utility.yul\":6503:6506   */\n      0x00\n        /* \"#utility.yul\":6526:6550   */\n      tag_146\n        /* \"#utility.yul\":6544:6549   */\n      dup3\n        /* \"#utility.yul\":6526:6550   */\n      tag_62\n      jump\t// in\n    tag_146:\n        /* \"#utility.yul\":6517:6550   */\n      swap2\n      pop\n        /* \"#utility.yul\":6572:6638   */\n      0xffffffffffffffffffffffffffffffffffffffffffffffffffffffffffffffff\n        /* \"#utility.yul\":6565:6570   */\n      dup3\n        /* \"#utility.yul\":6562:6639   */\n      sub\n        /* \"#utility.yul\":6559:6662   */\n      tag_147\n      jumpi\n        /* \"#utility.yul\":6642:6660   */\n      tag_148\n      tag_78\n      jump\t// in\n    tag_148:\n        /* \"#utility.yul\":6559:6662   */\n    tag_147:\n        /* \"#utility.yul\":6689:6690   */\n      0x01\n        /* \"#utility.yul\":6682:6687   */\n      dup3\n        /* \"#utility.yul\":6678:6691   */\n      add\n        /* \"#utility.yul\":6671:6691   */\n      swap1\n      pop\n        /* \"#utility.yul\":6464:6697   */\n      swap2\n      swap1\n      pop\n      jump\t// out\n\n    auxdata: 0xa2646970667358221220b95eab15cc4e39bdbf088c81ed882914b1ef62df4185498dbdab9c787f2d951164736f6c634300081a0033\n}\n",
				"bytecode": {
					"linkReferences": {},
					"object": "608060405260015f553480156012575f80fd5b507f18364fe077c6409a3429b2b86343cc98aeb574df3cc4a3a2af3a28b471fe6c5d60405160405180910390a16108e18061004c5f395ff3fe608060405234801561000f575f80fd5b506004361061007b575f3560e01c8063ae9f4db211610059578063ae9f4db214610110578063e37a3f4714610140578063e59a41051461014a578063ead30e93146101685761007b565b806324c96f3b1461007f578063349a045c146100b05780636da5e51d146100e0575b5f80fd5b610099600480360381019061009491906105fd565b610172565b6040516100a7929190610664565b60405180910390f35b6100ca60048036038101906100c5919061068b565b610209565b6040516100d7919061076d565b60405180910390f35b6100fa60048036038101906100f591906105fd565b61029f565b604051610107919061078d565b60405180910390f35b61012a6004803603810190610125919061068b565b6102fd565b604051610137919061078d565b60405180910390f35b610148610323565b005b61015261037b565b60405161015f91906107a6565b60405180910390f35b610170610380565b005b5f805f60015f8673ffffffffffffffffffffffffffffffffffffffff1673ffffffffffffffffffffffffffffffffffffffff1681526020019081526020015f206001015f8581526020019081526020015f206040518060400160405290815f8201548152602001600182015f9054906101000a900460ff1615151515815250509050805f0151816020015192509250509250929050565b606060015f8373ffffffffffffffffffffffffffffffffffffffff1673ffffffffffffffffffffffffffffffffffffffff1681526020019081526020015f2060020180548060200260200160405190810160405280929190818152602001828054801561029357602002820191905f5260205f20905b81548152602001906001019080831161027f575b50505050509050919050565b5f8060015f8573ffffffffffffffffffffffffffffffffffffffff1673ffffffffffffffffffffffffffffffffffffffff1681526020019081526020015f206001015f8481526020019081526020015f205f01541415905092915050565b6001602052805f5260405f205f91509050805f015f9054906101000a900460ff16905081565b6001805f3373ffffffffffffffffffffffffffffffffffffffff1673ffffffffffffffffffffffffffffffffffffffff1681526020019081526020015f205f015f6101000a81548160ff021916908315150217905550565b5f5481565b60015f3373ffffffffffffffffffffffffffffffffffffffff1673ffffffffffffffffffffffffffffffffffffffff1681526020019081526020015f205f015f9054906101000a900460ff1661040b576040517f08c379a000000000000000000000000000000000000000000000000000000000815260040161040290610819565b60405180910390fd5b5f8054905060405180604001604052808281526020016001151581525060015f3373ffffffffffffffffffffffffffffffffffffffff1673ffffffffffffffffffffffffffffffffffffffff1681526020019081526020015f206001015f8381526020019081526020015f205f820151815f01556020820151816001015f6101000a81548160ff02191690831515021790555090505060015f3373ffffffffffffffffffffffffffffffffffffffff1673ffffffffffffffffffffffffffffffffffffffff1681526020019081526020015f2060020181908060018154018082558091505060019003905f5260205f20015f90919091909150553373ffffffffffffffffffffffffffffffffffffffff167f83369a4e41b7306a382ebc560f2a96fce45c4f23f5cd489c86c40de4b2ce1f408260405161054b91906107a6565b60405180910390a25f8081548092919061056490610864565b919050555050565b5f80fd5b5f73ffffffffffffffffffffffffffffffffffffffff82169050919050565b5f61059982610570565b9050919050565b6105a98161058f565b81146105b3575f80fd5b50565b5f813590506105c4816105a0565b92915050565b5f819050919050565b6105dc816105ca565b81146105e6575f80fd5b50565b5f813590506105f7816105d3565b92915050565b5f80604083850312156106135761061261056c565b5b5f610620858286016105b6565b9250506020610631858286016105e9565b9150509250929050565b610644816105ca565b82525050565b5f8115159050919050565b61065e8161064a565b82525050565b5f6040820190506106775f83018561063b565b6106846020830184610655565b9392505050565b5f602082840312156106a05761069f61056c565b5b5f6106ad848285016105b6565b91505092915050565b5f81519050919050565b5f82825260208201905092915050565b5f819050602082019050919050565b6106e8816105ca565b82525050565b5f6106f983836106df565b60208301905092915050565b5f602082019050919050565b5f61071b826106b6565b61072581856106c0565b9350610730836106d0565b805f5b8381101561076057815161074788826106ee565b975061075283610705565b925050600181019050610733565b5085935050505092915050565b5f6020820190508181035f8301526107858184610711565b905092915050565b5f6020820190506107a05f830184610655565b92915050565b5f6020820190506107b95f83018461063b565b92915050565b5f82825260208201905092915050565b7f44417070206f776e6572206e6f7420666f756e640000000000000000000000005f82015250565b5f6108036014836107bf565b915061080e826107cf565b602082019050919050565b5f6020820190508181035f830152610830816107f7565b9050919050565b7f4e487b71000000000000000000000000000000000000000000000000000000005f52601160045260245ffd5b5f61086e826105ca565b91507fffffffffffffffffffffffffffffffffffffffffffffffffffffffffffffffff82036108a05761089f610837565b5b60018201905091905056fea2646970667358221220b95eab15cc4e39bdbf088c81ed882914b1ef62df4185498dbdab9c787f2d951164736f6c634300081a0033",
					"opcodes": "PUSH1 0x80 PUSH1 0x40 MSTORE PUSH1 0x1 PUSH0 SSTORE CALLVALUE DUP1 ISZERO PUSH1 0x12 JUMPI PUSH0 DUP1 REVERT JUMPDEST POP PUSH32 0x18364FE077C6409A3429B2B86343CC98AEB574DF3CC4A3A2AF3A28B471FE6C5D PUSH1 0x40 MLOAD PUSH1 0x40 MLOAD DUP1 SWAP2 SUB SWAP1 LOG1 PUSH2 0x8E1 DUP1 PUSH2 0x4C PUSH0 CODECOPY PUSH0 RETURN INVALID PUSH1 0x80 PUSH1 0x40 MSTORE CALLVALUE DUP1 ISZERO PUSH2 0xF JUMPI PUSH0 DUP1 REVERT JUMPDEST POP PUSH1 0x4 CALLDATASIZE LT PUSH2 0x7B JUMPI PUSH0 CALLDATALOAD PUSH1 0xE0 SHR DUP1 PUSH4 0xAE9F4DB2 GT PUSH2 0x59 JUMPI DUP1 PUSH4 0xAE9F4DB2 EQ PUSH2 0x110 JUMPI DUP1 PUSH4 0xE37A3F47 EQ PUSH2 0x140 JUMPI DUP1 PUSH4 0xE59A4105 EQ PUSH2 0x14A JUMPI DUP1 PUSH4 0xEAD30E93 EQ PUSH2 0x168 JUMPI PUSH2 0x7B JUMP JUMPDEST DUP1 PUSH4 0x24C96F3B EQ PUSH2 0x7F JUMPI DUP1 PUSH4 0x349A045C EQ PUSH2 0xB0 JUMPI DUP1 PUSH4 0x6DA5E51D EQ PUSH2 0xE0 JUMPI JUMPDEST PUSH0 DUP1 REVERT JUMPDEST PUSH2 0x99 PUSH1 0x4 DUP1 CALLDATASIZE SUB DUP2 ADD SWAP1 PUSH2 0x94 SWAP2 SWAP1 PUSH2 0x5FD JUMP JUMPDEST PUSH2 0x172 JUMP JUMPDEST PUSH1 0x40 MLOAD PUSH2 0xA7 SWAP3 SWAP2 SWAP1 PUSH2 0x664 JUMP JUMPDEST PUSH1 0x40 MLOAD DUP1 SWAP2 SUB SWAP1 RETURN JUMPDEST PUSH2 0xCA PUSH1 0x4 DUP1 CALLDATASIZE SUB DUP2 ADD SWAP1 PUSH2 0xC5 SWAP2 SWAP1 PUSH2 0x68B JUMP JUMPDEST PUSH2 0x209 JUMP JUMPDEST PUSH1 0x40 MLOAD PUSH2 0xD7 SWAP2 SWAP1 PUSH2 0x76D JUMP JUMPDEST PUSH1 0x40 MLOAD DUP1 SWAP2 SUB SWAP1 RETURN JUMPDEST PUSH2 0xFA PUSH1 0x4 DUP1 CALLDATASIZE SUB DUP2 ADD SWAP1 PUSH2 0xF5 SWAP2 SWAP1 PUSH2 0x5FD JUMP JUMPDEST PUSH2 0x29F JUMP JUMPDEST PUSH1 0x40 MLOAD PUSH2 0x107 SWAP2 SWAP1 PUSH2 0x78D JUMP JUMPDEST PUSH1 0x40 MLOAD DUP1 SWAP2 SUB SWAP1 RETURN JUMPDEST PUSH2 0x12A PUSH1 0x4 DUP1 CALLDATASIZE SUB DUP2 ADD SWAP1 PUSH2 0x125 SWAP2 SWAP1 PUSH2 0x68B JUMP JUMPDEST PUSH2 0x2FD JUMP JUMPDEST PUSH1 0x40 MLOAD PUSH2 0x137 SWAP2 SWAP1 PUSH2 0x78D JUMP JUMPDEST PUSH1 0x40 MLOAD DUP1 SWAP2 SUB SWAP1 RETURN JUMPDEST PUSH2 0x148 PUSH2 0x323 JUMP JUMPDEST STOP JUMPDEST PUSH2 0x152 PUSH2 0x37B JUMP JUMPDEST PUSH1 0x40 MLOAD PUSH2 0x15F SWAP2 SWAP1 PUSH2 0x7A6 JUMP JUMPDEST PUSH1 0x40 MLOAD DUP1 SWAP2 SUB SWAP1 RETURN JUMPDEST PUSH2 0x170 PUSH2 0x380 JUMP JUMPDEST STOP JUMPDEST PUSH0 DUP1 PUSH0 PUSH1 0x1 PUSH0 DUP7 PUSH20 0xFFFFFFFFFFFFFFFFFFFFFFFFFFFFFFFFFFFFFFFF AND PUSH20 0xFFFFFFFFFFFFFFFFFFFFFFFFFFFFFFFFFFFFFFFF AND DUP2 MSTORE PUSH1 0x20 ADD SWAP1 DUP2 MSTORE PUSH1 0x20 ADD PUSH0 KECCAK256 PUSH1 0x1 ADD PUSH0 DUP6 DUP2 MSTORE PUSH1 0x20 ADD SWAP1 DUP2 MSTORE PUSH1 0x20 ADD PUSH0 KECCAK256 PUSH1 0x40 MLOAD DUP1 PUSH1 0x40 ADD PUSH1 0x40 MSTORE SWAP1 DUP2 PUSH0 DUP3 ADD SLOAD DUP2 MSTORE PUSH1 0x20 ADD PUSH1 0x1 DUP3 ADD PUSH0 SWAP1 SLOAD SWAP1 PUSH2 0x100 EXP SWAP1 DIV PUSH1 0xFF AND ISZERO ISZERO ISZERO ISZERO DUP2 MSTORE POP POP SWAP1 POP DUP1 PUSH0 ADD MLOAD DUP2 PUSH1 0x20 ADD MLOAD SWAP3 POP SWAP3 POP POP SWAP3 POP SWAP3 SWAP1 POP JUMP JUMPDEST PUSH1 0x60 PUSH1 0x1 PUSH0 DUP4 PUSH20 0xFFFFFFFFFFFFFFFFFFFFFFFFFFFFFFFFFFFFFFFF AND PUSH20 0xFFFFFFFFFFFFFFFFFFFFFFFFFFFFFFFFFFFFFFFF AND DUP2 MSTORE PUSH1 0x20 ADD SWAP1 DUP2 MSTORE PUSH1 0x20 ADD PUSH0 KECCAK256 PUSH1 0x2 ADD DUP1 SLOAD DUP1 PUSH1 0x20 MUL PUSH1 0x20 ADD PUSH1 0x40 MLOAD SWAP1 DUP2 ADD PUSH1 0x40 MSTORE DUP1 SWAP3 SWAP2 SWAP1 DUP2 DUP2 MSTORE PUSH1 0x20 ADD DUP3 DUP1 SLOAD DUP1 ISZERO PUSH2 0x293 JUMPI PUSH1 0x20 MUL DUP3 ADD SWAP2 SWAP1 PUSH0 MSTORE PUSH1 0x20 PUSH0 KECCAK256 SWAP1 JUMPDEST DUP2 SLOAD DUP2 MSTORE PUSH1 0x20 ADD SWAP1 PUSH1 0x1 ADD SWAP1 DUP1 DUP4 GT PUSH2 0x27F JUMPI JUMPDEST POP POP POP POP POP SWAP1 POP SWAP2 SWAP1 POP JUMP JUMPDEST PUSH0 DUP1 PUSH1 0x1 PUSH0 DUP6 PUSH20 0xFFFFFFFFFFFFFFFFFFFFFFFFFFFFFFFFFFFFFFFF AND PUSH20 0xFFFFFFFFFFFFFFFFFFFFFFFFFFFFFFFFFFFFFFFF AND DUP2 MSTORE PUSH1 0x20 ADD SWAP1 DUP2 MSTORE PUSH1 0x20 ADD PUSH0 KECCAK256 PUSH1 0x1 ADD PUSH0 DUP5 DUP2 MSTORE PUSH1 0x20 ADD SWAP1 DUP2 MSTORE PUSH1 0x20 ADD PUSH0 KECCAK256 PUSH0 ADD SLOAD EQ ISZERO SWAP1 POP SWAP3 SWAP2 POP POP JUMP JUMPDEST PUSH1 0x1 PUSH1 0x20 MSTORE DUP1 PUSH0 MSTORE PUSH1 0x40 PUSH0 KECCAK256 PUSH0 SWAP2 POP SWAP1 POP DUP1 PUSH0 ADD PUSH0 SWAP1 SLOAD SWAP1 PUSH2 0x100 EXP SWAP1 DIV PUSH1 0xFF AND SWAP1 POP DUP2 JUMP JUMPDEST PUSH1 0x1 DUP1 PUSH0 CALLER PUSH20 0xFFFFFFFFFFFFFFFFFFFFFFFFFFFFFFFFFFFFFFFF AND PUSH20 0xFFFFFFFFFFFFFFFFFFFFFFFFFFFFFFFFFFFFFFFF AND DUP2 MSTORE PUSH1 0x20 ADD SWAP1 DUP2 MSTORE PUSH1 0x20 ADD PUSH0 KECCAK256 PUSH0 ADD PUSH0 PUSH2 0x100 EXP DUP2 SLOAD DUP2 PUSH1 0xFF MUL NOT AND SWAP1 DUP4 ISZERO ISZERO MUL OR SWAP1 SSTORE POP JUMP JUMPDEST PUSH0 SLOAD DUP2 JUMP JUMPDEST PUSH1 0x1 PUSH0 CALLER PUSH20 0xFFFFFFFFFFFFFFFFFFFFFFFFFFFFFFFFFFFFFFFF AND PUSH20 0xFFFFFFFFFFFFFFFFFFFFFFFFFFFFFFFFFFFFFFFF AND DUP2 MSTORE PUSH1 0x20 ADD SWAP1 DUP2 MSTORE PUSH1 0x20 ADD PUSH0 KECCAK256 PUSH0 ADD PUSH0 SWAP1 SLOAD SWAP1 PUSH2 0x100 EXP SWAP1 DIV PUSH1 0xFF AND PUSH2 0x40B JUMPI PUSH1 0x40 MLOAD PUSH32 0x8C379A000000000000000000000000000000000000000000000000000000000 DUP2 MSTORE PUSH1 0x4 ADD PUSH2 0x402 SWAP1 PUSH2 0x819 JUMP JUMPDEST PUSH1 0x40 MLOAD DUP1 SWAP2 SUB SWAP1 REVERT JUMPDEST PUSH0 DUP1 SLOAD SWAP1 POP PUSH1 0x40 MLOAD DUP1 PUSH1 0x40 ADD PUSH1 0x40 MSTORE DUP1 DUP3 DUP2 MSTORE PUSH1 0x20 ADD PUSH1 0x1 ISZERO ISZERO DUP2 MSTORE POP PUSH1 0x1 PUSH0 CALLER PUSH20 0xFFFFFFFFFFFFFFFFFFFFFFFFFFFFFFFFFFFFFFFF AND PUSH20 0xFFFFFFFFFFFFFFFFFFFFFFFFFFFFFFFFFFFFFFFF AND DUP2 MSTORE PUSH1 0x20 ADD SWAP1 DUP2 MSTORE PUSH1 0x20 ADD PUSH0 KECCAK256 PUSH1 0x1 ADD PUSH0 DUP4 DUP2 MSTORE PUSH1 0x20 ADD SWAP1 DUP2 MSTORE PUSH1 0x20 ADD PUSH0 KECCAK256 PUSH0 DUP3 ADD MLOAD DUP2 PUSH0 ADD SSTORE PUSH1 0x20 DUP3 ADD MLOAD DUP2 PUSH1 0x1 ADD PUSH0 PUSH2 0x100 EXP DUP2 SLOAD DUP2 PUSH1 0xFF MUL NOT AND SWAP1 DUP4 ISZERO ISZERO MUL OR SWAP1 SSTORE POP SWAP1 POP POP PUSH1 0x1 PUSH0 CALLER PUSH20 0xFFFFFFFFFFFFFFFFFFFFFFFFFFFFFFFFFFFFFFFF AND PUSH20 0xFFFFFFFFFFFFFFFFFFFFFFFFFFFFFFFFFFFFFFFF AND DUP2 MSTORE PUSH1 0x20 ADD SWAP1 DUP2 MSTORE PUSH1 0x20 ADD PUSH0 KECCAK256 PUSH1 0x2 ADD DUP2 SWAP1 DUP1 PUSH1 0x1 DUP2 SLOAD ADD DUP1 DUP3 SSTORE DUP1 SWAP2 POP POP PUSH1 0x1 SWAP1 SUB SWAP1 PUSH0 MSTORE PUSH1 0x20 PUSH0 KECCAK256 ADD PUSH0 SWAP1 SWAP2 SWAP1 SWAP2 SWAP1 SWAP2 POP SSTORE CALLER PUSH20 0xFFFFFFFFFFFFFFFFFFFFFFFFFFFFFFFFFFFFFFFF AND PUSH32 0x83369A4E41B7306A382EBC560F2A96FCE45C4F23F5CD489C86C40DE4B2CE1F40 DUP3 PUSH1 0x40 MLOAD PUSH2 0x54B SWAP2 SWAP1 PUSH2 0x7A6 JUMP JUMPDEST PUSH1 0x40 MLOAD DUP1 SWAP2 SUB SWAP1 LOG2 PUSH0 DUP1 DUP2 SLOAD DUP1 SWAP3 SWAP2 SWAP1 PUSH2 0x564 SWAP1 PUSH2 0x864 JUMP JUMPDEST SWAP2 SWAP1 POP SSTORE POP POP JUMP JUMPDEST PUSH0 DUP1 REVERT JUMPDEST PUSH0 PUSH20 0xFFFFFFFFFFFFFFFFFFFFFFFFFFFFFFFFFFFFFFFF DUP3 AND SWAP1 POP SWAP2 SWAP1 POP JUMP JUMPDEST PUSH0 PUSH2 0x599 DUP3 PUSH2 0x570 JUMP JUMPDEST SWAP1 POP SWAP2 SWAP1 POP JUMP JUMPDEST PUSH2 0x5A9 DUP2 PUSH2 0x58F JUMP JUMPDEST DUP2 EQ PUSH2 0x5B3 JUMPI PUSH0 DUP1 REVERT JUMPDEST POP JUMP JUMPDEST PUSH0 DUP2 CALLDATALOAD SWAP1 POP PUSH2 0x5C4 DUP2 PUSH2 0x5A0 JUMP JUMPDEST SWAP3 SWAP2 POP POP JUMP JUMPDEST PUSH0 DUP2 SWAP1 POP SWAP2 SWAP1 POP JUMP JUMPDEST PUSH2 0x5DC DUP2 PUSH2 0x5CA JUMP JUMPDEST DUP2 EQ PUSH2 0x5E6 JUMPI PUSH0 DUP1 REVERT JUMPDEST POP JUMP JUMPDEST PUSH0 DUP2 CALLDATALOAD SWAP1 POP PUSH2 0x5F7 DUP2 PUSH2 0x5D3 JUMP JUMPDEST SWAP3 SWAP2 POP POP JUMP JUMPDEST PUSH0 DUP1 PUSH1 0x40 DUP4 DUP6 SUB SLT ISZERO PUSH2 0x613 JUMPI PUSH2 0x612 PUSH2 0x56C JUMP JUMPDEST JUMPDEST PUSH0 PUSH2 0x620 DUP6 DUP3 DUP7 ADD PUSH2 0x5B6 JUMP JUMPDEST SWAP3 POP POP PUSH1 0x20 PUSH2 0x631 DUP6 DUP3 DUP7 ADD PUSH2 0x5E9 JUMP JUMPDEST SWAP2 POP POP SWAP3 POP SWAP3 SWAP1 POP JUMP JUMPDEST PUSH2 0x644 DUP2 PUSH2 0x5CA JUMP JUMPDEST DUP3 MSTORE POP POP JUMP JUMPDEST PUSH0 DUP2 ISZERO ISZERO SWAP1 POP SWAP2 SWAP1 POP JUMP JUMPDEST PUSH2 0x65E DUP2 PUSH2 0x64A JUMP JUMPDEST DUP3 MSTORE POP POP JUMP JUMPDEST PUSH0 PUSH1 0x40 DUP3 ADD SWAP1 POP PUSH2 0x677 PUSH0 DUP4 ADD DUP6 PUSH2 0x63B JUMP JUMPDEST PUSH2 0x684 PUSH1 0x20 DUP4 ADD DUP5 PUSH2 0x655 JUMP JUMPDEST SWAP4 SWAP3 POP POP POP JUMP JUMPDEST PUSH0 PUSH1 0x20 DUP3 DUP5 SUB SLT ISZERO PUSH2 0x6A0 JUMPI PUSH2 0x69F PUSH2 0x56C JUMP JUMPDEST JUMPDEST PUSH0 PUSH2 0x6AD DUP5 DUP3 DUP6 ADD PUSH2 0x5B6 JUMP JUMPDEST SWAP2 POP POP SWAP3 SWAP2 POP POP JUMP JUMPDEST PUSH0 DUP2 MLOAD SWAP1 POP SWAP2 SWAP1 POP JUMP JUMPDEST PUSH0 DUP3 DUP3 MSTORE PUSH1 0x20 DUP3 ADD SWAP1 POP SWAP3 SWAP2 POP POP JUMP JUMPDEST PUSH0 DUP2 SWAP1 POP PUSH1 0x20 DUP3 ADD SWAP1 POP SWAP2 SWAP1 POP JUMP JUMPDEST PUSH2 0x6E8 DUP2 PUSH2 0x5CA JUMP JUMPDEST DUP3 MSTORE POP POP JUMP JUMPDEST PUSH0 PUSH2 0x6F9 DUP4 DUP4 PUSH2 0x6DF JUMP JUMPDEST PUSH1 0x20 DUP4 ADD SWAP1 POP SWAP3 SWAP2 POP POP JUMP JUMPDEST PUSH0 PUSH1 0x20 DUP3 ADD SWAP1 POP SWAP2 SWAP1 POP JUMP JUMPDEST PUSH0 PUSH2 0x71B DUP3 PUSH2 0x6B6 JUMP JUMPDEST PUSH2 0x725 DUP2 DUP6 PUSH2 0x6C0 JUMP JUMPDEST SWAP4 POP PUSH2 0x730 DUP4 PUSH2 0x6D0 JUMP JUMPDEST DUP1 PUSH0 JUMPDEST DUP4 DUP2 LT ISZERO PUSH2 0x760 JUMPI DUP2 MLOAD PUSH2 0x747 DUP9 DUP3 PUSH2 0x6EE JUMP JUMPDEST SWAP8 POP PUSH2 0x752 DUP4 PUSH2 0x705 JUMP JUMPDEST SWAP3 POP POP PUSH1 0x1 DUP2 ADD SWAP1 POP PUSH2 0x733 JUMP JUMPDEST POP DUP6 SWAP4 POP POP POP POP SWAP3 SWAP2 POP POP JUMP JUMPDEST PUSH0 PUSH1 0x20 DUP3 ADD SWAP1 POP DUP2 DUP2 SUB PUSH0 DUP4 ADD MSTORE PUSH2 0x785 DUP2 DUP5 PUSH2 0x711 JUMP JUMPDEST SWAP1 POP SWAP3 SWAP2 POP POP JUMP JUMPDEST PUSH0 PUSH1 0x20 DUP3 ADD SWAP1 POP PUSH2 0x7A0 PUSH0 DUP4 ADD DUP5 PUSH2 0x655 JUMP JUMPDEST SWAP3 SWAP2 POP POP JUMP JUMPDEST PUSH0 PUSH1 0x20 DUP3 ADD SWAP1 POP PUSH2 0x7B9 PUSH0 DUP4 ADD DUP5 PUSH2 0x63B JUMP JUMPDEST SWAP3 SWAP2 POP POP JUMP JUMPDEST PUSH0 DUP3 DUP3 MSTORE PUSH1 0x20 DUP3 ADD SWAP1 POP SWAP3 SWAP2 POP POP JUMP JUMPDEST PUSH32 0x44417070206F776E6572206E6F7420666F756E64000000000000000000000000 PUSH0 DUP3 ADD MSTORE POP JUMP JUMPDEST PUSH0 PUSH2 0x803 PUSH1 0x14 DUP4 PUSH2 0x7BF JUMP JUMPDEST SWAP2 POP PUSH2 0x80E DUP3 PUSH2 0x7CF JUMP JUMPDEST PUSH1 0x20 DUP3 ADD SWAP1 POP SWAP2 SWAP1 POP JUMP JUMPDEST PUSH0 PUSH1 0x20 DUP3 ADD SWAP1 POP DUP2 DUP2 SUB PUSH0 DUP4 ADD MSTORE PUSH2 0x830 DUP2 PUSH2 0x7F7 JUMP JUMPDEST SWAP1 POP SWAP2 SWAP1 POP JUMP JUMPDEST PUSH32 0x4E487B7100000000000000000000000000000000000000000000000000000000 PUSH0 MSTORE PUSH1 0x11 PUSH1 0x4 MSTORE PUSH1 0x24 PUSH0 REVERT JUMPDEST PUSH0 PUSH2 0x86E DUP3 PUSH2 0x5CA JUMP JUMPDEST SWAP2 POP PUSH32 0xFFFFFFFFFFFFFFFFFFFFFFFFFFFFFFFFFFFFFFFFFFFFFFFFFFFFFFFFFFFFFFFF DUP3 SUB PUSH2 0x8A0 JUMPI PUSH2 0x89F PUSH2 0x837 JUMP JUMPDEST JUMPDEST PUSH1 0x1 DUP3 ADD SWAP1 POP SWAP2 SWAP1 POP JUMP INVALID LOG2 PUSH5 0x6970667358 0x22 SLT KECCAK256 0xB9 MCOPY 0xAB ISZERO 0xCC 0x4E CODECOPY 0xBD 0xBF ADDMOD DUP13 DUP2 0xED DUP9 0x29 EQ 0xB1 0xEF PUSH3 0xDF4185 BLOBHASH DUP14 0xBD 0xAB SWAP13 PUSH25 0x7F2D951164736F6C634300081A003300000000000000000000 "
				},
				"gasEstimates": {
					"creation": {
						"codeDepositCost": "454600",
						"executionCost": "23373",
						"totalCost": "477973"
					},
					"external": {
						"adSlotExists(address,uint256)": "3147",
						"createAdSlot()": "infinite",
						"dAppOwners(address)": "2856",
						"getAdSlotDetails(address,uint256)": "infinite",
						"getSlotIds(address)": "infinite",
						"registerDAppOwner()": "24523",
						"slotCounter()": "2468"
					}
				},
				"methodIdentifiers": {
					"adSlotExists(address,uint256)": "6da5e51d",
					"createAdSlot()": "ead30e93",
					"dAppOwners(address)": "ae9f4db2",
					"getAdSlotDetails(address,uint256)": "24c96f3b",
					"getSlotIds(address)": "349a045c",
					"registerDAppOwner()": "e37a3f47",
					"slotCounter()": "e59a4105"
				}
			},
			"storageLayout": {
				"storage": [
					{
						"astId": 4,
						"contract": "contracts/adslot.sol:AdSlotManagement",
						"label": "slotCounter",
						"offset": 0,
						"slot": "0",
						"type": "t_uint256"
					},
					{
						"astId": 9,
						"contract": "contracts/adslot.sol:AdSlotManagement",
						"label": "dAppOwners",
						"offset": 0,
						"slot": "1",
						"type": "t_mapping(t_address,t_struct(DAppOwner)20_storage)"
					}
				],
				"types": {
					"t_address": {
						"encoding": "inplace",
						"label": "address",
						"numberOfBytes": "20"
					},
					"t_array(t_uint256)dyn_storage": {
						"base": "t_uint256",
						"encoding": "dynamic_array",
						"label": "uint256[]",
						"numberOfBytes": "32"
					},
					"t_bool": {
						"encoding": "inplace",
						"label": "bool",
						"numberOfBytes": "1"
					},
					"t_mapping(t_address,t_struct(DAppOwner)20_storage)": {
						"encoding": "mapping",
						"key": "t_address",
						"label": "mapping(address => struct AdSlotManagement.DAppOwner)",
						"numberOfBytes": "32",
						"value": "t_struct(DAppOwner)20_storage"
					},
					"t_mapping(t_uint256,t_struct(AdSlot)25_storage)": {
						"encoding": "mapping",
						"key": "t_uint256",
						"label": "mapping(uint256 => struct AdSlotManagement.AdSlot)",
						"numberOfBytes": "32",
						"value": "t_struct(AdSlot)25_storage"
					},
					"t_struct(AdSlot)25_storage": {
						"encoding": "inplace",
						"label": "struct AdSlotManagement.AdSlot",
						"members": [
							{
								"astId": 22,
								"contract": "contracts/adslot.sol:AdSlotManagement",
								"label": "slotId",
								"offset": 0,
								"slot": "0",
								"type": "t_uint256"
							},
							{
								"astId": 24,
								"contract": "contracts/adslot.sol:AdSlotManagement",
								"label": "isActive",
								"offset": 0,
								"slot": "1",
								"type": "t_bool"
							}
						],
						"numberOfBytes": "64"
					},
					"t_struct(DAppOwner)20_storage": {
						"encoding": "inplace",
						"label": "struct AdSlotManagement.DAppOwner",
						"members": [
							{
								"astId": 11,
								"contract": "contracts/adslot.sol:AdSlotManagement",
								"label": "isOwner",
								"offset": 0,
								"slot": "0",
								"type": "t_bool"
							},
							{
								"astId": 16,
								"contract": "contracts/adslot.sol:AdSlotManagement",
								"label": "adSlots",
								"offset": 0,
								"slot": "1",
								"type": "t_mapping(t_uint256,t_struct(AdSlot)25_storage)"
							},
							{
								"astId": 19,
								"contract": "contracts/adslot.sol:AdSlotManagement",
								"label": "slotIds",
								"offset": 0,
								"slot": "2",
								"type": "t_array(t_uint256)dyn_storage"
							}
						],
						"numberOfBytes": "96"
					},
					"t_uint256": {
						"encoding": "inplace",
						"label": "uint256",
						"numberOfBytes": "32"
					}
				}
			},
			"userdoc": {
				"kind": "user",
				"methods": {},
				"version": 1
			}
		}
	}
}