{
	"contracts/userverification.sol": {
		"UserDataPrivacyVerification": {
			"abi": [
				{
					"anonymous": false,
					"inputs": [
						{
							"indexed": true,
							"internalType": "address",
							"name": "user",
							"type": "address"
						}
					],
					"name": "InitializationCompleted",
					"type": "event"
				},
				{
					"anonymous": false,
					"inputs": [
						{
							"indexed": true,
							"internalType": "address",
							"name": "user",
							"type": "address"
						},
						{
							"indexed": false,
							"internalType": "uint256",
							"name": "settings",
							"type": "uint256"
						}
					],
					"name": "PrivacySettingsUpdated",
					"type": "event"
				},
				{
					"anonymous": false,
					"inputs": [
						{
							"indexed": true,
							"internalType": "address",
							"name": "user",
							"type": "address"
						},
						{
							"indexed": false,
							"internalType": "bool",
							"name": "success",
							"type": "bool"
						}
					],
					"name": "UserVerified",
					"type": "event"
				},
				{
					"inputs": [],
					"name": "initialize",
					"outputs": [],
					"stateMutability": "nonpayable",
					"type": "function"
				},
				{
					"inputs": [
						{
							"internalType": "address",
							"name": "user",
							"type": "address"
						}
					],
					"name": "isUserVerified",
					"outputs": [
						{
							"internalType": "bool",
							"name": "",
							"type": "bool"
						}
					],
					"stateMutability": "view",
					"type": "function"
				},
				{
					"inputs": [
						{
							"internalType": "address",
							"name": "",
							"type": "address"
						}
					],
					"name": "privacySettings",
					"outputs": [
						{
							"internalType": "uint256",
							"name": "",
							"type": "uint256"
						}
					],
					"stateMutability": "view",
					"type": "function"
				},
				{
					"inputs": [
						{
							"internalType": "uint256",
							"name": "settings",
							"type": "uint256"
						}
					],
					"name": "setPrivacySettings",
					"outputs": [],
					"stateMutability": "nonpayable",
					"type": "function"
				},
				{
					"inputs": [
						{
							"internalType": "address",
							"name": "",
							"type": "address"
						}
					],
					"name": "verifiedUsers",
					"outputs": [
						{
							"internalType": "bool",
							"name": "",
							"type": "bool"
						}
					],
					"stateMutability": "view",
					"type": "function"
				},
				{
					"inputs": [
						{
							"internalType": "uint256",
							"name": "proof",
							"type": "uint256"
						}
					],
					"name": "verifyUserData",
					"outputs": [],
					"stateMutability": "nonpayable",
					"type": "function"
				}
			],
			"devdoc": {
				"kind": "dev",
				"methods": {},
				"version": 1
			},
			"evm": {
				"assembly": "    /* \"contracts/userverification.sol\":57:1569  contract UserDataPrivacyVerification {... */\n  mstore(0x40, 0x80)\n  callvalue\n  dup1\n  iszero\n  tag_1\n  jumpi\n  0x00\n  dup1\n  revert\ntag_1:\n  pop\n  dataSize(sub_0)\n  dup1\n  dataOffset(sub_0)\n  0x00\n  codecopy\n  0x00\n  return\nstop\n\nsub_0: assembly {\n        /* \"contracts/userverification.sol\":57:1569  contract UserDataPrivacyVerification {... */\n      mstore(0x40, 0x80)\n      callvalue\n      dup1\n      iszero\n      tag_1\n      jumpi\n      0x00\n      dup1\n      revert\n    tag_1:\n      pop\n      jumpi(tag_2, lt(calldatasize, 0x04))\n      shr(0xe0, calldataload(0x00))\n      dup1\n      0x099bb129\n      eq\n      tag_3\n      jumpi\n      dup1\n      0x8129fc1c\n      eq\n      tag_4\n      jumpi\n      dup1\n      0x8dd84620\n      eq\n      tag_5\n      jumpi\n      dup1\n      0xace417e0\n      eq\n      tag_6\n      jumpi\n      dup1\n      0xb1b8a2e3\n      eq\n      tag_7\n      jumpi\n      dup1\n      0xe35fe366\n      eq\n      tag_8\n      jumpi\n    tag_2:\n      0x00\n      dup1\n      revert\n        /* \"contracts/userverification.sol\":123:173  mapping(address => uint256) public privacySettings */\n    tag_3:\n      tag_9\n      0x04\n      dup1\n      calldatasize\n      sub\n      dup2\n      add\n      swap1\n      tag_10\n      swap2\n      swap1\n      tag_11\n      jump\t// in\n    tag_10:\n      tag_12\n      jump\t// in\n    tag_9:\n      mload(0x40)\n      tag_13\n      swap2\n      swap1\n      tag_14\n      jump\t// in\n    tag_13:\n      mload(0x40)\n      dup1\n      swap2\n      sub\n      swap1\n      return\n        /* \"contracts/userverification.sol\":680:885  function initialize() external {... */\n    tag_4:\n      tag_15\n      tag_16\n      jump\t// in\n    tag_15:\n      stop\n        /* \"contracts/userverification.sol\":931:1118  function setPrivacySettings(uint256 settings) external onlyExistingUser {... */\n    tag_5:\n      tag_17\n      0x04\n      dup1\n      calldatasize\n      sub\n      dup2\n      add\n      swap1\n      tag_18\n      swap2\n      swap1\n      tag_19\n      jump\t// in\n    tag_18:\n      tag_20\n      jump\t// in\n    tag_17:\n      stop\n        /* \"contracts/userverification.sol\":1457:1567  function isUserVerified(address user) external view returns (bool) {... */\n    tag_6:\n      tag_21\n      0x04\n      dup1\n      calldatasize\n      sub\n      dup2\n      add\n      swap1\n      tag_22\n      swap2\n      swap1\n      tag_11\n      jump\t// in\n    tag_22:\n      tag_23\n      jump\t// in\n    tag_21:\n      mload(0x40)\n      tag_24\n      swap2\n      swap1\n      tag_25\n      jump\t// in\n    tag_24:\n      mload(0x40)\n      dup1\n      swap2\n      sub\n      swap1\n      return\n        /* \"contracts/userverification.sol\":1160:1404  function verifyUserData(uint256 proof) external onlyExistingUser {... */\n    tag_7:\n      tag_26\n      0x04\n      dup1\n      calldatasize\n      sub\n      dup2\n      add\n      swap1\n      tag_27\n      swap2\n      swap1\n      tag_19\n      jump\t// in\n    tag_27:\n      tag_28\n      jump\t// in\n    tag_26:\n      stop\n        /* \"contracts/userverification.sol\":179:224  mapping(address => bool) public verifiedUsers */\n    tag_8:\n      tag_29\n      0x04\n      dup1\n      calldatasize\n      sub\n      dup2\n      add\n      swap1\n      tag_30\n      swap2\n      swap1\n      tag_11\n      jump\t// in\n    tag_30:\n      tag_31\n      jump\t// in\n    tag_29:\n      mload(0x40)\n      tag_32\n      swap2\n      swap1\n      tag_25\n      jump\t// in\n    tag_32:\n      mload(0x40)\n      dup1\n      swap2\n      sub\n      swap1\n      return\n        /* \"contracts/userverification.sol\":123:173  mapping(address => uint256) public privacySettings */\n    tag_12:\n      mstore(0x20, 0x00)\n      dup1\n      0x00\n      mstore\n      keccak256(0x00, 0x40)\n      0x00\n      swap2\n      pop\n      swap1\n      pop\n      sload\n      dup2\n      jump\t// out\n        /* \"contracts/userverification.sol\":680:885  function initialize() external {... */\n    tag_16:\n        /* \"contracts/userverification.sol\":760:761  0 */\n      0x00\n        /* \"contracts/userverification.sol\":729:744  privacySettings */\n      dup1\n        /* \"contracts/userverification.sol\":729:756  privacySettings[msg.sender] */\n      0x00\n        /* \"contracts/userverification.sol\":745:755  msg.sender */\n      caller\n        /* \"contracts/userverification.sol\":729:756  privacySettings[msg.sender] */\n      0xffffffffffffffffffffffffffffffffffffffff\n      and\n      0xffffffffffffffffffffffffffffffffffffffff\n      and\n      dup2\n      mstore\n      0x20\n      add\n      swap1\n      dup2\n      mstore\n      0x20\n      add\n      0x00\n      keccak256\n      sload\n        /* \"contracts/userverification.sol\":729:761  privacySettings[msg.sender] == 0 */\n      eq\n        /* \"contracts/userverification.sol\":721:785  require(privacySettings[msg.sender] == 0, \"Already initialized\") */\n      tag_34\n      jumpi\n      mload(0x40)\n      0x08c379a000000000000000000000000000000000000000000000000000000000\n      dup2\n      mstore\n      0x04\n      add\n      tag_35\n      swap1\n      tag_36\n      jump\t// in\n    tag_35:\n      mload(0x40)\n      dup1\n      swap2\n      sub\n      swap1\n      revert\n    tag_34:\n        /* \"contracts/userverification.sol\":826:827  1 */\n      0x01\n        /* \"contracts/userverification.sol\":796:811  privacySettings */\n      0x00\n        /* \"contracts/userverification.sol\":796:823  privacySettings[msg.sender] */\n      dup1\n        /* \"contracts/userverification.sol\":812:822  msg.sender */\n      caller\n        /* \"contracts/userverification.sol\":796:823  privacySettings[msg.sender] */\n      0xffffffffffffffffffffffffffffffffffffffff\n      and\n      0xffffffffffffffffffffffffffffffffffffffff\n      and\n      dup2\n      mstore\n      0x20\n      add\n      swap1\n      dup2\n      mstore\n      0x20\n      add\n      0x00\n      keccak256\n        /* \"contracts/userverification.sol\":796:827  privacySettings[msg.sender] = 1 */\n      dup2\n      swap1\n      sstore\n      pop\n        /* \"contracts/userverification.sol\":867:877  msg.sender */\n      caller\n        /* \"contracts/userverification.sol\":843:878  InitializationCompleted(msg.sender) */\n      0xffffffffffffffffffffffffffffffffffffffff\n      and\n      0xdc6ed2644801b4760288d5b4c1ef80d0c3338cdc672729f2fb3157cb17419b42\n      mload(0x40)\n      mload(0x40)\n      dup1\n      swap2\n      sub\n      swap1\n      log2\n        /* \"contracts/userverification.sol\":680:885  function initialize() external {... */\n      jump\t// out\n        /* \"contracts/userverification.sol\":931:1118  function setPrivacySettings(uint256 settings) external onlyExistingUser {... */\n    tag_20:\n        /* \"contracts/userverification.sol\":573:574  0 */\n      0x00\n        /* \"contracts/userverification.sol\":542:557  privacySettings */\n      dup1\n        /* \"contracts/userverification.sol\":542:569  privacySettings[msg.sender] */\n      0x00\n        /* \"contracts/userverification.sol\":558:568  msg.sender */\n      caller\n        /* \"contracts/userverification.sol\":542:569  privacySettings[msg.sender] */\n      0xffffffffffffffffffffffffffffffffffffffff\n      and\n      0xffffffffffffffffffffffffffffffffffffffff\n      and\n      dup2\n      mstore\n      0x20\n      add\n      swap1\n      dup2\n      mstore\n      0x20\n      add\n      0x00\n      keccak256\n      sload\n        /* \"contracts/userverification.sol\":542:574  privacySettings[msg.sender] != 0 */\n      sub\n        /* \"contracts/userverification.sol\":534:593  require(privacySettings[msg.sender] != 0, \"User not found\") */\n      tag_38\n      jumpi\n      mload(0x40)\n      0x08c379a000000000000000000000000000000000000000000000000000000000\n      dup2\n      mstore\n      0x04\n      add\n      tag_39\n      swap1\n      tag_40\n      jump\t// in\n    tag_39:\n      mload(0x40)\n      dup1\n      swap2\n      sub\n      swap1\n      revert\n    tag_38:\n        /* \"contracts/userverification.sol\":1043:1051  settings */\n      dup1\n        /* \"contracts/userverification.sol\":1013:1028  privacySettings */\n      0x00\n        /* \"contracts/userverification.sol\":1013:1040  privacySettings[msg.sender] */\n      dup1\n        /* \"contracts/userverification.sol\":1029:1039  msg.sender */\n      caller\n        /* \"contracts/userverification.sol\":1013:1040  privacySettings[msg.sender] */\n      0xffffffffffffffffffffffffffffffffffffffff\n      and\n      0xffffffffffffffffffffffffffffffffffffffff\n      and\n      dup2\n      mstore\n      0x20\n      add\n      swap1\n      dup2\n      mstore\n      0x20\n      add\n      0x00\n      keccak256\n        /* \"contracts/userverification.sol\":1013:1051  privacySettings[msg.sender] = settings */\n      dup2\n      swap1\n      sstore\n      pop\n        /* \"contracts/userverification.sol\":1090:1100  msg.sender */\n      caller\n        /* \"contracts/userverification.sol\":1067:1111  PrivacySettingsUpdated(msg.sender, settings) */\n      0xffffffffffffffffffffffffffffffffffffffff\n      and\n      0x359e1f8bbc9c04c295b3573f47f8afb0efa1033f11d73c9a0e1d3e79f01911b9\n        /* \"contracts/userverification.sol\":1102:1110  settings */\n      dup3\n        /* \"contracts/userverification.sol\":1067:1111  PrivacySettingsUpdated(msg.sender, settings) */\n      mload(0x40)\n      tag_42\n      swap2\n      swap1\n      tag_14\n      jump\t// in\n    tag_42:\n      mload(0x40)\n      dup1\n      swap2\n      sub\n      swap1\n      log2\n        /* \"contracts/userverification.sol\":931:1118  function setPrivacySettings(uint256 settings) external onlyExistingUser {... */\n      pop\n      jump\t// out\n        /* \"contracts/userverification.sol\":1457:1567  function isUserVerified(address user) external view returns (bool) {... */\n    tag_23:\n        /* \"contracts/userverification.sol\":1518:1522  bool */\n      0x00\n        /* \"contracts/userverification.sol\":1541:1554  verifiedUsers */\n      0x01\n        /* \"contracts/userverification.sol\":1541:1560  verifiedUsers[user] */\n      0x00\n        /* \"contracts/userverification.sol\":1555:1559  user */\n      dup4\n        /* \"contracts/userverification.sol\":1541:1560  verifiedUsers[user] */\n      0xffffffffffffffffffffffffffffffffffffffff\n      and\n      0xffffffffffffffffffffffffffffffffffffffff\n      and\n      dup2\n      mstore\n      0x20\n      add\n      swap1\n      dup2\n      mstore\n      0x20\n      add\n      0x00\n      keccak256\n      0x00\n      swap1\n      sload\n      swap1\n      0x0100\n      exp\n      swap1\n      div\n      0xff\n      and\n        /* \"contracts/userverification.sol\":1534:1560  return verifiedUsers[user] */\n      swap1\n      pop\n        /* \"contracts/userverification.sol\":1457:1567  function isUserVerified(address user) external view returns (bool) {... */\n      swap2\n      swap1\n      pop\n      jump\t// out\n        /* \"contracts/userverification.sol\":1160:1404  function verifyUserData(uint256 proof) external onlyExistingUser {... */\n    tag_28:\n        /* \"contracts/userverification.sol\":573:574  0 */\n      0x00\n        /* \"contracts/userverification.sol\":542:557  privacySettings */\n      dup1\n        /* \"contracts/userverification.sol\":542:569  privacySettings[msg.sender] */\n      0x00\n        /* \"contracts/userverification.sol\":558:568  msg.sender */\n      caller\n        /* \"contracts/userverification.sol\":542:569  privacySettings[msg.sender] */\n      0xffffffffffffffffffffffffffffffffffffffff\n      and\n      0xffffffffffffffffffffffffffffffffffffffff\n      and\n      dup2\n      mstore\n      0x20\n      add\n      swap1\n      dup2\n      mstore\n      0x20\n      add\n      0x00\n      keccak256\n      sload\n        /* \"contracts/userverification.sol\":542:574  privacySettings[msg.sender] != 0 */\n      sub\n        /* \"contracts/userverification.sol\":534:593  require(privacySettings[msg.sender] != 0, \"User not found\") */\n      tag_45\n      jumpi\n      mload(0x40)\n      0x08c379a000000000000000000000000000000000000000000000000000000000\n      dup2\n      mstore\n      0x04\n      add\n      tag_46\n      swap1\n      tag_40\n      jump\t// in\n    tag_46:\n      mload(0x40)\n      dup1\n      swap2\n      sub\n      swap1\n      revert\n    tag_45:\n        /* \"contracts/userverification.sol\":1274:1279  proof */\n      dup1\n        /* \"contracts/userverification.sol\":1243:1258  privacySettings */\n      0x00\n        /* \"contracts/userverification.sol\":1243:1270  privacySettings[msg.sender] */\n      dup1\n        /* \"contracts/userverification.sol\":1259:1269  msg.sender */\n      caller\n        /* \"contracts/userverification.sol\":1243:1270  privacySettings[msg.sender] */\n      0xffffffffffffffffffffffffffffffffffffffff\n      and\n      0xffffffffffffffffffffffffffffffffffffffff\n      and\n      dup2\n      mstore\n      0x20\n      add\n      swap1\n      dup2\n      mstore\n      0x20\n      add\n      0x00\n      keccak256\n      sload\n        /* \"contracts/userverification.sol\":1243:1279  privacySettings[msg.sender] == proof */\n      eq\n        /* \"contracts/userverification.sol\":1235:1308  require(privacySettings[msg.sender] == proof, \"Invalid consent or proof\") */\n      tag_48\n      jumpi\n      mload(0x40)\n      0x08c379a000000000000000000000000000000000000000000000000000000000\n      dup2\n      mstore\n      0x04\n      add\n      tag_49\n      swap1\n      tag_50\n      jump\t// in\n    tag_49:\n      mload(0x40)\n      dup1\n      swap2\n      sub\n      swap1\n      revert\n    tag_48:\n        /* \"contracts/userverification.sol\":1347:1351  true */\n      0x01\n        /* \"contracts/userverification.sol\":1319:1332  verifiedUsers */\n      dup1\n        /* \"contracts/userverification.sol\":1319:1344  verifiedUsers[msg.sender] */\n      0x00\n        /* \"contracts/userverification.sol\":1333:1343  msg.sender */\n      caller\n        /* \"contracts/userverification.sol\":1319:1344  verifiedUsers[msg.sender] */\n      0xffffffffffffffffffffffffffffffffffffffff\n      and\n      0xffffffffffffffffffffffffffffffffffffffff\n      and\n      dup2\n      mstore\n      0x20\n      add\n      swap1\n      dup2\n      mstore\n      0x20\n      add\n      0x00\n      keccak256\n      0x00\n        /* \"contracts/userverification.sol\":1319:1351  verifiedUsers[msg.sender] = true */\n      0x0100\n      exp\n      dup2\n      sload\n      dup2\n      0xff\n      mul\n      not\n      and\n      swap1\n      dup4\n      iszero\n      iszero\n      mul\n      or\n      swap1\n      sstore\n      pop\n        /* \"contracts/userverification.sol\":1380:1390  msg.sender */\n      caller\n        /* \"contracts/userverification.sol\":1367:1397  UserVerified(msg.sender, true) */\n      0xffffffffffffffffffffffffffffffffffffffff\n      and\n      0x34736af44d2b91cd43fa896d4cfe0861ec1e6b4538583d385fc671639e9153b2\n        /* \"contracts/userverification.sol\":1392:1396  true */\n      0x01\n        /* \"contracts/userverification.sol\":1367:1397  UserVerified(msg.sender, true) */\n      mload(0x40)\n      tag_51\n      swap2\n      swap1\n      tag_25\n      jump\t// in\n    tag_51:\n      mload(0x40)\n      dup1\n      swap2\n      sub\n      swap1\n      log2\n        /* \"contracts/userverification.sol\":1160:1404  function verifyUserData(uint256 proof) external onlyExistingUser {... */\n      pop\n      jump\t// out\n        /* \"contracts/userverification.sol\":179:224  mapping(address => bool) public verifiedUsers */\n    tag_31:\n      mstore(0x20, 0x01)\n      dup1\n      0x00\n      mstore\n      keccak256(0x00, 0x40)\n      0x00\n      swap2\n      pop\n      sload\n      swap1\n      0x0100\n      exp\n      swap1\n      div\n      0xff\n      and\n      dup2\n      jump\t// out\n        /* \"#utility.yul\":88:205   */\n    tag_53:\n        /* \"#utility.yul\":197:198   */\n      0x00\n        /* \"#utility.yul\":194:195   */\n      dup1\n        /* \"#utility.yul\":187:199   */\n      revert\n        /* \"#utility.yul\":334:460   */\n    tag_55:\n        /* \"#utility.yul\":371:378   */\n      0x00\n        /* \"#utility.yul\":411:453   */\n      0xffffffffffffffffffffffffffffffffffffffff\n        /* \"#utility.yul\":404:409   */\n      dup3\n        /* \"#utility.yul\":400:454   */\n      and\n        /* \"#utility.yul\":389:454   */\n      swap1\n      pop\n        /* \"#utility.yul\":334:460   */\n      swap2\n      swap1\n      pop\n      jump\t// out\n        /* \"#utility.yul\":466:562   */\n    tag_56:\n        /* \"#utility.yul\":503:510   */\n      0x00\n        /* \"#utility.yul\":532:556   */\n      tag_78\n        /* \"#utility.yul\":550:555   */\n      dup3\n        /* \"#utility.yul\":532:556   */\n      tag_55\n      jump\t// in\n    tag_78:\n        /* \"#utility.yul\":521:556   */\n      swap1\n      pop\n        /* \"#utility.yul\":466:562   */\n      swap2\n      swap1\n      pop\n      jump\t// out\n        /* \"#utility.yul\":568:690   */\n    tag_57:\n        /* \"#utility.yul\":641:665   */\n      tag_80\n        /* \"#utility.yul\":659:664   */\n      dup2\n        /* \"#utility.yul\":641:665   */\n      tag_56\n      jump\t// in\n    tag_80:\n        /* \"#utility.yul\":634:639   */\n      dup2\n        /* \"#utility.yul\":631:666   */\n      eq\n        /* \"#utility.yul\":621:684   */\n      tag_81\n      jumpi\n        /* \"#utility.yul\":680:681   */\n      0x00\n        /* \"#utility.yul\":677:678   */\n      dup1\n        /* \"#utility.yul\":670:682   */\n      revert\n        /* \"#utility.yul\":621:684   */\n    tag_81:\n        /* \"#utility.yul\":568:690   */\n      pop\n      jump\t// out\n        /* \"#utility.yul\":696:835   */\n    tag_58:\n        /* \"#utility.yul\":742:747   */\n      0x00\n        /* \"#utility.yul\":780:786   */\n      dup2\n        /* \"#utility.yul\":767:787   */\n      calldataload\n        /* \"#utility.yul\":758:787   */\n      swap1\n      pop\n        /* \"#utility.yul\":796:829   */\n      tag_83\n        /* \"#utility.yul\":823:828   */\n      dup2\n        /* \"#utility.yul\":796:829   */\n      tag_57\n      jump\t// in\n    tag_83:\n        /* \"#utility.yul\":696:835   */\n      swap3\n      swap2\n      pop\n      pop\n      jump\t// out\n        /* \"#utility.yul\":841:1170   */\n    tag_11:\n        /* \"#utility.yul\":900:906   */\n      0x00\n        /* \"#utility.yul\":949:951   */\n      0x20\n        /* \"#utility.yul\":937:946   */\n      dup3\n        /* \"#utility.yul\":928:935   */\n      dup5\n        /* \"#utility.yul\":924:947   */\n      sub\n        /* \"#utility.yul\":920:952   */\n      slt\n        /* \"#utility.yul\":917:1036   */\n      iszero\n      tag_85\n      jumpi\n        /* \"#utility.yul\":955:1034   */\n      tag_86\n      tag_53\n      jump\t// in\n    tag_86:\n        /* \"#utility.yul\":917:1036   */\n    tag_85:\n        /* \"#utility.yul\":1075:1076   */\n      0x00\n        /* \"#utility.yul\":1100:1153   */\n      tag_87\n        /* \"#utility.yul\":1145:1152   */\n      dup5\n        /* \"#utility.yul\":1136:1142   */\n      dup3\n        /* \"#utility.yul\":1125:1134   */\n      dup6\n        /* \"#utility.yul\":1121:1143   */\n      add\n        /* \"#utility.yul\":1100:1153   */\n      tag_58\n      jump\t// in\n    tag_87:\n        /* \"#utility.yul\":1090:1153   */\n      swap2\n      pop\n        /* \"#utility.yul\":1046:1163   */\n      pop\n        /* \"#utility.yul\":841:1170   */\n      swap3\n      swap2\n      pop\n      pop\n      jump\t// out\n        /* \"#utility.yul\":1176:1253   */\n    tag_59:\n        /* \"#utility.yul\":1213:1220   */\n      0x00\n        /* \"#utility.yul\":1242:1247   */\n      dup2\n        /* \"#utility.yul\":1231:1247   */\n      swap1\n      pop\n        /* \"#utility.yul\":1176:1253   */\n      swap2\n      swap1\n      pop\n      jump\t// out\n        /* \"#utility.yul\":1259:1377   */\n    tag_60:\n        /* \"#utility.yul\":1346:1370   */\n      tag_90\n        /* \"#utility.yul\":1364:1369   */\n      dup2\n        /* \"#utility.yul\":1346:1370   */\n      tag_59\n      jump\t// in\n    tag_90:\n        /* \"#utility.yul\":1341:1344   */\n      dup3\n        /* \"#utility.yul\":1334:1371   */\n      mstore\n        /* \"#utility.yul\":1259:1377   */\n      pop\n      pop\n      jump\t// out\n        /* \"#utility.yul\":1383:1605   */\n    tag_14:\n        /* \"#utility.yul\":1476:1480   */\n      0x00\n        /* \"#utility.yul\":1514:1516   */\n      0x20\n        /* \"#utility.yul\":1503:1512   */\n      dup3\n        /* \"#utility.yul\":1499:1517   */\n      add\n        /* \"#utility.yul\":1491:1517   */\n      swap1\n      pop\n        /* \"#utility.yul\":1527:1598   */\n      tag_92\n        /* \"#utility.yul\":1595:1596   */\n      0x00\n        /* \"#utility.yul\":1584:1593   */\n      dup4\n        /* \"#utility.yul\":1580:1597   */\n      add\n        /* \"#utility.yul\":1571:1577   */\n      dup5\n        /* \"#utility.yul\":1527:1598   */\n      tag_60\n      jump\t// in\n    tag_92:\n        /* \"#utility.yul\":1383:1605   */\n      swap3\n      swap2\n      pop\n      pop\n      jump\t// out\n        /* \"#utility.yul\":1611:1733   */\n    tag_61:\n        /* \"#utility.yul\":1684:1708   */\n      tag_94\n        /* \"#utility.yul\":1702:1707   */\n      dup2\n        /* \"#utility.yul\":1684:1708   */\n      tag_59\n      jump\t// in\n    tag_94:\n        /* \"#utility.yul\":1677:1682   */\n      dup2\n        /* \"#utility.yul\":1674:1709   */\n      eq\n        /* \"#utility.yul\":1664:1727   */\n      tag_95\n      jumpi\n        /* \"#utility.yul\":1723:1724   */\n      0x00\n        /* \"#utility.yul\":1720:1721   */\n      dup1\n        /* \"#utility.yul\":1713:1725   */\n      revert\n        /* \"#utility.yul\":1664:1727   */\n    tag_95:\n        /* \"#utility.yul\":1611:1733   */\n      pop\n      jump\t// out\n        /* \"#utility.yul\":1739:1878   */\n    tag_62:\n        /* \"#utility.yul\":1785:1790   */\n      0x00\n        /* \"#utility.yul\":1823:1829   */\n      dup2\n        /* \"#utility.yul\":1810:1830   */\n      calldataload\n        /* \"#utility.yul\":1801:1830   */\n      swap1\n      pop\n        /* \"#utility.yul\":1839:1872   */\n      tag_97\n        /* \"#utility.yul\":1866:1871   */\n      dup2\n        /* \"#utility.yul\":1839:1872   */\n      tag_61\n      jump\t// in\n    tag_97:\n        /* \"#utility.yul\":1739:1878   */\n      swap3\n      swap2\n      pop\n      pop\n      jump\t// out\n        /* \"#utility.yul\":1884:2213   */\n    tag_19:\n        /* \"#utility.yul\":1943:1949   */\n      0x00\n        /* \"#utility.yul\":1992:1994   */\n      0x20\n        /* \"#utility.yul\":1980:1989   */\n      dup3\n        /* \"#utility.yul\":1971:1978   */\n      dup5\n        /* \"#utility.yul\":1967:1990   */\n      sub\n        /* \"#utility.yul\":1963:1995   */\n      slt\n        /* \"#utility.yul\":1960:2079   */\n      iszero\n      tag_99\n      jumpi\n        /* \"#utility.yul\":1998:2077   */\n      tag_100\n      tag_53\n      jump\t// in\n    tag_100:\n        /* \"#utility.yul\":1960:2079   */\n    tag_99:\n        /* \"#utility.yul\":2118:2119   */\n      0x00\n        /* \"#utility.yul\":2143:2196   */\n      tag_101\n        /* \"#utility.yul\":2188:2195   */\n      dup5\n        /* \"#utility.yul\":2179:2185   */\n      dup3\n        /* \"#utility.yul\":2168:2177   */\n      dup6\n        /* \"#utility.yul\":2164:2186   */\n      add\n        /* \"#utility.yul\":2143:2196   */\n      tag_62\n      jump\t// in\n    tag_101:\n        /* \"#utility.yul\":2133:2196   */\n      swap2\n      pop\n        /* \"#utility.yul\":2089:2206   */\n      pop\n        /* \"#utility.yul\":1884:2213   */\n      swap3\n      swap2\n      pop\n      pop\n      jump\t// out\n        /* \"#utility.yul\":2219:2309   */\n    tag_63:\n        /* \"#utility.yul\":2253:2260   */\n      0x00\n        /* \"#utility.yul\":2296:2301   */\n      dup2\n        /* \"#utility.yul\":2289:2302   */\n      iszero\n        /* \"#utility.yul\":2282:2303   */\n      iszero\n        /* \"#utility.yul\":2271:2303   */\n      swap1\n      pop\n        /* \"#utility.yul\":2219:2309   */\n      swap2\n      swap1\n      pop\n      jump\t// out\n        /* \"#utility.yul\":2315:2424   */\n    tag_64:\n        /* \"#utility.yul\":2396:2417   */\n      tag_104\n        /* \"#utility.yul\":2411:2416   */\n      dup2\n        /* \"#utility.yul\":2396:2417   */\n      tag_63\n      jump\t// in\n    tag_104:\n        /* \"#utility.yul\":2391:2394   */\n      dup3\n        /* \"#utility.yul\":2384:2418   */\n      mstore\n        /* \"#utility.yul\":2315:2424   */\n      pop\n      pop\n      jump\t// out\n        /* \"#utility.yul\":2430:2640   */\n    tag_25:\n        /* \"#utility.yul\":2517:2521   */\n      0x00\n        /* \"#utility.yul\":2555:2557   */\n      0x20\n        /* \"#utility.yul\":2544:2553   */\n      dup3\n        /* \"#utility.yul\":2540:2558   */\n      add\n        /* \"#utility.yul\":2532:2558   */\n      swap1\n      pop\n        /* \"#utility.yul\":2568:2633   */\n      tag_106\n        /* \"#utility.yul\":2630:2631   */\n      0x00\n        /* \"#utility.yul\":2619:2628   */\n      dup4\n        /* \"#utility.yul\":2615:2632   */\n      add\n        /* \"#utility.yul\":2606:2612   */\n      dup5\n        /* \"#utility.yul\":2568:2633   */\n      tag_64\n      jump\t// in\n    tag_106:\n        /* \"#utility.yul\":2430:2640   */\n      swap3\n      swap2\n      pop\n      pop\n      jump\t// out\n        /* \"#utility.yul\":2646:2815   */\n    tag_65:\n        /* \"#utility.yul\":2730:2741   */\n      0x00\n        /* \"#utility.yul\":2764:2770   */\n      dup3\n        /* \"#utility.yul\":2759:2762   */\n      dup3\n        /* \"#utility.yul\":2752:2771   */\n      mstore\n        /* \"#utility.yul\":2804:2808   */\n      0x20\n        /* \"#utility.yul\":2799:2802   */\n      dup3\n        /* \"#utility.yul\":2795:2809   */\n      add\n        /* \"#utility.yul\":2780:2809   */\n      swap1\n      pop\n        /* \"#utility.yul\":2646:2815   */\n      swap3\n      swap2\n      pop\n      pop\n      jump\t// out\n        /* \"#utility.yul\":2821:2990   */\n    tag_66:\n        /* \"#utility.yul\":2961:2982   */\n      0x416c726561647920696e697469616c697a656400000000000000000000000000\n        /* \"#utility.yul\":2957:2958   */\n      0x00\n        /* \"#utility.yul\":2949:2955   */\n      dup3\n        /* \"#utility.yul\":2945:2959   */\n      add\n        /* \"#utility.yul\":2938:2983   */\n      mstore\n        /* \"#utility.yul\":2821:2990   */\n      pop\n      jump\t// out\n        /* \"#utility.yul\":2996:3362   */\n    tag_67:\n        /* \"#utility.yul\":3138:3141   */\n      0x00\n        /* \"#utility.yul\":3159:3226   */\n      tag_110\n        /* \"#utility.yul\":3223:3225   */\n      0x13\n        /* \"#utility.yul\":3218:3221   */\n      dup4\n        /* \"#utility.yul\":3159:3226   */\n      tag_65\n      jump\t// in\n    tag_110:\n        /* \"#utility.yul\":3152:3226   */\n      swap2\n      pop\n        /* \"#utility.yul\":3235:3328   */\n      tag_111\n        /* \"#utility.yul\":3324:3327   */\n      dup3\n        /* \"#utility.yul\":3235:3328   */\n      tag_66\n      jump\t// in\n    tag_111:\n        /* \"#utility.yul\":3353:3355   */\n      0x20\n        /* \"#utility.yul\":3348:3351   */\n      dup3\n        /* \"#utility.yul\":3344:3356   */\n      add\n        /* \"#utility.yul\":3337:3356   */\n      swap1\n      pop\n        /* \"#utility.yul\":2996:3362   */\n      swap2\n      swap1\n      pop\n      jump\t// out\n        /* \"#utility.yul\":3368:3787   */\n    tag_36:\n        /* \"#utility.yul\":3534:3538   */\n      0x00\n        /* \"#utility.yul\":3572:3574   */\n      0x20\n        /* \"#utility.yul\":3561:3570   */\n      dup3\n        /* \"#utility.yul\":3557:3575   */\n      add\n        /* \"#utility.yul\":3549:3575   */\n      swap1\n      pop\n        /* \"#utility.yul\":3621:3630   */\n      dup2\n        /* \"#utility.yul\":3615:3619   */\n      dup2\n        /* \"#utility.yul\":3611:3631   */\n      sub\n        /* \"#utility.yul\":3607:3608   */\n      0x00\n        /* \"#utility.yul\":3596:3605   */\n      dup4\n        /* \"#utility.yul\":3592:3609   */\n      add\n        /* \"#utility.yul\":3585:3632   */\n      mstore\n        /* \"#utility.yul\":3649:3780   */\n      tag_113\n        /* \"#utility.yul\":3775:3779   */\n      dup2\n        /* \"#utility.yul\":3649:3780   */\n      tag_67\n      jump\t// in\n    tag_113:\n        /* \"#utility.yul\":3641:3780   */\n      swap1\n      pop\n        /* \"#utility.yul\":3368:3787   */\n      swap2\n      swap1\n      pop\n      jump\t// out\n        /* \"#utility.yul\":3793:3957   */\n    tag_68:\n        /* \"#utility.yul\":3933:3949   */\n      0x55736572206e6f7420666f756e64000000000000000000000000000000000000\n        /* \"#utility.yul\":3929:3930   */\n      0x00\n        /* \"#utility.yul\":3921:3927   */\n      dup3\n        /* \"#utility.yul\":3917:3931   */\n      add\n        /* \"#utility.yul\":3910:3950   */\n      mstore\n        /* \"#utility.yul\":3793:3957   */\n      pop\n      jump\t// out\n        /* \"#utility.yul\":3963:4329   */\n    tag_69:\n        /* \"#utility.yul\":4105:4108   */\n      0x00\n        /* \"#utility.yul\":4126:4193   */\n      tag_116\n        /* \"#utility.yul\":4190:4192   */\n      0x0e\n        /* \"#utility.yul\":4185:4188   */\n      dup4\n        /* \"#utility.yul\":4126:4193   */\n      tag_65\n      jump\t// in\n    tag_116:\n        /* \"#utility.yul\":4119:4193   */\n      swap2\n      pop\n        /* \"#utility.yul\":4202:4295   */\n      tag_117\n        /* \"#utility.yul\":4291:4294   */\n      dup3\n        /* \"#utility.yul\":4202:4295   */\n      tag_68\n      jump\t// in\n    tag_117:\n        /* \"#utility.yul\":4320:4322   */\n      0x20\n        /* \"#utility.yul\":4315:4318   */\n      dup3\n        /* \"#utility.yul\":4311:4323   */\n      add\n        /* \"#utility.yul\":4304:4323   */\n      swap1\n      pop\n        /* \"#utility.yul\":3963:4329   */\n      swap2\n      swap1\n      pop\n      jump\t// out\n        /* \"#utility.yul\":4335:4754   */\n    tag_40:\n        /* \"#utility.yul\":4501:4505   */\n      0x00\n        /* \"#utility.yul\":4539:4541   */\n      0x20\n        /* \"#utility.yul\":4528:4537   */\n      dup3\n        /* \"#utility.yul\":4524:4542   */\n      add\n        /* \"#utility.yul\":4516:4542   */\n      swap1\n      pop\n        /* \"#utility.yul\":4588:4597   */\n      dup2\n        /* \"#utility.yul\":4582:4586   */\n      dup2\n        /* \"#utility.yul\":4578:4598   */\n      sub\n        /* \"#utility.yul\":4574:4575   */\n      0x00\n        /* \"#utility.yul\":4563:4572   */\n      dup4\n        /* \"#utility.yul\":4559:4576   */\n      add\n        /* \"#utility.yul\":4552:4599   */\n      mstore\n        /* \"#utility.yul\":4616:4747   */\n      tag_119\n        /* \"#utility.yul\":4742:4746   */\n      dup2\n        /* \"#utility.yul\":4616:4747   */\n      tag_69\n      jump\t// in\n    tag_119:\n        /* \"#utility.yul\":4608:4747   */\n      swap1\n      pop\n        /* \"#utility.yul\":4335:4754   */\n      swap2\n      swap1\n      pop\n      jump\t// out\n        /* \"#utility.yul\":4760:4934   */\n    tag_70:\n        /* \"#utility.yul\":4900:4926   */\n      0x496e76616c696420636f6e73656e74206f722070726f6f660000000000000000\n        /* \"#utility.yul\":4896:4897   */\n      0x00\n        /* \"#utility.yul\":4888:4894   */\n      dup3\n        /* \"#utility.yul\":4884:4898   */\n      add\n        /* \"#utility.yul\":4877:4927   */\n      mstore\n        /* \"#utility.yul\":4760:4934   */\n      pop\n      jump\t// out\n        /* \"#utility.yul\":4940:5306   */\n    tag_71:\n        /* \"#utility.yul\":5082:5085   */\n      0x00\n        /* \"#utility.yul\":5103:5170   */\n      tag_122\n        /* \"#utility.yul\":5167:5169   */\n      0x18\n        /* \"#utility.yul\":5162:5165   */\n      dup4\n        /* \"#utility.yul\":5103:5170   */\n      tag_65\n      jump\t// in\n    tag_122:\n        /* \"#utility.yul\":5096:5170   */\n      swap2\n      pop\n        /* \"#utility.yul\":5179:5272   */\n      tag_123\n        /* \"#utility.yul\":5268:5271   */\n      dup3\n        /* \"#utility.yul\":5179:5272   */\n      tag_70\n      jump\t// in\n    tag_123:\n        /* \"#utility.yul\":5297:5299   */\n      0x20\n        /* \"#utility.yul\":5292:5295   */\n      dup3\n        /* \"#utility.yul\":5288:5300   */\n      add\n        /* \"#utility.yul\":5281:5300   */\n      swap1\n      pop\n        /* \"#utility.yul\":4940:5306   */\n      swap2\n      swap1\n      pop\n      jump\t// out\n        /* \"#utility.yul\":5312:5731   */\n    tag_50:\n        /* \"#utility.yul\":5478:5482   */\n      0x00\n        /* \"#utility.yul\":5516:5518   */\n      0x20\n        /* \"#utility.yul\":5505:5514   */\n      dup3\n        /* \"#utility.yul\":5501:5519   */\n      add\n        /* \"#utility.yul\":5493:5519   */\n      swap1\n      pop\n        /* \"#utility.yul\":5565:5574   */\n      dup2\n        /* \"#utility.yul\":5559:5563   */\n      dup2\n        /* \"#utility.yul\":5555:5575   */\n      sub\n        /* \"#utility.yul\":5551:5552   */\n      0x00\n        /* \"#utility.yul\":5540:5549   */\n      dup4\n        /* \"#utility.yul\":5536:5553   */\n      add\n        /* \"#utility.yul\":5529:5576   */\n      mstore\n        /* \"#utility.yul\":5593:5724   */\n      tag_125\n        /* \"#utility.yul\":5719:5723   */\n      dup2\n        /* \"#utility.yul\":5593:5724   */\n      tag_71\n      jump\t// in\n    tag_125:\n        /* \"#utility.yul\":5585:5724   */\n      swap1\n      pop\n        /* \"#utility.yul\":5312:5731   */\n      swap2\n      swap1\n      pop\n      jump\t// out\n\n    auxdata: 0xa2646970667358221220910fd9189b28cc824d3569de817bf5c2e3b88437a784768e1e7e361164d15ac364736f6c634300081a0033\n}\n",
				"bytecode": {
					"linkReferences": {},
					"object": "6080604052348015600e575f80fd5b506108308061001c5f395ff3fe608060405234801561000f575f80fd5b5060043610610060575f3560e01c8063099bb129146100645780638129fc1c146100945780638dd846201461009e578063ace417e0146100ba578063b1b8a2e3146100ea578063e35fe36614610106575b5f80fd5b61007e600480360381019061007991906105ce565b610136565b60405161008b9190610611565b60405180910390f35b61009c61014a565b005b6100b860048036038101906100b39190610654565b61024f565b005b6100d460048036038101906100cf91906105ce565b61035f565b6040516100e19190610699565b60405180910390f35b61010460048036038101906100ff9190610654565b6103b1565b005b610120600480360381019061011b91906105ce565b610553565b60405161012d9190610699565b60405180910390f35b5f602052805f5260405f205f915090505481565b5f805f3373ffffffffffffffffffffffffffffffffffffffff1673ffffffffffffffffffffffffffffffffffffffff1681526020019081526020015f2054146101c8576040517f08c379a00000000000000000000000000000000000000000000000000000000081526004016101bf9061070c565b60405180910390fd5b60015f803373ffffffffffffffffffffffffffffffffffffffff1673ffffffffffffffffffffffffffffffffffffffff1681526020019081526020015f20819055503373ffffffffffffffffffffffffffffffffffffffff167fdc6ed2644801b4760288d5b4c1ef80d0c3338cdc672729f2fb3157cb17419b4260405160405180910390a2565b5f805f3373ffffffffffffffffffffffffffffffffffffffff1673ffffffffffffffffffffffffffffffffffffffff1681526020019081526020015f2054036102cd576040517f08c379a00000000000000000000000000000000000000000000000000000000081526004016102c490610774565b60405180910390fd5b805f803373ffffffffffffffffffffffffffffffffffffffff1673ffffffffffffffffffffffffffffffffffffffff1681526020019081526020015f20819055503373ffffffffffffffffffffffffffffffffffffffff167f359e1f8bbc9c04c295b3573f47f8afb0efa1033f11d73c9a0e1d3e79f01911b9826040516103549190610611565b60405180910390a250565b5f60015f8373ffffffffffffffffffffffffffffffffffffffff1673ffffffffffffffffffffffffffffffffffffffff1681526020019081526020015f205f9054906101000a900460ff169050919050565b5f805f3373ffffffffffffffffffffffffffffffffffffffff1673ffffffffffffffffffffffffffffffffffffffff1681526020019081526020015f20540361042f576040517f08c379a000000000000000000000000000000000000000000000000000000000815260040161042690610774565b60405180910390fd5b805f803373ffffffffffffffffffffffffffffffffffffffff1673ffffffffffffffffffffffffffffffffffffffff1681526020019081526020015f2054146104ad576040517f08c379a00000000000000000000000000000000000000000000000000000000081526004016104a4906107dc565b60405180910390fd5b6001805f3373ffffffffffffffffffffffffffffffffffffffff1673ffffffffffffffffffffffffffffffffffffffff1681526020019081526020015f205f6101000a81548160ff0219169083151502179055503373ffffffffffffffffffffffffffffffffffffffff167f34736af44d2b91cd43fa896d4cfe0861ec1e6b4538583d385fc671639e9153b260016040516105489190610699565b60405180910390a250565b6001602052805f5260405f205f915054906101000a900460ff1681565b5f80fd5b5f73ffffffffffffffffffffffffffffffffffffffff82169050919050565b5f61059d82610574565b9050919050565b6105ad81610593565b81146105b7575f80fd5b50565b5f813590506105c8816105a4565b92915050565b5f602082840312156105e3576105e2610570565b5b5f6105f0848285016105ba565b91505092915050565b5f819050919050565b61060b816105f9565b82525050565b5f6020820190506106245f830184610602565b92915050565b610633816105f9565b811461063d575f80fd5b50565b5f8135905061064e8161062a565b92915050565b5f6020828403121561066957610668610570565b5b5f61067684828501610640565b91505092915050565b5f8115159050919050565b6106938161067f565b82525050565b5f6020820190506106ac5f83018461068a565b92915050565b5f82825260208201905092915050565b7f416c726561647920696e697469616c697a6564000000000000000000000000005f82015250565b5f6106f66013836106b2565b9150610701826106c2565b602082019050919050565b5f6020820190508181035f830152610723816106ea565b9050919050565b7f55736572206e6f7420666f756e640000000000000000000000000000000000005f82015250565b5f61075e600e836106b2565b91506107698261072a565b602082019050919050565b5f6020820190508181035f83015261078b81610752565b9050919050565b7f496e76616c696420636f6e73656e74206f722070726f6f6600000000000000005f82015250565b5f6107c66018836106b2565b91506107d182610792565b602082019050919050565b5f6020820190508181035f8301526107f3816107ba565b905091905056fea2646970667358221220910fd9189b28cc824d3569de817bf5c2e3b88437a784768e1e7e361164d15ac364736f6c634300081a0033",
					"opcodes": "PUSH1 0x80 PUSH1 0x40 MSTORE CALLVALUE DUP1 ISZERO PUSH1 0xE JUMPI PUSH0 DUP1 REVERT JUMPDEST POP PUSH2 0x830 DUP1 PUSH2 0x1C PUSH0 CODECOPY PUSH0 RETURN INVALID PUSH1 0x80 PUSH1 0x40 MSTORE CALLVALUE DUP1 ISZERO PUSH2 0xF JUMPI PUSH0 DUP1 REVERT JUMPDEST POP PUSH1 0x4 CALLDATASIZE LT PUSH2 0x60 JUMPI PUSH0 CALLDATALOAD PUSH1 0xE0 SHR DUP1 PUSH4 0x99BB129 EQ PUSH2 0x64 JUMPI DUP1 PUSH4 0x8129FC1C EQ PUSH2 0x94 JUMPI DUP1 PUSH4 0x8DD84620 EQ PUSH2 0x9E JUMPI DUP1 PUSH4 0xACE417E0 EQ PUSH2 0xBA JUMPI DUP1 PUSH4 0xB1B8A2E3 EQ PUSH2 0xEA JUMPI DUP1 PUSH4 0xE35FE366 EQ PUSH2 0x106 JUMPI JUMPDEST PUSH0 DUP1 REVERT JUMPDEST PUSH2 0x7E PUSH1 0x4 DUP1 CALLDATASIZE SUB DUP2 ADD SWAP1 PUSH2 0x79 SWAP2 SWAP1 PUSH2 0x5CE JUMP JUMPDEST PUSH2 0x136 JUMP JUMPDEST PUSH1 0x40 MLOAD PUSH2 0x8B SWAP2 SWAP1 PUSH2 0x611 JUMP JUMPDEST PUSH1 0x40 MLOAD DUP1 SWAP2 SUB SWAP1 RETURN JUMPDEST PUSH2 0x9C PUSH2 0x14A JUMP JUMPDEST STOP JUMPDEST PUSH2 0xB8 PUSH1 0x4 DUP1 CALLDATASIZE SUB DUP2 ADD SWAP1 PUSH2 0xB3 SWAP2 SWAP1 PUSH2 0x654 JUMP JUMPDEST PUSH2 0x24F JUMP JUMPDEST STOP JUMPDEST PUSH2 0xD4 PUSH1 0x4 DUP1 CALLDATASIZE SUB DUP2 ADD SWAP1 PUSH2 0xCF SWAP2 SWAP1 PUSH2 0x5CE JUMP JUMPDEST PUSH2 0x35F JUMP JUMPDEST PUSH1 0x40 MLOAD PUSH2 0xE1 SWAP2 SWAP1 PUSH2 0x699 JUMP JUMPDEST PUSH1 0x40 MLOAD DUP1 SWAP2 SUB SWAP1 RETURN JUMPDEST PUSH2 0x104 PUSH1 0x4 DUP1 CALLDATASIZE SUB DUP2 ADD SWAP1 PUSH2 0xFF SWAP2 SWAP1 PUSH2 0x654 JUMP JUMPDEST PUSH2 0x3B1 JUMP JUMPDEST STOP JUMPDEST PUSH2 0x120 PUSH1 0x4 DUP1 CALLDATASIZE SUB DUP2 ADD SWAP1 PUSH2 0x11B SWAP2 SWAP1 PUSH2 0x5CE JUMP JUMPDEST PUSH2 0x553 JUMP JUMPDEST PUSH1 0x40 MLOAD PUSH2 0x12D SWAP2 SWAP1 PUSH2 0x699 JUMP JUMPDEST PUSH1 0x40 MLOAD DUP1 SWAP2 SUB SWAP1 RETURN JUMPDEST PUSH0 PUSH1 0x20 MSTORE DUP1 PUSH0 MSTORE PUSH1 0x40 PUSH0 KECCAK256 PUSH0 SWAP2 POP SWAP1 POP SLOAD DUP2 JUMP JUMPDEST PUSH0 DUP1 PUSH0 CALLER PUSH20 0xFFFFFFFFFFFFFFFFFFFFFFFFFFFFFFFFFFFFFFFF AND PUSH20 0xFFFFFFFFFFFFFFFFFFFFFFFFFFFFFFFFFFFFFFFF AND DUP2 MSTORE PUSH1 0x20 ADD SWAP1 DUP2 MSTORE PUSH1 0x20 ADD PUSH0 KECCAK256 SLOAD EQ PUSH2 0x1C8 JUMPI PUSH1 0x40 MLOAD PUSH32 0x8C379A000000000000000000000000000000000000000000000000000000000 DUP2 MSTORE PUSH1 0x4 ADD PUSH2 0x1BF SWAP1 PUSH2 0x70C JUMP JUMPDEST PUSH1 0x40 MLOAD DUP1 SWAP2 SUB SWAP1 REVERT JUMPDEST PUSH1 0x1 PUSH0 DUP1 CALLER PUSH20 0xFFFFFFFFFFFFFFFFFFFFFFFFFFFFFFFFFFFFFFFF AND PUSH20 0xFFFFFFFFFFFFFFFFFFFFFFFFFFFFFFFFFFFFFFFF AND DUP2 MSTORE PUSH1 0x20 ADD SWAP1 DUP2 MSTORE PUSH1 0x20 ADD PUSH0 KECCAK256 DUP2 SWAP1 SSTORE POP CALLER PUSH20 0xFFFFFFFFFFFFFFFFFFFFFFFFFFFFFFFFFFFFFFFF AND PUSH32 0xDC6ED2644801B4760288D5B4C1EF80D0C3338CDC672729F2FB3157CB17419B42 PUSH1 0x40 MLOAD PUSH1 0x40 MLOAD DUP1 SWAP2 SUB SWAP1 LOG2 JUMP JUMPDEST PUSH0 DUP1 PUSH0 CALLER PUSH20 0xFFFFFFFFFFFFFFFFFFFFFFFFFFFFFFFFFFFFFFFF AND PUSH20 0xFFFFFFFFFFFFFFFFFFFFFFFFFFFFFFFFFFFFFFFF AND DUP2 MSTORE PUSH1 0x20 ADD SWAP1 DUP2 MSTORE PUSH1 0x20 ADD PUSH0 KECCAK256 SLOAD SUB PUSH2 0x2CD JUMPI PUSH1 0x40 MLOAD PUSH32 0x8C379A000000000000000000000000000000000000000000000000000000000 DUP2 MSTORE PUSH1 0x4 ADD PUSH2 0x2C4 SWAP1 PUSH2 0x774 JUMP JUMPDEST PUSH1 0x40 MLOAD DUP1 SWAP2 SUB SWAP1 REVERT JUMPDEST DUP1 PUSH0 DUP1 CALLER PUSH20 0xFFFFFFFFFFFFFFFFFFFFFFFFFFFFFFFFFFFFFFFF AND PUSH20 0xFFFFFFFFFFFFFFFFFFFFFFFFFFFFFFFFFFFFFFFF AND DUP2 MSTORE PUSH1 0x20 ADD SWAP1 DUP2 MSTORE PUSH1 0x20 ADD PUSH0 KECCAK256 DUP2 SWAP1 SSTORE POP CALLER PUSH20 0xFFFFFFFFFFFFFFFFFFFFFFFFFFFFFFFFFFFFFFFF AND PUSH32 0x359E1F8BBC9C04C295B3573F47F8AFB0EFA1033F11D73C9A0E1D3E79F01911B9 DUP3 PUSH1 0x40 MLOAD PUSH2 0x354 SWAP2 SWAP1 PUSH2 0x611 JUMP JUMPDEST PUSH1 0x40 MLOAD DUP1 SWAP2 SUB SWAP1 LOG2 POP JUMP JUMPDEST PUSH0 PUSH1 0x1 PUSH0 DUP4 PUSH20 0xFFFFFFFFFFFFFFFFFFFFFFFFFFFFFFFFFFFFFFFF AND PUSH20 0xFFFFFFFFFFFFFFFFFFFFFFFFFFFFFFFFFFFFFFFF AND DUP2 MSTORE PUSH1 0x20 ADD SWAP1 DUP2 MSTORE PUSH1 0x20 ADD PUSH0 KECCAK256 PUSH0 SWAP1 SLOAD SWAP1 PUSH2 0x100 EXP SWAP1 DIV PUSH1 0xFF AND SWAP1 POP SWAP2 SWAP1 POP JUMP JUMPDEST PUSH0 DUP1 PUSH0 CALLER PUSH20 0xFFFFFFFFFFFFFFFFFFFFFFFFFFFFFFFFFFFFFFFF AND PUSH20 0xFFFFFFFFFFFFFFFFFFFFFFFFFFFFFFFFFFFFFFFF AND DUP2 MSTORE PUSH1 0x20 ADD SWAP1 DUP2 MSTORE PUSH1 0x20 ADD PUSH0 KECCAK256 SLOAD SUB PUSH2 0x42F JUMPI PUSH1 0x40 MLOAD PUSH32 0x8C379A000000000000000000000000000000000000000000000000000000000 DUP2 MSTORE PUSH1 0x4 ADD PUSH2 0x426 SWAP1 PUSH2 0x774 JUMP JUMPDEST PUSH1 0x40 MLOAD DUP1 SWAP2 SUB SWAP1 REVERT JUMPDEST DUP1 PUSH0 DUP1 CALLER PUSH20 0xFFFFFFFFFFFFFFFFFFFFFFFFFFFFFFFFFFFFFFFF AND PUSH20 0xFFFFFFFFFFFFFFFFFFFFFFFFFFFFFFFFFFFFFFFF AND DUP2 MSTORE PUSH1 0x20 ADD SWAP1 DUP2 MSTORE PUSH1 0x20 ADD PUSH0 KECCAK256 SLOAD EQ PUSH2 0x4AD JUMPI PUSH1 0x40 MLOAD PUSH32 0x8C379A000000000000000000000000000000000000000000000000000000000 DUP2 MSTORE PUSH1 0x4 ADD PUSH2 0x4A4 SWAP1 PUSH2 0x7DC JUMP JUMPDEST PUSH1 0x40 MLOAD DUP1 SWAP2 SUB SWAP1 REVERT JUMPDEST PUSH1 0x1 DUP1 PUSH0 CALLER PUSH20 0xFFFFFFFFFFFFFFFFFFFFFFFFFFFFFFFFFFFFFFFF AND PUSH20 0xFFFFFFFFFFFFFFFFFFFFFFFFFFFFFFFFFFFFFFFF AND DUP2 MSTORE PUSH1 0x20 ADD SWAP1 DUP2 MSTORE PUSH1 0x20 ADD PUSH0 KECCAK256 PUSH0 PUSH2 0x100 EXP DUP2 SLOAD DUP2 PUSH1 0xFF MUL NOT AND SWAP1 DUP4 ISZERO ISZERO MUL OR SWAP1 SSTORE POP CALLER PUSH20 0xFFFFFFFFFFFFFFFFFFFFFFFFFFFFFFFFFFFFFFFF AND PUSH32 0x34736AF44D2B91CD43FA896D4CFE0861EC1E6B4538583D385FC671639E9153B2 PUSH1 0x1 PUSH1 0x40 MLOAD PUSH2 0x548 SWAP2 SWAP1 PUSH2 0x699 JUMP JUMPDEST PUSH1 0x40 MLOAD DUP1 SWAP2 SUB SWAP1 LOG2 POP JUMP JUMPDEST PUSH1 0x1 PUSH1 0x20 MSTORE DUP1 PUSH0 MSTORE PUSH1 0x40 PUSH0 KECCAK256 PUSH0 SWAP2 POP SLOAD SWAP1 PUSH2 0x100 EXP SWAP1 DIV PUSH1 0xFF AND DUP2 JUMP JUMPDEST PUSH0 DUP1 REVERT JUMPDEST PUSH0 PUSH20 0xFFFFFFFFFFFFFFFFFFFFFFFFFFFFFFFFFFFFFFFF DUP3 AND SWAP1 POP SWAP2 SWAP1 POP JUMP JUMPDEST PUSH0 PUSH2 0x59D DUP3 PUSH2 0x574 JUMP JUMPDEST SWAP1 POP SWAP2 SWAP1 POP JUMP JUMPDEST PUSH2 0x5AD DUP2 PUSH2 0x593 JUMP JUMPDEST DUP2 EQ PUSH2 0x5B7 JUMPI PUSH0 DUP1 REVERT JUMPDEST POP JUMP JUMPDEST PUSH0 DUP2 CALLDATALOAD SWAP1 POP PUSH2 0x5C8 DUP2 PUSH2 0x5A4 JUMP JUMPDEST SWAP3 SWAP2 POP POP JUMP JUMPDEST PUSH0 PUSH1 0x20 DUP3 DUP5 SUB SLT ISZERO PUSH2 0x5E3 JUMPI PUSH2 0x5E2 PUSH2 0x570 JUMP JUMPDEST JUMPDEST PUSH0 PUSH2 0x5F0 DUP5 DUP3 DUP6 ADD PUSH2 0x5BA JUMP JUMPDEST SWAP2 POP POP SWAP3 SWAP2 POP POP JUMP JUMPDEST PUSH0 DUP2 SWAP1 POP SWAP2 SWAP1 POP JUMP JUMPDEST PUSH2 0x60B DUP2 PUSH2 0x5F9 JUMP JUMPDEST DUP3 MSTORE POP POP JUMP JUMPDEST PUSH0 PUSH1 0x20 DUP3 ADD SWAP1 POP PUSH2 0x624 PUSH0 DUP4 ADD DUP5 PUSH2 0x602 JUMP JUMPDEST SWAP3 SWAP2 POP POP JUMP JUMPDEST PUSH2 0x633 DUP2 PUSH2 0x5F9 JUMP JUMPDEST DUP2 EQ PUSH2 0x63D JUMPI PUSH0 DUP1 REVERT JUMPDEST POP JUMP JUMPDEST PUSH0 DUP2 CALLDATALOAD SWAP1 POP PUSH2 0x64E DUP2 PUSH2 0x62A JUMP JUMPDEST SWAP3 SWAP2 POP POP JUMP JUMPDEST PUSH0 PUSH1 0x20 DUP3 DUP5 SUB SLT ISZERO PUSH2 0x669 JUMPI PUSH2 0x668 PUSH2 0x570 JUMP JUMPDEST JUMPDEST PUSH0 PUSH2 0x676 DUP5 DUP3 DUP6 ADD PUSH2 0x640 JUMP JUMPDEST SWAP2 POP POP SWAP3 SWAP2 POP POP JUMP JUMPDEST PUSH0 DUP2 ISZERO ISZERO SWAP1 POP SWAP2 SWAP1 POP JUMP JUMPDEST PUSH2 0x693 DUP2 PUSH2 0x67F JUMP JUMPDEST DUP3 MSTORE POP POP JUMP JUMPDEST PUSH0 PUSH1 0x20 DUP3 ADD SWAP1 POP PUSH2 0x6AC PUSH0 DUP4 ADD DUP5 PUSH2 0x68A JUMP JUMPDEST SWAP3 SWAP2 POP POP JUMP JUMPDEST PUSH0 DUP3 DUP3 MSTORE PUSH1 0x20 DUP3 ADD SWAP1 POP SWAP3 SWAP2 POP POP JUMP JUMPDEST PUSH32 0x416C726561647920696E697469616C697A656400000000000000000000000000 PUSH0 DUP3 ADD MSTORE POP JUMP JUMPDEST PUSH0 PUSH2 0x6F6 PUSH1 0x13 DUP4 PUSH2 0x6B2 JUMP JUMPDEST SWAP2 POP PUSH2 0x701 DUP3 PUSH2 0x6C2 JUMP JUMPDEST PUSH1 0x20 DUP3 ADD SWAP1 POP SWAP2 SWAP1 POP JUMP JUMPDEST PUSH0 PUSH1 0x20 DUP3 ADD SWAP1 POP DUP2 DUP2 SUB PUSH0 DUP4 ADD MSTORE PUSH2 0x723 DUP2 PUSH2 0x6EA JUMP JUMPDEST SWAP1 POP SWAP2 SWAP1 POP JUMP JUMPDEST PUSH32 0x55736572206E6F7420666F756E64000000000000000000000000000000000000 PUSH0 DUP3 ADD MSTORE POP JUMP JUMPDEST PUSH0 PUSH2 0x75E PUSH1 0xE DUP4 PUSH2 0x6B2 JUMP JUMPDEST SWAP2 POP PUSH2 0x769 DUP3 PUSH2 0x72A JUMP JUMPDEST PUSH1 0x20 DUP3 ADD SWAP1 POP SWAP2 SWAP1 POP JUMP JUMPDEST PUSH0 PUSH1 0x20 DUP3 ADD SWAP1 POP DUP2 DUP2 SUB PUSH0 DUP4 ADD MSTORE PUSH2 0x78B DUP2 PUSH2 0x752 JUMP JUMPDEST SWAP1 POP SWAP2 SWAP1 POP JUMP JUMPDEST PUSH32 0x496E76616C696420636F6E73656E74206F722070726F6F660000000000000000 PUSH0 DUP3 ADD MSTORE POP JUMP JUMPDEST PUSH0 PUSH2 0x7C6 PUSH1 0x18 DUP4 PUSH2 0x6B2 JUMP JUMPDEST SWAP2 POP PUSH2 0x7D1 DUP3 PUSH2 0x792 JUMP JUMPDEST PUSH1 0x20 DUP3 ADD SWAP1 POP SWAP2 SWAP1 POP JUMP JUMPDEST PUSH0 PUSH1 0x20 DUP3 ADD SWAP1 POP DUP2 DUP2 SUB PUSH0 DUP4 ADD MSTORE PUSH2 0x7F3 DUP2 PUSH2 0x7BA JUMP JUMPDEST SWAP1 POP SWAP2 SWAP1 POP JUMP INVALID LOG2 PUSH5 0x6970667358 0x22 SLT KECCAK256 SWAP2 0xF 0xD9 XOR SWAP12 0x28 0xCC DUP3 0x4D CALLDATALOAD PUSH10 0xDE817BF5C2E3B88437A7 DUP5 PUSH23 0x8E1E7E361164D15AC364736F6C634300081A0033000000 "
				},
				"gasEstimates": {
					"creation": {
						"codeDepositCost": "419200",
						"executionCost": "453",
						"totalCost": "419653"
					},
					"external": {
						"initialize()": "25713",
						"isUserVerified(address)": "2914",
						"privacySettings(address)": "2779",
						"setPrivacySettings(uint256)": "infinite",
						"verifiedUsers(address)": "2921",
						"verifyUserData(uint256)": "30816"
					}
				},
				"methodIdentifiers": {
					"initialize()": "8129fc1c",
					"isUserVerified(address)": "ace417e0",
					"privacySettings(address)": "099bb129",
					"setPrivacySettings(uint256)": "8dd84620",
					"verifiedUsers(address)": "e35fe366",
					"verifyUserData(uint256)": "b1b8a2e3"
				}
			},
			"storageLayout": {
				"storage": [
					{
						"astId": 5,
						"contract": "contracts/userverification.sol:UserDataPrivacyVerification",
						"label": "privacySettings",
						"offset": 0,
						"slot": "0",
						"type": "t_mapping(t_address,t_uint256)"
					},
					{
						"astId": 9,
						"contract": "contracts/userverification.sol:UserDataPrivacyVerification",
						"label": "verifiedUsers",
						"offset": 0,
						"slot": "1",
						"type": "t_mapping(t_address,t_bool)"
					}
				],
				"types": {
					"t_address": {
						"encoding": "inplace",
						"label": "address",
						"numberOfBytes": "20"
					},
					"t_bool": {
						"encoding": "inplace",
						"label": "bool",
						"numberOfBytes": "1"
					},
					"t_mapping(t_address,t_bool)": {
						"encoding": "mapping",
						"key": "t_address",
						"label": "mapping(address => bool)",
						"numberOfBytes": "32",
						"value": "t_bool"
					},
					"t_mapping(t_address,t_uint256)": {
						"encoding": "mapping",
						"key": "t_address",
						"label": "mapping(address => uint256)",
						"numberOfBytes": "32",
						"value": "t_uint256"
					},
					"t_uint256": {
						"encoding": "inplace",
						"label": "uint256",
						"numberOfBytes": "32"
					}
				}
			},
			"userdoc": {
				"kind": "user",
				"methods": {},
				"version": 1
			}
		}
	}
}