{
	"contracts/addelivery.sol": {
		"AdDelivery": {
			"abi": [
				{
					"anonymous": false,
					"inputs": [
						{
							"indexed": true,
							"internalType": "address",
							"name": "dAppOwner",
							"type": "address"
						},
						{
							"indexed": false,
							"internalType": "bool",
							"name": "success",
							"type": "bool"
						}
					],
					"name": "AdDelivered",
					"type": "event"
				},
				{
					"anonymous": false,
					"inputs": [
						{
							"indexed": true,
							"internalType": "address",
							"name": "dAppOwner",
							"type": "address"
						}
					],
					"name": "InitializationCompleted",
					"type": "event"
				},
				{
					"inputs": [
						{
							"internalType": "address",
							"name": "",
							"type": "address"
						}
					],
					"name": "adSlots",
					"outputs": [
						{
							"internalType": "uint256",
							"name": "adSlotCount",
							"type": "uint256"
						},
						{
							"internalType": "bool",
							"name": "exists",
							"type": "bool"
						}
					],
					"stateMutability": "view",
					"type": "function"
				},
				{
					"inputs": [],
					"name": "deliverAd",
					"outputs": [
						{
							"internalType": "bool",
							"name": "",
							"type": "bool"
						}
					],
					"stateMutability": "nonpayable",
					"type": "function"
				},
				{
					"inputs": [],
					"name": "initialize",
					"outputs": [],
					"stateMutability": "nonpayable",
					"type": "function"
				}
			],
			"devdoc": {
				"kind": "dev",
				"methods": {},
				"version": 1
			},
			"evm": {
				"assembly": "    /* \"contracts/addelivery.sol\":57:1416  contract AdDelivery {... */\n  mstore(0x40, 0x80)\n  callvalue\n  dup1\n  iszero\n  tag_1\n  jumpi\n  0x00\n  dup1\n  revert\ntag_1:\n  pop\n  dataSize(sub_0)\n  dup1\n  dataOffset(sub_0)\n  0x00\n  codecopy\n  0x00\n  return\nstop\n\nsub_0: assembly {\n        /* \"contracts/addelivery.sol\":57:1416  contract AdDelivery {... */\n      mstore(0x40, 0x80)\n      callvalue\n      dup1\n      iszero\n      tag_1\n      jumpi\n      0x00\n      dup1\n      revert\n    tag_1:\n      pop\n      jumpi(tag_2, lt(calldatasize, 0x04))\n      shr(0xe0, calldataload(0x00))\n      dup1\n      0x7ac6efce\n      eq\n      tag_3\n      jumpi\n      dup1\n      0x8129fc1c\n      eq\n      tag_4\n      jumpi\n      dup1\n      0xfc884be6\n      eq\n      tag_5\n      jumpi\n    tag_2:\n      0x00\n      dup1\n      revert\n        /* \"contracts/addelivery.sol\":924:1414  function deliverAd() external onlyDAppOwner returns (bool) {... */\n    tag_3:\n      tag_6\n      tag_7\n      jump\t// in\n    tag_6:\n      mload(0x40)\n      tag_8\n      swap2\n      swap1\n      tag_9\n      jump\t// in\n    tag_8:\n      mload(0x40)\n      dup1\n      swap2\n      sub\n      swap1\n      return\n        /* \"contracts/addelivery.sol\":622:885  function initialize() external {... */\n    tag_4:\n      tag_10\n      tag_11\n      jump\t// in\n    tag_10:\n      stop\n        /* \"contracts/addelivery.sol\":187:228  mapping(address => AdSlot) public adSlots */\n    tag_5:\n      tag_12\n      0x04\n      dup1\n      calldatasize\n      sub\n      dup2\n      add\n      swap1\n      tag_13\n      swap2\n      swap1\n      tag_14\n      jump\t// in\n    tag_13:\n      tag_15\n      jump\t// in\n    tag_12:\n      mload(0x40)\n      tag_16\n      swap3\n      swap2\n      swap1\n      tag_17\n      jump\t// in\n    tag_16:\n      mload(0x40)\n      dup1\n      swap2\n      sub\n      swap1\n      return\n        /* \"contracts/addelivery.sol\":924:1414  function deliverAd() external onlyDAppOwner returns (bool) {... */\n    tag_7:\n        /* \"contracts/addelivery.sol\":977:981  bool */\n      0x00\n        /* \"contracts/addelivery.sol\":484:491  adSlots */\n      dup1\n        /* \"contracts/addelivery.sol\":484:503  adSlots[msg.sender] */\n      0x00\n        /* \"contracts/addelivery.sol\":492:502  msg.sender */\n      caller\n        /* \"contracts/addelivery.sol\":484:503  adSlots[msg.sender] */\n      0xffffffffffffffffffffffffffffffffffffffff\n      and\n      0xffffffffffffffffffffffffffffffffffffffff\n      and\n      dup2\n      mstore\n      0x20\n      add\n      swap1\n      dup2\n      mstore\n      0x20\n      add\n      0x00\n      keccak256\n        /* \"contracts/addelivery.sol\":484:510  adSlots[msg.sender].exists */\n      0x01\n      add\n      0x00\n      swap1\n      sload\n      swap1\n      0x0100\n      exp\n      swap1\n      div\n      0xff\n      and\n        /* \"contracts/addelivery.sol\":476:535  require(adSlots[msg.sender].exists, \"DApp owner not found\") */\n      tag_19\n      jumpi\n      mload(0x40)\n      0x08c379a000000000000000000000000000000000000000000000000000000000\n      dup2\n      mstore\n      0x04\n      add\n      tag_20\n      swap1\n      tag_21\n      jump\t// in\n    tag_20:\n      mload(0x40)\n      dup1\n      swap2\n      sub\n      swap1\n      revert\n    tag_19:\n        /* \"contracts/addelivery.sol\":993:1014  AdSlot storage adSlot */\n      0x00\n        /* \"contracts/addelivery.sol\":1017:1024  adSlots */\n      dup1\n        /* \"contracts/addelivery.sol\":1017:1036  adSlots[msg.sender] */\n      0x00\n        /* \"contracts/addelivery.sol\":1025:1035  msg.sender */\n      caller\n        /* \"contracts/addelivery.sol\":1017:1036  adSlots[msg.sender] */\n      0xffffffffffffffffffffffffffffffffffffffff\n      and\n      0xffffffffffffffffffffffffffffffffffffffff\n      and\n      dup2\n      mstore\n      0x20\n      add\n      swap1\n      dup2\n      mstore\n      0x20\n      add\n      0x00\n      keccak256\n        /* \"contracts/addelivery.sol\":993:1036  AdSlot storage adSlot = adSlots[msg.sender] */\n      swap1\n      pop\n        /* \"contracts/addelivery.sol\":1111:1117  adSlot */\n      dup1\n        /* \"contracts/addelivery.sol\":1111:1124  adSlot.exists */\n      0x01\n      add\n      0x00\n      swap1\n      sload\n      swap1\n      0x0100\n      exp\n      swap1\n      div\n      0xff\n      and\n        /* \"contracts/addelivery.sol\":1103:1161  require(adSlot.exists, \"Ad slot not found or unavailable\") */\n      tag_23\n      jumpi\n      mload(0x40)\n      0x08c379a000000000000000000000000000000000000000000000000000000000\n      dup2\n      mstore\n      0x04\n      add\n      tag_24\n      swap1\n      tag_25\n      jump\t// in\n    tag_24:\n      mload(0x40)\n      dup1\n      swap2\n      sub\n      swap1\n      revert\n    tag_23:\n        /* \"contracts/addelivery.sol\":1304:1320  bool adDelivered */\n      0x00\n        /* \"contracts/addelivery.sol\":1323:1327  true */\n      0x01\n        /* \"contracts/addelivery.sol\":1304:1327  bool adDelivered = true */\n      swap1\n      pop\n        /* \"contracts/addelivery.sol\":1355:1365  msg.sender */\n      caller\n        /* \"contracts/addelivery.sol\":1343:1379  AdDelivered(msg.sender, adDelivered) */\n      0xffffffffffffffffffffffffffffffffffffffff\n      and\n      0xb65e13c04f6b38738a58e0ad4eb42c59f0d56b442b837629c321b2b1dbf7efa0\n        /* \"contracts/addelivery.sol\":1367:1378  adDelivered */\n      dup3\n        /* \"contracts/addelivery.sol\":1343:1379  AdDelivered(msg.sender, adDelivered) */\n      mload(0x40)\n      tag_26\n      swap2\n      swap1\n      tag_9\n      jump\t// in\n    tag_26:\n      mload(0x40)\n      dup1\n      swap2\n      sub\n      swap1\n      log2\n        /* \"contracts/addelivery.sol\":1396:1407  adDelivered */\n      dup1\n        /* \"contracts/addelivery.sol\":1389:1407  return adDelivered */\n      swap3\n      pop\n      pop\n      pop\n        /* \"contracts/addelivery.sol\":924:1414  function deliverAd() external onlyDAppOwner returns (bool) {... */\n      swap1\n      jump\t// out\n        /* \"contracts/addelivery.sol\":622:885  function initialize() external {... */\n    tag_11:\n        /* \"contracts/addelivery.sol\":672:679  adSlots */\n      0x00\n        /* \"contracts/addelivery.sol\":672:691  adSlots[msg.sender] */\n      dup1\n        /* \"contracts/addelivery.sol\":680:690  msg.sender */\n      caller\n        /* \"contracts/addelivery.sol\":672:691  adSlots[msg.sender] */\n      0xffffffffffffffffffffffffffffffffffffffff\n      and\n      0xffffffffffffffffffffffffffffffffffffffff\n      and\n      dup2\n      mstore\n      0x20\n      add\n      swap1\n      dup2\n      mstore\n      0x20\n      add\n      0x00\n      keccak256\n        /* \"contracts/addelivery.sol\":672:698  adSlots[msg.sender].exists */\n      0x01\n      add\n      0x00\n      swap1\n      sload\n      swap1\n      0x0100\n      exp\n      swap1\n      div\n      0xff\n      and\n        /* \"contracts/addelivery.sol\":671:698  !adSlots[msg.sender].exists */\n      iszero\n        /* \"contracts/addelivery.sol\":663:722  require(!adSlots[msg.sender].exists, \"Already initialized\") */\n      tag_28\n      jumpi\n      mload(0x40)\n      0x08c379a000000000000000000000000000000000000000000000000000000000\n      dup2\n      mstore\n      0x04\n      add\n      tag_29\n      swap1\n      tag_30\n      jump\t// in\n    tag_29:\n      mload(0x40)\n      dup1\n      swap2\n      sub\n      swap1\n      revert\n    tag_28:\n        /* \"contracts/addelivery.sol\":755:827  AdSlot({... */\n      mload(0x40)\n      dup1\n      0x40\n      add\n      0x40\n      mstore\n      dup1\n        /* \"contracts/addelivery.sol\":789:790  0 */\n      0x00\n        /* \"contracts/addelivery.sol\":755:827  AdSlot({... */\n      dup2\n      mstore\n      0x20\n      add\n        /* \"contracts/addelivery.sol\":812:816  true */\n      0x01\n        /* \"contracts/addelivery.sol\":755:827  AdSlot({... */\n      iszero\n      iszero\n      dup2\n      mstore\n      pop\n        /* \"contracts/addelivery.sol\":733:740  adSlots */\n      0x00\n        /* \"contracts/addelivery.sol\":733:752  adSlots[msg.sender] */\n      dup1\n        /* \"contracts/addelivery.sol\":741:751  msg.sender */\n      caller\n        /* \"contracts/addelivery.sol\":733:752  adSlots[msg.sender] */\n      0xffffffffffffffffffffffffffffffffffffffff\n      and\n      0xffffffffffffffffffffffffffffffffffffffff\n      and\n      dup2\n      mstore\n      0x20\n      add\n      swap1\n      dup2\n      mstore\n      0x20\n      add\n      0x00\n      keccak256\n        /* \"contracts/addelivery.sol\":733:827  adSlots[msg.sender] = AdSlot({... */\n      0x00\n      dup3\n      add\n      mload\n      dup2\n      0x00\n      add\n      sstore\n      0x20\n      dup3\n      add\n      mload\n      dup2\n      0x01\n      add\n      exp(0x0100, 0x00)\n      dup2\n      sload\n      dup2\n      0xff\n      mul\n      not\n      and\n      swap1\n      dup4\n      iszero\n      iszero\n      mul\n      or\n      swap1\n      sstore\n      pop\n      swap1\n      pop\n      pop\n        /* \"contracts/addelivery.sol\":867:877  msg.sender */\n      caller\n        /* \"contracts/addelivery.sol\":843:878  InitializationCompleted(msg.sender) */\n      0xffffffffffffffffffffffffffffffffffffffff\n      and\n      0xdc6ed2644801b4760288d5b4c1ef80d0c3338cdc672729f2fb3157cb17419b42\n      mload(0x40)\n      mload(0x40)\n      dup1\n      swap2\n      sub\n      swap1\n      log2\n        /* \"contracts/addelivery.sol\":622:885  function initialize() external {... */\n      jump\t// out\n        /* \"contracts/addelivery.sol\":187:228  mapping(address => AdSlot) public adSlots */\n    tag_15:\n      mstore(0x20, 0x00)\n      dup1\n      0x00\n      mstore\n      keccak256(0x00, 0x40)\n      0x00\n      swap2\n      pop\n      swap1\n      pop\n      dup1\n      0x00\n      add\n      sload\n      swap1\n      dup1\n      0x01\n      add\n      0x00\n      swap1\n      sload\n      swap1\n      0x0100\n      exp\n      swap1\n      div\n      0xff\n      and\n      swap1\n      pop\n      dup3\n      jump\t// out\n        /* \"#utility.yul\":7:97   */\n    tag_31:\n        /* \"#utility.yul\":41:48   */\n      0x00\n        /* \"#utility.yul\":84:89   */\n      dup2\n        /* \"#utility.yul\":77:90   */\n      iszero\n        /* \"#utility.yul\":70:91   */\n      iszero\n        /* \"#utility.yul\":59:91   */\n      swap1\n      pop\n        /* \"#utility.yul\":7:97   */\n      swap2\n      swap1\n      pop\n      jump\t// out\n        /* \"#utility.yul\":103:212   */\n    tag_32:\n        /* \"#utility.yul\":184:205   */\n      tag_52\n        /* \"#utility.yul\":199:204   */\n      dup2\n        /* \"#utility.yul\":184:205   */\n      tag_31\n      jump\t// in\n    tag_52:\n        /* \"#utility.yul\":179:182   */\n      dup3\n        /* \"#utility.yul\":172:206   */\n      mstore\n        /* \"#utility.yul\":103:212   */\n      pop\n      pop\n      jump\t// out\n        /* \"#utility.yul\":218:428   */\n    tag_9:\n        /* \"#utility.yul\":305:309   */\n      0x00\n        /* \"#utility.yul\":343:345   */\n      0x20\n        /* \"#utility.yul\":332:341   */\n      dup3\n        /* \"#utility.yul\":328:346   */\n      add\n        /* \"#utility.yul\":320:346   */\n      swap1\n      pop\n        /* \"#utility.yul\":356:421   */\n      tag_54\n        /* \"#utility.yul\":418:419   */\n      0x00\n        /* \"#utility.yul\":407:416   */\n      dup4\n        /* \"#utility.yul\":403:420   */\n      add\n        /* \"#utility.yul\":394:400   */\n      dup5\n        /* \"#utility.yul\":356:421   */\n      tag_32\n      jump\t// in\n    tag_54:\n        /* \"#utility.yul\":218:428   */\n      swap3\n      swap2\n      pop\n      pop\n      jump\t// out\n        /* \"#utility.yul\":515:632   */\n    tag_34:\n        /* \"#utility.yul\":624:625   */\n      0x00\n        /* \"#utility.yul\":621:622   */\n      dup1\n        /* \"#utility.yul\":614:626   */\n      revert\n        /* \"#utility.yul\":761:887   */\n    tag_36:\n        /* \"#utility.yul\":798:805   */\n      0x00\n        /* \"#utility.yul\":838:880   */\n      0xffffffffffffffffffffffffffffffffffffffff\n        /* \"#utility.yul\":831:836   */\n      dup3\n        /* \"#utility.yul\":827:881   */\n      and\n        /* \"#utility.yul\":816:881   */\n      swap1\n      pop\n        /* \"#utility.yul\":761:887   */\n      swap2\n      swap1\n      pop\n      jump\t// out\n        /* \"#utility.yul\":893:989   */\n    tag_37:\n        /* \"#utility.yul\":930:937   */\n      0x00\n        /* \"#utility.yul\":959:983   */\n      tag_60\n        /* \"#utility.yul\":977:982   */\n      dup3\n        /* \"#utility.yul\":959:983   */\n      tag_36\n      jump\t// in\n    tag_60:\n        /* \"#utility.yul\":948:983   */\n      swap1\n      pop\n        /* \"#utility.yul\":893:989   */\n      swap2\n      swap1\n      pop\n      jump\t// out\n        /* \"#utility.yul\":995:1117   */\n    tag_38:\n        /* \"#utility.yul\":1068:1092   */\n      tag_62\n        /* \"#utility.yul\":1086:1091   */\n      dup2\n        /* \"#utility.yul\":1068:1092   */\n      tag_37\n      jump\t// in\n    tag_62:\n        /* \"#utility.yul\":1061:1066   */\n      dup2\n        /* \"#utility.yul\":1058:1093   */\n      eq\n        /* \"#utility.yul\":1048:1111   */\n      tag_63\n      jumpi\n        /* \"#utility.yul\":1107:1108   */\n      0x00\n        /* \"#utility.yul\":1104:1105   */\n      dup1\n        /* \"#utility.yul\":1097:1109   */\n      revert\n        /* \"#utility.yul\":1048:1111   */\n    tag_63:\n        /* \"#utility.yul\":995:1117   */\n      pop\n      jump\t// out\n        /* \"#utility.yul\":1123:1262   */\n    tag_39:\n        /* \"#utility.yul\":1169:1174   */\n      0x00\n        /* \"#utility.yul\":1207:1213   */\n      dup2\n        /* \"#utility.yul\":1194:1214   */\n      calldataload\n        /* \"#utility.yul\":1185:1214   */\n      swap1\n      pop\n        /* \"#utility.yul\":1223:1256   */\n      tag_65\n        /* \"#utility.yul\":1250:1255   */\n      dup2\n        /* \"#utility.yul\":1223:1256   */\n      tag_38\n      jump\t// in\n    tag_65:\n        /* \"#utility.yul\":1123:1262   */\n      swap3\n      swap2\n      pop\n      pop\n      jump\t// out\n        /* \"#utility.yul\":1268:1597   */\n    tag_14:\n        /* \"#utility.yul\":1327:1333   */\n      0x00\n        /* \"#utility.yul\":1376:1378   */\n      0x20\n        /* \"#utility.yul\":1364:1373   */\n      dup3\n        /* \"#utility.yul\":1355:1362   */\n      dup5\n        /* \"#utility.yul\":1351:1374   */\n      sub\n        /* \"#utility.yul\":1347:1379   */\n      slt\n        /* \"#utility.yul\":1344:1463   */\n      iszero\n      tag_67\n      jumpi\n        /* \"#utility.yul\":1382:1461   */\n      tag_68\n      tag_34\n      jump\t// in\n    tag_68:\n        /* \"#utility.yul\":1344:1463   */\n    tag_67:\n        /* \"#utility.yul\":1502:1503   */\n      0x00\n        /* \"#utility.yul\":1527:1580   */\n      tag_69\n        /* \"#utility.yul\":1572:1579   */\n      dup5\n        /* \"#utility.yul\":1563:1569   */\n      dup3\n        /* \"#utility.yul\":1552:1561   */\n      dup6\n        /* \"#utility.yul\":1548:1570   */\n      add\n        /* \"#utility.yul\":1527:1580   */\n      tag_39\n      jump\t// in\n    tag_69:\n        /* \"#utility.yul\":1517:1580   */\n      swap2\n      pop\n        /* \"#utility.yul\":1473:1590   */\n      pop\n        /* \"#utility.yul\":1268:1597   */\n      swap3\n      swap2\n      pop\n      pop\n      jump\t// out\n        /* \"#utility.yul\":1603:1680   */\n    tag_40:\n        /* \"#utility.yul\":1640:1647   */\n      0x00\n        /* \"#utility.yul\":1669:1674   */\n      dup2\n        /* \"#utility.yul\":1658:1674   */\n      swap1\n      pop\n        /* \"#utility.yul\":1603:1680   */\n      swap2\n      swap1\n      pop\n      jump\t// out\n        /* \"#utility.yul\":1686:1804   */\n    tag_41:\n        /* \"#utility.yul\":1773:1797   */\n      tag_72\n        /* \"#utility.yul\":1791:1796   */\n      dup2\n        /* \"#utility.yul\":1773:1797   */\n      tag_40\n      jump\t// in\n    tag_72:\n        /* \"#utility.yul\":1768:1771   */\n      dup3\n        /* \"#utility.yul\":1761:1798   */\n      mstore\n        /* \"#utility.yul\":1686:1804   */\n      pop\n      pop\n      jump\t// out\n        /* \"#utility.yul\":1810:2130   */\n    tag_17:\n        /* \"#utility.yul\":1925:1929   */\n      0x00\n        /* \"#utility.yul\":1963:1965   */\n      0x40\n        /* \"#utility.yul\":1952:1961   */\n      dup3\n        /* \"#utility.yul\":1948:1966   */\n      add\n        /* \"#utility.yul\":1940:1966   */\n      swap1\n      pop\n        /* \"#utility.yul\":1976:2047   */\n      tag_74\n        /* \"#utility.yul\":2044:2045   */\n      0x00\n        /* \"#utility.yul\":2033:2042   */\n      dup4\n        /* \"#utility.yul\":2029:2046   */\n      add\n        /* \"#utility.yul\":2020:2026   */\n      dup6\n        /* \"#utility.yul\":1976:2047   */\n      tag_41\n      jump\t// in\n    tag_74:\n        /* \"#utility.yul\":2057:2123   */\n      tag_75\n        /* \"#utility.yul\":2119:2121   */\n      0x20\n        /* \"#utility.yul\":2108:2117   */\n      dup4\n        /* \"#utility.yul\":2104:2122   */\n      add\n        /* \"#utility.yul\":2095:2101   */\n      dup5\n        /* \"#utility.yul\":2057:2123   */\n      tag_32\n      jump\t// in\n    tag_75:\n        /* \"#utility.yul\":1810:2130   */\n      swap4\n      swap3\n      pop\n      pop\n      pop\n      jump\t// out\n        /* \"#utility.yul\":2136:2305   */\n    tag_42:\n        /* \"#utility.yul\":2220:2231   */\n      0x00\n        /* \"#utility.yul\":2254:2260   */\n      dup3\n        /* \"#utility.yul\":2249:2252   */\n      dup3\n        /* \"#utility.yul\":2242:2261   */\n      mstore\n        /* \"#utility.yul\":2294:2298   */\n      0x20\n        /* \"#utility.yul\":2289:2292   */\n      dup3\n        /* \"#utility.yul\":2285:2299   */\n      add\n        /* \"#utility.yul\":2270:2299   */\n      swap1\n      pop\n        /* \"#utility.yul\":2136:2305   */\n      swap3\n      swap2\n      pop\n      pop\n      jump\t// out\n        /* \"#utility.yul\":2311:2481   */\n    tag_43:\n        /* \"#utility.yul\":2451:2473   */\n      0x44417070206f776e6572206e6f7420666f756e64000000000000000000000000\n        /* \"#utility.yul\":2447:2448   */\n      0x00\n        /* \"#utility.yul\":2439:2445   */\n      dup3\n        /* \"#utility.yul\":2435:2449   */\n      add\n        /* \"#utility.yul\":2428:2474   */\n      mstore\n        /* \"#utility.yul\":2311:2481   */\n      pop\n      jump\t// out\n        /* \"#utility.yul\":2487:2853   */\n    tag_44:\n        /* \"#utility.yul\":2629:2632   */\n      0x00\n        /* \"#utility.yul\":2650:2717   */\n      tag_79\n        /* \"#utility.yul\":2714:2716   */\n      0x14\n        /* \"#utility.yul\":2709:2712   */\n      dup4\n        /* \"#utility.yul\":2650:2717   */\n      tag_42\n      jump\t// in\n    tag_79:\n        /* \"#utility.yul\":2643:2717   */\n      swap2\n      pop\n        /* \"#utility.yul\":2726:2819   */\n      tag_80\n        /* \"#utility.yul\":2815:2818   */\n      dup3\n        /* \"#utility.yul\":2726:2819   */\n      tag_43\n      jump\t// in\n    tag_80:\n        /* \"#utility.yul\":2844:2846   */\n      0x20\n        /* \"#utility.yul\":2839:2842   */\n      dup3\n        /* \"#utility.yul\":2835:2847   */\n      add\n        /* \"#utility.yul\":2828:2847   */\n      swap1\n      pop\n        /* \"#utility.yul\":2487:2853   */\n      swap2\n      swap1\n      pop\n      jump\t// out\n        /* \"#utility.yul\":2859:3278   */\n    tag_21:\n        /* \"#utility.yul\":3025:3029   */\n      0x00\n        /* \"#utility.yul\":3063:3065   */\n      0x20\n        /* \"#utility.yul\":3052:3061   */\n      dup3\n        /* \"#utility.yul\":3048:3066   */\n      add\n        /* \"#utility.yul\":3040:3066   */\n      swap1\n      pop\n        /* \"#utility.yul\":3112:3121   */\n      dup2\n        /* \"#utility.yul\":3106:3110   */\n      dup2\n        /* \"#utility.yul\":3102:3122   */\n      sub\n        /* \"#utility.yul\":3098:3099   */\n      0x00\n        /* \"#utility.yul\":3087:3096   */\n      dup4\n        /* \"#utility.yul\":3083:3100   */\n      add\n        /* \"#utility.yul\":3076:3123   */\n      mstore\n        /* \"#utility.yul\":3140:3271   */\n      tag_82\n        /* \"#utility.yul\":3266:3270   */\n      dup2\n        /* \"#utility.yul\":3140:3271   */\n      tag_44\n      jump\t// in\n    tag_82:\n        /* \"#utility.yul\":3132:3271   */\n      swap1\n      pop\n        /* \"#utility.yul\":2859:3278   */\n      swap2\n      swap1\n      pop\n      jump\t// out\n        /* \"#utility.yul\":3284:3466   */\n    tag_45:\n        /* \"#utility.yul\":3424:3458   */\n      0x416420736c6f74206e6f7420666f756e64206f7220756e617661696c61626c65\n        /* \"#utility.yul\":3420:3421   */\n      0x00\n        /* \"#utility.yul\":3412:3418   */\n      dup3\n        /* \"#utility.yul\":3408:3422   */\n      add\n        /* \"#utility.yul\":3401:3459   */\n      mstore\n        /* \"#utility.yul\":3284:3466   */\n      pop\n      jump\t// out\n        /* \"#utility.yul\":3472:3838   */\n    tag_46:\n        /* \"#utility.yul\":3614:3617   */\n      0x00\n        /* \"#utility.yul\":3635:3702   */\n      tag_85\n        /* \"#utility.yul\":3699:3701   */\n      0x20\n        /* \"#utility.yul\":3694:3697   */\n      dup4\n        /* \"#utility.yul\":3635:3702   */\n      tag_42\n      jump\t// in\n    tag_85:\n        /* \"#utility.yul\":3628:3702   */\n      swap2\n      pop\n        /* \"#utility.yul\":3711:3804   */\n      tag_86\n        /* \"#utility.yul\":3800:3803   */\n      dup3\n        /* \"#utility.yul\":3711:3804   */\n      tag_45\n      jump\t// in\n    tag_86:\n        /* \"#utility.yul\":3829:3831   */\n      0x20\n        /* \"#utility.yul\":3824:3827   */\n      dup3\n        /* \"#utility.yul\":3820:3832   */\n      add\n        /* \"#utility.yul\":3813:3832   */\n      swap1\n      pop\n        /* \"#utility.yul\":3472:3838   */\n      swap2\n      swap1\n      pop\n      jump\t// out\n        /* \"#utility.yul\":3844:4263   */\n    tag_25:\n        /* \"#utility.yul\":4010:4014   */\n      0x00\n        /* \"#utility.yul\":4048:4050   */\n      0x20\n        /* \"#utility.yul\":4037:4046   */\n      dup3\n        /* \"#utility.yul\":4033:4051   */\n      add\n        /* \"#utility.yul\":4025:4051   */\n      swap1\n      pop\n        /* \"#utility.yul\":4097:4106   */\n      dup2\n        /* \"#utility.yul\":4091:4095   */\n      dup2\n        /* \"#utility.yul\":4087:4107   */\n      sub\n        /* \"#utility.yul\":4083:4084   */\n      0x00\n        /* \"#utility.yul\":4072:4081   */\n      dup4\n        /* \"#utility.yul\":4068:4085   */\n      add\n        /* \"#utility.yul\":4061:4108   */\n      mstore\n        /* \"#utility.yul\":4125:4256   */\n      tag_88\n        /* \"#utility.yul\":4251:4255   */\n      dup2\n        /* \"#utility.yul\":4125:4256   */\n      tag_46\n      jump\t// in\n    tag_88:\n        /* \"#utility.yul\":4117:4256   */\n      swap1\n      pop\n        /* \"#utility.yul\":3844:4263   */\n      swap2\n      swap1\n      pop\n      jump\t// out\n        /* \"#utility.yul\":4269:4438   */\n    tag_47:\n        /* \"#utility.yul\":4409:4430   */\n      0x416c726561647920696e697469616c697a656400000000000000000000000000\n        /* \"#utility.yul\":4405:4406   */\n      0x00\n        /* \"#utility.yul\":4397:4403   */\n      dup3\n        /* \"#utility.yul\":4393:4407   */\n      add\n        /* \"#utility.yul\":4386:4431   */\n      mstore\n        /* \"#utility.yul\":4269:4438   */\n      pop\n      jump\t// out\n        /* \"#utility.yul\":4444:4810   */\n    tag_48:\n        /* \"#utility.yul\":4586:4589   */\n      0x00\n        /* \"#utility.yul\":4607:4674   */\n      tag_91\n        /* \"#utility.yul\":4671:4673   */\n      0x13\n        /* \"#utility.yul\":4666:4669   */\n      dup4\n        /* \"#utility.yul\":4607:4674   */\n      tag_42\n      jump\t// in\n    tag_91:\n        /* \"#utility.yul\":4600:4674   */\n      swap2\n      pop\n        /* \"#utility.yul\":4683:4776   */\n      tag_92\n        /* \"#utility.yul\":4772:4775   */\n      dup3\n        /* \"#utility.yul\":4683:4776   */\n      tag_47\n      jump\t// in\n    tag_92:\n        /* \"#utility.yul\":4801:4803   */\n      0x20\n        /* \"#utility.yul\":4796:4799   */\n      dup3\n        /* \"#utility.yul\":4792:4804   */\n      add\n        /* \"#utility.yul\":4785:4804   */\n      swap1\n      pop\n        /* \"#utility.yul\":4444:4810   */\n      swap2\n      swap1\n      pop\n      jump\t// out\n        /* \"#utility.yul\":4816:5235   */\n    tag_30:\n        /* \"#utility.yul\":4982:4986   */\n      0x00\n        /* \"#utility.yul\":5020:5022   */\n      0x20\n        /* \"#utility.yul\":5009:5018   */\n      dup3\n        /* \"#utility.yul\":5005:5023   */\n      add\n        /* \"#utility.yul\":4997:5023   */\n      swap1\n      pop\n        /* \"#utility.yul\":5069:5078   */\n      dup2\n        /* \"#utility.yul\":5063:5067   */\n      dup2\n        /* \"#utility.yul\":5059:5079   */\n      sub\n        /* \"#utility.yul\":5055:5056   */\n      0x00\n        /* \"#utility.yul\":5044:5053   */\n      dup4\n        /* \"#utility.yul\":5040:5057   */\n      add\n        /* \"#utility.yul\":5033:5080   */\n      mstore\n        /* \"#utility.yul\":5097:5228   */\n      tag_94\n        /* \"#utility.yul\":5223:5227   */\n      dup2\n        /* \"#utility.yul\":5097:5228   */\n      tag_48\n      jump\t// in\n    tag_94:\n        /* \"#utility.yul\":5089:5228   */\n      swap1\n      pop\n        /* \"#utility.yul\":4816:5235   */\n      swap2\n      swap1\n      pop\n      jump\t// out\n\n    auxdata: 0xa2646970667358221220becec8784604e2296c3e1a50e91a7e18915503a4c7dbe7a8e0aa26c3a14e08eb64736f6c634300081a0033\n}\n",
				"bytecode": {
					"linkReferences": {},
					"object": "6080604052348015600e575f80fd5b506106058061001c5f395ff3fe608060405234801561000f575f80fd5b506004361061003f575f3560e01c80637ac6efce146100435780638129fc1c14610061578063fc884be61461006b575b5f80fd5b61004b61009c565b60405161005891906103a6565b60405180910390f35b610069610212565b005b6100856004803603810190610080919061041d565b610361565b604051610093929190610460565b60405180910390f35b5f805f3373ffffffffffffffffffffffffffffffffffffffff1673ffffffffffffffffffffffffffffffffffffffff1681526020019081526020015f206001015f9054906101000a900460ff16610128576040517f08c379a000000000000000000000000000000000000000000000000000000000815260040161011f906104e1565b60405180910390fd5b5f805f3373ffffffffffffffffffffffffffffffffffffffff1673ffffffffffffffffffffffffffffffffffffffff1681526020019081526020015f209050806001015f9054906101000a900460ff166101b7576040517f08c379a00000000000000000000000000000000000000000000000000000000081526004016101ae90610549565b60405180910390fd5b5f600190503373ffffffffffffffffffffffffffffffffffffffff167fb65e13c04f6b38738a58e0ad4eb42c59f0d56b442b837629c321b2b1dbf7efa08260405161020291906103a6565b60405180910390a2809250505090565b5f803373ffffffffffffffffffffffffffffffffffffffff1673ffffffffffffffffffffffffffffffffffffffff1681526020019081526020015f206001015f9054906101000a900460ff161561029e576040517f08c379a0000000000000000000000000000000000000000000000000000000008152600401610295906105b1565b60405180910390fd5b60405180604001604052805f8152602001600115158152505f803373ffffffffffffffffffffffffffffffffffffffff1673ffffffffffffffffffffffffffffffffffffffff1681526020019081526020015f205f820151815f01556020820151816001015f6101000a81548160ff0219169083151502179055509050503373ffffffffffffffffffffffffffffffffffffffff167fdc6ed2644801b4760288d5b4c1ef80d0c3338cdc672729f2fb3157cb17419b4260405160405180910390a2565b5f602052805f5260405f205f91509050805f015490806001015f9054906101000a900460ff16905082565b5f8115159050919050565b6103a08161038c565b82525050565b5f6020820190506103b95f830184610397565b92915050565b5f80fd5b5f73ffffffffffffffffffffffffffffffffffffffff82169050919050565b5f6103ec826103c3565b9050919050565b6103fc816103e2565b8114610406575f80fd5b50565b5f81359050610417816103f3565b92915050565b5f60208284031215610432576104316103bf565b5b5f61043f84828501610409565b91505092915050565b5f819050919050565b61045a81610448565b82525050565b5f6040820190506104735f830185610451565b6104806020830184610397565b9392505050565b5f82825260208201905092915050565b7f44417070206f776e6572206e6f7420666f756e640000000000000000000000005f82015250565b5f6104cb601483610487565b91506104d682610497565b602082019050919050565b5f6020820190508181035f8301526104f8816104bf565b9050919050565b7f416420736c6f74206e6f7420666f756e64206f7220756e617661696c61626c655f82015250565b5f610533602083610487565b915061053e826104ff565b602082019050919050565b5f6020820190508181035f83015261056081610527565b9050919050565b7f416c726561647920696e697469616c697a6564000000000000000000000000005f82015250565b5f61059b601383610487565b91506105a682610567565b602082019050919050565b5f6020820190508181035f8301526105c88161058f565b905091905056fea2646970667358221220becec8784604e2296c3e1a50e91a7e18915503a4c7dbe7a8e0aa26c3a14e08eb64736f6c634300081a0033",
					"opcodes": "PUSH1 0x80 PUSH1 0x40 MSTORE CALLVALUE DUP1 ISZERO PUSH1 0xE JUMPI PUSH0 DUP1 REVERT JUMPDEST POP PUSH2 0x605 DUP1 PUSH2 0x1C PUSH0 CODECOPY PUSH0 RETURN INVALID PUSH1 0x80 PUSH1 0x40 MSTORE CALLVALUE DUP1 ISZERO PUSH2 0xF JUMPI PUSH0 DUP1 REVERT JUMPDEST POP PUSH1 0x4 CALLDATASIZE LT PUSH2 0x3F JUMPI PUSH0 CALLDATALOAD PUSH1 0xE0 SHR DUP1 PUSH4 0x7AC6EFCE EQ PUSH2 0x43 JUMPI DUP1 PUSH4 0x8129FC1C EQ PUSH2 0x61 JUMPI DUP1 PUSH4 0xFC884BE6 EQ PUSH2 0x6B JUMPI JUMPDEST PUSH0 DUP1 REVERT JUMPDEST PUSH2 0x4B PUSH2 0x9C JUMP JUMPDEST PUSH1 0x40 MLOAD PUSH2 0x58 SWAP2 SWAP1 PUSH2 0x3A6 JUMP JUMPDEST PUSH1 0x40 MLOAD DUP1 SWAP2 SUB SWAP1 RETURN JUMPDEST PUSH2 0x69 PUSH2 0x212 JUMP JUMPDEST STOP JUMPDEST PUSH2 0x85 PUSH1 0x4 DUP1 CALLDATASIZE SUB DUP2 ADD SWAP1 PUSH2 0x80 SWAP2 SWAP1 PUSH2 0x41D JUMP JUMPDEST PUSH2 0x361 JUMP JUMPDEST PUSH1 0x40 MLOAD PUSH2 0x93 SWAP3 SWAP2 SWAP1 PUSH2 0x460 JUMP JUMPDEST PUSH1 0x40 MLOAD DUP1 SWAP2 SUB SWAP1 RETURN JUMPDEST PUSH0 DUP1 PUSH0 CALLER PUSH20 0xFFFFFFFFFFFFFFFFFFFFFFFFFFFFFFFFFFFFFFFF AND PUSH20 0xFFFFFFFFFFFFFFFFFFFFFFFFFFFFFFFFFFFFFFFF AND DUP2 MSTORE PUSH1 0x20 ADD SWAP1 DUP2 MSTORE PUSH1 0x20 ADD PUSH0 KECCAK256 PUSH1 0x1 ADD PUSH0 SWAP1 SLOAD SWAP1 PUSH2 0x100 EXP SWAP1 DIV PUSH1 0xFF AND PUSH2 0x128 JUMPI PUSH1 0x40 MLOAD PUSH32 0x8C379A000000000000000000000000000000000000000000000000000000000 DUP2 MSTORE PUSH1 0x4 ADD PUSH2 0x11F SWAP1 PUSH2 0x4E1 JUMP JUMPDEST PUSH1 0x40 MLOAD DUP1 SWAP2 SUB SWAP1 REVERT JUMPDEST PUSH0 DUP1 PUSH0 CALLER PUSH20 0xFFFFFFFFFFFFFFFFFFFFFFFFFFFFFFFFFFFFFFFF AND PUSH20 0xFFFFFFFFFFFFFFFFFFFFFFFFFFFFFFFFFFFFFFFF AND DUP2 MSTORE PUSH1 0x20 ADD SWAP1 DUP2 MSTORE PUSH1 0x20 ADD PUSH0 KECCAK256 SWAP1 POP DUP1 PUSH1 0x1 ADD PUSH0 SWAP1 SLOAD SWAP1 PUSH2 0x100 EXP SWAP1 DIV PUSH1 0xFF AND PUSH2 0x1B7 JUMPI PUSH1 0x40 MLOAD PUSH32 0x8C379A000000000000000000000000000000000000000000000000000000000 DUP2 MSTORE PUSH1 0x4 ADD PUSH2 0x1AE SWAP1 PUSH2 0x549 JUMP JUMPDEST PUSH1 0x40 MLOAD DUP1 SWAP2 SUB SWAP1 REVERT JUMPDEST PUSH0 PUSH1 0x1 SWAP1 POP CALLER PUSH20 0xFFFFFFFFFFFFFFFFFFFFFFFFFFFFFFFFFFFFFFFF AND PUSH32 0xB65E13C04F6B38738A58E0AD4EB42C59F0D56B442B837629C321B2B1DBF7EFA0 DUP3 PUSH1 0x40 MLOAD PUSH2 0x202 SWAP2 SWAP1 PUSH2 0x3A6 JUMP JUMPDEST PUSH1 0x40 MLOAD DUP1 SWAP2 SUB SWAP1 LOG2 DUP1 SWAP3 POP POP POP SWAP1 JUMP JUMPDEST PUSH0 DUP1 CALLER PUSH20 0xFFFFFFFFFFFFFFFFFFFFFFFFFFFFFFFFFFFFFFFF AND PUSH20 0xFFFFFFFFFFFFFFFFFFFFFFFFFFFFFFFFFFFFFFFF AND DUP2 MSTORE PUSH1 0x20 ADD SWAP1 DUP2 MSTORE PUSH1 0x20 ADD PUSH0 KECCAK256 PUSH1 0x1 ADD PUSH0 SWAP1 SLOAD SWAP1 PUSH2 0x100 EXP SWAP1 DIV PUSH1 0xFF AND ISZERO PUSH2 0x29E JUMPI PUSH1 0x40 MLOAD PUSH32 0x8C379A000000000000000000000000000000000000000000000000000000000 DUP2 MSTORE PUSH1 0x4 ADD PUSH2 0x295 SWAP1 PUSH2 0x5B1 JUMP JUMPDEST PUSH1 0x40 MLOAD DUP1 SWAP2 SUB SWAP1 REVERT JUMPDEST PUSH1 0x40 MLOAD DUP1 PUSH1 0x40 ADD PUSH1 0x40 MSTORE DUP1 PUSH0 DUP2 MSTORE PUSH1 0x20 ADD PUSH1 0x1 ISZERO ISZERO DUP2 MSTORE POP PUSH0 DUP1 CALLER PUSH20 0xFFFFFFFFFFFFFFFFFFFFFFFFFFFFFFFFFFFFFFFF AND PUSH20 0xFFFFFFFFFFFFFFFFFFFFFFFFFFFFFFFFFFFFFFFF AND DUP2 MSTORE PUSH1 0x20 ADD SWAP1 DUP2 MSTORE PUSH1 0x20 ADD PUSH0 KECCAK256 PUSH0 DUP3 ADD MLOAD DUP2 PUSH0 ADD SSTORE PUSH1 0x20 DUP3 ADD MLOAD DUP2 PUSH1 0x1 ADD PUSH0 PUSH2 0x100 EXP DUP2 SLOAD DUP2 PUSH1 0xFF MUL NOT AND SWAP1 DUP4 ISZERO ISZERO MUL OR SWAP1 SSTORE POP SWAP1 POP POP CALLER PUSH20 0xFFFFFFFFFFFFFFFFFFFFFFFFFFFFFFFFFFFFFFFF AND PUSH32 0xDC6ED2644801B4760288D5B4C1EF80D0C3338CDC672729F2FB3157CB17419B42 PUSH1 0x40 MLOAD PUSH1 0x40 MLOAD DUP1 SWAP2 SUB SWAP1 LOG2 JUMP JUMPDEST PUSH0 PUSH1 0x20 MSTORE DUP1 PUSH0 MSTORE PUSH1 0x40 PUSH0 KECCAK256 PUSH0 SWAP2 POP SWAP1 POP DUP1 PUSH0 ADD SLOAD SWAP1 DUP1 PUSH1 0x1 ADD PUSH0 SWAP1 SLOAD SWAP1 PUSH2 0x100 EXP SWAP1 DIV PUSH1 0xFF AND SWAP1 POP DUP3 JUMP JUMPDEST PUSH0 DUP2 ISZERO ISZERO SWAP1 POP SWAP2 SWAP1 POP JUMP JUMPDEST PUSH2 0x3A0 DUP2 PUSH2 0x38C JUMP JUMPDEST DUP3 MSTORE POP POP JUMP JUMPDEST PUSH0 PUSH1 0x20 DUP3 ADD SWAP1 POP PUSH2 0x3B9 PUSH0 DUP4 ADD DUP5 PUSH2 0x397 JUMP JUMPDEST SWAP3 SWAP2 POP POP JUMP JUMPDEST PUSH0 DUP1 REVERT JUMPDEST PUSH0 PUSH20 0xFFFFFFFFFFFFFFFFFFFFFFFFFFFFFFFFFFFFFFFF DUP3 AND SWAP1 POP SWAP2 SWAP1 POP JUMP JUMPDEST PUSH0 PUSH2 0x3EC DUP3 PUSH2 0x3C3 JUMP JUMPDEST SWAP1 POP SWAP2 SWAP1 POP JUMP JUMPDEST PUSH2 0x3FC DUP2 PUSH2 0x3E2 JUMP JUMPDEST DUP2 EQ PUSH2 0x406 JUMPI PUSH0 DUP1 REVERT JUMPDEST POP JUMP JUMPDEST PUSH0 DUP2 CALLDATALOAD SWAP1 POP PUSH2 0x417 DUP2 PUSH2 0x3F3 JUMP JUMPDEST SWAP3 SWAP2 POP POP JUMP JUMPDEST PUSH0 PUSH1 0x20 DUP3 DUP5 SUB SLT ISZERO PUSH2 0x432 JUMPI PUSH2 0x431 PUSH2 0x3BF JUMP JUMPDEST JUMPDEST PUSH0 PUSH2 0x43F DUP5 DUP3 DUP6 ADD PUSH2 0x409 JUMP JUMPDEST SWAP2 POP POP SWAP3 SWAP2 POP POP JUMP JUMPDEST PUSH0 DUP2 SWAP1 POP SWAP2 SWAP1 POP JUMP JUMPDEST PUSH2 0x45A DUP2 PUSH2 0x448 JUMP JUMPDEST DUP3 MSTORE POP POP JUMP JUMPDEST PUSH0 PUSH1 0x40 DUP3 ADD SWAP1 POP PUSH2 0x473 PUSH0 DUP4 ADD DUP6 PUSH2 0x451 JUMP JUMPDEST PUSH2 0x480 PUSH1 0x20 DUP4 ADD DUP5 PUSH2 0x397 JUMP JUMPDEST SWAP4 SWAP3 POP POP POP JUMP JUMPDEST PUSH0 DUP3 DUP3 MSTORE PUSH1 0x20 DUP3 ADD SWAP1 POP SWAP3 SWAP2 POP POP JUMP JUMPDEST PUSH32 0x44417070206F776E6572206E6F7420666F756E64000000000000000000000000 PUSH0 DUP3 ADD MSTORE POP JUMP JUMPDEST PUSH0 PUSH2 0x4CB PUSH1 0x14 DUP4 PUSH2 0x487 JUMP JUMPDEST SWAP2 POP PUSH2 0x4D6 DUP3 PUSH2 0x497 JUMP JUMPDEST PUSH1 0x20 DUP3 ADD SWAP1 POP SWAP2 SWAP1 POP JUMP JUMPDEST PUSH0 PUSH1 0x20 DUP3 ADD SWAP1 POP DUP2 DUP2 SUB PUSH0 DUP4 ADD MSTORE PUSH2 0x4F8 DUP2 PUSH2 0x4BF JUMP JUMPDEST SWAP1 POP SWAP2 SWAP1 POP JUMP JUMPDEST PUSH32 0x416420736C6F74206E6F7420666F756E64206F7220756E617661696C61626C65 PUSH0 DUP3 ADD MSTORE POP JUMP JUMPDEST PUSH0 PUSH2 0x533 PUSH1 0x20 DUP4 PUSH2 0x487 JUMP JUMPDEST SWAP2 POP PUSH2 0x53E DUP3 PUSH2 0x4FF JUMP JUMPDEST PUSH1 0x20 DUP3 ADD SWAP1 POP SWAP2 SWAP1 POP JUMP JUMPDEST PUSH0 PUSH1 0x20 DUP3 ADD SWAP1 POP DUP2 DUP2 SUB PUSH0 DUP4 ADD MSTORE PUSH2 0x560 DUP2 PUSH2 0x527 JUMP JUMPDEST SWAP1 POP SWAP2 SWAP1 POP JUMP JUMPDEST PUSH32 0x416C726561647920696E697469616C697A656400000000000000000000000000 PUSH0 DUP3 ADD MSTORE POP JUMP JUMPDEST PUSH0 PUSH2 0x59B PUSH1 0x13 DUP4 PUSH2 0x487 JUMP JUMPDEST SWAP2 POP PUSH2 0x5A6 DUP3 PUSH2 0x567 JUMP JUMPDEST PUSH1 0x20 DUP3 ADD SWAP1 POP SWAP2 SWAP1 POP JUMP JUMPDEST PUSH0 PUSH1 0x20 DUP3 ADD SWAP1 POP DUP2 DUP2 SUB PUSH0 DUP4 ADD MSTORE PUSH2 0x5C8 DUP2 PUSH2 0x58F JUMP JUMPDEST SWAP1 POP SWAP2 SWAP1 POP JUMP INVALID LOG2 PUSH5 0x6970667358 0x22 SLT KECCAK256 0xBE 0xCE 0xC8 PUSH25 0x4604E2296C3E1A50E91A7E18915503A4C7DBE7A8E0AA26C3A1 0x4E ADDMOD 0xEB PUSH5 0x736F6C6343 STOP ADDMOD BYTE STOP CALLER "
				},
				"gasEstimates": {
					"creation": {
						"codeDepositCost": "308200",
						"executionCost": "347",
						"totalCost": "308547"
					},
					"external": {
						"adSlots(address)": "5088",
						"deliverAd()": "infinite",
						"initialize()": "33012"
					}
				},
				"methodIdentifiers": {
					"adSlots(address)": "fc884be6",
					"deliverAd()": "7ac6efce",
					"initialize()": "8129fc1c"
				}
			},
			"storageLayout": {
				"storage": [
					{
						"astId": 11,
						"contract": "contracts/addelivery.sol:AdDelivery",
						"label": "adSlots",
						"offset": 0,
						"slot": "0",
						"type": "t_mapping(t_address,t_struct(AdSlot)6_storage)"
					}
				],
				"types": {
					"t_address": {
						"encoding": "inplace",
						"label": "address",
						"numberOfBytes": "20"
					},
					"t_bool": {
						"encoding": "inplace",
						"label": "bool",
						"numberOfBytes": "1"
					},
					"t_mapping(t_address,t_struct(AdSlot)6_storage)": {
						"encoding": "mapping",
						"key": "t_address",
						"label": "mapping(address => struct AdDelivery.AdSlot)",
						"numberOfBytes": "32",
						"value": "t_struct(AdSlot)6_storage"
					},
					"t_struct(AdSlot)6_storage": {
						"encoding": "inplace",
						"label": "struct AdDelivery.AdSlot",
						"members": [
							{
								"astId": 3,
								"contract": "contracts/addelivery.sol:AdDelivery",
								"label": "adSlotCount",
								"offset": 0,
								"slot": "0",
								"type": "t_uint256"
							},
							{
								"astId": 5,
								"contract": "contracts/addelivery.sol:AdDelivery",
								"label": "exists",
								"offset": 0,
								"slot": "1",
								"type": "t_bool"
							}
						],
						"numberOfBytes": "64"
					},
					"t_uint256": {
						"encoding": "inplace",
						"label": "uint256",
						"numberOfBytes": "32"
					}
				}
			},
			"userdoc": {
				"kind": "user",
				"methods": {},
				"version": 1
			}
		}
	}
}