{
	"contracts/adslotauction.sol": {
		"AdSlotAuction": {
			"abi": [
				{
					"anonymous": false,
					"inputs": [
						{
							"indexed": true,
							"internalType": "uint256",
							"name": "auctionId",
							"type": "uint256"
						},
						{
							"indexed": true,
							"internalType": "address",
							"name": "owner",
							"type": "address"
						}
					],
					"name": "AuctionCreated",
					"type": "event"
				},
				{
					"anonymous": false,
					"inputs": [
						{
							"indexed": true,
							"internalType": "uint256",
							"name": "auctionId",
							"type": "uint256"
						}
					],
					"name": "AuctionStarted",
					"type": "event"
				},
				{
					"anonymous": false,
					"inputs": [
						{
							"indexed": true,
							"internalType": "uint256",
							"name": "auctionId",
							"type": "uint256"
						},
						{
							"indexed": true,
							"internalType": "address",
							"name": "bidder",
							"type": "address"
						},
						{
							"indexed": false,
							"internalType": "uint256",
							"name": "bidAmount",
							"type": "uint256"
						}
					],
					"name": "BidPlaced",
					"type": "event"
				},
				{
					"anonymous": false,
					"inputs": [
						{
							"indexed": true,
							"internalType": "address",
							"name": "dAppOwner",
							"type": "address"
						}
					],
					"name": "InitializationCompleted",
					"type": "event"
				},
				{
					"inputs": [],
					"name": "auctionCounter",
					"outputs": [
						{
							"internalType": "uint256",
							"name": "",
							"type": "uint256"
						}
					],
					"stateMutability": "view",
					"type": "function"
				},
				{
					"inputs": [
						{
							"internalType": "uint256",
							"name": "",
							"type": "uint256"
						}
					],
					"name": "auctions",
					"outputs": [
						{
							"internalType": "uint256",
							"name": "auctionId",
							"type": "uint256"
						},
						{
							"internalType": "address",
							"name": "owner",
							"type": "address"
						},
						{
							"internalType": "bool",
							"name": "isActive",
							"type": "bool"
						},
						{
							"internalType": "uint256",
							"name": "highestBid",
							"type": "uint256"
						},
						{
							"internalType": "address",
							"name": "highestBidder",
							"type": "address"
						}
					],
					"stateMutability": "view",
					"type": "function"
				},
				{
					"inputs": [
						{
							"internalType": "address",
							"name": "",
							"type": "address"
						}
					],
					"name": "balances",
					"outputs": [
						{
							"internalType": "uint256",
							"name": "",
							"type": "uint256"
						}
					],
					"stateMutability": "view",
					"type": "function"
				},
				{
					"inputs": [],
					"name": "createAuction",
					"outputs": [],
					"stateMutability": "nonpayable",
					"type": "function"
				},
				{
					"inputs": [],
					"name": "currentAuctionId",
					"outputs": [
						{
							"internalType": "uint256",
							"name": "",
							"type": "uint256"
						}
					],
					"stateMutability": "view",
					"type": "function"
				},
				{
					"inputs": [
						{
							"internalType": "address",
							"name": "",
							"type": "address"
						}
					],
					"name": "dAppOwners",
					"outputs": [
						{
							"internalType": "bool",
							"name": "",
							"type": "bool"
						}
					],
					"stateMutability": "view",
					"type": "function"
				},
				{
					"inputs": [],
					"name": "depositFunds",
					"outputs": [],
					"stateMutability": "payable",
					"type": "function"
				},
				{
					"inputs": [],
					"name": "initialize",
					"outputs": [],
					"stateMutability": "nonpayable",
					"type": "function"
				},
				{
					"inputs": [
						{
							"internalType": "uint256",
							"name": "bidAmount",
							"type": "uint256"
						}
					],
					"name": "placeBid",
					"outputs": [],
					"stateMutability": "nonpayable",
					"type": "function"
				},
				{
					"inputs": [
						{
							"internalType": "uint256",
							"name": "auctionId",
							"type": "uint256"
						}
					],
					"name": "startAuction",
					"outputs": [],
					"stateMutability": "nonpayable",
					"type": "function"
				},
				{
					"inputs": [
						{
							"internalType": "uint256",
							"name": "amount",
							"type": "uint256"
						}
					],
					"name": "withdrawFunds",
					"outputs": [],
					"stateMutability": "nonpayable",
					"type": "function"
				}
			],
			"devdoc": {
				"kind": "dev",
				"methods": {},
				"version": 1
			},
			"evm": {
				"assembly": "    /* \"contracts/adslotauction.sol\":57:2815  contract AdSlotAuction {... */\n  mstore(0x40, 0x80)\n    /* \"contracts/adslotauction.sol\":141:142  1 */\n  0x01\n    /* \"contracts/adslotauction.sol\":109:142  uint256 public auctionCounter = 1 */\n  0x00\n  sstore\n    /* \"contracts/adslotauction.sol\":57:2815  contract AdSlotAuction {... */\n  callvalue\n  dup1\n  iszero\n  tag_1\n  jumpi\n  0x00\n  dup1\n  revert\ntag_1:\n  pop\n  dataSize(sub_0)\n  dup1\n  dataOffset(sub_0)\n  0x00\n  codecopy\n  0x00\n  return\nstop\n\nsub_0: assembly {\n        /* \"contracts/adslotauction.sol\":57:2815  contract AdSlotAuction {... */\n      mstore(0x40, 0x80)\n      jumpi(tag_1, lt(calldatasize, 0x04))\n      shr(0xe0, calldataload(0x00))\n      dup1\n      0x8129fc1c\n      gt\n      tag_13\n      jumpi\n      dup1\n      0x8129fc1c\n      eq\n      tag_7\n      jumpi\n      dup1\n      0x9979ef45\n      eq\n      tag_8\n      jumpi\n      dup1\n      0xa7e76644\n      eq\n      tag_9\n      jumpi\n      dup1\n      0xae9f4db2\n      eq\n      tag_10\n      jumpi\n      dup1\n      0xe2c41dbc\n      eq\n      tag_11\n      jumpi\n      dup1\n      0xf5811447\n      eq\n      tag_12\n      jumpi\n      jump(tag_1)\n    tag_13:\n      dup1\n      0x065de74c\n      eq\n      tag_2\n      jumpi\n      dup1\n      0x0c0b86ca\n      eq\n      tag_3\n      jumpi\n      dup1\n      0x155dd5ee\n      eq\n      tag_4\n      jumpi\n      dup1\n      0x27e235e3\n      eq\n      tag_5\n      jumpi\n      dup1\n      0x571a26a0\n      eq\n      tag_6\n      jumpi\n    tag_1:\n      0x00\n      dup1\n      revert\n        /* \"contracts/adslotauction.sol\":1716:1949  function startAuction(uint256 auctionId) external onlyDAppOwner {... */\n    tag_2:\n      callvalue\n      dup1\n      iszero\n      tag_14\n      jumpi\n      0x00\n      dup1\n      revert\n    tag_14:\n      pop\n      tag_15\n      0x04\n      dup1\n      calldatasize\n      sub\n      dup2\n      add\n      swap1\n      tag_16\n      swap2\n      swap1\n      tag_17\n      jump\t// in\n    tag_16:\n      tag_18\n      jump\t// in\n    tag_15:\n      stop\n        /* \"contracts/adslotauction.sol\":148:179  uint256 public currentAuctionId */\n    tag_3:\n      callvalue\n      dup1\n      iszero\n      tag_19\n      jumpi\n      0x00\n      dup1\n      revert\n    tag_19:\n      pop\n      tag_20\n      tag_21\n      jump\t// in\n    tag_20:\n      mload(0x40)\n      tag_22\n      swap2\n      swap1\n      tag_23\n      jump\t// in\n    tag_22:\n      mload(0x40)\n      dup1\n      swap2\n      sub\n      swap1\n      return\n        /* \"contracts/adslotauction.sol\":2599:2813  function withdrawFunds(uint256 amount) external {... */\n    tag_4:\n      callvalue\n      dup1\n      iszero\n      tag_24\n      jumpi\n      0x00\n      dup1\n      revert\n    tag_24:\n      pop\n      tag_25\n      0x04\n      dup1\n      calldatasize\n      sub\n      dup2\n      add\n      swap1\n      tag_26\n      swap2\n      swap1\n      tag_17\n      jump\t// in\n    tag_26:\n      tag_27\n      jump\t// in\n    tag_25:\n      stop\n        /* \"contracts/adslotauction.sol\":443:486  mapping(address => uint256) public balances */\n    tag_5:\n      callvalue\n      dup1\n      iszero\n      tag_28\n      jumpi\n      0x00\n      dup1\n      revert\n    tag_28:\n      pop\n      tag_29\n      0x04\n      dup1\n      calldatasize\n      sub\n      dup2\n      add\n      swap1\n      tag_30\n      swap2\n      swap1\n      tag_31\n      jump\t// in\n    tag_30:\n      tag_32\n      jump\t// in\n    tag_29:\n      mload(0x40)\n      tag_33\n      swap2\n      swap1\n      tag_23\n      jump\t// in\n    tag_33:\n      mload(0x40)\n      dup1\n      swap2\n      sub\n      swap1\n      return\n        /* \"contracts/adslotauction.sol\":394:437  mapping(uint256 => Auction) public auctions */\n    tag_6:\n      callvalue\n      dup1\n      iszero\n      tag_34\n      jumpi\n      0x00\n      dup1\n      revert\n    tag_34:\n      pop\n      tag_35\n      0x04\n      dup1\n      calldatasize\n      sub\n      dup2\n      add\n      swap1\n      tag_36\n      swap2\n      swap1\n      tag_17\n      jump\t// in\n    tag_36:\n      tag_37\n      jump\t// in\n    tag_35:\n      mload(0x40)\n      tag_38\n      swap6\n      swap5\n      swap4\n      swap3\n      swap2\n      swap1\n      tag_39\n      jump\t// in\n    tag_38:\n      mload(0x40)\n      dup1\n      swap2\n      sub\n      swap1\n      return\n        /* \"contracts/adslotauction.sol\":1032:1226  function initialize() external {... */\n    tag_7:\n      callvalue\n      dup1\n      iszero\n      tag_40\n      jumpi\n      0x00\n      dup1\n      revert\n    tag_40:\n      pop\n      tag_41\n      tag_42\n      jump\t// in\n    tag_41:\n      stop\n        /* \"contracts/adslotauction.sol\":1986:2429  function placeBid(uint256 bidAmount) external {... */\n    tag_8:\n      callvalue\n      dup1\n      iszero\n      tag_43\n      jumpi\n      0x00\n      dup1\n      revert\n    tag_43:\n      pop\n      tag_44\n      0x04\n      dup1\n      calldatasize\n      sub\n      dup2\n      add\n      swap1\n      tag_45\n      swap2\n      swap1\n      tag_17\n      jump\t// in\n    tag_45:\n      tag_46\n      jump\t// in\n    tag_44:\n      stop\n        /* \"contracts/adslotauction.sol\":109:142  uint256 public auctionCounter = 1 */\n    tag_9:\n      callvalue\n      dup1\n      iszero\n      tag_47\n      jumpi\n      0x00\n      dup1\n      revert\n    tag_47:\n      pop\n      tag_48\n      tag_49\n      jump\t// in\n    tag_48:\n      mload(0x40)\n      tag_50\n      swap2\n      swap1\n      tag_23\n      jump\t// in\n    tag_50:\n      mload(0x40)\n      dup1\n      swap2\n      sub\n      swap1\n      return\n        /* \"contracts/adslotauction.sol\":346:388  mapping(address => bool) public dAppOwners */\n    tag_10:\n      callvalue\n      dup1\n      iszero\n      tag_51\n      jumpi\n      0x00\n      dup1\n      revert\n    tag_51:\n      pop\n      tag_52\n      0x04\n      dup1\n      calldatasize\n      sub\n      dup2\n      add\n      swap1\n      tag_53\n      swap2\n      swap1\n      tag_31\n      jump\t// in\n    tag_53:\n      tag_54\n      jump\t// in\n    tag_52:\n      mload(0x40)\n      tag_55\n      swap2\n      swap1\n      tag_56\n      jump\t// in\n    tag_55:\n      mload(0x40)\n      dup1\n      swap2\n      sub\n      swap1\n      return\n        /* \"contracts/adslotauction.sol\":2468:2559  function depositFunds() external payable {... */\n    tag_11:\n      tag_57\n      tag_58\n      jump\t// in\n    tag_57:\n      stop\n        /* \"contracts/adslotauction.sol\":1272:1674  function createAuction() external onlyDAppOwner {... */\n    tag_12:\n      callvalue\n      dup1\n      iszero\n      tag_59\n      jumpi\n      0x00\n      dup1\n      revert\n    tag_59:\n      pop\n      tag_60\n      tag_61\n      jump\t// in\n    tag_60:\n      stop\n        /* \"contracts/adslotauction.sol\":1716:1949  function startAuction(uint256 auctionId) external onlyDAppOwner {... */\n    tag_18:\n        /* \"contracts/adslotauction.sol\":898:908  dAppOwners */\n      0x02\n        /* \"contracts/adslotauction.sol\":898:920  dAppOwners[msg.sender] */\n      0x00\n        /* \"contracts/adslotauction.sol\":909:919  msg.sender */\n      caller\n        /* \"contracts/adslotauction.sol\":898:920  dAppOwners[msg.sender] */\n      0xffffffffffffffffffffffffffffffffffffffff\n      and\n      0xffffffffffffffffffffffffffffffffffffffff\n      and\n      dup2\n      mstore\n      0x20\n      add\n      swap1\n      dup2\n      mstore\n      0x20\n      add\n      0x00\n      keccak256\n      0x00\n      swap1\n      sload\n      swap1\n      0x0100\n      exp\n      swap1\n      div\n      0xff\n      and\n        /* \"contracts/adslotauction.sol\":890:945  require(dAppOwners[msg.sender], \"DApp owner not found\") */\n      tag_63\n      jumpi\n      mload(0x40)\n      0x08c379a000000000000000000000000000000000000000000000000000000000\n      dup2\n      mstore\n      0x04\n      add\n      tag_64\n      swap1\n      tag_65\n      jump\t// in\n    tag_64:\n      mload(0x40)\n      dup1\n      swap2\n      sub\n      swap1\n      revert\n    tag_63:\n        /* \"contracts/adslotauction.sol\":1798:1806  auctions */\n      0x03\n        /* \"contracts/adslotauction.sol\":1798:1817  auctions[auctionId] */\n      0x00\n        /* \"contracts/adslotauction.sol\":1807:1816  auctionId */\n      dup3\n        /* \"contracts/adslotauction.sol\":1798:1817  auctions[auctionId] */\n      dup2\n      mstore\n      0x20\n      add\n      swap1\n      dup2\n      mstore\n      0x20\n      add\n      0x00\n      keccak256\n        /* \"contracts/adslotauction.sol\":1798:1826  auctions[auctionId].isActive */\n      0x01\n      add\n      0x14\n      swap1\n      sload\n      swap1\n      0x0100\n      exp\n      swap1\n      div\n      0xff\n      and\n        /* \"contracts/adslotauction.sol\":1790:1862  require(auctions[auctionId].isActive, \"Auction not found or not active\") */\n      tag_67\n      jumpi\n      mload(0x40)\n      0x08c379a000000000000000000000000000000000000000000000000000000000\n      dup2\n      mstore\n      0x04\n      add\n      tag_68\n      swap1\n      tag_69\n      jump\t// in\n    tag_68:\n      mload(0x40)\n      dup1\n      swap2\n      sub\n      swap1\n      revert\n    tag_67:\n        /* \"contracts/adslotauction.sol\":1892:1901  auctionId */\n      dup1\n        /* \"contracts/adslotauction.sol\":1873:1889  currentAuctionId */\n      0x01\n        /* \"contracts/adslotauction.sol\":1873:1901  currentAuctionId = auctionId */\n      dup2\n      swap1\n      sstore\n      pop\n        /* \"contracts/adslotauction.sol\":1932:1941  auctionId */\n      dup1\n        /* \"contracts/adslotauction.sol\":1917:1942  AuctionStarted(auctionId) */\n      0x1bb96dff6ab5005aff98cdc0cf176bb7d8e0423cb48e02217d35b042cec81e9f\n      mload(0x40)\n      mload(0x40)\n      dup1\n      swap2\n      sub\n      swap1\n      log2\n        /* \"contracts/adslotauction.sol\":1716:1949  function startAuction(uint256 auctionId) external onlyDAppOwner {... */\n      pop\n      jump\t// out\n        /* \"contracts/adslotauction.sol\":148:179  uint256 public currentAuctionId */\n    tag_21:\n      sload(0x01)\n      dup2\n      jump\t// out\n        /* \"contracts/adslotauction.sol\":2599:2813  function withdrawFunds(uint256 amount) external {... */\n    tag_27:\n        /* \"contracts/adslotauction.sol\":2689:2695  amount */\n      dup1\n        /* \"contracts/adslotauction.sol\":2665:2673  balances */\n      0x04\n        /* \"contracts/adslotauction.sol\":2665:2685  balances[msg.sender] */\n      0x00\n        /* \"contracts/adslotauction.sol\":2674:2684  msg.sender */\n      caller\n        /* \"contracts/adslotauction.sol\":2665:2685  balances[msg.sender] */\n      0xffffffffffffffffffffffffffffffffffffffff\n      and\n      0xffffffffffffffffffffffffffffffffffffffff\n      and\n      dup2\n      mstore\n      0x20\n      add\n      swap1\n      dup2\n      mstore\n      0x20\n      add\n      0x00\n      keccak256\n      sload\n        /* \"contracts/adslotauction.sol\":2665:2695  balances[msg.sender] >= amount */\n      lt\n      iszero\n        /* \"contracts/adslotauction.sol\":2657:2720  require(balances[msg.sender] >= amount, \"Insufficient balance\") */\n      tag_71\n      jumpi\n      mload(0x40)\n      0x08c379a000000000000000000000000000000000000000000000000000000000\n      dup2\n      mstore\n      0x04\n      add\n      tag_72\n      swap1\n      tag_73\n      jump\t// in\n    tag_72:\n      mload(0x40)\n      dup1\n      swap2\n      sub\n      swap1\n      revert\n    tag_71:\n        /* \"contracts/adslotauction.sol\":2754:2760  amount */\n      dup1\n        /* \"contracts/adslotauction.sol\":2730:2738  balances */\n      0x04\n        /* \"contracts/adslotauction.sol\":2730:2750  balances[msg.sender] */\n      0x00\n        /* \"contracts/adslotauction.sol\":2739:2749  msg.sender */\n      caller\n        /* \"contracts/adslotauction.sol\":2730:2750  balances[msg.sender] */\n      0xffffffffffffffffffffffffffffffffffffffff\n      and\n      0xffffffffffffffffffffffffffffffffffffffff\n      and\n      dup2\n      mstore\n      0x20\n      add\n      swap1\n      dup2\n      mstore\n      0x20\n      add\n      0x00\n      keccak256\n      0x00\n        /* \"contracts/adslotauction.sol\":2730:2760  balances[msg.sender] -= amount */\n      dup3\n      dup3\n      sload\n      tag_74\n      swap2\n      swap1\n      tag_75\n      jump\t// in\n    tag_74:\n      swap3\n      pop\n      pop\n      dup2\n      swap1\n      sstore\n      pop\n        /* \"contracts/adslotauction.sol\":2778:2788  msg.sender */\n      caller\n        /* \"contracts/adslotauction.sol\":2770:2798  payable(msg.sender).transfer */\n      0xffffffffffffffffffffffffffffffffffffffff\n      and\n        /* \"contracts/adslotauction.sol\":2770:2806  payable(msg.sender).transfer(amount) */\n      0x08fc\n        /* \"contracts/adslotauction.sol\":2799:2805  amount */\n      dup3\n        /* \"contracts/adslotauction.sol\":2770:2806  payable(msg.sender).transfer(amount) */\n      swap1\n      dup2\n      iszero\n      mul\n      swap1\n      mload(0x40)\n      0x00\n      mload(0x40)\n      dup1\n      dup4\n      sub\n      dup2\n      dup6\n      dup9\n      dup9\n      call\n      swap4\n      pop\n      pop\n      pop\n      pop\n      iszero\n      dup1\n      iszero\n      tag_77\n      jumpi\n      returndatasize\n      0x00\n      dup1\n      returndatacopy\n      revert(0x00, returndatasize)\n    tag_77:\n      pop\n        /* \"contracts/adslotauction.sol\":2599:2813  function withdrawFunds(uint256 amount) external {... */\n      pop\n      jump\t// out\n        /* \"contracts/adslotauction.sol\":443:486  mapping(address => uint256) public balances */\n    tag_32:\n      mstore(0x20, 0x04)\n      dup1\n      0x00\n      mstore\n      keccak256(0x00, 0x40)\n      0x00\n      swap2\n      pop\n      swap1\n      pop\n      sload\n      dup2\n      jump\t// out\n        /* \"contracts/adslotauction.sol\":394:437  mapping(uint256 => Auction) public auctions */\n    tag_37:\n      mstore(0x20, 0x03)\n      dup1\n      0x00\n      mstore\n      keccak256(0x00, 0x40)\n      0x00\n      swap2\n      pop\n      swap1\n      pop\n      dup1\n      0x00\n      add\n      sload\n      swap1\n      dup1\n      0x01\n      add\n      0x00\n      swap1\n      sload\n      swap1\n      0x0100\n      exp\n      swap1\n      div\n      0xffffffffffffffffffffffffffffffffffffffff\n      and\n      swap1\n      dup1\n      0x01\n      add\n      0x14\n      swap1\n      sload\n      swap1\n      0x0100\n      exp\n      swap1\n      div\n      0xff\n      and\n      swap1\n      dup1\n      0x02\n      add\n      sload\n      swap1\n      dup1\n      0x03\n      add\n      0x00\n      swap1\n      sload\n      swap1\n      0x0100\n      exp\n      swap1\n      div\n      0xffffffffffffffffffffffffffffffffffffffff\n      and\n      swap1\n      pop\n      dup6\n      jump\t// out\n        /* \"contracts/adslotauction.sol\":1032:1226  function initialize() external {... */\n    tag_42:\n        /* \"contracts/adslotauction.sol\":1082:1092  dAppOwners */\n      0x02\n        /* \"contracts/adslotauction.sol\":1082:1104  dAppOwners[msg.sender] */\n      0x00\n        /* \"contracts/adslotauction.sol\":1093:1103  msg.sender */\n      caller\n        /* \"contracts/adslotauction.sol\":1082:1104  dAppOwners[msg.sender] */\n      0xffffffffffffffffffffffffffffffffffffffff\n      and\n      0xffffffffffffffffffffffffffffffffffffffff\n      and\n      dup2\n      mstore\n      0x20\n      add\n      swap1\n      dup2\n      mstore\n      0x20\n      add\n      0x00\n      keccak256\n      0x00\n      swap1\n      sload\n      swap1\n      0x0100\n      exp\n      swap1\n      div\n      0xff\n      and\n        /* \"contracts/adslotauction.sol\":1081:1104  !dAppOwners[msg.sender] */\n      iszero\n        /* \"contracts/adslotauction.sol\":1073:1128  require(!dAppOwners[msg.sender], \"Already initialized\") */\n      tag_79\n      jumpi\n      mload(0x40)\n      0x08c379a000000000000000000000000000000000000000000000000000000000\n      dup2\n      mstore\n      0x04\n      add\n      tag_80\n      swap1\n      tag_81\n      jump\t// in\n    tag_80:\n      mload(0x40)\n      dup1\n      swap2\n      sub\n      swap1\n      revert\n    tag_79:\n        /* \"contracts/adslotauction.sol\":1164:1168  true */\n      0x01\n        /* \"contracts/adslotauction.sol\":1139:1149  dAppOwners */\n      0x02\n        /* \"contracts/adslotauction.sol\":1139:1161  dAppOwners[msg.sender] */\n      0x00\n        /* \"contracts/adslotauction.sol\":1150:1160  msg.sender */\n      caller\n        /* \"contracts/adslotauction.sol\":1139:1161  dAppOwners[msg.sender] */\n      0xffffffffffffffffffffffffffffffffffffffff\n      and\n      0xffffffffffffffffffffffffffffffffffffffff\n      and\n      dup2\n      mstore\n      0x20\n      add\n      swap1\n      dup2\n      mstore\n      0x20\n      add\n      0x00\n      keccak256\n      0x00\n        /* \"contracts/adslotauction.sol\":1139:1168  dAppOwners[msg.sender] = true */\n      0x0100\n      exp\n      dup2\n      sload\n      dup2\n      0xff\n      mul\n      not\n      and\n      swap1\n      dup4\n      iszero\n      iszero\n      mul\n      or\n      swap1\n      sstore\n      pop\n        /* \"contracts/adslotauction.sol\":1208:1218  msg.sender */\n      caller\n        /* \"contracts/adslotauction.sol\":1184:1219  InitializationCompleted(msg.sender) */\n      0xffffffffffffffffffffffffffffffffffffffff\n      and\n      0xdc6ed2644801b4760288d5b4c1ef80d0c3338cdc672729f2fb3157cb17419b42\n      mload(0x40)\n      mload(0x40)\n      dup1\n      swap2\n      sub\n      swap1\n      log2\n        /* \"contracts/adslotauction.sol\":1032:1226  function initialize() external {... */\n      jump\t// out\n        /* \"contracts/adslotauction.sol\":1986:2429  function placeBid(uint256 bidAmount) external {... */\n    tag_46:\n        /* \"contracts/adslotauction.sol\":2042:2065  Auction storage auction */\n      0x00\n        /* \"contracts/adslotauction.sol\":2068:2076  auctions */\n      0x03\n        /* \"contracts/adslotauction.sol\":2068:2094  auctions[currentAuctionId] */\n      0x00\n        /* \"contracts/adslotauction.sol\":2077:2093  currentAuctionId */\n      sload(0x01)\n        /* \"contracts/adslotauction.sol\":2068:2094  auctions[currentAuctionId] */\n      dup2\n      mstore\n      0x20\n      add\n      swap1\n      dup2\n      mstore\n      0x20\n      add\n      0x00\n      keccak256\n        /* \"contracts/adslotauction.sol\":2042:2094  Auction storage auction = auctions[currentAuctionId] */\n      swap1\n      pop\n        /* \"contracts/adslotauction.sol\":2112:2119  auction */\n      dup1\n        /* \"contracts/adslotauction.sol\":2112:2128  auction.isActive */\n      0x01\n      add\n      0x14\n      swap1\n      sload\n      swap1\n      0x0100\n      exp\n      swap1\n      div\n      0xff\n      and\n        /* \"contracts/adslotauction.sol\":2104:2151  require(auction.isActive, \"Auction not active\") */\n      tag_83\n      jumpi\n      mload(0x40)\n      0x08c379a000000000000000000000000000000000000000000000000000000000\n      dup2\n      mstore\n      0x04\n      add\n      tag_84\n      swap1\n      tag_85\n      jump\t// in\n    tag_84:\n      mload(0x40)\n      dup1\n      swap2\n      sub\n      swap1\n      revert\n    tag_83:\n        /* \"contracts/adslotauction.sol\":2194:2203  bidAmount */\n      dup2\n        /* \"contracts/adslotauction.sol\":2170:2178  balances */\n      0x04\n        /* \"contracts/adslotauction.sol\":2170:2190  balances[msg.sender] */\n      0x00\n        /* \"contracts/adslotauction.sol\":2179:2189  msg.sender */\n      caller\n        /* \"contracts/adslotauction.sol\":2170:2190  balances[msg.sender] */\n      0xffffffffffffffffffffffffffffffffffffffff\n      and\n      0xffffffffffffffffffffffffffffffffffffffff\n      and\n      dup2\n      mstore\n      0x20\n      add\n      swap1\n      dup2\n      mstore\n      0x20\n      add\n      0x00\n      keccak256\n      sload\n        /* \"contracts/adslotauction.sol\":2170:2203  balances[msg.sender] >= bidAmount */\n      lt\n      iszero\n        /* \"contracts/adslotauction.sol\":2162:2228  require(balances[msg.sender] >= bidAmount, \"Insufficient balance\") */\n      tag_86\n      jumpi\n      mload(0x40)\n      0x08c379a000000000000000000000000000000000000000000000000000000000\n      dup2\n      mstore\n      0x04\n      add\n      tag_87\n      swap1\n      tag_73\n      jump\t// in\n    tag_87:\n      mload(0x40)\n      dup1\n      swap2\n      sub\n      swap1\n      revert\n    tag_86:\n        /* \"contracts/adslotauction.sol\":2260:2269  bidAmount */\n      dup2\n        /* \"contracts/adslotauction.sol\":2239:2246  auction */\n      dup2\n        /* \"contracts/adslotauction.sol\":2239:2257  auction.highestBid */\n      0x02\n      add\n        /* \"contracts/adslotauction.sol\":2239:2269  auction.highestBid = bidAmount */\n      dup2\n      swap1\n      sstore\n      pop\n        /* \"contracts/adslotauction.sol\":2303:2313  msg.sender */\n      caller\n        /* \"contracts/adslotauction.sol\":2279:2286  auction */\n      dup2\n        /* \"contracts/adslotauction.sol\":2279:2300  auction.highestBidder */\n      0x03\n      add\n      0x00\n        /* \"contracts/adslotauction.sol\":2279:2313  auction.highestBidder = msg.sender */\n      0x0100\n      exp\n      dup2\n      sload\n      dup2\n      0xffffffffffffffffffffffffffffffffffffffff\n      mul\n      not\n      and\n      swap1\n      dup4\n      0xffffffffffffffffffffffffffffffffffffffff\n      and\n      mul\n      or\n      swap1\n      sstore\n      pop\n        /* \"contracts/adslotauction.sol\":2347:2356  bidAmount */\n      dup2\n        /* \"contracts/adslotauction.sol\":2323:2331  balances */\n      0x04\n        /* \"contracts/adslotauction.sol\":2323:2343  balances[msg.sender] */\n      0x00\n        /* \"contracts/adslotauction.sol\":2332:2342  msg.sender */\n      caller\n        /* \"contracts/adslotauction.sol\":2323:2343  balances[msg.sender] */\n      0xffffffffffffffffffffffffffffffffffffffff\n      and\n      0xffffffffffffffffffffffffffffffffffffffff\n      and\n      dup2\n      mstore\n      0x20\n      add\n      swap1\n      dup2\n      mstore\n      0x20\n      add\n      0x00\n      keccak256\n      0x00\n        /* \"contracts/adslotauction.sol\":2323:2356  balances[msg.sender] -= bidAmount */\n      dup3\n      dup3\n      sload\n      tag_88\n      swap2\n      swap1\n      tag_75\n      jump\t// in\n    tag_88:\n      swap3\n      pop\n      pop\n      dup2\n      swap1\n      sstore\n      pop\n        /* \"contracts/adslotauction.sol\":2400:2410  msg.sender */\n      caller\n        /* \"contracts/adslotauction.sol\":2372:2422  BidPlaced(currentAuctionId, msg.sender, bidAmount) */\n      0xffffffffffffffffffffffffffffffffffffffff\n      and\n        /* \"contracts/adslotauction.sol\":2382:2398  currentAuctionId */\n      sload(0x01)\n        /* \"contracts/adslotauction.sol\":2372:2422  BidPlaced(currentAuctionId, msg.sender, bidAmount) */\n      0x0e54eff26401bf69b81b26f60bd85ef47f5d85275c1d268d84f68d6897431c47\n        /* \"contracts/adslotauction.sol\":2412:2421  bidAmount */\n      dup5\n        /* \"contracts/adslotauction.sol\":2372:2422  BidPlaced(currentAuctionId, msg.sender, bidAmount) */\n      mload(0x40)\n      tag_89\n      swap2\n      swap1\n      tag_23\n      jump\t// in\n    tag_89:\n      mload(0x40)\n      dup1\n      swap2\n      sub\n      swap1\n      log3\n        /* \"contracts/adslotauction.sol\":2032:2429  {... */\n      pop\n        /* \"contracts/adslotauction.sol\":1986:2429  function placeBid(uint256 bidAmount) external {... */\n      pop\n      jump\t// out\n        /* \"contracts/adslotauction.sol\":109:142  uint256 public auctionCounter = 1 */\n    tag_49:\n      sload(0x00)\n      dup2\n      jump\t// out\n        /* \"contracts/adslotauction.sol\":346:388  mapping(address => bool) public dAppOwners */\n    tag_54:\n      mstore(0x20, 0x02)\n      dup1\n      0x00\n      mstore\n      keccak256(0x00, 0x40)\n      0x00\n      swap2\n      pop\n      sload\n      swap1\n      0x0100\n      exp\n      swap1\n      div\n      0xff\n      and\n      dup2\n      jump\t// out\n        /* \"contracts/adslotauction.sol\":2468:2559  function depositFunds() external payable {... */\n    tag_58:\n        /* \"contracts/adslotauction.sol\":2543:2552  msg.value */\n      callvalue\n        /* \"contracts/adslotauction.sol\":2519:2527  balances */\n      0x04\n        /* \"contracts/adslotauction.sol\":2519:2539  balances[msg.sender] */\n      0x00\n        /* \"contracts/adslotauction.sol\":2528:2538  msg.sender */\n      caller\n        /* \"contracts/adslotauction.sol\":2519:2539  balances[msg.sender] */\n      0xffffffffffffffffffffffffffffffffffffffff\n      and\n      0xffffffffffffffffffffffffffffffffffffffff\n      and\n      dup2\n      mstore\n      0x20\n      add\n      swap1\n      dup2\n      mstore\n      0x20\n      add\n      0x00\n      keccak256\n      0x00\n        /* \"contracts/adslotauction.sol\":2519:2552  balances[msg.sender] += msg.value */\n      dup3\n      dup3\n      sload\n      tag_91\n      swap2\n      swap1\n      tag_92\n      jump\t// in\n    tag_91:\n      swap3\n      pop\n      pop\n      dup2\n      swap1\n      sstore\n      pop\n        /* \"contracts/adslotauction.sol\":2468:2559  function depositFunds() external payable {... */\n      jump\t// out\n        /* \"contracts/adslotauction.sol\":1272:1674  function createAuction() external onlyDAppOwner {... */\n    tag_61:\n        /* \"contracts/adslotauction.sol\":898:908  dAppOwners */\n      0x02\n        /* \"contracts/adslotauction.sol\":898:920  dAppOwners[msg.sender] */\n      0x00\n        /* \"contracts/adslotauction.sol\":909:919  msg.sender */\n      caller\n        /* \"contracts/adslotauction.sol\":898:920  dAppOwners[msg.sender] */\n      0xffffffffffffffffffffffffffffffffffffffff\n      and\n      0xffffffffffffffffffffffffffffffffffffffff\n      and\n      dup2\n      mstore\n      0x20\n      add\n      swap1\n      dup2\n      mstore\n      0x20\n      add\n      0x00\n      keccak256\n      0x00\n      swap1\n      sload\n      swap1\n      0x0100\n      exp\n      swap1\n      div\n      0xff\n      and\n        /* \"contracts/adslotauction.sol\":890:945  require(dAppOwners[msg.sender], \"DApp owner not found\") */\n      tag_94\n      jumpi\n      mload(0x40)\n      0x08c379a000000000000000000000000000000000000000000000000000000000\n      dup2\n      mstore\n      0x04\n      add\n      tag_95\n      swap1\n      tag_65\n      jump\t// in\n    tag_95:\n      mload(0x40)\n      dup1\n      swap2\n      sub\n      swap1\n      revert\n    tag_94:\n        /* \"contracts/adslotauction.sol\":1330:1350  uint256 newAuctionId */\n      0x00\n        /* \"contracts/adslotauction.sol\":1353:1367  auctionCounter */\n      dup1\n      sload\n        /* \"contracts/adslotauction.sol\":1330:1367  uint256 newAuctionId = auctionCounter */\n      swap1\n      pop\n        /* \"contracts/adslotauction.sol\":1403:1584  Auction({... */\n      mload(0x40)\n      dup1\n      0xa0\n      add\n      0x40\n      mstore\n      dup1\n        /* \"contracts/adslotauction.sol\":1436:1448  newAuctionId */\n      dup3\n        /* \"contracts/adslotauction.sol\":1403:1584  Auction({... */\n      dup2\n      mstore\n      0x20\n      add\n        /* \"contracts/adslotauction.sol\":1469:1479  msg.sender */\n      caller\n        /* \"contracts/adslotauction.sol\":1403:1584  Auction({... */\n      0xffffffffffffffffffffffffffffffffffffffff\n      and\n      dup2\n      mstore\n      0x20\n      add\n        /* \"contracts/adslotauction.sol\":1503:1507  true */\n      0x01\n        /* \"contracts/adslotauction.sol\":1403:1584  Auction({... */\n      iszero\n      iszero\n      dup2\n      mstore\n      0x20\n      add\n        /* \"contracts/adslotauction.sol\":1533:1534  0 */\n      0x00\n        /* \"contracts/adslotauction.sol\":1403:1584  Auction({... */\n      dup2\n      mstore\n      0x20\n      add\n        /* \"contracts/adslotauction.sol\":1571:1572  0 */\n      0x00\n        /* \"contracts/adslotauction.sol\":1403:1584  Auction({... */\n      0xffffffffffffffffffffffffffffffffffffffff\n      and\n      dup2\n      mstore\n      pop\n        /* \"contracts/adslotauction.sol\":1378:1386  auctions */\n      0x03\n        /* \"contracts/adslotauction.sol\":1378:1400  auctions[newAuctionId] */\n      0x00\n        /* \"contracts/adslotauction.sol\":1387:1399  newAuctionId */\n      dup4\n        /* \"contracts/adslotauction.sol\":1378:1400  auctions[newAuctionId] */\n      dup2\n      mstore\n      0x20\n      add\n      swap1\n      dup2\n      mstore\n      0x20\n      add\n      0x00\n      keccak256\n        /* \"contracts/adslotauction.sol\":1378:1584  auctions[newAuctionId] = Auction({... */\n      0x00\n      dup3\n      add\n      mload\n      dup2\n      0x00\n      add\n      sstore\n      0x20\n      dup3\n      add\n      mload\n      dup2\n      0x01\n      add\n      exp(0x0100, 0x00)\n      dup2\n      sload\n      dup2\n      0xffffffffffffffffffffffffffffffffffffffff\n      mul\n      not\n      and\n      swap1\n      dup4\n      0xffffffffffffffffffffffffffffffffffffffff\n      and\n      mul\n      or\n      swap1\n      sstore\n      pop\n      0x40\n      dup3\n      add\n      mload\n      dup2\n      0x01\n      add\n      exp(0x0100, 0x14)\n      dup2\n      sload\n      dup2\n      0xff\n      mul\n      not\n      and\n      swap1\n      dup4\n      iszero\n      iszero\n      mul\n      or\n      swap1\n      sstore\n      pop\n      0x60\n      dup3\n      add\n      mload\n      dup2\n      0x02\n      add\n      sstore\n      0x80\n      dup3\n      add\n      mload\n      dup2\n      0x03\n      add\n      exp(0x0100, 0x00)\n      dup2\n      sload\n      dup2\n      0xffffffffffffffffffffffffffffffffffffffff\n      mul\n      not\n      and\n      swap1\n      dup4\n      0xffffffffffffffffffffffffffffffffffffffff\n      and\n      mul\n      or\n      swap1\n      sstore\n      pop\n      swap1\n      pop\n      pop\n        /* \"contracts/adslotauction.sol\":1595:1609  auctionCounter */\n      0x00\n      dup1\n        /* \"contracts/adslotauction.sol\":1595:1611  auctionCounter++ */\n      dup2\n      sload\n      dup1\n      swap3\n      swap2\n      swap1\n      tag_97\n      swap1\n      tag_98\n      jump\t// in\n    tag_97:\n      swap2\n      swap1\n      pop\n      sstore\n      pop\n        /* \"contracts/adslotauction.sol\":1656:1666  msg.sender */\n      caller\n        /* \"contracts/adslotauction.sol\":1627:1667  AuctionCreated(newAuctionId, msg.sender) */\n      0xffffffffffffffffffffffffffffffffffffffff\n      and\n        /* \"contracts/adslotauction.sol\":1642:1654  newAuctionId */\n      dup2\n        /* \"contracts/adslotauction.sol\":1627:1667  AuctionCreated(newAuctionId, msg.sender) */\n      0x5d551e2a2cc977fd8c530317059b4f2d9f504fb82f7dfad736f8d56679bcdfd0\n      mload(0x40)\n      mload(0x40)\n      dup1\n      swap2\n      sub\n      swap1\n      log3\n        /* \"contracts/adslotauction.sol\":1320:1674  {... */\n      pop\n        /* \"contracts/adslotauction.sol\":1272:1674  function createAuction() external onlyDAppOwner {... */\n      jump\t// out\n        /* \"#utility.yul\":88:205   */\n    tag_100:\n        /* \"#utility.yul\":197:198   */\n      0x00\n        /* \"#utility.yul\":194:195   */\n      dup1\n        /* \"#utility.yul\":187:199   */\n      revert\n        /* \"#utility.yul\":334:411   */\n    tag_102:\n        /* \"#utility.yul\":371:378   */\n      0x00\n        /* \"#utility.yul\":400:405   */\n      dup2\n        /* \"#utility.yul\":389:405   */\n      swap1\n      pop\n        /* \"#utility.yul\":334:411   */\n      swap2\n      swap1\n      pop\n      jump\t// out\n        /* \"#utility.yul\":417:539   */\n    tag_103:\n        /* \"#utility.yul\":490:514   */\n      tag_131\n        /* \"#utility.yul\":508:513   */\n      dup2\n        /* \"#utility.yul\":490:514   */\n      tag_102\n      jump\t// in\n    tag_131:\n        /* \"#utility.yul\":483:488   */\n      dup2\n        /* \"#utility.yul\":480:515   */\n      eq\n        /* \"#utility.yul\":470:533   */\n      tag_132\n      jumpi\n        /* \"#utility.yul\":529:530   */\n      0x00\n        /* \"#utility.yul\":526:527   */\n      dup1\n        /* \"#utility.yul\":519:531   */\n      revert\n        /* \"#utility.yul\":470:533   */\n    tag_132:\n        /* \"#utility.yul\":417:539   */\n      pop\n      jump\t// out\n        /* \"#utility.yul\":545:684   */\n    tag_104:\n        /* \"#utility.yul\":591:596   */\n      0x00\n        /* \"#utility.yul\":629:635   */\n      dup2\n        /* \"#utility.yul\":616:636   */\n      calldataload\n        /* \"#utility.yul\":607:636   */\n      swap1\n      pop\n        /* \"#utility.yul\":645:678   */\n      tag_134\n        /* \"#utility.yul\":672:677   */\n      dup2\n        /* \"#utility.yul\":645:678   */\n      tag_103\n      jump\t// in\n    tag_134:\n        /* \"#utility.yul\":545:684   */\n      swap3\n      swap2\n      pop\n      pop\n      jump\t// out\n        /* \"#utility.yul\":690:1019   */\n    tag_17:\n        /* \"#utility.yul\":749:755   */\n      0x00\n        /* \"#utility.yul\":798:800   */\n      0x20\n        /* \"#utility.yul\":786:795   */\n      dup3\n        /* \"#utility.yul\":777:784   */\n      dup5\n        /* \"#utility.yul\":773:796   */\n      sub\n        /* \"#utility.yul\":769:801   */\n      slt\n        /* \"#utility.yul\":766:885   */\n      iszero\n      tag_136\n      jumpi\n        /* \"#utility.yul\":804:883   */\n      tag_137\n      tag_100\n      jump\t// in\n    tag_137:\n        /* \"#utility.yul\":766:885   */\n    tag_136:\n        /* \"#utility.yul\":924:925   */\n      0x00\n        /* \"#utility.yul\":949:1002   */\n      tag_138\n        /* \"#utility.yul\":994:1001   */\n      dup5\n        /* \"#utility.yul\":985:991   */\n      dup3\n        /* \"#utility.yul\":974:983   */\n      dup6\n        /* \"#utility.yul\":970:992   */\n      add\n        /* \"#utility.yul\":949:1002   */\n      tag_104\n      jump\t// in\n    tag_138:\n        /* \"#utility.yul\":939:1002   */\n      swap2\n      pop\n        /* \"#utility.yul\":895:1012   */\n      pop\n        /* \"#utility.yul\":690:1019   */\n      swap3\n      swap2\n      pop\n      pop\n      jump\t// out\n        /* \"#utility.yul\":1025:1143   */\n    tag_105:\n        /* \"#utility.yul\":1112:1136   */\n      tag_140\n        /* \"#utility.yul\":1130:1135   */\n      dup2\n        /* \"#utility.yul\":1112:1136   */\n      tag_102\n      jump\t// in\n    tag_140:\n        /* \"#utility.yul\":1107:1110   */\n      dup3\n        /* \"#utility.yul\":1100:1137   */\n      mstore\n        /* \"#utility.yul\":1025:1143   */\n      pop\n      pop\n      jump\t// out\n        /* \"#utility.yul\":1149:1371   */\n    tag_23:\n        /* \"#utility.yul\":1242:1246   */\n      0x00\n        /* \"#utility.yul\":1280:1282   */\n      0x20\n        /* \"#utility.yul\":1269:1278   */\n      dup3\n        /* \"#utility.yul\":1265:1283   */\n      add\n        /* \"#utility.yul\":1257:1283   */\n      swap1\n      pop\n        /* \"#utility.yul\":1293:1364   */\n      tag_142\n        /* \"#utility.yul\":1361:1362   */\n      0x00\n        /* \"#utility.yul\":1350:1359   */\n      dup4\n        /* \"#utility.yul\":1346:1363   */\n      add\n        /* \"#utility.yul\":1337:1343   */\n      dup5\n        /* \"#utility.yul\":1293:1364   */\n      tag_105\n      jump\t// in\n    tag_142:\n        /* \"#utility.yul\":1149:1371   */\n      swap3\n      swap2\n      pop\n      pop\n      jump\t// out\n        /* \"#utility.yul\":1377:1503   */\n    tag_106:\n        /* \"#utility.yul\":1414:1421   */\n      0x00\n        /* \"#utility.yul\":1454:1496   */\n      0xffffffffffffffffffffffffffffffffffffffff\n        /* \"#utility.yul\":1447:1452   */\n      dup3\n        /* \"#utility.yul\":1443:1497   */\n      and\n        /* \"#utility.yul\":1432:1497   */\n      swap1\n      pop\n        /* \"#utility.yul\":1377:1503   */\n      swap2\n      swap1\n      pop\n      jump\t// out\n        /* \"#utility.yul\":1509:1605   */\n    tag_107:\n        /* \"#utility.yul\":1546:1553   */\n      0x00\n        /* \"#utility.yul\":1575:1599   */\n      tag_145\n        /* \"#utility.yul\":1593:1598   */\n      dup3\n        /* \"#utility.yul\":1575:1599   */\n      tag_106\n      jump\t// in\n    tag_145:\n        /* \"#utility.yul\":1564:1599   */\n      swap1\n      pop\n        /* \"#utility.yul\":1509:1605   */\n      swap2\n      swap1\n      pop\n      jump\t// out\n        /* \"#utility.yul\":1611:1733   */\n    tag_108:\n        /* \"#utility.yul\":1684:1708   */\n      tag_147\n        /* \"#utility.yul\":1702:1707   */\n      dup2\n        /* \"#utility.yul\":1684:1708   */\n      tag_107\n      jump\t// in\n    tag_147:\n        /* \"#utility.yul\":1677:1682   */\n      dup2\n        /* \"#utility.yul\":1674:1709   */\n      eq\n        /* \"#utility.yul\":1664:1727   */\n      tag_148\n      jumpi\n        /* \"#utility.yul\":1723:1724   */\n      0x00\n        /* \"#utility.yul\":1720:1721   */\n      dup1\n        /* \"#utility.yul\":1713:1725   */\n      revert\n        /* \"#utility.yul\":1664:1727   */\n    tag_148:\n        /* \"#utility.yul\":1611:1733   */\n      pop\n      jump\t// out\n        /* \"#utility.yul\":1739:1878   */\n    tag_109:\n        /* \"#utility.yul\":1785:1790   */\n      0x00\n        /* \"#utility.yul\":1823:1829   */\n      dup2\n        /* \"#utility.yul\":1810:1830   */\n      calldataload\n        /* \"#utility.yul\":1801:1830   */\n      swap1\n      pop\n        /* \"#utility.yul\":1839:1872   */\n      tag_150\n        /* \"#utility.yul\":1866:1871   */\n      dup2\n        /* \"#utility.yul\":1839:1872   */\n      tag_108\n      jump\t// in\n    tag_150:\n        /* \"#utility.yul\":1739:1878   */\n      swap3\n      swap2\n      pop\n      pop\n      jump\t// out\n        /* \"#utility.yul\":1884:2213   */\n    tag_31:\n        /* \"#utility.yul\":1943:1949   */\n      0x00\n        /* \"#utility.yul\":1992:1994   */\n      0x20\n        /* \"#utility.yul\":1980:1989   */\n      dup3\n        /* \"#utility.yul\":1971:1978   */\n      dup5\n        /* \"#utility.yul\":1967:1990   */\n      sub\n        /* \"#utility.yul\":1963:1995   */\n      slt\n        /* \"#utility.yul\":1960:2079   */\n      iszero\n      tag_152\n      jumpi\n        /* \"#utility.yul\":1998:2077   */\n      tag_153\n      tag_100\n      jump\t// in\n    tag_153:\n        /* \"#utility.yul\":1960:2079   */\n    tag_152:\n        /* \"#utility.yul\":2118:2119   */\n      0x00\n        /* \"#utility.yul\":2143:2196   */\n      tag_154\n        /* \"#utility.yul\":2188:2195   */\n      dup5\n        /* \"#utility.yul\":2179:2185   */\n      dup3\n        /* \"#utility.yul\":2168:2177   */\n      dup6\n        /* \"#utility.yul\":2164:2186   */\n      add\n        /* \"#utility.yul\":2143:2196   */\n      tag_109\n      jump\t// in\n    tag_154:\n        /* \"#utility.yul\":2133:2196   */\n      swap2\n      pop\n        /* \"#utility.yul\":2089:2206   */\n      pop\n        /* \"#utility.yul\":1884:2213   */\n      swap3\n      swap2\n      pop\n      pop\n      jump\t// out\n        /* \"#utility.yul\":2219:2337   */\n    tag_110:\n        /* \"#utility.yul\":2306:2330   */\n      tag_156\n        /* \"#utility.yul\":2324:2329   */\n      dup2\n        /* \"#utility.yul\":2306:2330   */\n      tag_107\n      jump\t// in\n    tag_156:\n        /* \"#utility.yul\":2301:2304   */\n      dup3\n        /* \"#utility.yul\":2294:2331   */\n      mstore\n        /* \"#utility.yul\":2219:2337   */\n      pop\n      pop\n      jump\t// out\n        /* \"#utility.yul\":2343:2433   */\n    tag_111:\n        /* \"#utility.yul\":2377:2384   */\n      0x00\n        /* \"#utility.yul\":2420:2425   */\n      dup2\n        /* \"#utility.yul\":2413:2426   */\n      iszero\n        /* \"#utility.yul\":2406:2427   */\n      iszero\n        /* \"#utility.yul\":2395:2427   */\n      swap1\n      pop\n        /* \"#utility.yul\":2343:2433   */\n      swap2\n      swap1\n      pop\n      jump\t// out\n        /* \"#utility.yul\":2439:2548   */\n    tag_112:\n        /* \"#utility.yul\":2520:2541   */\n      tag_159\n        /* \"#utility.yul\":2535:2540   */\n      dup2\n        /* \"#utility.yul\":2520:2541   */\n      tag_111\n      jump\t// in\n    tag_159:\n        /* \"#utility.yul\":2515:2518   */\n      dup3\n        /* \"#utility.yul\":2508:2542   */\n      mstore\n        /* \"#utility.yul\":2439:2548   */\n      pop\n      pop\n      jump\t// out\n        /* \"#utility.yul\":2554:3206   */\n    tag_39:\n        /* \"#utility.yul\":2753:2757   */\n      0x00\n        /* \"#utility.yul\":2791:2794   */\n      0xa0\n        /* \"#utility.yul\":2780:2789   */\n      dup3\n        /* \"#utility.yul\":2776:2795   */\n      add\n        /* \"#utility.yul\":2768:2795   */\n      swap1\n      pop\n        /* \"#utility.yul\":2805:2876   */\n      tag_161\n        /* \"#utility.yul\":2873:2874   */\n      0x00\n        /* \"#utility.yul\":2862:2871   */\n      dup4\n        /* \"#utility.yul\":2858:2875   */\n      add\n        /* \"#utility.yul\":2849:2855   */\n      dup9\n        /* \"#utility.yul\":2805:2876   */\n      tag_105\n      jump\t// in\n    tag_161:\n        /* \"#utility.yul\":2886:2958   */\n      tag_162\n        /* \"#utility.yul\":2954:2956   */\n      0x20\n        /* \"#utility.yul\":2943:2952   */\n      dup4\n        /* \"#utility.yul\":2939:2957   */\n      add\n        /* \"#utility.yul\":2930:2936   */\n      dup8\n        /* \"#utility.yul\":2886:2958   */\n      tag_110\n      jump\t// in\n    tag_162:\n        /* \"#utility.yul\":2968:3034   */\n      tag_163\n        /* \"#utility.yul\":3030:3032   */\n      0x40\n        /* \"#utility.yul\":3019:3028   */\n      dup4\n        /* \"#utility.yul\":3015:3033   */\n      add\n        /* \"#utility.yul\":3006:3012   */\n      dup7\n        /* \"#utility.yul\":2968:3034   */\n      tag_112\n      jump\t// in\n    tag_163:\n        /* \"#utility.yul\":3044:3116   */\n      tag_164\n        /* \"#utility.yul\":3112:3114   */\n      0x60\n        /* \"#utility.yul\":3101:3110   */\n      dup4\n        /* \"#utility.yul\":3097:3115   */\n      add\n        /* \"#utility.yul\":3088:3094   */\n      dup6\n        /* \"#utility.yul\":3044:3116   */\n      tag_105\n      jump\t// in\n    tag_164:\n        /* \"#utility.yul\":3126:3199   */\n      tag_165\n        /* \"#utility.yul\":3194:3197   */\n      0x80\n        /* \"#utility.yul\":3183:3192   */\n      dup4\n        /* \"#utility.yul\":3179:3198   */\n      add\n        /* \"#utility.yul\":3170:3176   */\n      dup5\n        /* \"#utility.yul\":3126:3199   */\n      tag_110\n      jump\t// in\n    tag_165:\n        /* \"#utility.yul\":2554:3206   */\n      swap7\n      swap6\n      pop\n      pop\n      pop\n      pop\n      pop\n      pop\n      jump\t// out\n        /* \"#utility.yul\":3212:3422   */\n    tag_56:\n        /* \"#utility.yul\":3299:3303   */\n      0x00\n        /* \"#utility.yul\":3337:3339   */\n      0x20\n        /* \"#utility.yul\":3326:3335   */\n      dup3\n        /* \"#utility.yul\":3322:3340   */\n      add\n        /* \"#utility.yul\":3314:3340   */\n      swap1\n      pop\n        /* \"#utility.yul\":3350:3415   */\n      tag_167\n        /* \"#utility.yul\":3412:3413   */\n      0x00\n        /* \"#utility.yul\":3401:3410   */\n      dup4\n        /* \"#utility.yul\":3397:3414   */\n      add\n        /* \"#utility.yul\":3388:3394   */\n      dup5\n        /* \"#utility.yul\":3350:3415   */\n      tag_112\n      jump\t// in\n    tag_167:\n        /* \"#utility.yul\":3212:3422   */\n      swap3\n      swap2\n      pop\n      pop\n      jump\t// out\n        /* \"#utility.yul\":3428:3597   */\n    tag_113:\n        /* \"#utility.yul\":3512:3523   */\n      0x00\n        /* \"#utility.yul\":3546:3552   */\n      dup3\n        /* \"#utility.yul\":3541:3544   */\n      dup3\n        /* \"#utility.yul\":3534:3553   */\n      mstore\n        /* \"#utility.yul\":3586:3590   */\n      0x20\n        /* \"#utility.yul\":3581:3584   */\n      dup3\n        /* \"#utility.yul\":3577:3591   */\n      add\n        /* \"#utility.yul\":3562:3591   */\n      swap1\n      pop\n        /* \"#utility.yul\":3428:3597   */\n      swap3\n      swap2\n      pop\n      pop\n      jump\t// out\n        /* \"#utility.yul\":3603:3773   */\n    tag_114:\n        /* \"#utility.yul\":3743:3765   */\n      0x44417070206f776e6572206e6f7420666f756e64000000000000000000000000\n        /* \"#utility.yul\":3739:3740   */\n      0x00\n        /* \"#utility.yul\":3731:3737   */\n      dup3\n        /* \"#utility.yul\":3727:3741   */\n      add\n        /* \"#utility.yul\":3720:3766   */\n      mstore\n        /* \"#utility.yul\":3603:3773   */\n      pop\n      jump\t// out\n        /* \"#utility.yul\":3779:4145   */\n    tag_115:\n        /* \"#utility.yul\":3921:3924   */\n      0x00\n        /* \"#utility.yul\":3942:4009   */\n      tag_171\n        /* \"#utility.yul\":4006:4008   */\n      0x14\n        /* \"#utility.yul\":4001:4004   */\n      dup4\n        /* \"#utility.yul\":3942:4009   */\n      tag_113\n      jump\t// in\n    tag_171:\n        /* \"#utility.yul\":3935:4009   */\n      swap2\n      pop\n        /* \"#utility.yul\":4018:4111   */\n      tag_172\n        /* \"#utility.yul\":4107:4110   */\n      dup3\n        /* \"#utility.yul\":4018:4111   */\n      tag_114\n      jump\t// in\n    tag_172:\n        /* \"#utility.yul\":4136:4138   */\n      0x20\n        /* \"#utility.yul\":4131:4134   */\n      dup3\n        /* \"#utility.yul\":4127:4139   */\n      add\n        /* \"#utility.yul\":4120:4139   */\n      swap1\n      pop\n        /* \"#utility.yul\":3779:4145   */\n      swap2\n      swap1\n      pop\n      jump\t// out\n        /* \"#utility.yul\":4151:4570   */\n    tag_65:\n        /* \"#utility.yul\":4317:4321   */\n      0x00\n        /* \"#utility.yul\":4355:4357   */\n      0x20\n        /* \"#utility.yul\":4344:4353   */\n      dup3\n        /* \"#utility.yul\":4340:4358   */\n      add\n        /* \"#utility.yul\":4332:4358   */\n      swap1\n      pop\n        /* \"#utility.yul\":4404:4413   */\n      dup2\n        /* \"#utility.yul\":4398:4402   */\n      dup2\n        /* \"#utility.yul\":4394:4414   */\n      sub\n        /* \"#utility.yul\":4390:4391   */\n      0x00\n        /* \"#utility.yul\":4379:4388   */\n      dup4\n        /* \"#utility.yul\":4375:4392   */\n      add\n        /* \"#utility.yul\":4368:4415   */\n      mstore\n        /* \"#utility.yul\":4432:4563   */\n      tag_174\n        /* \"#utility.yul\":4558:4562   */\n      dup2\n        /* \"#utility.yul\":4432:4563   */\n      tag_115\n      jump\t// in\n    tag_174:\n        /* \"#utility.yul\":4424:4563   */\n      swap1\n      pop\n        /* \"#utility.yul\":4151:4570   */\n      swap2\n      swap1\n      pop\n      jump\t// out\n        /* \"#utility.yul\":4576:4757   */\n    tag_116:\n        /* \"#utility.yul\":4716:4749   */\n      0x41756374696f6e206e6f7420666f756e64206f72206e6f742061637469766500\n        /* \"#utility.yul\":4712:4713   */\n      0x00\n        /* \"#utility.yul\":4704:4710   */\n      dup3\n        /* \"#utility.yul\":4700:4714   */\n      add\n        /* \"#utility.yul\":4693:4750   */\n      mstore\n        /* \"#utility.yul\":4576:4757   */\n      pop\n      jump\t// out\n        /* \"#utility.yul\":4763:5129   */\n    tag_117:\n        /* \"#utility.yul\":4905:4908   */\n      0x00\n        /* \"#utility.yul\":4926:4993   */\n      tag_177\n        /* \"#utility.yul\":4990:4992   */\n      0x1f\n        /* \"#utility.yul\":4985:4988   */\n      dup4\n        /* \"#utility.yul\":4926:4993   */\n      tag_113\n      jump\t// in\n    tag_177:\n        /* \"#utility.yul\":4919:4993   */\n      swap2\n      pop\n        /* \"#utility.yul\":5002:5095   */\n      tag_178\n        /* \"#utility.yul\":5091:5094   */\n      dup3\n        /* \"#utility.yul\":5002:5095   */\n      tag_116\n      jump\t// in\n    tag_178:\n        /* \"#utility.yul\":5120:5122   */\n      0x20\n        /* \"#utility.yul\":5115:5118   */\n      dup3\n        /* \"#utility.yul\":5111:5123   */\n      add\n        /* \"#utility.yul\":5104:5123   */\n      swap1\n      pop\n        /* \"#utility.yul\":4763:5129   */\n      swap2\n      swap1\n      pop\n      jump\t// out\n        /* \"#utility.yul\":5135:5554   */\n    tag_69:\n        /* \"#utility.yul\":5301:5305   */\n      0x00\n        /* \"#utility.yul\":5339:5341   */\n      0x20\n        /* \"#utility.yul\":5328:5337   */\n      dup3\n        /* \"#utility.yul\":5324:5342   */\n      add\n        /* \"#utility.yul\":5316:5342   */\n      swap1\n      pop\n        /* \"#utility.yul\":5388:5397   */\n      dup2\n        /* \"#utility.yul\":5382:5386   */\n      dup2\n        /* \"#utility.yul\":5378:5398   */\n      sub\n        /* \"#utility.yul\":5374:5375   */\n      0x00\n        /* \"#utility.yul\":5363:5372   */\n      dup4\n        /* \"#utility.yul\":5359:5376   */\n      add\n        /* \"#utility.yul\":5352:5399   */\n      mstore\n        /* \"#utility.yul\":5416:5547   */\n      tag_180\n        /* \"#utility.yul\":5542:5546   */\n      dup2\n        /* \"#utility.yul\":5416:5547   */\n      tag_117\n      jump\t// in\n    tag_180:\n        /* \"#utility.yul\":5408:5547   */\n      swap1\n      pop\n        /* \"#utility.yul\":5135:5554   */\n      swap2\n      swap1\n      pop\n      jump\t// out\n        /* \"#utility.yul\":5560:5730   */\n    tag_118:\n        /* \"#utility.yul\":5700:5722   */\n      0x496e73756666696369656e742062616c616e6365000000000000000000000000\n        /* \"#utility.yul\":5696:5697   */\n      0x00\n        /* \"#utility.yul\":5688:5694   */\n      dup3\n        /* \"#utility.yul\":5684:5698   */\n      add\n        /* \"#utility.yul\":5677:5723   */\n      mstore\n        /* \"#utility.yul\":5560:5730   */\n      pop\n      jump\t// out\n        /* \"#utility.yul\":5736:6102   */\n    tag_119:\n        /* \"#utility.yul\":5878:5881   */\n      0x00\n        /* \"#utility.yul\":5899:5966   */\n      tag_183\n        /* \"#utility.yul\":5963:5965   */\n      0x14\n        /* \"#utility.yul\":5958:5961   */\n      dup4\n        /* \"#utility.yul\":5899:5966   */\n      tag_113\n      jump\t// in\n    tag_183:\n        /* \"#utility.yul\":5892:5966   */\n      swap2\n      pop\n        /* \"#utility.yul\":5975:6068   */\n      tag_184\n        /* \"#utility.yul\":6064:6067   */\n      dup3\n        /* \"#utility.yul\":5975:6068   */\n      tag_118\n      jump\t// in\n    tag_184:\n        /* \"#utility.yul\":6093:6095   */\n      0x20\n        /* \"#utility.yul\":6088:6091   */\n      dup3\n        /* \"#utility.yul\":6084:6096   */\n      add\n        /* \"#utility.yul\":6077:6096   */\n      swap1\n      pop\n        /* \"#utility.yul\":5736:6102   */\n      swap2\n      swap1\n      pop\n      jump\t// out\n        /* \"#utility.yul\":6108:6527   */\n    tag_73:\n        /* \"#utility.yul\":6274:6278   */\n      0x00\n        /* \"#utility.yul\":6312:6314   */\n      0x20\n        /* \"#utility.yul\":6301:6310   */\n      dup3\n        /* \"#utility.yul\":6297:6315   */\n      add\n        /* \"#utility.yul\":6289:6315   */\n      swap1\n      pop\n        /* \"#utility.yul\":6361:6370   */\n      dup2\n        /* \"#utility.yul\":6355:6359   */\n      dup2\n        /* \"#utility.yul\":6351:6371   */\n      sub\n        /* \"#utility.yul\":6347:6348   */\n      0x00\n        /* \"#utility.yul\":6336:6345   */\n      dup4\n        /* \"#utility.yul\":6332:6349   */\n      add\n        /* \"#utility.yul\":6325:6372   */\n      mstore\n        /* \"#utility.yul\":6389:6520   */\n      tag_186\n        /* \"#utility.yul\":6515:6519   */\n      dup2\n        /* \"#utility.yul\":6389:6520   */\n      tag_119\n      jump\t// in\n    tag_186:\n        /* \"#utility.yul\":6381:6520   */\n      swap1\n      pop\n        /* \"#utility.yul\":6108:6527   */\n      swap2\n      swap1\n      pop\n      jump\t// out\n        /* \"#utility.yul\":6533:6713   */\n    tag_120:\n        /* \"#utility.yul\":6581:6658   */\n      0x4e487b7100000000000000000000000000000000000000000000000000000000\n        /* \"#utility.yul\":6578:6579   */\n      0x00\n        /* \"#utility.yul\":6571:6659   */\n      mstore\n        /* \"#utility.yul\":6678:6682   */\n      0x11\n        /* \"#utility.yul\":6675:6676   */\n      0x04\n        /* \"#utility.yul\":6668:6683   */\n      mstore\n        /* \"#utility.yul\":6702:6706   */\n      0x24\n        /* \"#utility.yul\":6699:6700   */\n      0x00\n        /* \"#utility.yul\":6692:6707   */\n      revert\n        /* \"#utility.yul\":6719:6913   */\n    tag_75:\n        /* \"#utility.yul\":6759:6763   */\n      0x00\n        /* \"#utility.yul\":6779:6799   */\n      tag_189\n        /* \"#utility.yul\":6797:6798   */\n      dup3\n        /* \"#utility.yul\":6779:6799   */\n      tag_102\n      jump\t// in\n    tag_189:\n        /* \"#utility.yul\":6774:6799   */\n      swap2\n      pop\n        /* \"#utility.yul\":6813:6833   */\n      tag_190\n        /* \"#utility.yul\":6831:6832   */\n      dup4\n        /* \"#utility.yul\":6813:6833   */\n      tag_102\n      jump\t// in\n    tag_190:\n        /* \"#utility.yul\":6808:6833   */\n      swap3\n      pop\n        /* \"#utility.yul\":6857:6858   */\n      dup3\n        /* \"#utility.yul\":6854:6855   */\n      dup3\n        /* \"#utility.yul\":6850:6859   */\n      sub\n        /* \"#utility.yul\":6842:6859   */\n      swap1\n      pop\n        /* \"#utility.yul\":6881:6882   */\n      dup2\n        /* \"#utility.yul\":6875:6879   */\n      dup2\n        /* \"#utility.yul\":6872:6883   */\n      gt\n        /* \"#utility.yul\":6869:6906   */\n      iszero\n      tag_191\n      jumpi\n        /* \"#utility.yul\":6886:6904   */\n      tag_192\n      tag_120\n      jump\t// in\n    tag_192:\n        /* \"#utility.yul\":6869:6906   */\n    tag_191:\n        /* \"#utility.yul\":6719:6913   */\n      swap3\n      swap2\n      pop\n      pop\n      jump\t// out\n        /* \"#utility.yul\":6919:7088   */\n    tag_121:\n        /* \"#utility.yul\":7059:7080   */\n      0x416c726561647920696e697469616c697a656400000000000000000000000000\n        /* \"#utility.yul\":7055:7056   */\n      0x00\n        /* \"#utility.yul\":7047:7053   */\n      dup3\n        /* \"#utility.yul\":7043:7057   */\n      add\n        /* \"#utility.yul\":7036:7081   */\n      mstore\n        /* \"#utility.yul\":6919:7088   */\n      pop\n      jump\t// out\n        /* \"#utility.yul\":7094:7460   */\n    tag_122:\n        /* \"#utility.yul\":7236:7239   */\n      0x00\n        /* \"#utility.yul\":7257:7324   */\n      tag_195\n        /* \"#utility.yul\":7321:7323   */\n      0x13\n        /* \"#utility.yul\":7316:7319   */\n      dup4\n        /* \"#utility.yul\":7257:7324   */\n      tag_113\n      jump\t// in\n    tag_195:\n        /* \"#utility.yul\":7250:7324   */\n      swap2\n      pop\n        /* \"#utility.yul\":7333:7426   */\n      tag_196\n        /* \"#utility.yul\":7422:7425   */\n      dup3\n        /* \"#utility.yul\":7333:7426   */\n      tag_121\n      jump\t// in\n    tag_196:\n        /* \"#utility.yul\":7451:7453   */\n      0x20\n        /* \"#utility.yul\":7446:7449   */\n      dup3\n        /* \"#utility.yul\":7442:7454   */\n      add\n        /* \"#utility.yul\":7435:7454   */\n      swap1\n      pop\n        /* \"#utility.yul\":7094:7460   */\n      swap2\n      swap1\n      pop\n      jump\t// out\n        /* \"#utility.yul\":7466:7885   */\n    tag_81:\n        /* \"#utility.yul\":7632:7636   */\n      0x00\n        /* \"#utility.yul\":7670:7672   */\n      0x20\n        /* \"#utility.yul\":7659:7668   */\n      dup3\n        /* \"#utility.yul\":7655:7673   */\n      add\n        /* \"#utility.yul\":7647:7673   */\n      swap1\n      pop\n        /* \"#utility.yul\":7719:7728   */\n      dup2\n        /* \"#utility.yul\":7713:7717   */\n      dup2\n        /* \"#utility.yul\":7709:7729   */\n      sub\n        /* \"#utility.yul\":7705:7706   */\n      0x00\n        /* \"#utility.yul\":7694:7703   */\n      dup4\n        /* \"#utility.yul\":7690:7707   */\n      add\n        /* \"#utility.yul\":7683:7730   */\n      mstore\n        /* \"#utility.yul\":7747:7878   */\n      tag_198\n        /* \"#utility.yul\":7873:7877   */\n      dup2\n        /* \"#utility.yul\":7747:7878   */\n      tag_122\n      jump\t// in\n    tag_198:\n        /* \"#utility.yul\":7739:7878   */\n      swap1\n      pop\n        /* \"#utility.yul\":7466:7885   */\n      swap2\n      swap1\n      pop\n      jump\t// out\n        /* \"#utility.yul\":7891:8059   */\n    tag_123:\n        /* \"#utility.yul\":8031:8051   */\n      0x41756374696f6e206e6f74206163746976650000000000000000000000000000\n        /* \"#utility.yul\":8027:8028   */\n      0x00\n        /* \"#utility.yul\":8019:8025   */\n      dup3\n        /* \"#utility.yul\":8015:8029   */\n      add\n        /* \"#utility.yul\":8008:8052   */\n      mstore\n        /* \"#utility.yul\":7891:8059   */\n      pop\n      jump\t// out\n        /* \"#utility.yul\":8065:8431   */\n    tag_124:\n        /* \"#utility.yul\":8207:8210   */\n      0x00\n        /* \"#utility.yul\":8228:8295   */\n      tag_201\n        /* \"#utility.yul\":8292:8294   */\n      0x12\n        /* \"#utility.yul\":8287:8290   */\n      dup4\n        /* \"#utility.yul\":8228:8295   */\n      tag_113\n      jump\t// in\n    tag_201:\n        /* \"#utility.yul\":8221:8295   */\n      swap2\n      pop\n        /* \"#utility.yul\":8304:8397   */\n      tag_202\n        /* \"#utility.yul\":8393:8396   */\n      dup3\n        /* \"#utility.yul\":8304:8397   */\n      tag_123\n      jump\t// in\n    tag_202:\n        /* \"#utility.yul\":8422:8424   */\n      0x20\n        /* \"#utility.yul\":8417:8420   */\n      dup3\n        /* \"#utility.yul\":8413:8425   */\n      add\n        /* \"#utility.yul\":8406:8425   */\n      swap1\n      pop\n        /* \"#utility.yul\":8065:8431   */\n      swap2\n      swap1\n      pop\n      jump\t// out\n        /* \"#utility.yul\":8437:8856   */\n    tag_85:\n        /* \"#utility.yul\":8603:8607   */\n      0x00\n        /* \"#utility.yul\":8641:8643   */\n      0x20\n        /* \"#utility.yul\":8630:8639   */\n      dup3\n        /* \"#utility.yul\":8626:8644   */\n      add\n        /* \"#utility.yul\":8618:8644   */\n      swap1\n      pop\n        /* \"#utility.yul\":8690:8699   */\n      dup2\n        /* \"#utility.yul\":8684:8688   */\n      dup2\n        /* \"#utility.yul\":8680:8700   */\n      sub\n        /* \"#utility.yul\":8676:8677   */\n      0x00\n        /* \"#utility.yul\":8665:8674   */\n      dup4\n        /* \"#utility.yul\":8661:8678   */\n      add\n        /* \"#utility.yul\":8654:8701   */\n      mstore\n        /* \"#utility.yul\":8718:8849   */\n      tag_204\n        /* \"#utility.yul\":8844:8848   */\n      dup2\n        /* \"#utility.yul\":8718:8849   */\n      tag_124\n      jump\t// in\n    tag_204:\n        /* \"#utility.yul\":8710:8849   */\n      swap1\n      pop\n        /* \"#utility.yul\":8437:8856   */\n      swap2\n      swap1\n      pop\n      jump\t// out\n        /* \"#utility.yul\":8862:9053   */\n    tag_92:\n        /* \"#utility.yul\":8902:8905   */\n      0x00\n        /* \"#utility.yul\":8921:8941   */\n      tag_206\n        /* \"#utility.yul\":8939:8940   */\n      dup3\n        /* \"#utility.yul\":8921:8941   */\n      tag_102\n      jump\t// in\n    tag_206:\n        /* \"#utility.yul\":8916:8941   */\n      swap2\n      pop\n        /* \"#utility.yul\":8955:8975   */\n      tag_207\n        /* \"#utility.yul\":8973:8974   */\n      dup4\n        /* \"#utility.yul\":8955:8975   */\n      tag_102\n      jump\t// in\n    tag_207:\n        /* \"#utility.yul\":8950:8975   */\n      swap3\n      pop\n        /* \"#utility.yul\":8998:8999   */\n      dup3\n        /* \"#utility.yul\":8995:8996   */\n      dup3\n        /* \"#utility.yul\":8991:9000   */\n      add\n        /* \"#utility.yul\":8984:9000   */\n      swap1\n      pop\n        /* \"#utility.yul\":9019:9022   */\n      dup1\n        /* \"#utility.yul\":9016:9017   */\n      dup3\n        /* \"#utility.yul\":9013:9023   */\n      gt\n        /* \"#utility.yul\":9010:9046   */\n      iszero\n      tag_208\n      jumpi\n        /* \"#utility.yul\":9026:9044   */\n      tag_209\n      tag_120\n      jump\t// in\n    tag_209:\n        /* \"#utility.yul\":9010:9046   */\n    tag_208:\n        /* \"#utility.yul\":8862:9053   */\n      swap3\n      swap2\n      pop\n      pop\n      jump\t// out\n        /* \"#utility.yul\":9059:9292   */\n    tag_98:\n        /* \"#utility.yul\":9098:9101   */\n      0x00\n        /* \"#utility.yul\":9121:9145   */\n      tag_211\n        /* \"#utility.yul\":9139:9144   */\n      dup3\n        /* \"#utility.yul\":9121:9145   */\n      tag_102\n      jump\t// in\n    tag_211:\n        /* \"#utility.yul\":9112:9145   */\n      swap2\n      pop\n        /* \"#utility.yul\":9167:9233   */\n      0xffffffffffffffffffffffffffffffffffffffffffffffffffffffffffffffff\n        /* \"#utility.yul\":9160:9165   */\n      dup3\n        /* \"#utility.yul\":9157:9234   */\n      sub\n        /* \"#utility.yul\":9154:9257   */\n      tag_212\n      jumpi\n        /* \"#utility.yul\":9237:9255   */\n      tag_213\n      tag_120\n      jump\t// in\n    tag_213:\n        /* \"#utility.yul\":9154:9257   */\n    tag_212:\n        /* \"#utility.yul\":9284:9285   */\n      0x01\n        /* \"#utility.yul\":9277:9282   */\n      dup3\n        /* \"#utility.yul\":9273:9286   */\n      add\n        /* \"#utility.yul\":9266:9286   */\n      swap1\n      pop\n        /* \"#utility.yul\":9059:9292   */\n      swap2\n      swap1\n      pop\n      jump\t// out\n\n    auxdata: 0xa26469706673582212204be5fa45cb773a334ebe5376c0e4c0f8f730a897cc7ee88b7d82416e2f3a01e264736f6c634300081a0033\n}\n",
				"bytecode": {
					"linkReferences": {},
					"object": "608060405260015f553480156012575f80fd5b50610f7e806100205f395ff3fe60806040526004361061009b575f3560e01c80638129fc1c116100635780638129fc1c146101955780639979ef45146101ab578063a7e76644146101d3578063ae9f4db2146101fd578063e2c41dbc14610239578063f5811447146102435761009b565b8063065de74c1461009f5780630c0b86ca146100c7578063155dd5ee146100f157806327e235e314610119578063571a26a014610155575b5f80fd5b3480156100aa575f80fd5b506100c560048036038101906100c09190610aeb565b610259565b005b3480156100d2575f80fd5b506100db61037a565b6040516100e89190610b25565b60405180910390f35b3480156100fc575f80fd5b5061011760048036038101906101129190610aeb565b610380565b005b348015610124575f80fd5b5061013f600480360381019061013a9190610b98565b61049a565b60405161014c9190610b25565b60405180910390f35b348015610160575f80fd5b5061017b60048036038101906101769190610aeb565b6104af565b60405161018c959493929190610bec565b60405180910390f35b3480156101a0575f80fd5b506101a961052c565b005b3480156101b6575f80fd5b506101d160048036038101906101cc9190610aeb565b610650565b005b3480156101de575f80fd5b506101e761082a565b6040516101f49190610b25565b60405180910390f35b348015610208575f80fd5b50610223600480360381019061021e9190610b98565b61082f565b6040516102309190610c3d565b60405180910390f35b61024161084c565b005b34801561024e575f80fd5b506102576108a1565b005b60025f3373ffffffffffffffffffffffffffffffffffffffff1673ffffffffffffffffffffffffffffffffffffffff1681526020019081526020015f205f9054906101000a900460ff166102e2576040517f08c379a00000000000000000000000000000000000000000000000000000000081526004016102d990610cb0565b60405180910390fd5b60035f8281526020019081526020015f2060010160149054906101000a900460ff16610343576040517f08c379a000000000000000000000000000000000000000000000000000000000815260040161033a90610d18565b60405180910390fd5b80600181905550807f1bb96dff6ab5005aff98cdc0cf176bb7d8e0423cb48e02217d35b042cec81e9f60405160405180910390a250565b60015481565b8060045f3373ffffffffffffffffffffffffffffffffffffffff1673ffffffffffffffffffffffffffffffffffffffff1681526020019081526020015f20541015610400576040517f08c379a00000000000000000000000000000000000000000000000000000000081526004016103f790610d80565b60405180910390fd5b8060045f3373ffffffffffffffffffffffffffffffffffffffff1673ffffffffffffffffffffffffffffffffffffffff1681526020019081526020015f205f82825461044c9190610dcb565b925050819055503373ffffffffffffffffffffffffffffffffffffffff166108fc8290811502906040515f60405180830381858888f19350505050158015610496573d5f803e3d5ffd5b5050565b6004602052805f5260405f205f915090505481565b6003602052805f5260405f205f91509050805f015490806001015f9054906101000a900473ffffffffffffffffffffffffffffffffffffffff16908060010160149054906101000a900460ff1690806002015490806003015f9054906101000a900473ffffffffffffffffffffffffffffffffffffffff16905085565b60025f3373ffffffffffffffffffffffffffffffffffffffff1673ffffffffffffffffffffffffffffffffffffffff1681526020019081526020015f205f9054906101000a900460ff16156105b6576040517f08c379a00000000000000000000000000000000000000000000000000000000081526004016105ad90610e48565b60405180910390fd5b600160025f3373ffffffffffffffffffffffffffffffffffffffff1673ffffffffffffffffffffffffffffffffffffffff1681526020019081526020015f205f6101000a81548160ff0219169083151502179055503373ffffffffffffffffffffffffffffffffffffffff167fdc6ed2644801b4760288d5b4c1ef80d0c3338cdc672729f2fb3157cb17419b4260405160405180910390a2565b5f60035f60015481526020019081526020015f2090508060010160149054906101000a900460ff166106b7576040517f08c379a00000000000000000000000000000000000000000000000000000000081526004016106ae90610eb0565b60405180910390fd5b8160045f3373ffffffffffffffffffffffffffffffffffffffff1673ffffffffffffffffffffffffffffffffffffffff1681526020019081526020015f20541015610737576040517f08c379a000000000000000000000000000000000000000000000000000000000815260040161072e90610d80565b60405180910390fd5b81816002018190555033816003015f6101000a81548173ffffffffffffffffffffffffffffffffffffffff021916908373ffffffffffffffffffffffffffffffffffffffff1602179055508160045f3373ffffffffffffffffffffffffffffffffffffffff1673ffffffffffffffffffffffffffffffffffffffff1681526020019081526020015f205f8282546107ce9190610dcb565b925050819055503373ffffffffffffffffffffffffffffffffffffffff166001547f0e54eff26401bf69b81b26f60bd85ef47f5d85275c1d268d84f68d6897431c478460405161081e9190610b25565b60405180910390a35050565b5f5481565b6002602052805f5260405f205f915054906101000a900460ff1681565b3460045f3373ffffffffffffffffffffffffffffffffffffffff1673ffffffffffffffffffffffffffffffffffffffff1681526020019081526020015f205f8282546108989190610ece565b92505081905550565b60025f3373ffffffffffffffffffffffffffffffffffffffff1673ffffffffffffffffffffffffffffffffffffffff1681526020019081526020015f205f9054906101000a900460ff1661092a576040517f08c379a000000000000000000000000000000000000000000000000000000000815260040161092190610cb0565b60405180910390fd5b5f805490506040518060a001604052808281526020013373ffffffffffffffffffffffffffffffffffffffff1681526020016001151581526020015f81526020015f73ffffffffffffffffffffffffffffffffffffffff1681525060035f8381526020019081526020015f205f820151815f01556020820151816001015f6101000a81548173ffffffffffffffffffffffffffffffffffffffff021916908373ffffffffffffffffffffffffffffffffffffffff16021790555060408201518160010160146101000a81548160ff021916908315150217905550606082015181600201556080820151816003015f6101000a81548173ffffffffffffffffffffffffffffffffffffffff021916908373ffffffffffffffffffffffffffffffffffffffff1602179055509050505f80815480929190610a6890610f01565b91905055503373ffffffffffffffffffffffffffffffffffffffff16817f5d551e2a2cc977fd8c530317059b4f2d9f504fb82f7dfad736f8d56679bcdfd060405160405180910390a350565b5f80fd5b5f819050919050565b610aca81610ab8565b8114610ad4575f80fd5b50565b5f81359050610ae581610ac1565b92915050565b5f60208284031215610b0057610aff610ab4565b5b5f610b0d84828501610ad7565b91505092915050565b610b1f81610ab8565b82525050565b5f602082019050610b385f830184610b16565b92915050565b5f73ffffffffffffffffffffffffffffffffffffffff82169050919050565b5f610b6782610b3e565b9050919050565b610b7781610b5d565b8114610b81575f80fd5b50565b5f81359050610b9281610b6e565b92915050565b5f60208284031215610bad57610bac610ab4565b5b5f610bba84828501610b84565b91505092915050565b610bcc81610b5d565b82525050565b5f8115159050919050565b610be681610bd2565b82525050565b5f60a082019050610bff5f830188610b16565b610c0c6020830187610bc3565b610c196040830186610bdd565b610c266060830185610b16565b610c336080830184610bc3565b9695505050505050565b5f602082019050610c505f830184610bdd565b92915050565b5f82825260208201905092915050565b7f44417070206f776e6572206e6f7420666f756e640000000000000000000000005f82015250565b5f610c9a601483610c56565b9150610ca582610c66565b602082019050919050565b5f6020820190508181035f830152610cc781610c8e565b9050919050565b7f41756374696f6e206e6f7420666f756e64206f72206e6f7420616374697665005f82015250565b5f610d02601f83610c56565b9150610d0d82610cce565b602082019050919050565b5f6020820190508181035f830152610d2f81610cf6565b9050919050565b7f496e73756666696369656e742062616c616e63650000000000000000000000005f82015250565b5f610d6a601483610c56565b9150610d7582610d36565b602082019050919050565b5f6020820190508181035f830152610d9781610d5e565b9050919050565b7f4e487b71000000000000000000000000000000000000000000000000000000005f52601160045260245ffd5b5f610dd582610ab8565b9150610de083610ab8565b9250828203905081811115610df857610df7610d9e565b5b92915050565b7f416c726561647920696e697469616c697a6564000000000000000000000000005f82015250565b5f610e32601383610c56565b9150610e3d82610dfe565b602082019050919050565b5f6020820190508181035f830152610e5f81610e26565b9050919050565b7f41756374696f6e206e6f742061637469766500000000000000000000000000005f82015250565b5f610e9a601283610c56565b9150610ea582610e66565b602082019050919050565b5f6020820190508181035f830152610ec781610e8e565b9050919050565b5f610ed882610ab8565b9150610ee383610ab8565b9250828201905080821115610efb57610efa610d9e565b5b92915050565b5f610f0b82610ab8565b91507fffffffffffffffffffffffffffffffffffffffffffffffffffffffffffffffff8203610f3d57610f3c610d9e565b5b60018201905091905056fea26469706673582212204be5fa45cb773a334ebe5376c0e4c0f8f730a897cc7ee88b7d82416e2f3a01e264736f6c634300081a0033",
					"opcodes": "PUSH1 0x80 PUSH1 0x40 MSTORE PUSH1 0x1 PUSH0 SSTORE CALLVALUE DUP1 ISZERO PUSH1 0x12 JUMPI PUSH0 DUP1 REVERT JUMPDEST POP PUSH2 0xF7E DUP1 PUSH2 0x20 PUSH0 CODECOPY PUSH0 RETURN INVALID PUSH1 0x80 PUSH1 0x40 MSTORE PUSH1 0x4 CALLDATASIZE LT PUSH2 0x9B JUMPI PUSH0 CALLDATALOAD PUSH1 0xE0 SHR DUP1 PUSH4 0x8129FC1C GT PUSH2 0x63 JUMPI DUP1 PUSH4 0x8129FC1C EQ PUSH2 0x195 JUMPI DUP1 PUSH4 0x9979EF45 EQ PUSH2 0x1AB JUMPI DUP1 PUSH4 0xA7E76644 EQ PUSH2 0x1D3 JUMPI DUP1 PUSH4 0xAE9F4DB2 EQ PUSH2 0x1FD JUMPI DUP1 PUSH4 0xE2C41DBC EQ PUSH2 0x239 JUMPI DUP1 PUSH4 0xF5811447 EQ PUSH2 0x243 JUMPI PUSH2 0x9B JUMP JUMPDEST DUP1 PUSH4 0x65DE74C EQ PUSH2 0x9F JUMPI DUP1 PUSH4 0xC0B86CA EQ PUSH2 0xC7 JUMPI DUP1 PUSH4 0x155DD5EE EQ PUSH2 0xF1 JUMPI DUP1 PUSH4 0x27E235E3 EQ PUSH2 0x119 JUMPI DUP1 PUSH4 0x571A26A0 EQ PUSH2 0x155 JUMPI JUMPDEST PUSH0 DUP1 REVERT JUMPDEST CALLVALUE DUP1 ISZERO PUSH2 0xAA JUMPI PUSH0 DUP1 REVERT JUMPDEST POP PUSH2 0xC5 PUSH1 0x4 DUP1 CALLDATASIZE SUB DUP2 ADD SWAP1 PUSH2 0xC0 SWAP2 SWAP1 PUSH2 0xAEB JUMP JUMPDEST PUSH2 0x259 JUMP JUMPDEST STOP JUMPDEST CALLVALUE DUP1 ISZERO PUSH2 0xD2 JUMPI PUSH0 DUP1 REVERT JUMPDEST POP PUSH2 0xDB PUSH2 0x37A JUMP JUMPDEST PUSH1 0x40 MLOAD PUSH2 0xE8 SWAP2 SWAP1 PUSH2 0xB25 JUMP JUMPDEST PUSH1 0x40 MLOAD DUP1 SWAP2 SUB SWAP1 RETURN JUMPDEST CALLVALUE DUP1 ISZERO PUSH2 0xFC JUMPI PUSH0 DUP1 REVERT JUMPDEST POP PUSH2 0x117 PUSH1 0x4 DUP1 CALLDATASIZE SUB DUP2 ADD SWAP1 PUSH2 0x112 SWAP2 SWAP1 PUSH2 0xAEB JUMP JUMPDEST PUSH2 0x380 JUMP JUMPDEST STOP JUMPDEST CALLVALUE DUP1 ISZERO PUSH2 0x124 JUMPI PUSH0 DUP1 REVERT JUMPDEST POP PUSH2 0x13F PUSH1 0x4 DUP1 CALLDATASIZE SUB DUP2 ADD SWAP1 PUSH2 0x13A SWAP2 SWAP1 PUSH2 0xB98 JUMP JUMPDEST PUSH2 0x49A JUMP JUMPDEST PUSH1 0x40 MLOAD PUSH2 0x14C SWAP2 SWAP1 PUSH2 0xB25 JUMP JUMPDEST PUSH1 0x40 MLOAD DUP1 SWAP2 SUB SWAP1 RETURN JUMPDEST CALLVALUE DUP1 ISZERO PUSH2 0x160 JUMPI PUSH0 DUP1 REVERT JUMPDEST POP PUSH2 0x17B PUSH1 0x4 DUP1 CALLDATASIZE SUB DUP2 ADD SWAP1 PUSH2 0x176 SWAP2 SWAP1 PUSH2 0xAEB JUMP JUMPDEST PUSH2 0x4AF JUMP JUMPDEST PUSH1 0x40 MLOAD PUSH2 0x18C SWAP6 SWAP5 SWAP4 SWAP3 SWAP2 SWAP1 PUSH2 0xBEC JUMP JUMPDEST PUSH1 0x40 MLOAD DUP1 SWAP2 SUB SWAP1 RETURN JUMPDEST CALLVALUE DUP1 ISZERO PUSH2 0x1A0 JUMPI PUSH0 DUP1 REVERT JUMPDEST POP PUSH2 0x1A9 PUSH2 0x52C JUMP JUMPDEST STOP JUMPDEST CALLVALUE DUP1 ISZERO PUSH2 0x1B6 JUMPI PUSH0 DUP1 REVERT JUMPDEST POP PUSH2 0x1D1 PUSH1 0x4 DUP1 CALLDATASIZE SUB DUP2 ADD SWAP1 PUSH2 0x1CC SWAP2 SWAP1 PUSH2 0xAEB JUMP JUMPDEST PUSH2 0x650 JUMP JUMPDEST STOP JUMPDEST CALLVALUE DUP1 ISZERO PUSH2 0x1DE JUMPI PUSH0 DUP1 REVERT JUMPDEST POP PUSH2 0x1E7 PUSH2 0x82A JUMP JUMPDEST PUSH1 0x40 MLOAD PUSH2 0x1F4 SWAP2 SWAP1 PUSH2 0xB25 JUMP JUMPDEST PUSH1 0x40 MLOAD DUP1 SWAP2 SUB SWAP1 RETURN JUMPDEST CALLVALUE DUP1 ISZERO PUSH2 0x208 JUMPI PUSH0 DUP1 REVERT JUMPDEST POP PUSH2 0x223 PUSH1 0x4 DUP1 CALLDATASIZE SUB DUP2 ADD SWAP1 PUSH2 0x21E SWAP2 SWAP1 PUSH2 0xB98 JUMP JUMPDEST PUSH2 0x82F JUMP JUMPDEST PUSH1 0x40 MLOAD PUSH2 0x230 SWAP2 SWAP1 PUSH2 0xC3D JUMP JUMPDEST PUSH1 0x40 MLOAD DUP1 SWAP2 SUB SWAP1 RETURN JUMPDEST PUSH2 0x241 PUSH2 0x84C JUMP JUMPDEST STOP JUMPDEST CALLVALUE DUP1 ISZERO PUSH2 0x24E JUMPI PUSH0 DUP1 REVERT JUMPDEST POP PUSH2 0x257 PUSH2 0x8A1 JUMP JUMPDEST STOP JUMPDEST PUSH1 0x2 PUSH0 CALLER PUSH20 0xFFFFFFFFFFFFFFFFFFFFFFFFFFFFFFFFFFFFFFFF AND PUSH20 0xFFFFFFFFFFFFFFFFFFFFFFFFFFFFFFFFFFFFFFFF AND DUP2 MSTORE PUSH1 0x20 ADD SWAP1 DUP2 MSTORE PUSH1 0x20 ADD PUSH0 KECCAK256 PUSH0 SWAP1 SLOAD SWAP1 PUSH2 0x100 EXP SWAP1 DIV PUSH1 0xFF AND PUSH2 0x2E2 JUMPI PUSH1 0x40 MLOAD PUSH32 0x8C379A000000000000000000000000000000000000000000000000000000000 DUP2 MSTORE PUSH1 0x4 ADD PUSH2 0x2D9 SWAP1 PUSH2 0xCB0 JUMP JUMPDEST PUSH1 0x40 MLOAD DUP1 SWAP2 SUB SWAP1 REVERT JUMPDEST PUSH1 0x3 PUSH0 DUP3 DUP2 MSTORE PUSH1 0x20 ADD SWAP1 DUP2 MSTORE PUSH1 0x20 ADD PUSH0 KECCAK256 PUSH1 0x1 ADD PUSH1 0x14 SWAP1 SLOAD SWAP1 PUSH2 0x100 EXP SWAP1 DIV PUSH1 0xFF AND PUSH2 0x343 JUMPI PUSH1 0x40 MLOAD PUSH32 0x8C379A000000000000000000000000000000000000000000000000000000000 DUP2 MSTORE PUSH1 0x4 ADD PUSH2 0x33A SWAP1 PUSH2 0xD18 JUMP JUMPDEST PUSH1 0x40 MLOAD DUP1 SWAP2 SUB SWAP1 REVERT JUMPDEST DUP1 PUSH1 0x1 DUP2 SWAP1 SSTORE POP DUP1 PUSH32 0x1BB96DFF6AB5005AFF98CDC0CF176BB7D8E0423CB48E02217D35B042CEC81E9F PUSH1 0x40 MLOAD PUSH1 0x40 MLOAD DUP1 SWAP2 SUB SWAP1 LOG2 POP JUMP JUMPDEST PUSH1 0x1 SLOAD DUP2 JUMP JUMPDEST DUP1 PUSH1 0x4 PUSH0 CALLER PUSH20 0xFFFFFFFFFFFFFFFFFFFFFFFFFFFFFFFFFFFFFFFF AND PUSH20 0xFFFFFFFFFFFFFFFFFFFFFFFFFFFFFFFFFFFFFFFF AND DUP2 MSTORE PUSH1 0x20 ADD SWAP1 DUP2 MSTORE PUSH1 0x20 ADD PUSH0 KECCAK256 SLOAD LT ISZERO PUSH2 0x400 JUMPI PUSH1 0x40 MLOAD PUSH32 0x8C379A000000000000000000000000000000000000000000000000000000000 DUP2 MSTORE PUSH1 0x4 ADD PUSH2 0x3F7 SWAP1 PUSH2 0xD80 JUMP JUMPDEST PUSH1 0x40 MLOAD DUP1 SWAP2 SUB SWAP1 REVERT JUMPDEST DUP1 PUSH1 0x4 PUSH0 CALLER PUSH20 0xFFFFFFFFFFFFFFFFFFFFFFFFFFFFFFFFFFFFFFFF AND PUSH20 0xFFFFFFFFFFFFFFFFFFFFFFFFFFFFFFFFFFFFFFFF AND DUP2 MSTORE PUSH1 0x20 ADD SWAP1 DUP2 MSTORE PUSH1 0x20 ADD PUSH0 KECCAK256 PUSH0 DUP3 DUP3 SLOAD PUSH2 0x44C SWAP2 SWAP1 PUSH2 0xDCB JUMP JUMPDEST SWAP3 POP POP DUP2 SWAP1 SSTORE POP CALLER PUSH20 0xFFFFFFFFFFFFFFFFFFFFFFFFFFFFFFFFFFFFFFFF AND PUSH2 0x8FC DUP3 SWAP1 DUP2 ISZERO MUL SWAP1 PUSH1 0x40 MLOAD PUSH0 PUSH1 0x40 MLOAD DUP1 DUP4 SUB DUP2 DUP6 DUP9 DUP9 CALL SWAP4 POP POP POP POP ISZERO DUP1 ISZERO PUSH2 0x496 JUMPI RETURNDATASIZE PUSH0 DUP1 RETURNDATACOPY RETURNDATASIZE PUSH0 REVERT JUMPDEST POP POP JUMP JUMPDEST PUSH1 0x4 PUSH1 0x20 MSTORE DUP1 PUSH0 MSTORE PUSH1 0x40 PUSH0 KECCAK256 PUSH0 SWAP2 POP SWAP1 POP SLOAD DUP2 JUMP JUMPDEST PUSH1 0x3 PUSH1 0x20 MSTORE DUP1 PUSH0 MSTORE PUSH1 0x40 PUSH0 KECCAK256 PUSH0 SWAP2 POP SWAP1 POP DUP1 PUSH0 ADD SLOAD SWAP1 DUP1 PUSH1 0x1 ADD PUSH0 SWAP1 SLOAD SWAP1 PUSH2 0x100 EXP SWAP1 DIV PUSH20 0xFFFFFFFFFFFFFFFFFFFFFFFFFFFFFFFFFFFFFFFF AND SWAP1 DUP1 PUSH1 0x1 ADD PUSH1 0x14 SWAP1 SLOAD SWAP1 PUSH2 0x100 EXP SWAP1 DIV PUSH1 0xFF AND SWAP1 DUP1 PUSH1 0x2 ADD SLOAD SWAP1 DUP1 PUSH1 0x3 ADD PUSH0 SWAP1 SLOAD SWAP1 PUSH2 0x100 EXP SWAP1 DIV PUSH20 0xFFFFFFFFFFFFFFFFFFFFFFFFFFFFFFFFFFFFFFFF AND SWAP1 POP DUP6 JUMP JUMPDEST PUSH1 0x2 PUSH0 CALLER PUSH20 0xFFFFFFFFFFFFFFFFFFFFFFFFFFFFFFFFFFFFFFFF AND PUSH20 0xFFFFFFFFFFFFFFFFFFFFFFFFFFFFFFFFFFFFFFFF AND DUP2 MSTORE PUSH1 0x20 ADD SWAP1 DUP2 MSTORE PUSH1 0x20 ADD PUSH0 KECCAK256 PUSH0 SWAP1 SLOAD SWAP1 PUSH2 0x100 EXP SWAP1 DIV PUSH1 0xFF AND ISZERO PUSH2 0x5B6 JUMPI PUSH1 0x40 MLOAD PUSH32 0x8C379A000000000000000000000000000000000000000000000000000000000 DUP2 MSTORE PUSH1 0x4 ADD PUSH2 0x5AD SWAP1 PUSH2 0xE48 JUMP JUMPDEST PUSH1 0x40 MLOAD DUP1 SWAP2 SUB SWAP1 REVERT JUMPDEST PUSH1 0x1 PUSH1 0x2 PUSH0 CALLER PUSH20 0xFFFFFFFFFFFFFFFFFFFFFFFFFFFFFFFFFFFFFFFF AND PUSH20 0xFFFFFFFFFFFFFFFFFFFFFFFFFFFFFFFFFFFFFFFF AND DUP2 MSTORE PUSH1 0x20 ADD SWAP1 DUP2 MSTORE PUSH1 0x20 ADD PUSH0 KECCAK256 PUSH0 PUSH2 0x100 EXP DUP2 SLOAD DUP2 PUSH1 0xFF MUL NOT AND SWAP1 DUP4 ISZERO ISZERO MUL OR SWAP1 SSTORE POP CALLER PUSH20 0xFFFFFFFFFFFFFFFFFFFFFFFFFFFFFFFFFFFFFFFF AND PUSH32 0xDC6ED2644801B4760288D5B4C1EF80D0C3338CDC672729F2FB3157CB17419B42 PUSH1 0x40 MLOAD PUSH1 0x40 MLOAD DUP1 SWAP2 SUB SWAP1 LOG2 JUMP JUMPDEST PUSH0 PUSH1 0x3 PUSH0 PUSH1 0x1 SLOAD DUP2 MSTORE PUSH1 0x20 ADD SWAP1 DUP2 MSTORE PUSH1 0x20 ADD PUSH0 KECCAK256 SWAP1 POP DUP1 PUSH1 0x1 ADD PUSH1 0x14 SWAP1 SLOAD SWAP1 PUSH2 0x100 EXP SWAP1 DIV PUSH1 0xFF AND PUSH2 0x6B7 JUMPI PUSH1 0x40 MLOAD PUSH32 0x8C379A000000000000000000000000000000000000000000000000000000000 DUP2 MSTORE PUSH1 0x4 ADD PUSH2 0x6AE SWAP1 PUSH2 0xEB0 JUMP JUMPDEST PUSH1 0x40 MLOAD DUP1 SWAP2 SUB SWAP1 REVERT JUMPDEST DUP2 PUSH1 0x4 PUSH0 CALLER PUSH20 0xFFFFFFFFFFFFFFFFFFFFFFFFFFFFFFFFFFFFFFFF AND PUSH20 0xFFFFFFFFFFFFFFFFFFFFFFFFFFFFFFFFFFFFFFFF AND DUP2 MSTORE PUSH1 0x20 ADD SWAP1 DUP2 MSTORE PUSH1 0x20 ADD PUSH0 KECCAK256 SLOAD LT ISZERO PUSH2 0x737 JUMPI PUSH1 0x40 MLOAD PUSH32 0x8C379A000000000000000000000000000000000000000000000000000000000 DUP2 MSTORE PUSH1 0x4 ADD PUSH2 0x72E SWAP1 PUSH2 0xD80 JUMP JUMPDEST PUSH1 0x40 MLOAD DUP1 SWAP2 SUB SWAP1 REVERT JUMPDEST DUP2 DUP2 PUSH1 0x2 ADD DUP2 SWAP1 SSTORE POP CALLER DUP2 PUSH1 0x3 ADD PUSH0 PUSH2 0x100 EXP DUP2 SLOAD DUP2 PUSH20 0xFFFFFFFFFFFFFFFFFFFFFFFFFFFFFFFFFFFFFFFF MUL NOT AND SWAP1 DUP4 PUSH20 0xFFFFFFFFFFFFFFFFFFFFFFFFFFFFFFFFFFFFFFFF AND MUL OR SWAP1 SSTORE POP DUP2 PUSH1 0x4 PUSH0 CALLER PUSH20 0xFFFFFFFFFFFFFFFFFFFFFFFFFFFFFFFFFFFFFFFF AND PUSH20 0xFFFFFFFFFFFFFFFFFFFFFFFFFFFFFFFFFFFFFFFF AND DUP2 MSTORE PUSH1 0x20 ADD SWAP1 DUP2 MSTORE PUSH1 0x20 ADD PUSH0 KECCAK256 PUSH0 DUP3 DUP3 SLOAD PUSH2 0x7CE SWAP2 SWAP1 PUSH2 0xDCB JUMP JUMPDEST SWAP3 POP POP DUP2 SWAP1 SSTORE POP CALLER PUSH20 0xFFFFFFFFFFFFFFFFFFFFFFFFFFFFFFFFFFFFFFFF AND PUSH1 0x1 SLOAD PUSH32 0xE54EFF26401BF69B81B26F60BD85EF47F5D85275C1D268D84F68D6897431C47 DUP5 PUSH1 0x40 MLOAD PUSH2 0x81E SWAP2 SWAP1 PUSH2 0xB25 JUMP JUMPDEST PUSH1 0x40 MLOAD DUP1 SWAP2 SUB SWAP1 LOG3 POP POP JUMP JUMPDEST PUSH0 SLOAD DUP2 JUMP JUMPDEST PUSH1 0x2 PUSH1 0x20 MSTORE DUP1 PUSH0 MSTORE PUSH1 0x40 PUSH0 KECCAK256 PUSH0 SWAP2 POP SLOAD SWAP1 PUSH2 0x100 EXP SWAP1 DIV PUSH1 0xFF AND DUP2 JUMP JUMPDEST CALLVALUE PUSH1 0x4 PUSH0 CALLER PUSH20 0xFFFFFFFFFFFFFFFFFFFFFFFFFFFFFFFFFFFFFFFF AND PUSH20 0xFFFFFFFFFFFFFFFFFFFFFFFFFFFFFFFFFFFFFFFF AND DUP2 MSTORE PUSH1 0x20 ADD SWAP1 DUP2 MSTORE PUSH1 0x20 ADD PUSH0 KECCAK256 PUSH0 DUP3 DUP3 SLOAD PUSH2 0x898 SWAP2 SWAP1 PUSH2 0xECE JUMP JUMPDEST SWAP3 POP POP DUP2 SWAP1 SSTORE POP JUMP JUMPDEST PUSH1 0x2 PUSH0 CALLER PUSH20 0xFFFFFFFFFFFFFFFFFFFFFFFFFFFFFFFFFFFFFFFF AND PUSH20 0xFFFFFFFFFFFFFFFFFFFFFFFFFFFFFFFFFFFFFFFF AND DUP2 MSTORE PUSH1 0x20 ADD SWAP1 DUP2 MSTORE PUSH1 0x20 ADD PUSH0 KECCAK256 PUSH0 SWAP1 SLOAD SWAP1 PUSH2 0x100 EXP SWAP1 DIV PUSH1 0xFF AND PUSH2 0x92A JUMPI PUSH1 0x40 MLOAD PUSH32 0x8C379A000000000000000000000000000000000000000000000000000000000 DUP2 MSTORE PUSH1 0x4 ADD PUSH2 0x921 SWAP1 PUSH2 0xCB0 JUMP JUMPDEST PUSH1 0x40 MLOAD DUP1 SWAP2 SUB SWAP1 REVERT JUMPDEST PUSH0 DUP1 SLOAD SWAP1 POP PUSH1 0x40 MLOAD DUP1 PUSH1 0xA0 ADD PUSH1 0x40 MSTORE DUP1 DUP3 DUP2 MSTORE PUSH1 0x20 ADD CALLER PUSH20 0xFFFFFFFFFFFFFFFFFFFFFFFFFFFFFFFFFFFFFFFF AND DUP2 MSTORE PUSH1 0x20 ADD PUSH1 0x1 ISZERO ISZERO DUP2 MSTORE PUSH1 0x20 ADD PUSH0 DUP2 MSTORE PUSH1 0x20 ADD PUSH0 PUSH20 0xFFFFFFFFFFFFFFFFFFFFFFFFFFFFFFFFFFFFFFFF AND DUP2 MSTORE POP PUSH1 0x3 PUSH0 DUP4 DUP2 MSTORE PUSH1 0x20 ADD SWAP1 DUP2 MSTORE PUSH1 0x20 ADD PUSH0 KECCAK256 PUSH0 DUP3 ADD MLOAD DUP2 PUSH0 ADD SSTORE PUSH1 0x20 DUP3 ADD MLOAD DUP2 PUSH1 0x1 ADD PUSH0 PUSH2 0x100 EXP DUP2 SLOAD DUP2 PUSH20 0xFFFFFFFFFFFFFFFFFFFFFFFFFFFFFFFFFFFFFFFF MUL NOT AND SWAP1 DUP4 PUSH20 0xFFFFFFFFFFFFFFFFFFFFFFFFFFFFFFFFFFFFFFFF AND MUL OR SWAP1 SSTORE POP PUSH1 0x40 DUP3 ADD MLOAD DUP2 PUSH1 0x1 ADD PUSH1 0x14 PUSH2 0x100 EXP DUP2 SLOAD DUP2 PUSH1 0xFF MUL NOT AND SWAP1 DUP4 ISZERO ISZERO MUL OR SWAP1 SSTORE POP PUSH1 0x60 DUP3 ADD MLOAD DUP2 PUSH1 0x2 ADD SSTORE PUSH1 0x80 DUP3 ADD MLOAD DUP2 PUSH1 0x3 ADD PUSH0 PUSH2 0x100 EXP DUP2 SLOAD DUP2 PUSH20 0xFFFFFFFFFFFFFFFFFFFFFFFFFFFFFFFFFFFFFFFF MUL NOT AND SWAP1 DUP4 PUSH20 0xFFFFFFFFFFFFFFFFFFFFFFFFFFFFFFFFFFFFFFFF AND MUL OR SWAP1 SSTORE POP SWAP1 POP POP PUSH0 DUP1 DUP2 SLOAD DUP1 SWAP3 SWAP2 SWAP1 PUSH2 0xA68 SWAP1 PUSH2 0xF01 JUMP JUMPDEST SWAP2 SWAP1 POP SSTORE POP CALLER PUSH20 0xFFFFFFFFFFFFFFFFFFFFFFFFFFFFFFFFFFFFFFFF AND DUP2 PUSH32 0x5D551E2A2CC977FD8C530317059B4F2D9F504FB82F7DFAD736F8D56679BCDFD0 PUSH1 0x40 MLOAD PUSH1 0x40 MLOAD DUP1 SWAP2 SUB SWAP1 LOG3 POP JUMP JUMPDEST PUSH0 DUP1 REVERT JUMPDEST PUSH0 DUP2 SWAP1 POP SWAP2 SWAP1 POP JUMP JUMPDEST PUSH2 0xACA DUP2 PUSH2 0xAB8 JUMP JUMPDEST DUP2 EQ PUSH2 0xAD4 JUMPI PUSH0 DUP1 REVERT JUMPDEST POP JUMP JUMPDEST PUSH0 DUP2 CALLDATALOAD SWAP1 POP PUSH2 0xAE5 DUP2 PUSH2 0xAC1 JUMP JUMPDEST SWAP3 SWAP2 POP POP JUMP JUMPDEST PUSH0 PUSH1 0x20 DUP3 DUP5 SUB SLT ISZERO PUSH2 0xB00 JUMPI PUSH2 0xAFF PUSH2 0xAB4 JUMP JUMPDEST JUMPDEST PUSH0 PUSH2 0xB0D DUP5 DUP3 DUP6 ADD PUSH2 0xAD7 JUMP JUMPDEST SWAP2 POP POP SWAP3 SWAP2 POP POP JUMP JUMPDEST PUSH2 0xB1F DUP2 PUSH2 0xAB8 JUMP JUMPDEST DUP3 MSTORE POP POP JUMP JUMPDEST PUSH0 PUSH1 0x20 DUP3 ADD SWAP1 POP PUSH2 0xB38 PUSH0 DUP4 ADD DUP5 PUSH2 0xB16 JUMP JUMPDEST SWAP3 SWAP2 POP POP JUMP JUMPDEST PUSH0 PUSH20 0xFFFFFFFFFFFFFFFFFFFFFFFFFFFFFFFFFFFFFFFF DUP3 AND SWAP1 POP SWAP2 SWAP1 POP JUMP JUMPDEST PUSH0 PUSH2 0xB67 DUP3 PUSH2 0xB3E JUMP JUMPDEST SWAP1 POP SWAP2 SWAP1 POP JUMP JUMPDEST PUSH2 0xB77 DUP2 PUSH2 0xB5D JUMP JUMPDEST DUP2 EQ PUSH2 0xB81 JUMPI PUSH0 DUP1 REVERT JUMPDEST POP JUMP JUMPDEST PUSH0 DUP2 CALLDATALOAD SWAP1 POP PUSH2 0xB92 DUP2 PUSH2 0xB6E JUMP JUMPDEST SWAP3 SWAP2 POP POP JUMP JUMPDEST PUSH0 PUSH1 0x20 DUP3 DUP5 SUB SLT ISZERO PUSH2 0xBAD JUMPI PUSH2 0xBAC PUSH2 0xAB4 JUMP JUMPDEST JUMPDEST PUSH0 PUSH2 0xBBA DUP5 DUP3 DUP6 ADD PUSH2 0xB84 JUMP JUMPDEST SWAP2 POP POP SWAP3 SWAP2 POP POP JUMP JUMPDEST PUSH2 0xBCC DUP2 PUSH2 0xB5D JUMP JUMPDEST DUP3 MSTORE POP POP JUMP JUMPDEST PUSH0 DUP2 ISZERO ISZERO SWAP1 POP SWAP2 SWAP1 POP JUMP JUMPDEST PUSH2 0xBE6 DUP2 PUSH2 0xBD2 JUMP JUMPDEST DUP3 MSTORE POP POP JUMP JUMPDEST PUSH0 PUSH1 0xA0 DUP3 ADD SWAP1 POP PUSH2 0xBFF PUSH0 DUP4 ADD DUP9 PUSH2 0xB16 JUMP JUMPDEST PUSH2 0xC0C PUSH1 0x20 DUP4 ADD DUP8 PUSH2 0xBC3 JUMP JUMPDEST PUSH2 0xC19 PUSH1 0x40 DUP4 ADD DUP7 PUSH2 0xBDD JUMP JUMPDEST PUSH2 0xC26 PUSH1 0x60 DUP4 ADD DUP6 PUSH2 0xB16 JUMP JUMPDEST PUSH2 0xC33 PUSH1 0x80 DUP4 ADD DUP5 PUSH2 0xBC3 JUMP JUMPDEST SWAP7 SWAP6 POP POP POP POP POP POP JUMP JUMPDEST PUSH0 PUSH1 0x20 DUP3 ADD SWAP1 POP PUSH2 0xC50 PUSH0 DUP4 ADD DUP5 PUSH2 0xBDD JUMP JUMPDEST SWAP3 SWAP2 POP POP JUMP JUMPDEST PUSH0 DUP3 DUP3 MSTORE PUSH1 0x20 DUP3 ADD SWAP1 POP SWAP3 SWAP2 POP POP JUMP JUMPDEST PUSH32 0x44417070206F776E6572206E6F7420666F756E64000000000000000000000000 PUSH0 DUP3 ADD MSTORE POP JUMP JUMPDEST PUSH0 PUSH2 0xC9A PUSH1 0x14 DUP4 PUSH2 0xC56 JUMP JUMPDEST SWAP2 POP PUSH2 0xCA5 DUP3 PUSH2 0xC66 JUMP JUMPDEST PUSH1 0x20 DUP3 ADD SWAP1 POP SWAP2 SWAP1 POP JUMP JUMPDEST PUSH0 PUSH1 0x20 DUP3 ADD SWAP1 POP DUP2 DUP2 SUB PUSH0 DUP4 ADD MSTORE PUSH2 0xCC7 DUP2 PUSH2 0xC8E JUMP JUMPDEST SWAP1 POP SWAP2 SWAP1 POP JUMP JUMPDEST PUSH32 0x41756374696F6E206E6F7420666F756E64206F72206E6F742061637469766500 PUSH0 DUP3 ADD MSTORE POP JUMP JUMPDEST PUSH0 PUSH2 0xD02 PUSH1 0x1F DUP4 PUSH2 0xC56 JUMP JUMPDEST SWAP2 POP PUSH2 0xD0D DUP3 PUSH2 0xCCE JUMP JUMPDEST PUSH1 0x20 DUP3 ADD SWAP1 POP SWAP2 SWAP1 POP JUMP JUMPDEST PUSH0 PUSH1 0x20 DUP3 ADD SWAP1 POP DUP2 DUP2 SUB PUSH0 DUP4 ADD MSTORE PUSH2 0xD2F DUP2 PUSH2 0xCF6 JUMP JUMPDEST SWAP1 POP SWAP2 SWAP1 POP JUMP JUMPDEST PUSH32 0x496E73756666696369656E742062616C616E6365000000000000000000000000 PUSH0 DUP3 ADD MSTORE POP JUMP JUMPDEST PUSH0 PUSH2 0xD6A PUSH1 0x14 DUP4 PUSH2 0xC56 JUMP JUMPDEST SWAP2 POP PUSH2 0xD75 DUP3 PUSH2 0xD36 JUMP JUMPDEST PUSH1 0x20 DUP3 ADD SWAP1 POP SWAP2 SWAP1 POP JUMP JUMPDEST PUSH0 PUSH1 0x20 DUP3 ADD SWAP1 POP DUP2 DUP2 SUB PUSH0 DUP4 ADD MSTORE PUSH2 0xD97 DUP2 PUSH2 0xD5E JUMP JUMPDEST SWAP1 POP SWAP2 SWAP1 POP JUMP JUMPDEST PUSH32 0x4E487B7100000000000000000000000000000000000000000000000000000000 PUSH0 MSTORE PUSH1 0x11 PUSH1 0x4 MSTORE PUSH1 0x24 PUSH0 REVERT JUMPDEST PUSH0 PUSH2 0xDD5 DUP3 PUSH2 0xAB8 JUMP JUMPDEST SWAP2 POP PUSH2 0xDE0 DUP4 PUSH2 0xAB8 JUMP JUMPDEST SWAP3 POP DUP3 DUP3 SUB SWAP1 POP DUP2 DUP2 GT ISZERO PUSH2 0xDF8 JUMPI PUSH2 0xDF7 PUSH2 0xD9E JUMP JUMPDEST JUMPDEST SWAP3 SWAP2 POP POP JUMP JUMPDEST PUSH32 0x416C726561647920696E697469616C697A656400000000000000000000000000 PUSH0 DUP3 ADD MSTORE POP JUMP JUMPDEST PUSH0 PUSH2 0xE32 PUSH1 0x13 DUP4 PUSH2 0xC56 JUMP JUMPDEST SWAP2 POP PUSH2 0xE3D DUP3 PUSH2 0xDFE JUMP JUMPDEST PUSH1 0x20 DUP3 ADD SWAP1 POP SWAP2 SWAP1 POP JUMP JUMPDEST PUSH0 PUSH1 0x20 DUP3 ADD SWAP1 POP DUP2 DUP2 SUB PUSH0 DUP4 ADD MSTORE PUSH2 0xE5F DUP2 PUSH2 0xE26 JUMP JUMPDEST SWAP1 POP SWAP2 SWAP1 POP JUMP JUMPDEST PUSH32 0x41756374696F6E206E6F74206163746976650000000000000000000000000000 PUSH0 DUP3 ADD MSTORE POP JUMP JUMPDEST PUSH0 PUSH2 0xE9A PUSH1 0x12 DUP4 PUSH2 0xC56 JUMP JUMPDEST SWAP2 POP PUSH2 0xEA5 DUP3 PUSH2 0xE66 JUMP JUMPDEST PUSH1 0x20 DUP3 ADD SWAP1 POP SWAP2 SWAP1 POP JUMP JUMPDEST PUSH0 PUSH1 0x20 DUP3 ADD SWAP1 POP DUP2 DUP2 SUB PUSH0 DUP4 ADD MSTORE PUSH2 0xEC7 DUP2 PUSH2 0xE8E JUMP JUMPDEST SWAP1 POP SWAP2 SWAP1 POP JUMP JUMPDEST PUSH0 PUSH2 0xED8 DUP3 PUSH2 0xAB8 JUMP JUMPDEST SWAP2 POP PUSH2 0xEE3 DUP4 PUSH2 0xAB8 JUMP JUMPDEST SWAP3 POP DUP3 DUP3 ADD SWAP1 POP DUP1 DUP3 GT ISZERO PUSH2 0xEFB JUMPI PUSH2 0xEFA PUSH2 0xD9E JUMP JUMPDEST JUMPDEST SWAP3 SWAP2 POP POP JUMP JUMPDEST PUSH0 PUSH2 0xF0B DUP3 PUSH2 0xAB8 JUMP JUMPDEST SWAP2 POP PUSH32 0xFFFFFFFFFFFFFFFFFFFFFFFFFFFFFFFFFFFFFFFFFFFFFFFFFFFFFFFFFFFFFFFF DUP3 SUB PUSH2 0xF3D JUMPI PUSH2 0xF3C PUSH2 0xD9E JUMP JUMPDEST JUMPDEST PUSH1 0x1 DUP3 ADD SWAP1 POP SWAP2 SWAP1 POP JUMP INVALID LOG2 PUSH5 0x6970667358 0x22 SLT KECCAK256 0x4B 0xE5 STATICCALL GASLIMIT 0xCB PUSH24 0x3A334EBE5376C0E4C0F8F730A897CC7EE88B7D82416E2F3A ADD 0xE2 PUSH5 0x736F6C6343 STOP ADDMOD BYTE STOP CALLER "
				},
				"gasEstimates": {
					"creation": {
						"codeDepositCost": "793200",
						"executionCost": "22928",
						"totalCost": "816128"
					},
					"external": {
						"auctionCounter()": "2468",
						"auctions(uint256)": "infinite",
						"balances(address)": "2869",
						"createAuction()": "130744",
						"currentAuctionId()": "2448",
						"dAppOwners(address)": "2899",
						"depositFunds()": "infinite",
						"initialize()": "27898",
						"placeBid(uint256)": "infinite",
						"startAuction(uint256)": "28195",
						"withdrawFunds(uint256)": "infinite"
					}
				},
				"methodIdentifiers": {
					"auctionCounter()": "a7e76644",
					"auctions(uint256)": "571a26a0",
					"balances(address)": "27e235e3",
					"createAuction()": "f5811447",
					"currentAuctionId()": "0c0b86ca",
					"dAppOwners(address)": "ae9f4db2",
					"depositFunds()": "e2c41dbc",
					"initialize()": "8129fc1c",
					"placeBid(uint256)": "9979ef45",
					"startAuction(uint256)": "065de74c",
					"withdrawFunds(uint256)": "155dd5ee"
				}
			},
			"storageLayout": {
				"storage": [
					{
						"astId": 4,
						"contract": "contracts/adslotauction.sol:AdSlotAuction",
						"label": "auctionCounter",
						"offset": 0,
						"slot": "0",
						"type": "t_uint256"
					},
					{
						"astId": 6,
						"contract": "contracts/adslotauction.sol:AdSlotAuction",
						"label": "currentAuctionId",
						"offset": 0,
						"slot": "1",
						"type": "t_uint256"
					},
					{
						"astId": 21,
						"contract": "contracts/adslotauction.sol:AdSlotAuction",
						"label": "dAppOwners",
						"offset": 0,
						"slot": "2",
						"type": "t_mapping(t_address,t_bool)"
					},
					{
						"astId": 26,
						"contract": "contracts/adslotauction.sol:AdSlotAuction",
						"label": "auctions",
						"offset": 0,
						"slot": "3",
						"type": "t_mapping(t_uint256,t_struct(Auction)17_storage)"
					},
					{
						"astId": 30,
						"contract": "contracts/adslotauction.sol:AdSlotAuction",
						"label": "balances",
						"offset": 0,
						"slot": "4",
						"type": "t_mapping(t_address,t_uint256)"
					}
				],
				"types": {
					"t_address": {
						"encoding": "inplace",
						"label": "address",
						"numberOfBytes": "20"
					},
					"t_bool": {
						"encoding": "inplace",
						"label": "bool",
						"numberOfBytes": "1"
					},
					"t_mapping(t_address,t_bool)": {
						"encoding": "mapping",
						"key": "t_address",
						"label": "mapping(address => bool)",
						"numberOfBytes": "32",
						"value": "t_bool"
					},
					"t_mapping(t_address,t_uint256)": {
						"encoding": "mapping",
						"key": "t_address",
						"label": "mapping(address => uint256)",
						"numberOfBytes": "32",
						"value": "t_uint256"
					},
					"t_mapping(t_uint256,t_struct(Auction)17_storage)": {
						"encoding": "mapping",
						"key": "t_uint256",
						"label": "mapping(uint256 => struct AdSlotAuction.Auction)",
						"numberOfBytes": "32",
						"value": "t_struct(Auction)17_storage"
					},
					"t_struct(Auction)17_storage": {
						"encoding": "inplace",
						"label": "struct AdSlotAuction.Auction",
						"members": [
							{
								"astId": 8,
								"contract": "contracts/adslotauction.sol:AdSlotAuction",
								"label": "auctionId",
								"offset": 0,
								"slot": "0",
								"type": "t_uint256"
							},
							{
								"astId": 10,
								"contract": "contracts/adslotauction.sol:AdSlotAuction",
								"label": "owner",
								"offset": 0,
								"slot": "1",
								"type": "t_address"
							},
							{
								"astId": 12,
								"contract": "contracts/adslotauction.sol:AdSlotAuction",
								"label": "isActive",
								"offset": 20,
								"slot": "1",
								"type": "t_bool"
							},
							{
								"astId": 14,
								"contract": "contracts/adslotauction.sol:AdSlotAuction",
								"label": "highestBid",
								"offset": 0,
								"slot": "2",
								"type": "t_uint256"
							},
							{
								"astId": 16,
								"contract": "contracts/adslotauction.sol:AdSlotAuction",
								"label": "highestBidder",
								"offset": 0,
								"slot": "3",
								"type": "t_address"
							}
						],
						"numberOfBytes": "128"
					},
					"t_uint256": {
						"encoding": "inplace",
						"label": "uint256",
						"numberOfBytes": "32"
					}
				}
			},
			"userdoc": {
				"kind": "user",
				"methods": {},
				"version": 1
			}
		}
	}
}