{
	"data": {
		"bytecode": {
			"linkReferences": {},
			"object": "6080604052348015600e575f80fd5b506106d28061001c5f395ff3fe608060405234801561000f575f80fd5b506004361061004a575f3560e01c80635b8010071461004e5780638129fc1c1461007e578063bec3fa1714610088578063f9a55ed6146100a4575b5f80fd5b61006860048036038101906100639190610437565b6100d4565b604051610075919061047c565b60405180910390f35b6100866100f0565b005b6100a2600480360381019061009d91906104c8565b610254565b005b6100be60048036038101906100b99190610437565b6103c4565b6040516100cb9190610515565b60405180910390f35b5f602052805f5260405f205f915054906101000a900460ff1681565b5f803373ffffffffffffffffffffffffffffffffffffffff1673ffffffffffffffffffffffffffffffffffffffff1681526020019081526020015f205f9054906101000a900460ff1615610179576040517f08c379a000000000000000000000000000000000000000000000000000000000815260040161017090610588565b60405180910390fd5b60015f803373ffffffffffffffffffffffffffffffffffffffff1673ffffffffffffffffffffffffffffffffffffffff1681526020019081526020015f205f6101000a81548160ff0219169083151502179055505f60015f3373ffffffffffffffffffffffffffffffffffffffff1673ffffffffffffffffffffffffffffffffffffffff1681526020019081526020015f20819055503373ffffffffffffffffffffffffffffffffffffffff167fdc6ed2644801b4760288d5b4c1ef80d0c3338cdc672729f2fb3157cb17419b4260405160405180910390a2565b5f803373ffffffffffffffffffffffffffffffffffffffff1673ffffffffffffffffffffffffffffffffffffffff1681526020019081526020015f205f9054906101000a900460ff166102dc576040517f08c379a00000000000000000000000000000000000000000000000000000000081526004016102d3906105f0565b60405180910390fd5b5f60015f3373ffffffffffffffffffffffffffffffffffffffff1673ffffffffffffffffffffffffffffffffffffffff1681526020019081526020015f20541161035b576040517f08c379a00000000000000000000000000000000000000000000000000000000081526004016103529061067e565b60405180910390fd5b8173ffffffffffffffffffffffffffffffffffffffff163373ffffffffffffffffffffffffffffffffffffffff167f1b89874203ff7f0bba87c969ada3f32fda22ed38a6706d35199d21280c7811b1836040516103b89190610515565b60405180910390a35050565b6001602052805f5260405f205f915090505481565b5f80fd5b5f73ffffffffffffffffffffffffffffffffffffffff82169050919050565b5f610406826103dd565b9050919050565b610416816103fc565b8114610420575f80fd5b50565b5f813590506104318161040d565b92915050565b5f6020828403121561044c5761044b6103d9565b5b5f61045984828501610423565b91505092915050565b5f8115159050919050565b61047681610462565b82525050565b5f60208201905061048f5f83018461046d565b92915050565b5f819050919050565b6104a781610495565b81146104b1575f80fd5b50565b5f813590506104c28161049e565b92915050565b5f80604083850312156104de576104dd6103d9565b5b5f6104eb85828601610423565b92505060206104fc858286016104b4565b9150509250929050565b61050f81610495565b82525050565b5f6020820190506105285f830184610506565b92915050565b5f82825260208201905092915050565b7f416c726561647920696e697469616c697a6564000000000000000000000000005f82015250565b5f61057260138361052e565b915061057d8261053e565b602082019050919050565b5f6020820190508181035f83015261059f81610566565b9050919050565b7f41647665727469736572206e6f7420666f756e640000000000000000000000005f82015250565b5f6105da60148361052e565b91506105e5826105a6565b602082019050919050565b5f6020820190508181035f830152610607816105ce565b9050919050565b7f416420736c6f74206e6f7420776f6e20627920746865206164766572746973655f8201527f7200000000000000000000000000000000000000000000000000000000000000602082015250565b5f61066860218361052e565b91506106738261060e565b604082019050919050565b5f6020820190508181035f8301526106958161065c565b905091905056fea264697066735822122080c6ebc42f6a7756ce42498640bc62bea754a6c41c4d6425d965ec9bee2f58e264736f6c634300081a0033",
			"opcodes": "PUSH1 0x80 PUSH1 0x40 MSTORE CALLVALUE DUP1 ISZERO PUSH1 0xE JUMPI PUSH0 DUP1 REVERT JUMPDEST POP PUSH2 0x6D2 DUP1 PUSH2 0x1C PUSH0 CODECOPY PUSH0 RETURN INVALID PUSH1 0x80 PUSH1 0x40 MSTORE CALLVALUE DUP1 ISZERO PUSH2 0xF JUMPI PUSH0 DUP1 REVERT JUMPDEST POP PUSH1 0x4 CALLDATASIZE LT PUSH2 0x4A JUMPI PUSH0 CALLDATALOAD PUSH1 0xE0 SHR DUP1 PUSH4 0x5B801007 EQ PUSH2 0x4E JUMPI DUP1 PUSH4 0x8129FC1C EQ PUSH2 0x7E JUMPI DUP1 PUSH4 0xBEC3FA17 EQ PUSH2 0x88 JUMPI DUP1 PUSH4 0xF9A55ED6 EQ PUSH2 0xA4 JUMPI JUMPDEST PUSH0 DUP1 REVERT JUMPDEST PUSH2 0x68 PUSH1 0x4 DUP1 CALLDATASIZE SUB DUP2 ADD SWAP1 PUSH2 0x63 SWAP2 SWAP1 PUSH2 0x437 JUMP JUMPDEST PUSH2 0xD4 JUMP JUMPDEST PUSH1 0x40 MLOAD PUSH2 0x75 SWAP2 SWAP1 PUSH2 0x47C JUMP JUMPDEST PUSH1 0x40 MLOAD DUP1 SWAP2 SUB SWAP1 RETURN JUMPDEST PUSH2 0x86 PUSH2 0xF0 JUMP JUMPDEST STOP JUMPDEST PUSH2 0xA2 PUSH1 0x4 DUP1 CALLDATASIZE SUB DUP2 ADD SWAP1 PUSH2 0x9D SWAP2 SWAP1 PUSH2 0x4C8 JUMP JUMPDEST PUSH2 0x254 JUMP JUMPDEST STOP JUMPDEST PUSH2 0xBE PUSH1 0x4 DUP1 CALLDATASIZE SUB DUP2 ADD SWAP1 PUSH2 0xB9 SWAP2 SWAP1 PUSH2 0x437 JUMP JUMPDEST PUSH2 0x3C4 JUMP JUMPDEST PUSH1 0x40 MLOAD PUSH2 0xCB SWAP2 SWAP1 PUSH2 0x515 JUMP JUMPDEST PUSH1 0x40 MLOAD DUP1 SWAP2 SUB SWAP1 RETURN JUMPDEST PUSH0 PUSH1 0x20 MSTORE DUP1 PUSH0 MSTORE PUSH1 0x40 PUSH0 KECCAK256 PUSH0 SWAP2 POP SLOAD SWAP1 PUSH2 0x100 EXP SWAP1 DIV PUSH1 0xFF AND DUP2 JUMP JUMPDEST PUSH0 DUP1 CALLER PUSH20 0xFFFFFFFFFFFFFFFFFFFFFFFFFFFFFFFFFFFFFFFF AND PUSH20 0xFFFFFFFFFFFFFFFFFFFFFFFFFFFFFFFFFFFFFFFF AND DUP2 MSTORE PUSH1 0x20 ADD SWAP1 DUP2 MSTORE PUSH1 0x20 ADD PUSH0 KECCAK256 PUSH0 SWAP1 SLOAD SWAP1 PUSH2 0x100 EXP SWAP1 DIV PUSH1 0xFF AND ISZERO PUSH2 0x179 JUMPI PUSH1 0x40 MLOAD PUSH32 0x8C379A000000000000000000000000000000000000000000000000000000000 DUP2 MSTORE PUSH1 0x4 ADD PUSH2 0x170 SWAP1 PUSH2 0x588 JUMP JUMPDEST PUSH1 0x40 MLOAD DUP1 SWAP2 SUB SWAP1 REVERT JUMPDEST PUSH1 0x1 PUSH0 DUP1 CALLER PUSH20 0xFFFFFFFFFFFFFFFFFFFFFFFFFFFFFFFFFFFFFFFF AND PUSH20 0xFFFFFFFFFFFFFFFFFFFFFFFFFFFFFFFFFFFFFFFF AND DUP2 MSTORE PUSH1 0x20 ADD SWAP1 DUP2 MSTORE PUSH1 0x20 ADD PUSH0 KECCAK256 PUSH0 PUSH2 0x100 EXP DUP2 SLOAD DUP2 PUSH1 0xFF MUL NOT AND SWAP1 DUP4 ISZERO ISZERO MUL OR SWAP1 SSTORE POP PUSH0 PUSH1 0x1 PUSH0 CALLER PUSH20 0xFFFFFFFFFFFFFFFFFFFFFFFFFFFFFFFFFFFFFFFF AND PUSH20 0xFFFFFFFFFFFFFFFFFFFFFFFFFFFFFFFFFFFFFFFF AND DUP2 MSTORE PUSH1 0x20 ADD SWAP1 DUP2 MSTORE PUSH1 0x20 ADD PUSH0 KECCAK256 DUP2 SWAP1 SSTORE POP CALLER PUSH20 0xFFFFFFFFFFFFFFFFFFFFFFFFFFFFFFFFFFFFFFFF AND PUSH32 0xDC6ED2644801B4760288D5B4C1EF80D0C3338CDC672729F2FB3157CB17419B42 PUSH1 0x40 MLOAD PUSH1 0x40 MLOAD DUP1 SWAP2 SUB SWAP1 LOG2 JUMP JUMPDEST PUSH0 DUP1 CALLER PUSH20 0xFFFFFFFFFFFFFFFFFFFFFFFFFFFFFFFFFFFFFFFF AND PUSH20 0xFFFFFFFFFFFFFFFFFFFFFFFFFFFFFFFFFFFFFFFF AND DUP2 MSTORE PUSH1 0x20 ADD SWAP1 DUP2 MSTORE PUSH1 0x20 ADD PUSH0 KECCAK256 PUSH0 SWAP1 SLOAD SWAP1 PUSH2 0x100 EXP SWAP1 DIV PUSH1 0xFF AND PUSH2 0x2DC JUMPI PUSH1 0x40 MLOAD PUSH32 0x8C379A000000000000000000000000000000000000000000000000000000000 DUP2 MSTORE PUSH1 0x4 ADD PUSH2 0x2D3 SWAP1 PUSH2 0x5F0 JUMP JUMPDEST PUSH1 0x40 MLOAD DUP1 SWAP2 SUB SWAP1 REVERT JUMPDEST PUSH0 PUSH1 0x1 PUSH0 CALLER PUSH20 0xFFFFFFFFFFFFFFFFFFFFFFFFFFFFFFFFFFFFFFFF AND PUSH20 0xFFFFFFFFFFFFFFFFFFFFFFFFFFFFFFFFFFFFFFFF AND DUP2 MSTORE PUSH1 0x20 ADD SWAP1 DUP2 MSTORE PUSH1 0x20 ADD PUSH0 KECCAK256 SLOAD GT PUSH2 0x35B JUMPI PUSH1 0x40 MLOAD PUSH32 0x8C379A000000000000000000000000000000000000000000000000000000000 DUP2 MSTORE PUSH1 0x4 ADD PUSH2 0x352 SWAP1 PUSH2 0x67E JUMP JUMPDEST PUSH1 0x40 MLOAD DUP1 SWAP2 SUB SWAP1 REVERT JUMPDEST DUP2 PUSH20 0xFFFFFFFFFFFFFFFFFFFFFFFFFFFFFFFFFFFFFFFF AND CALLER PUSH20 0xFFFFFFFFFFFFFFFFFFFFFFFFFFFFFFFFFFFFFFFF AND PUSH32 0x1B89874203FF7F0BBA87C969ADA3F32FDA22ED38A6706D35199D21280C7811B1 DUP4 PUSH1 0x40 MLOAD PUSH2 0x3B8 SWAP2 SWAP1 PUSH2 0x515 JUMP JUMPDEST PUSH1 0x40 MLOAD DUP1 SWAP2 SUB SWAP1 LOG3 POP POP JUMP JUMPDEST PUSH1 0x1 PUSH1 0x20 MSTORE DUP1 PUSH0 MSTORE PUSH1 0x40 PUSH0 KECCAK256 PUSH0 SWAP2 POP SWAP1 POP SLOAD DUP2 JUMP JUMPDEST PUSH0 DUP1 REVERT JUMPDEST PUSH0 PUSH20 0xFFFFFFFFFFFFFFFFFFFFFFFFFFFFFFFFFFFFFFFF DUP3 AND SWAP1 POP SWAP2 SWAP1 POP JUMP JUMPDEST PUSH0 PUSH2 0x406 DUP3 PUSH2 0x3DD JUMP JUMPDEST SWAP1 POP SWAP2 SWAP1 POP JUMP JUMPDEST PUSH2 0x416 DUP2 PUSH2 0x3FC JUMP JUMPDEST DUP2 EQ PUSH2 0x420 JUMPI PUSH0 DUP1 REVERT JUMPDEST POP JUMP JUMPDEST PUSH0 DUP2 CALLDATALOAD SWAP1 POP PUSH2 0x431 DUP2 PUSH2 0x40D JUMP JUMPDEST SWAP3 SWAP2 POP POP JUMP JUMPDEST PUSH0 PUSH1 0x20 DUP3 DUP5 SUB SLT ISZERO PUSH2 0x44C JUMPI PUSH2 0x44B PUSH2 0x3D9 JUMP JUMPDEST JUMPDEST PUSH0 PUSH2 0x459 DUP5 DUP3 DUP6 ADD PUSH2 0x423 JUMP JUMPDEST SWAP2 POP POP SWAP3 SWAP2 POP POP JUMP JUMPDEST PUSH0 DUP2 ISZERO ISZERO SWAP1 POP SWAP2 SWAP1 POP JUMP JUMPDEST PUSH2 0x476 DUP2 PUSH2 0x462 JUMP JUMPDEST DUP3 MSTORE POP POP JUMP JUMPDEST PUSH0 PUSH1 0x20 DUP3 ADD SWAP1 POP PUSH2 0x48F PUSH0 DUP4 ADD DUP5 PUSH2 0x46D JUMP JUMPDEST SWAP3 SWAP2 POP POP JUMP JUMPDEST PUSH0 DUP2 SWAP1 POP SWAP2 SWAP1 POP JUMP JUMPDEST PUSH2 0x4A7 DUP2 PUSH2 0x495 JUMP JUMPDEST DUP2 EQ PUSH2 0x4B1 JUMPI PUSH0 DUP1 REVERT JUMPDEST POP JUMP JUMPDEST PUSH0 DUP2 CALLDATALOAD SWAP1 POP PUSH2 0x4C2 DUP2 PUSH2 0x49E JUMP JUMPDEST SWAP3 SWAP2 POP POP JUMP JUMPDEST PUSH0 DUP1 PUSH1 0x40 DUP4 DUP6 SUB SLT ISZERO PUSH2 0x4DE JUMPI PUSH2 0x4DD PUSH2 0x3D9 JUMP JUMPDEST JUMPDEST PUSH0 PUSH2 0x4EB DUP6 DUP3 DUP7 ADD PUSH2 0x423 JUMP JUMPDEST SWAP3 POP POP PUSH1 0x20 PUSH2 0x4FC DUP6 DUP3 DUP7 ADD PUSH2 0x4B4 JUMP JUMPDEST SWAP2 POP POP SWAP3 POP SWAP3 SWAP1 POP JUMP JUMPDEST PUSH2 0x50F DUP2 PUSH2 0x495 JUMP JUMPDEST DUP3 MSTORE POP POP JUMP JUMPDEST PUSH0 PUSH1 0x20 DUP3 ADD SWAP1 POP PUSH2 0x528 PUSH0 DUP4 ADD DUP5 PUSH2 0x506 JUMP JUMPDEST SWAP3 SWAP2 POP POP JUMP JUMPDEST PUSH0 DUP3 DUP3 MSTORE PUSH1 0x20 DUP3 ADD SWAP1 POP SWAP3 SWAP2 POP POP JUMP JUMPDEST PUSH32 0x416C726561647920696E697469616C697A656400000000000000000000000000 PUSH0 DUP3 ADD MSTORE POP JUMP JUMPDEST PUSH0 PUSH2 0x572 PUSH1 0x13 DUP4 PUSH2 0x52E JUMP JUMPDEST SWAP2 POP PUSH2 0x57D DUP3 PUSH2 0x53E JUMP JUMPDEST PUSH1 0x20 DUP3 ADD SWAP1 POP SWAP2 SWAP1 POP JUMP JUMPDEST PUSH0 PUSH1 0x20 DUP3 ADD SWAP1 POP DUP2 DUP2 SUB PUSH0 DUP4 ADD MSTORE PUSH2 0x59F DUP2 PUSH2 0x566 JUMP JUMPDEST SWAP1 POP SWAP2 SWAP1 POP JUMP JUMPDEST PUSH32 0x41647665727469736572206E6F7420666F756E64000000000000000000000000 PUSH0 DUP3 ADD MSTORE POP JUMP JUMPDEST PUSH0 PUSH2 0x5DA PUSH1 0x14 DUP4 PUSH2 0x52E JUMP JUMPDEST SWAP2 POP PUSH2 0x5E5 DUP3 PUSH2 0x5A6 JUMP JUMPDEST PUSH1 0x20 DUP3 ADD SWAP1 POP SWAP2 SWAP1 POP JUMP JUMPDEST PUSH0 PUSH1 0x20 DUP3 ADD SWAP1 POP DUP2 DUP2 SUB PUSH0 DUP4 ADD MSTORE PUSH2 0x607 DUP2 PUSH2 0x5CE JUMP JUMPDEST SWAP1 POP SWAP2 SWAP1 POP JUMP JUMPDEST PUSH32 0x416420736C6F74206E6F7420776F6E2062792074686520616476657274697365 PUSH0 DUP3 ADD MSTORE PUSH32 0x7200000000000000000000000000000000000000000000000000000000000000 PUSH1 0x20 DUP3 ADD MSTORE POP JUMP JUMPDEST PUSH0 PUSH2 0x668 PUSH1 0x21 DUP4 PUSH2 0x52E JUMP JUMPDEST SWAP2 POP PUSH2 0x673 DUP3 PUSH2 0x60E JUMP JUMPDEST PUSH1 0x40 DUP3 ADD SWAP1 POP SWAP2 SWAP1 POP JUMP JUMPDEST PUSH0 PUSH1 0x20 DUP3 ADD SWAP1 POP DUP2 DUP2 SUB PUSH0 DUP4 ADD MSTORE PUSH2 0x695 DUP2 PUSH2 0x65C JUMP JUMPDEST SWAP1 POP SWAP2 SWAP1 POP JUMP INVALID LOG2 PUSH5 0x6970667358 0x22 SLT KECCAK256 DUP1 0xC6 0xEB 0xC4 0x2F PUSH11 0x7756CE42498640BC62BEA7 SLOAD 0xA6 0xC4 SHR 0x4D PUSH5 0x25D965EC9B 0xEE 0x2F PC 0xE2 PUSH5 0x736F6C6343 STOP ADDMOD BYTE STOP CALLER "
		},
		"gasEstimates": {
			"creation": {
				"codeDepositCost": "349200",
				"executionCost": "384",
				"totalCost": "349584"
			},
			"external": {
				"adSlotAuctions(address)": "2846",
				"advertisers(address)": "2810",
				"initialize()": "32998",
				"transferTokens(address,uint256)": "infinite"
			}
		},
		"methodIdentifiers": {
			"adSlotAuctions(address)": "f9a55ed6",
			"advertisers(address)": "5b801007",
			"initialize()": "8129fc1c",
			"transferTokens(address,uint256)": "bec3fa17"
		}
	},
	"abi": [
		{
			"anonymous": false,
			"inputs": [
				{
					"indexed": true,
					"internalType": "address",
					"name": "advertiser",
					"type": "address"
				}
			],
			"name": "InitializationCompleted",
			"type": "event"
		},
		{
			"anonymous": false,
			"inputs": [
				{
					"indexed": true,
					"internalType": "address",
					"name": "advertiser",
					"type": "address"
				},
				{
					"indexed": true,
					"internalType": "address",
					"name": "dAppOwner",
					"type": "address"
				},
				{
					"indexed": false,
					"internalType": "uint256",
					"name": "amount",
					"type": "uint256"
				}
			],
			"name": "TokensTransferred",
			"type": "event"
		},
		{
			"inputs": [
				{
					"internalType": "address",
					"name": "",
					"type": "address"
				}
			],
			"name": "adSlotAuctions",
			"outputs": [
				{
					"internalType": "uint256",
					"name": "",
					"type": "uint256"
				}
			],
			"stateMutability": "view",
			"type": "function"
		},
		{
			"inputs": [
				{
					"internalType": "address",
					"name": "",
					"type": "address"
				}
			],
			"name": "advertisers",
			"outputs": [
				{
					"internalType": "bool",
					"name": "",
					"type": "bool"
				}
			],
			"stateMutability": "view",
			"type": "function"
		},
		{
			"inputs": [],
			"name": "initialize",
			"outputs": [],
			"stateMutability": "nonpayable",
			"type": "function"
		},
		{
			"inputs": [
				{
					"internalType": "address",
					"name": "dAppOwner",
					"type": "address"
				},
				{
					"internalType": "uint256",
					"name": "amount",
					"type": "uint256"
				}
			],
			"name": "transferTokens",
			"outputs": [],
			"stateMutability": "nonpayable",
			"type": "function"
		}
	]
}